{
  "contractName": "FeeDistributor",
  "abi": [
    {
      "inputs": [
        {
          "internalType": "address",
          "name": "_rewardsReceiver",
          "type": "address"
        },
        {
          "internalType": "address",
          "name": "_feeHolder",
          "type": "address"
        },
        {
          "internalType": "address",
          "name": "_schedulerAddress",
          "type": "address"
        },
        {
          "internalType": "address",
          "name": "_wElaAddress",
          "type": "address"
        }
      ],
      "stateMutability": "nonpayable",
      "type": "constructor"
    },
    {
      "anonymous": false,
      "inputs": [
        {
          "indexed": true,
          "internalType": "address",
          "name": "previousOwner",
          "type": "address"
        },
        {
          "indexed": true,
          "internalType": "address",
          "name": "newOwner",
          "type": "address"
        }
      ],
      "name": "OwnershipTransferred",
      "type": "event"
    },
    {
      "anonymous": false,
      "inputs": [
        {
          "indexed": true,
          "internalType": "address",
          "name": "user",
          "type": "address"
        },
        {
          "indexed": true,
          "internalType": "address",
          "name": "token",
          "type": "address"
        },
        {
          "indexed": false,
          "internalType": "uint256",
          "name": "amount",
          "type": "uint256"
        }
      ],
      "name": "RescueTokens",
      "type": "event"
    },
    {
      "anonymous": false,
      "inputs": [
        {
          "indexed": true,
          "internalType": "address",
          "name": "user",
          "type": "address"
        },
        {
          "indexed": false,
          "internalType": "address",
          "name": "newAddr",
          "type": "address"
        }
      ],
      "name": "SetSchedulerAddress",
      "type": "event"
    },
    {
      "anonymous": false,
      "inputs": [
        {
          "indexed": true,
          "internalType": "address",
          "name": "user",
          "type": "address"
        },
        {
          "indexed": false,
          "internalType": "address",
          "name": "rewardsReceiver",
          "type": "address"
        },
        {
          "indexed": false,
          "internalType": "address",
          "name": "feeHolder",
          "type": "address"
        }
      ],
      "name": "UpdateFeeReceivers",
      "type": "event"
    },
    {
      "anonymous": false,
      "inputs": [
        {
          "indexed": true,
          "internalType": "address",
          "name": "user",
          "type": "address"
        },
        {
          "indexed": false,
          "internalType": "uint256",
          "name": "platformShareBP",
          "type": "uint256"
        }
      ],
      "name": "UpdateFeeSettings",
      "type": "event"
    },
    {
      "inputs": [],
      "name": "feeHolder",
      "outputs": [
        {
          "internalType": "address",
          "name": "",
          "type": "address"
        }
      ],
      "stateMutability": "view",
      "type": "function"
    },
    {
      "inputs": [],
      "name": "owner",
      "outputs": [
        {
          "internalType": "address",
          "name": "",
          "type": "address"
        }
      ],
      "stateMutability": "view",
      "type": "function"
    },
    {
      "inputs": [],
      "name": "platformShareBP",
      "outputs": [
        {
          "internalType": "uint256",
          "name": "",
          "type": "uint256"
        }
      ],
      "stateMutability": "view",
      "type": "function"
    },
    {
      "inputs": [],
      "name": "renounceOwnership",
      "outputs": [],
      "stateMutability": "nonpayable",
      "type": "function"
    },
    {
      "inputs": [],
      "name": "rewardsReceiver",
      "outputs": [
        {
          "internalType": "address",
          "name": "",
          "type": "address"
        }
      ],
      "stateMutability": "view",
      "type": "function"
    },
    {
      "inputs": [],
      "name": "schedulerAddress",
      "outputs": [
        {
          "internalType": "address",
          "name": "",
          "type": "address"
        }
      ],
      "stateMutability": "view",
      "type": "function"
    },
    {
      "inputs": [
        {
          "internalType": "address",
          "name": "newOwner",
          "type": "address"
        }
      ],
      "name": "transferOwnership",
      "outputs": [],
      "stateMutability": "nonpayable",
      "type": "function"
    },
    {
      "inputs": [],
      "name": "wElaAddress",
      "outputs": [
        {
          "internalType": "address",
          "name": "",
          "type": "address"
        }
      ],
      "stateMutability": "view",
      "type": "function"
    },
    {
      "inputs": [
        {
          "internalType": "address",
          "name": "router",
          "type": "address"
        },
        {
          "internalType": "address",
          "name": "lpToken",
          "type": "address"
        }
      ],
      "name": "removeLiquidity",
      "outputs": [],
      "stateMutability": "nonpayable",
      "type": "function"
    },
    {
      "inputs": [
        {
          "internalType": "address",
          "name": "router",
          "type": "address"
        },
        {
          "internalType": "address",
          "name": "inputToken",
          "type": "address"
        },
        {
          "internalType": "address",
          "name": "outputToken",
          "type": "address"
        },
        {
          "internalType": "address[]",
          "name": "path",
          "type": "address[]"
        }
      ],
      "name": "sellTokens",
      "outputs": [],
      "stateMutability": "nonpayable",
      "type": "function"
    },
    {
      "inputs": [],
      "name": "distributeFees",
      "outputs": [],
      "stateMutability": "nonpayable",
      "type": "function"
    },
    {
      "inputs": [
        {
          "internalType": "address",
          "name": "token",
          "type": "address"
        }
      ],
      "name": "rescueToken",
      "outputs": [],
      "stateMutability": "nonpayable",
      "type": "function"
    },
    {
      "inputs": [
        {
          "internalType": "uint256",
          "name": "_platformShareBP",
          "type": "uint256"
        }
      ],
      "name": "updateFeeSettings",
      "outputs": [],
      "stateMutability": "nonpayable",
      "type": "function"
    },
    {
      "inputs": [
        {
          "internalType": "address",
          "name": "_rewardsReceiver",
          "type": "address"
        },
        {
          "internalType": "address",
          "name": "_feeHolder",
          "type": "address"
        }
      ],
      "name": "updateFeeReceivers",
      "outputs": [],
      "stateMutability": "nonpayable",
      "type": "function"
    },
    {
      "inputs": [
        {
          "internalType": "address",
          "name": "newAddr",
          "type": "address"
        }
      ],
      "name": "setSchedulerAddr",
      "outputs": [],
      "stateMutability": "nonpayable",
      "type": "function"
    }
  ],
  "bytecode": "0x608060405234801561001057600080fd5b5060405162002ca838038062002ca88339818101604052608081101561003557600080fd5b8101908080519060200190929190805190602001909291908051906020019092919080519060200190929190505050600061007461021f60201b60201c565b9050806000806101000a81548173ffffffffffffffffffffffffffffffffffffffff021916908373ffffffffffffffffffffffffffffffffffffffff1602179055508073ffffffffffffffffffffffffffffffffffffffff16600073ffffffffffffffffffffffffffffffffffffffff167f8be0079c531659141344cd1fd0a4f28419497f9722a3daafe3b4186f6b6457e060405160405180910390a35083600260006101000a81548173ffffffffffffffffffffffffffffffffffffffff021916908373ffffffffffffffffffffffffffffffffffffffff16021790555082600360006101000a81548173ffffffffffffffffffffffffffffffffffffffff021916908373ffffffffffffffffffffffffffffffffffffffff16021790555081600460006101000a81548173ffffffffffffffffffffffffffffffffffffffff021916908373ffffffffffffffffffffffffffffffffffffffff16021790555080600560006101000a81548173ffffffffffffffffffffffffffffffffffffffff021916908373ffffffffffffffffffffffffffffffffffffffff16021790555050505050610227565b600033905090565b612a7180620002376000396000f3fe608060405234801561001057600080fd5b50600436106100f55760003560e01c80639cf38f7c11610097578063cc6be5e411610066578063cc6be5e4146103fa578063d72361591461042e578063f2fde38b14610492578063fca11cb8146104d6576100f5565b80639cf38f7c1461033a578063ae45850b1461039e578063bb57ad20146103d2578063c0d46b91146103dc576100f5565b8063715018a6116100d3578063715018a6146101b0578063717815de146101ba5780637a2829d2146101ee5780638da5cb5b14610306576100f5565b8063208995cf146100fa57806343abd319146101285780634460d3cf1461016c575b600080fd5b6101266004803603602081101561011057600080fd5b810190808035906020019092919050505061050a565b005b61016a6004803603602081101561013e57600080fd5b81019080803573ffffffffffffffffffffffffffffffffffffffff16906020019092919050505061062c565b005b6101ae6004803603602081101561018257600080fd5b81019080803573ffffffffffffffffffffffffffffffffffffffff1690602001909291905050506107d4565b005b6101b86109f8565b005b6101c2610b7e565b604051808273ffffffffffffffffffffffffffffffffffffffff16815260200191505060405180910390f35b6103046004803603608081101561020457600080fd5b81019080803573ffffffffffffffffffffffffffffffffffffffff169060200190929190803573ffffffffffffffffffffffffffffffffffffffff169060200190929190803573ffffffffffffffffffffffffffffffffffffffff1690602001909291908035906020019064010000000081111561028157600080fd5b82018360208201111561029357600080fd5b803590602001918460208302840111640100000000831117156102b557600080fd5b919080806020026020016040519081016040528093929190818152602001838360200280828437600081840152601f19601f820116905080830192505050505050509192919290505050610ba4565b005b61030e610d5f565b604051808273ffffffffffffffffffffffffffffffffffffffff16815260200191505060405180910390f35b61039c6004803603604081101561035057600080fd5b81019080803573ffffffffffffffffffffffffffffffffffffffff169060200190929190803573ffffffffffffffffffffffffffffffffffffffff169060200190929190505050610d88565b005b6103a6610f40565b604051808273ffffffffffffffffffffffffffffffffffffffff16815260200191505060405180910390f35b6103da610f66565b005b6103e461129f565b6040518082815260200191505060405180910390f35b6104026112a5565b604051808273ffffffffffffffffffffffffffffffffffffffff16815260200191505060405180910390f35b6104906004803603604081101561044457600080fd5b81019080803573ffffffffffffffffffffffffffffffffffffffff169060200190929190803573ffffffffffffffffffffffffffffffffffffffff1690602001909291905050506112cb565b005b6104d4600480360360208110156104a857600080fd5b81019080803573ffffffffffffffffffffffffffffffffffffffff1690602001909291905050506114df565b005b6104de6116ea565b604051808273ffffffffffffffffffffffffffffffffffffffff16815260200191505060405180910390f35b610512611710565b73ffffffffffffffffffffffffffffffffffffffff1660008054906101000a900473ffffffffffffffffffffffffffffffffffffffff1673ffffffffffffffffffffffffffffffffffffffff16146105d2576040517f08c379a00000000000000000000000000000000000000000000000000000000081526004018080602001828103825260208152602001807f4f776e61626c653a2063616c6c6572206973206e6f7420746865206f776e657281525060200191505060405180910390fd5b806001819055503373ffffffffffffffffffffffffffffffffffffffff167f4707e55f0a09c2af9ce22cf5f17b652615a810a1ea25f650cb18276dee658d6e6001546040518082815260200191505060405180910390a250565b600460009054906101000a900473ffffffffffffffffffffffffffffffffffffffff1673ffffffffffffffffffffffffffffffffffffffff163373ffffffffffffffffffffffffffffffffffffffff1614806106ba575061068b610d5f565b73ffffffffffffffffffffffffffffffffffffffff163373ffffffffffffffffffffffffffffffffffffffff16145b61072c576040517f08c379a00000000000000000000000000000000000000000000000000000000081526004018080602001828103825260158152602001807f6f6e6c7941646d696e733a20464f5242494444454e000000000000000000000081525060200191505060405180910390fd5b80600460006101000a81548173ffffffffffffffffffffffffffffffffffffffff021916908373ffffffffffffffffffffffffffffffffffffffff1602179055503373ffffffffffffffffffffffffffffffffffffffff167f3286106f3d6ecbfd95574eec1ebdfd0640a1d7bfea3ac1ef867907e32830ec3f82604051808273ffffffffffffffffffffffffffffffffffffffff16815260200191505060405180910390a250565b6107dc611710565b73ffffffffffffffffffffffffffffffffffffffff1660008054906101000a900473ffffffffffffffffffffffffffffffffffffffff1673ffffffffffffffffffffffffffffffffffffffff161461089c576040517f08c379a00000000000000000000000000000000000000000000000000000000081526004018080602001828103825260208152602001807f4f776e61626c653a2063616c6c6572206973206e6f7420746865206f776e657281525060200191505060405180910390fd5b60008173ffffffffffffffffffffffffffffffffffffffff166370a08231306040518263ffffffff1660e01b8152600401808273ffffffffffffffffffffffffffffffffffffffff16815260200191505060206040518083038186803b15801561090557600080fd5b505afa158015610919573d6000803e3d6000fd5b505050506040513d602081101561092f57600080fd5b8101908080519060200190929190505050905061098f600360009054906101000a900473ffffffffffffffffffffffffffffffffffffffff16828473ffffffffffffffffffffffffffffffffffffffff166117189092919063ffffffff16565b8173ffffffffffffffffffffffffffffffffffffffff163373ffffffffffffffffffffffffffffffffffffffff167f0de377c3f3362540c047602ad996510f81ec5d84f9ad151c7b6ebecce8ea6b7b836040518082815260200191505060405180910390a35050565b610a00611710565b73ffffffffffffffffffffffffffffffffffffffff1660008054906101000a900473ffffffffffffffffffffffffffffffffffffffff1673ffffffffffffffffffffffffffffffffffffffff1614610ac0576040517f08c379a00000000000000000000000000000000000000000000000000000000081526004018080602001828103825260208152602001807f4f776e61626c653a2063616c6c6572206973206e6f7420746865206f776e657281525060200191505060405180910390fd5b600073ffffffffffffffffffffffffffffffffffffffff1660008054906101000a900473ffffffffffffffffffffffffffffffffffffffff1673ffffffffffffffffffffffffffffffffffffffff167f8be0079c531659141344cd1fd0a4f28419497f9722a3daafe3b4186f6b6457e060405160405180910390a360008060006101000a81548173ffffffffffffffffffffffffffffffffffffffff021916908373ffffffffffffffffffffffffffffffffffffffff160217905550565b600560009054906101000a900473ffffffffffffffffffffffffffffffffffffffff1681565b600460009054906101000a900473ffffffffffffffffffffffffffffffffffffffff1673ffffffffffffffffffffffffffffffffffffffff163373ffffffffffffffffffffffffffffffffffffffff161480610c325750610c03610d5f565b73ffffffffffffffffffffffffffffffffffffffff163373ffffffffffffffffffffffffffffffffffffffff16145b610ca4576040517f08c379a00000000000000000000000000000000000000000000000000000000081526004018080602001828103825260158152602001807f6f6e6c7941646d696e733a20464f5242494444454e000000000000000000000081525060200191505060405180910390fd5b60008373ffffffffffffffffffffffffffffffffffffffff166370a08231306040518263ffffffff1660e01b8152600401808273ffffffffffffffffffffffffffffffffffffffff16815260200191505060206040518083038186803b158015610d0d57600080fd5b505afa158015610d21573d6000803e3d6000fd5b505050506040513d6020811015610d3757600080fd5b81019080805190602001909291905050509050610d5785828686866117ba565b505050505050565b60008060009054906101000a900473ffffffffffffffffffffffffffffffffffffffff16905090565b600460009054906101000a900473ffffffffffffffffffffffffffffffffffffffff1673ffffffffffffffffffffffffffffffffffffffff163373ffffffffffffffffffffffffffffffffffffffff161480610e165750610de7610d5f565b73ffffffffffffffffffffffffffffffffffffffff163373ffffffffffffffffffffffffffffffffffffffff16145b610e88576040517f08c379a00000000000000000000000000000000000000000000000000000000081526004018080602001828103825260158152602001807f6f6e6c7941646d696e733a20464f5242494444454e000000000000000000000081525060200191505060405180910390fd5b60008173ffffffffffffffffffffffffffffffffffffffff166370a08231306040518263ffffffff1660e01b8152600401808273ffffffffffffffffffffffffffffffffffffffff16815260200191505060206040518083038186803b158015610ef157600080fd5b505afa158015610f05573d6000803e3d6000fd5b505050506040513d6020811015610f1b57600080fd5b81019080805190602001909291905050509050610f39838383611d7b565b5050505050565b600460009054906101000a900473ffffffffffffffffffffffffffffffffffffffff1681565b600460009054906101000a900473ffffffffffffffffffffffffffffffffffffffff1673ffffffffffffffffffffffffffffffffffffffff163373ffffffffffffffffffffffffffffffffffffffff161480610ff45750610fc5610d5f565b73ffffffffffffffffffffffffffffffffffffffff163373ffffffffffffffffffffffffffffffffffffffff16145b611066576040517f08c379a00000000000000000000000000000000000000000000000000000000081526004018080602001828103825260158152602001807f6f6e6c7941646d696e733a20464f5242494444454e000000000000000000000081525060200191505060405180910390fd5b6000600560009054906101000a900473ffffffffffffffffffffffffffffffffffffffff1673ffffffffffffffffffffffffffffffffffffffff166370a08231306040518263ffffffff1660e01b8152600401808273ffffffffffffffffffffffffffffffffffffffff16815260200191505060206040518083038186803b1580156110f157600080fd5b505afa158015611105573d6000803e3d6000fd5b505050506040513d602081101561111b57600080fd5b81019080805190602001909291905050509050600061115961271061114b60015485611fdd90919063ffffffff16565b61206390919063ffffffff16565b9050600061117082846120ad90919063ffffffff16565b90506111e1600260009054906101000a900473ffffffffffffffffffffffffffffffffffffffff1682600560009054906101000a900473ffffffffffffffffffffffffffffffffffffffff1673ffffffffffffffffffffffffffffffffffffffff166120f79092919063ffffffff16565b600260009054906101000a900473ffffffffffffffffffffffffffffffffffffffff1673ffffffffffffffffffffffffffffffffffffffff166384ed8c56826040518263ffffffff1660e01b815260040180828152602001915050600060405180830381600087803b15801561125657600080fd5b505af115801561126a573d6000803e3d6000fd5b5050505061129a600360009054906101000a900473ffffffffffffffffffffffffffffffffffffffff1683612270565b505050565b60015481565b600360009054906101000a900473ffffffffffffffffffffffffffffffffffffffff1681565b6112d3611710565b73ffffffffffffffffffffffffffffffffffffffff1660008054906101000a900473ffffffffffffffffffffffffffffffffffffffff1673ffffffffffffffffffffffffffffffffffffffff1614611393576040517f08c379a00000000000000000000000000000000000000000000000000000000081526004018080602001828103825260208152602001807f4f776e61626c653a2063616c6c6572206973206e6f7420746865206f776e657281525060200191505060405180910390fd5b81600260006101000a81548173ffffffffffffffffffffffffffffffffffffffff021916908373ffffffffffffffffffffffffffffffffffffffff16021790555080600360006101000a81548173ffffffffffffffffffffffffffffffffffffffff021916908373ffffffffffffffffffffffffffffffffffffffff1602179055503373ffffffffffffffffffffffffffffffffffffffff167fe21787ff2af43740120359435dbc79c3d7431032c8974862cbc5c8dbaa207fe6600260009054906101000a900473ffffffffffffffffffffffffffffffffffffffff16600360009054906101000a900473ffffffffffffffffffffffffffffffffffffffff16604051808373ffffffffffffffffffffffffffffffffffffffff1681526020018273ffffffffffffffffffffffffffffffffffffffff1681526020019250505060405180910390a25050565b6114e7611710565b73ffffffffffffffffffffffffffffffffffffffff1660008054906101000a900473ffffffffffffffffffffffffffffffffffffffff1673ffffffffffffffffffffffffffffffffffffffff16146115a7576040517f08c379a00000000000000000000000000000000000000000000000000000000081526004018080602001828103825260208152602001807f4f776e61626c653a2063616c6c6572206973206e6f7420746865206f776e657281525060200191505060405180910390fd5b600073ffffffffffffffffffffffffffffffffffffffff168173ffffffffffffffffffffffffffffffffffffffff16141561162d576040517f08c379a00000000000000000000000000000000000000000000000000000000081526004018080602001828103825260268152602001806129a56026913960400191505060405180910390fd5b8073ffffffffffffffffffffffffffffffffffffffff1660008054906101000a900473ffffffffffffffffffffffffffffffffffffffff1673ffffffffffffffffffffffffffffffffffffffff167f8be0079c531659141344cd1fd0a4f28419497f9722a3daafe3b4186f6b6457e060405160405180910390a3806000806101000a81548173ffffffffffffffffffffffffffffffffffffffff021916908373ffffffffffffffffffffffffffffffffffffffff16021790555050565b600260009054906101000a900473ffffffffffffffffffffffffffffffffffffffff1681565b600033905090565b6117b58363a9059cbb60e01b8484604051602401808373ffffffffffffffffffffffffffffffffffffffff16815260200182815260200192505050604051602081830303815290604052907bffffffffffffffffffffffffffffffffffffffffffffffffffffffff19166020820180517bffffffffffffffffffffffffffffffffffffffffffffffffffffffff83818316178352505050506123e5565b505050565b60008273ffffffffffffffffffffffffffffffffffffffff168473ffffffffffffffffffffffffffffffffffffffff1614156117f857849050611d72565b600082511161186f576040517f08c379a00000000000000000000000000000000000000000000000000000000081526004018080602001828103825260188152602001807f73776170546f6b656e733a20494e56414c49442050415448000000000000000081525060200191505060405180910390fd5b8373ffffffffffffffffffffffffffffffffffffffff168260008151811061189357fe5b602002602001015173ffffffffffffffffffffffffffffffffffffffff1614611924576040517f08c379a00000000000000000000000000000000000000000000000000000000081526004018080602001828103825260188152602001807f73776170546f6b656e733a20494e56414c49442050415448000000000000000081525060200191505060405180910390fd5b8273ffffffffffffffffffffffffffffffffffffffff168260018451038151811061194b57fe5b602002602001015173ffffffffffffffffffffffffffffffffffffffff16146119dc576040517f08c379a00000000000000000000000000000000000000000000000000000000081526004018080602001828103825260188152602001807f73776170546f6b656e733a20494e56414c49442050415448000000000000000081525060200191505060405180910390fd5b60008473ffffffffffffffffffffffffffffffffffffffff166370a08231306040518263ffffffff1660e01b8152600401808273ffffffffffffffffffffffffffffffffffffffff16815260200191505060206040518083038186803b158015611a4557600080fd5b505afa158015611a59573d6000803e3d6000fd5b505050506040513d6020811015611a6f57600080fd5b8101908080519060200190929190505050905085811015611af8576040517f08c379a000000000000000000000000000000000000000000000000000000000815260040180806020018281038252601f8152602001807f73776170546f6b656e733a20494e53554646494349454e5420414d4f554e540081525060200191505060405180910390fd5b60008473ffffffffffffffffffffffffffffffffffffffff166370a08231306040518263ffffffff1660e01b8152600401808273ffffffffffffffffffffffffffffffffffffffff16815260200191505060206040518083038186803b158015611b6157600080fd5b505afa158015611b75573d6000803e3d6000fd5b505050506040513d6020811015611b8b57600080fd5b81019080805190602001909291905050509050611bc988888873ffffffffffffffffffffffffffffffffffffffff166120f79092919063ffffffff16565b8773ffffffffffffffffffffffffffffffffffffffff16635c11d7958860008730611bf26124d4565b6040518663ffffffff1660e01b815260040180868152602001858152602001806020018473ffffffffffffffffffffffffffffffffffffffff168152602001838152602001828103825285818151815260200191508051906020019060200280838360005b83811015611c72578082015181840152602081019050611c57565b505050509050019650505050505050600060405180830381600087803b158015611c9b57600080fd5b505af1158015611caf573d6000803e3d6000fd5b505050506000611d69828773ffffffffffffffffffffffffffffffffffffffff166370a08231306040518263ffffffff1660e01b8152600401808273ffffffffffffffffffffffffffffffffffffffff16815260200191505060206040518083038186803b158015611d2057600080fd5b505afa158015611d34573d6000803e3d6000fd5b505050506040513d6020811015611d4a57600080fd5b81019080805190602001909291905050506120ad90919063ffffffff16565b90508093505050505b95945050505050565b60008060008473ffffffffffffffffffffffffffffffffffffffff16630dfe16816040518163ffffffff1660e01b815260040160206040518083038186803b158015611dc657600080fd5b505afa158015611dda573d6000803e3d6000fd5b505050506040513d6020811015611df057600080fd5b8101908080519060200190929190505050905060008573ffffffffffffffffffffffffffffffffffffffff1663d21220a76040518163ffffffff1660e01b815260040160206040518083038186803b158015611e4b57600080fd5b505afa158015611e5f573d6000803e3d6000fd5b505050506040513d6020811015611e7557600080fd5b81019080805190602001909291905050509050611eb387868873ffffffffffffffffffffffffffffffffffffffff166120f79092919063ffffffff16565b6000808873ffffffffffffffffffffffffffffffffffffffff1663baa2abde85858a60008030611ee16124d4565b6040518863ffffffff1660e01b8152600401808873ffffffffffffffffffffffffffffffffffffffff1681526020018773ffffffffffffffffffffffffffffffffffffffff1681526020018681526020018581526020018481526020018373ffffffffffffffffffffffffffffffffffffffff1681526020018281526020019750505050505050506040805180830381600087803b158015611f8257600080fd5b505af1158015611f96573d6000803e3d6000fd5b505050506040513d6040811015611fac57600080fd5b8101908080519060200190929190805190602001909291905050509150915081819550955050505050935093915050565b600080831415611ff0576000905061205d565b600082840290508284828161200157fe5b0414612058576040517f08c379a00000000000000000000000000000000000000000000000000000000081526004018080602001828103825260218152602001806129f16021913960400191505060405180910390fd5b809150505b92915050565b60006120a583836040518060400160405280601a81526020017f536166654d6174683a206469766973696f6e206279207a65726f0000000000008152506124df565b905092915050565b60006120ef83836040518060400160405280601e81526020017f536166654d6174683a207375627472616374696f6e206f766572666c6f7700008152506125a5565b905092915050565b60006121cb828573ffffffffffffffffffffffffffffffffffffffff1663dd62ed3e30876040518363ffffffff1660e01b8152600401808373ffffffffffffffffffffffffffffffffffffffff1681526020018273ffffffffffffffffffffffffffffffffffffffff1681526020019250505060206040518083038186803b15801561218257600080fd5b505afa158015612196573d6000803e3d6000fd5b505050506040513d60208110156121ac57600080fd5b810190808051906020019092919050505061266590919063ffffffff16565b905061226a8463095ea7b360e01b8584604051602401808373ffffffffffffffffffffffffffffffffffffffff16815260200182815260200192505050604051602081830303815290604052907bffffffffffffffffffffffffffffffffffffffffffffffffffffffff19166020820180517bffffffffffffffffffffffffffffffffffffffffffffffffffffffff83818316178352505050506123e5565b50505050565b6000600560009054906101000a900473ffffffffffffffffffffffffffffffffffffffff1673ffffffffffffffffffffffffffffffffffffffff166370a08231306040518263ffffffff1660e01b8152600401808273ffffffffffffffffffffffffffffffffffffffff16815260200191505060206040518083038186803b1580156122fb57600080fd5b505afa15801561230f573d6000803e3d6000fd5b505050506040513d602081101561232557600080fd5b81019080805190602001909291905050509050808211156123925761238d8382600560009054906101000a900473ffffffffffffffffffffffffffffffffffffffff1673ffffffffffffffffffffffffffffffffffffffff166117189092919063ffffffff16565b6123e0565b6123df8383600560009054906101000a900473ffffffffffffffffffffffffffffffffffffffff1673ffffffffffffffffffffffffffffffffffffffff166117189092919063ffffffff16565b5b505050565b6060612447826040518060400160405280602081526020017f5361666545524332303a206c6f772d6c6576656c2063616c6c206661696c65648152508573ffffffffffffffffffffffffffffffffffffffff166126ed9092919063ffffffff16565b90506000815111156124cf5780806020019051602081101561246857600080fd5b81019080805190602001909291905050506124ce576040517f08c379a000000000000000000000000000000000000000000000000000000000815260040180806020018281038252602a815260200180612a12602a913960400191505060405180910390fd5b5b505050565b6000603c4201905090565b6000808311829061258b576040517f08c379a00000000000000000000000000000000000000000000000000000000081526004018080602001828103825283818151815260200191508051906020019080838360005b83811015612550578082015181840152602081019050612535565b50505050905090810190601f16801561257d5780820380516001836020036101000a031916815260200191505b509250505060405180910390fd5b50600083858161259757fe5b049050809150509392505050565b6000838311158290612652576040517f08c379a00000000000000000000000000000000000000000000000000000000081526004018080602001828103825283818151815260200191508051906020019080838360005b838110156126175780820151818401526020810190506125fc565b50505050905090810190601f1680156126445780820380516001836020036101000a031916815260200191505b509250505060405180910390fd5b5060008385039050809150509392505050565b6000808284019050838110156126e3576040517f08c379a000000000000000000000000000000000000000000000000000000000815260040180806020018281038252601b8152602001807f536166654d6174683a206164646974696f6e206f766572666c6f77000000000081525060200191505060405180910390fd5b8091505092915050565b60606126fc8484600085612705565b90509392505050565b6060823073ffffffffffffffffffffffffffffffffffffffff16311015612777576040517f08c379a00000000000000000000000000000000000000000000000000000000081526004018080602001828103825260268152602001806129cb6026913960400191505060405180910390fd5b612780856128c5565b6127f2576040517f08c379a000000000000000000000000000000000000000000000000000000000815260040180806020018281038252601d8152602001807f416464726573733a2063616c6c20746f206e6f6e2d636f6e747261637400000081525060200191505060405180910390fd5b600060608673ffffffffffffffffffffffffffffffffffffffff1685876040518082805190602001908083835b60208310612842578051825260208201915060208101905060208303925061281f565b6001836020036101000a03801982511681845116808217855250505050505090500191505060006040518083038185875af1925050503d80600081146128a4576040519150601f19603f3d011682016040523d82523d6000602084013e6128a9565b606091505b50915091506128b98282866128d8565b92505050949350505050565b600080823b905060008111915050919050565b606083156128e85782905061299d565b6000835111156128fb5782518084602001fd5b816040517f08c379a00000000000000000000000000000000000000000000000000000000081526004018080602001828103825283818151815260200191508051906020019080838360005b83811015612962578082015181840152602081019050612947565b50505050905090810190601f16801561298f5780820380516001836020036101000a031916815260200191505b509250505060405180910390fd5b939250505056fe4f776e61626c653a206e6577206f776e657220697320746865207a65726f2061646472657373416464726573733a20696e73756666696369656e742062616c616e636520666f722063616c6c536166654d6174683a206d756c7469706c69636174696f6e206f766572666c6f775361666545524332303a204552433230206f7065726174696f6e20646964206e6f742073756363656564a2646970667358221220eb9cefdca6ef847f3599c8aa802d444d951b4681eb81918128660d2d50a9840164736f6c634300060c0033",
  "immutableReferences": {},
  "source": "// SPDX-License-Identifier: UNLICENSED\r\npragma solidity 0.6.12;\r\n\r\nimport '@openzeppelin/contracts/math/SafeMath.sol';\r\nimport '@openzeppelin/contracts/access/Ownable.sol';\r\nimport '@openzeppelin/contracts/token/ERC20/IERC20.sol';\r\nimport '@openzeppelin/contracts/token/ERC20/SafeERC20.sol';\r\n\r\nimport '../Swap/libraries/RouterHelper.sol';\r\n\r\nimport \"./interfaces/IFeeReceiver.sol\";\r\n\r\ncontract FeeDistributor is Ownable {\r\n    using SafeMath for uint256;\r\n    using SafeERC20 for IERC20;\r\n\r\n    uint256 public platformShareBP;\r\n\r\n    address public rewardsReceiver;\r\n    address public feeHolder;\r\n\r\n    address public schedulerAddress;\r\n\r\n    address public wElaAddress;\r\n\r\n    event RescueTokens(address indexed user, address indexed token, uint256 amount);\r\n    event UpdateFeeSettings(address indexed user, uint platformShareBP);\r\n    event UpdateFeeReceivers(address indexed user, address rewardsReceiver, address feeHolder);\r\n    event SetSchedulerAddress(address indexed user, address newAddr);\r\n\r\n    constructor(\r\n        address _rewardsReceiver,\r\n        address _feeHolder,\r\n        address _schedulerAddress,\r\n        address _wElaAddress\r\n    ) public {\r\n        rewardsReceiver = _rewardsReceiver;\r\n        feeHolder = _feeHolder;\r\n        schedulerAddress = _schedulerAddress;\r\n        wElaAddress = _wElaAddress;\r\n    }\r\n\r\n    modifier onlyAdmins(){\r\n        require(msg.sender == schedulerAddress || msg.sender == owner(), \"onlyAdmins: FORBIDDEN\");\r\n        _;\r\n    }\r\n\r\n    function removeLiquidity(address router, address lpToken) external onlyAdmins {\r\n        uint256 amount = IERC20(lpToken).balanceOf(address(this));\r\n        RouterHelper.removeLiquidity(router, lpToken, amount);\r\n    }\r\n\r\n    function sellTokens(address router, address inputToken, address outputToken, address[] memory path) external onlyAdmins {\r\n        uint256 amount = IERC20(inputToken).balanceOf(address(this));\r\n        RouterHelper.swapTokens(router, amount, inputToken, outputToken, path);\r\n    }\r\n\r\n    function distributeFees() external onlyAdmins {\r\n\r\n        uint256 balance = IERC20(wElaAddress).balanceOf(address(this));\r\n\r\n        uint256 platformAmount = balance.mul(platformShareBP).div(10000);\r\n        uint256 receiverAmount = balance.sub(platformAmount);\r\n\r\n        IERC20(wElaAddress).safeIncreaseAllowance(rewardsReceiver, receiverAmount);\r\n        IFeeReceiver(rewardsReceiver).income(receiverAmount);\r\n\r\n        safeTokenTransfer(feeHolder, platformAmount);\r\n    }\r\n\r\n    function safeTokenTransfer(address to, uint256 amount) internal {\r\n        uint256 balance = IERC20(wElaAddress).balanceOf(address(this));\r\n        if (amount > balance) {\r\n            IERC20(wElaAddress).safeTransfer(to, balance);\r\n        } else {\r\n            IERC20(wElaAddress).safeTransfer(to, amount);\r\n        }\r\n    }\r\n\r\n    function rescueToken(address token) external onlyOwner {\r\n        uint256 balance = IERC20(token).balanceOf(address(this));\r\n        IERC20(token).safeTransfer(feeHolder, balance);\r\n        emit RescueTokens(msg.sender, token, balance);\r\n    }\r\n\r\n    function updateFeeSettings(uint256 _platformShareBP) external onlyOwner {\r\n        platformShareBP = _platformShareBP;\r\n        emit UpdateFeeSettings(msg.sender, platformShareBP);\r\n    }\r\n\r\n    function updateFeeReceivers(address _rewardsReceiver, address _feeHolder) external onlyOwner {\r\n        rewardsReceiver = _rewardsReceiver;\r\n        feeHolder = _feeHolder;\r\n        emit UpdateFeeReceivers(msg.sender, rewardsReceiver, feeHolder);\r\n    }\r\n\r\n    function setSchedulerAddr(address newAddr) external onlyAdmins {\r\n        schedulerAddress = newAddr;\r\n        emit SetSchedulerAddress(msg.sender, newAddr);\r\n    }\r\n}",
  "sourcePath": "D:\\Posao - Stefan\\Stefan - razno\\Blockchain\\ElavateFinance\\auto-swap\\contracts\\Dividends\\FeeDistributor.sol",
  "compiler": {
    "name": "solc",
    "version": "0.6.12+commit.27d51765.Emscripten.clang"
  },
  "schemaVersion": "3.4.3",
  "updatedAt": "2021-09-01T09:09:00.107Z",
  "devdoc": {
    "kind": "dev",
    "methods": {
      "owner()": {
        "details": "Returns the address of the current owner."
      },
      "renounceOwnership()": {
        "details": "Leaves the contract without owner. It will not be possible to call `onlyOwner` functions anymore. Can only be called by the current owner. NOTE: Renouncing ownership will leave the contract without an owner, thereby removing any functionality that is only available to the owner."
      },
      "transferOwnership(address)": {
        "details": "Transfers ownership of the contract to a new account (`newOwner`). Can only be called by the current owner."
      }
    },
    "version": 1
  },
  "userdoc": {
    "kind": "user",
    "methods": {},
    "version": 1
  }
}