{
  "contractName": "FeeDistributor",
  "abi": [
    {
      "inputs": [
        {
          "internalType": "address",
          "name": "_rewardsReceiver",
          "type": "address"
        },
        {
          "internalType": "address",
          "name": "_feeHolder",
          "type": "address"
        },
        {
          "internalType": "address",
          "name": "_schedulerAddress",
          "type": "address"
        },
        {
          "internalType": "address",
          "name": "_wElaAddress",
          "type": "address"
        }
      ],
      "stateMutability": "nonpayable",
      "type": "constructor"
    },
    {
      "anonymous": false,
      "inputs": [
        {
          "indexed": true,
          "internalType": "address",
          "name": "previousOwner",
          "type": "address"
        },
        {
          "indexed": true,
          "internalType": "address",
          "name": "newOwner",
          "type": "address"
        }
      ],
      "name": "OwnershipTransferred",
      "type": "event"
    },
    {
      "anonymous": false,
      "inputs": [
        {
          "indexed": true,
          "internalType": "address",
          "name": "user",
          "type": "address"
        },
        {
          "indexed": true,
          "internalType": "address",
          "name": "token",
          "type": "address"
        },
        {
          "indexed": false,
          "internalType": "uint256",
          "name": "amount",
          "type": "uint256"
        }
      ],
      "name": "RescueTokens",
      "type": "event"
    },
    {
      "anonymous": false,
      "inputs": [
        {
          "indexed": true,
          "internalType": "address",
          "name": "user",
          "type": "address"
        },
        {
          "indexed": false,
          "internalType": "address",
          "name": "newAddr",
          "type": "address"
        }
      ],
      "name": "SetSchedulerAddress",
      "type": "event"
    },
    {
      "anonymous": false,
      "inputs": [
        {
          "indexed": true,
          "internalType": "address",
          "name": "user",
          "type": "address"
        },
        {
          "indexed": false,
          "internalType": "address",
          "name": "rewardsReceiver",
          "type": "address"
        },
        {
          "indexed": false,
          "internalType": "address",
          "name": "feeHolder",
          "type": "address"
        }
      ],
      "name": "UpdateFeeReceivers",
      "type": "event"
    },
    {
      "anonymous": false,
      "inputs": [
        {
          "indexed": true,
          "internalType": "address",
          "name": "user",
          "type": "address"
        },
        {
          "indexed": false,
          "internalType": "uint256",
          "name": "platformShareBP",
          "type": "uint256"
        }
      ],
      "name": "UpdateFeeSettings",
      "type": "event"
    },
    {
      "inputs": [],
      "name": "feeHolder",
      "outputs": [
        {
          "internalType": "address",
          "name": "",
          "type": "address"
        }
      ],
      "stateMutability": "view",
      "type": "function",
      "constant": true
    },
    {
      "inputs": [],
      "name": "owner",
      "outputs": [
        {
          "internalType": "address",
          "name": "",
          "type": "address"
        }
      ],
      "stateMutability": "view",
      "type": "function",
      "constant": true
    },
    {
      "inputs": [],
      "name": "platformShareBP",
      "outputs": [
        {
          "internalType": "uint256",
          "name": "",
          "type": "uint256"
        }
      ],
      "stateMutability": "view",
      "type": "function",
      "constant": true
    },
    {
      "inputs": [],
      "name": "renounceOwnership",
      "outputs": [],
      "stateMutability": "nonpayable",
      "type": "function"
    },
    {
      "inputs": [],
      "name": "rewardsReceiver",
      "outputs": [
        {
          "internalType": "address",
          "name": "",
          "type": "address"
        }
      ],
      "stateMutability": "view",
      "type": "function",
      "constant": true
    },
    {
      "inputs": [],
      "name": "schedulerAddress",
      "outputs": [
        {
          "internalType": "address",
          "name": "",
          "type": "address"
        }
      ],
      "stateMutability": "view",
      "type": "function",
      "constant": true
    },
    {
      "inputs": [
        {
          "internalType": "address",
          "name": "newOwner",
          "type": "address"
        }
      ],
      "name": "transferOwnership",
      "outputs": [],
      "stateMutability": "nonpayable",
      "type": "function"
    },
    {
      "inputs": [],
      "name": "wElaAddress",
      "outputs": [
        {
          "internalType": "address",
          "name": "",
          "type": "address"
        }
      ],
      "stateMutability": "view",
      "type": "function",
      "constant": true
    },
    {
      "inputs": [
        {
          "internalType": "address",
          "name": "router",
          "type": "address"
        },
        {
          "internalType": "address",
          "name": "lpToken",
          "type": "address"
        }
      ],
      "name": "removeLiquidity",
      "outputs": [],
      "stateMutability": "nonpayable",
      "type": "function"
    },
    {
      "inputs": [
        {
          "internalType": "address",
          "name": "router",
          "type": "address"
        },
        {
          "internalType": "address",
          "name": "inputToken",
          "type": "address"
        },
        {
          "internalType": "address",
          "name": "outputToken",
          "type": "address"
        },
        {
          "internalType": "address[]",
          "name": "path",
          "type": "address[]"
        }
      ],
      "name": "sellTokens",
      "outputs": [],
      "stateMutability": "nonpayable",
      "type": "function"
    },
    {
      "inputs": [],
      "name": "distributeFees",
      "outputs": [],
      "stateMutability": "nonpayable",
      "type": "function"
    },
    {
      "inputs": [
        {
          "internalType": "address",
          "name": "token",
          "type": "address"
        }
      ],
      "name": "rescueToken",
      "outputs": [],
      "stateMutability": "nonpayable",
      "type": "function"
    },
    {
      "inputs": [
        {
          "internalType": "uint256",
          "name": "_platformShareBP",
          "type": "uint256"
        }
      ],
      "name": "updateFeeSettings",
      "outputs": [],
      "stateMutability": "nonpayable",
      "type": "function"
    },
    {
      "inputs": [
        {
          "internalType": "address",
          "name": "_rewardsReceiver",
          "type": "address"
        },
        {
          "internalType": "address",
          "name": "_feeHolder",
          "type": "address"
        }
      ],
      "name": "updateFeeReceivers",
      "outputs": [],
      "stateMutability": "nonpayable",
      "type": "function"
    },
    {
      "inputs": [
        {
          "internalType": "address",
          "name": "newAddr",
          "type": "address"
        }
      ],
      "name": "setSchedulerAddr",
      "outputs": [],
      "stateMutability": "nonpayable",
      "type": "function"
    }
  ],
  "bytecode": "0x608060405234801561001057600080fd5b50604051611af7380380611af78339818101604052608081101561003357600080fd5b508051602082015160408301516060909301519192909160006100546100f1565b600080546001600160a01b0319166001600160a01b0383169081178255604051929350917f8be0079c531659141344cd1fd0a4f28419497f9722a3daafe3b4186f6b6457e0908290a350600280546001600160a01b039586166001600160a01b03199182161790915560038054948616948216949094179093556004805492851692841692909217909155600580549190931691161790556100f5565b3390565b6119f3806101046000396000f3fe608060405234801561001057600080fd5b50600436106100f55760003560e01c80639cf38f7c11610097578063cc6be5e411610066578063cc6be5e4146102b5578063d7236159146102bd578063f2fde38b146102eb578063fca11cb814610311576100f5565b80639cf38f7c1461025d578063ae45850b1461028b578063bb57ad2014610293578063c0d46b911461029b576100f5565b8063715018a6116100d3578063715018a614610165578063717815de1461016d5780637a2829d2146101915780638da5cb5b14610255576100f5565b8063208995cf146100fa57806343abd319146101195780634460d3cf1461013f575b600080fd5b6101176004803603602081101561011057600080fd5b5035610319565b005b6101176004803603602081101561012f57600080fd5b50356001600160a01b03166103af565b6101176004803603602081101561015557600080fd5b50356001600160a01b0316610480565b6101176105b4565b610175610656565b604080516001600160a01b039092168252519081900360200190f35b610117600480360360808110156101a757600080fd5b6001600160a01b03823581169260208101358216926040820135909216918101906080810160608201356401000000008111156101e357600080fd5b8201836020820111156101f557600080fd5b8035906020019184602083028401116401000000008311171561021757600080fd5b919080806020026020016040519081016040528093929190818152602001838360200280828437600092019190915250929550610665945050505050565b610175610771565b6101176004803603604081101561027357600080fd5b506001600160a01b0381358116916020013516610780565b610175610889565b610117610898565b6102a3610a5a565b60408051918252519081900360200190f35b610175610a60565b610117600480360360408110156102d357600080fd5b506001600160a01b0381358116916020013516610a6f565b6101176004803603602081101561030157600080fd5b50356001600160a01b0316610b39565b610175610c31565b610321610c40565b6000546001600160a01b03908116911614610371576040805162461bcd60e51b81526020600482018190526024820152600080516020611974833981519152604482015290519081900360640190fd5b600181905560408051828152905133917f4707e55f0a09c2af9ce22cf5f17b652615a810a1ea25f650cb18276dee658d6e919081900360200190a250565b6004546001600160a01b03163314806103e057506103cb610771565b6001600160a01b0316336001600160a01b0316145b610429576040805162461bcd60e51b815260206004820152601560248201527437b7363ca0b236b4b7399d102327a92124a22222a760591b604482015290519081900360640190fd5b600480546001600160a01b0383166001600160a01b03199091168117909155604080519182525133917f3286106f3d6ecbfd95574eec1ebdfd0640a1d7bfea3ac1ef867907e32830ec3f919081900360200190a250565b610488610c40565b6000546001600160a01b039081169116146104d8576040805162461bcd60e51b81526020600482018190526024820152600080516020611974833981519152604482015290519081900360640190fd5b6000816001600160a01b03166370a08231306040518263ffffffff1660e01b815260040180826001600160a01b0316815260200191505060206040518083038186803b15801561052757600080fd5b505afa15801561053b573d6000803e3d6000fd5b505050506040513d602081101561055157600080fd5b5051600354909150610570906001600160a01b03848116911683610c44565b6040805182815290516001600160a01b0384169133917f0de377c3f3362540c047602ad996510f81ec5d84f9ad151c7b6ebecce8ea6b7b9181900360200190a35050565b6105bc610c40565b6000546001600160a01b0390811691161461060c576040805162461bcd60e51b81526020600482018190526024820152600080516020611974833981519152604482015290519081900360640190fd5b600080546040516001600160a01b03909116907f8be0079c531659141344cd1fd0a4f28419497f9722a3daafe3b4186f6b6457e0908390a3600080546001600160a01b0319169055565b6005546001600160a01b031681565b6004546001600160a01b03163314806106965750610681610771565b6001600160a01b0316336001600160a01b0316145b6106df576040805162461bcd60e51b815260206004820152601560248201527437b7363ca0b236b4b7399d102327a92124a22222a760591b604482015290519081900360640190fd5b6000836001600160a01b03166370a08231306040518263ffffffff1660e01b815260040180826001600160a01b0316815260200191505060206040518083038186803b15801561072e57600080fd5b505afa158015610742573d6000803e3d6000fd5b505050506040513d602081101561075857600080fd5b505190506107698582868686610c96565b505050505050565b6000546001600160a01b031690565b6004546001600160a01b03163314806107b1575061079c610771565b6001600160a01b0316336001600160a01b0316145b6107fa576040805162461bcd60e51b815260206004820152601560248201527437b7363ca0b236b4b7399d102327a92124a22222a760591b604482015290519081900360640190fd5b6000816001600160a01b03166370a08231306040518263ffffffff1660e01b815260040180826001600160a01b0316815260200191505060206040518083038186803b15801561084957600080fd5b505afa15801561085d573d6000803e3d6000fd5b505050506040513d602081101561087357600080fd5b505190506108828383836110bb565b5050505050565b6004546001600160a01b031681565b6004546001600160a01b03163314806108c957506108b4610771565b6001600160a01b0316336001600160a01b0316145b610912576040805162461bcd60e51b815260206004820152601560248201527437b7363ca0b236b4b7399d102327a92124a22222a760591b604482015290519081900360640190fd5b600554604080516370a0823160e01b815230600482015290516000926001600160a01b0316916370a08231916024808301926020929190829003018186803b15801561095d57600080fd5b505afa158015610971573d6000803e3d6000fd5b505050506040513d602081101561098757600080fd5b50516001549091506000906109ab90612710906109a590859061128b565b906112ed565b905060006109b9838361132f565b6002546005549192506109d9916001600160a01b03908116911683611371565b60025460408051634276c62b60e11b81526004810184905290516001600160a01b03909216916384ed8c569160248082019260009290919082900301818387803b158015610a2657600080fd5b505af1158015610a3a573d6000803e3d6000fd5b5050600354610a5592506001600160a01b0316905083611462565b505050565b60015481565b6003546001600160a01b031681565b610a77610c40565b6000546001600160a01b03908116911614610ac7576040805162461bcd60e51b81526020600482018190526024820152600080516020611974833981519152604482015290519081900360640190fd5b600280546001600160a01b038085166001600160a01b03199283161792839055600380548583169316929092179182905560408051938216845291166020830152805133927fe21787ff2af43740120359435dbc79c3d7431032c8974862cbc5c8dbaa207fe692908290030190a25050565b610b41610c40565b6000546001600160a01b03908116911614610b91576040805162461bcd60e51b81526020600482018190526024820152600080516020611974833981519152604482015290519081900360640190fd5b6001600160a01b038116610bd65760405162461bcd60e51b81526004018080602001828103825260268152602001806119076026913960400191505060405180910390fd5b600080546040516001600160a01b03808516939216917f8be0079c531659141344cd1fd0a4f28419497f9722a3daafe3b4186f6b6457e091a3600080546001600160a01b0319166001600160a01b0392909216919091179055565b6002546001600160a01b031681565b3390565b604080516001600160a01b038416602482015260448082018490528251808303909101815260649091019091526020810180516001600160e01b031663a9059cbb60e01b179052610a55908490611516565b6000826001600160a01b0316846001600160a01b03161415610cb95750836110b2565b6000825111610d0a576040805162461bcd60e51b81526020600482015260186024820152770e6eec2e0a8ded6cadce67440929cac8298928840a082a8960431b604482015290519081900360640190fd5b836001600160a01b031682600081518110610d2157fe5b60200260200101516001600160a01b031614610d7f576040805162461bcd60e51b81526020600482015260186024820152770e6eec2e0a8ded6cadce67440929cac8298928840a082a8960431b604482015290519081900360640190fd5b826001600160a01b031682600184510381518110610d9957fe5b60200260200101516001600160a01b031614610df7576040805162461bcd60e51b81526020600482015260186024820152770e6eec2e0a8ded6cadce67440929cac8298928840a082a8960431b604482015290519081900360640190fd5b6000846001600160a01b03166370a08231306040518263ffffffff1660e01b815260040180826001600160a01b0316815260200191505060206040518083038186803b158015610e4657600080fd5b505afa158015610e5a573d6000803e3d6000fd5b505050506040513d6020811015610e7057600080fd5b5051905085811015610ec9576040805162461bcd60e51b815260206004820152601f60248201527f73776170546f6b656e733a20494e53554646494349454e5420414d4f554e5400604482015290519081900360640190fd5b6000846001600160a01b03166370a08231306040518263ffffffff1660e01b815260040180826001600160a01b0316815260200191505060206040518083038186803b158015610f1857600080fd5b505afa158015610f2c573d6000803e3d6000fd5b505050506040513d6020811015610f4257600080fd5b50519050610f5a6001600160a01b0387168989611371565b876001600160a01b0316635c11d7958860008730610f766115c7565b6040518663ffffffff1660e01b81526004018086815260200185815260200180602001846001600160a01b03168152602001838152602001828103825285818151815260200191508051906020019060200280838360005b83811015610fe6578181015183820152602001610fce565b505050509050019650505050505050600060405180830381600087803b15801561100f57600080fd5b505af1158015611023573d6000803e3d6000fd5b5050505060006110ac82876001600160a01b03166370a08231306040518263ffffffff1660e01b815260040180826001600160a01b0316815260200191505060206040518083038186803b15801561107a57600080fd5b505afa15801561108e573d6000803e3d6000fd5b505050506040513d60208110156110a457600080fd5b50519061132f565b93505050505b95945050505050565b6000806000846001600160a01b0316630dfe16816040518163ffffffff1660e01b815260040160206040518083038186803b1580156110f957600080fd5b505afa15801561110d573d6000803e3d6000fd5b505050506040513d602081101561112357600080fd5b50516040805163d21220a760e01b815290519192506000916001600160a01b0388169163d21220a7916004808301926020929190829003018186803b15801561116b57600080fd5b505afa15801561117f573d6000803e3d6000fd5b505050506040513d602081101561119557600080fd5b505190506111ad6001600160a01b0387168887611371565b600080886001600160a01b031663baa2abde85858a600080306111ce6115c7565b6040518863ffffffff1660e01b815260040180886001600160a01b03168152602001876001600160a01b03168152602001868152602001858152602001848152602001836001600160a01b031681526020018281526020019750505050505050506040805180830381600087803b15801561124857600080fd5b505af115801561125c573d6000803e3d6000fd5b505050506040513d604081101561127257600080fd5b508051602090910151909a909950975050505050505050565b60008261129a575060006112e7565b828202828482816112a757fe5b04146112e45760405162461bcd60e51b81526004018080602001828103825260218152602001806119536021913960400191505060405180910390fd5b90505b92915050565b60006112e483836040518060400160405280601a81526020017f536166654d6174683a206469766973696f6e206279207a65726f0000000000008152506115ce565b60006112e483836040518060400160405280601e81526020017f536166654d6174683a207375627472616374696f6e206f766572666c6f770000815250611672565b600061140782856001600160a01b031663dd62ed3e30876040518363ffffffff1660e01b815260040180836001600160a01b03168152602001826001600160a01b031681526020019250505060206040518083038186803b1580156113d557600080fd5b505afa1580156113e9573d6000803e3d6000fd5b505050506040513d60208110156113ff57600080fd5b5051906116cc565b604080516001600160a01b038616602482015260448082018490528251808303909101815260649091019091526020810180516001600160e01b031663095ea7b360e01b17905290915061145c908590611516565b50505050565b600554604080516370a0823160e01b815230600482015290516000926001600160a01b0316916370a08231916024808301926020929190829003018186803b1580156114ad57600080fd5b505afa1580156114c1573d6000803e3d6000fd5b505050506040513d60208110156114d757600080fd5b50519050808211156114ff576005546114fa906001600160a01b03168483610c44565b610a55565b600554610a55906001600160a01b03168484610c44565b606061156b826040518060400160405280602081526020017f5361666545524332303a206c6f772d6c6576656c2063616c6c206661696c6564815250856001600160a01b03166117269092919063ffffffff16565b805190915015610a555780806020019051602081101561158a57600080fd5b5051610a555760405162461bcd60e51b815260040180806020018281038252602a815260200180611994602a913960400191505060405180910390fd5b603c420190565b6000818361165a5760405162461bcd60e51b81526004018080602001828103825283818151815260200191508051906020019080838360005b8381101561161f578181015183820152602001611607565b50505050905090810190601f16801561164c5780820380516001836020036101000a031916815260200191505b509250505060405180910390fd5b50600083858161166657fe5b049150505b9392505050565b600081848411156116c45760405162461bcd60e51b815260206004820181815283516024840152835190928392604490910191908501908083836000831561161f578181015183820152602001611607565b505050900390565b6000828201838110156112e4576040805162461bcd60e51b815260206004820152601b60248201527f536166654d6174683a206164646974696f6e206f766572666c6f770000000000604482015290519081900360640190fd5b6060611735848460008561173d565b949350505050565b6060303183111561177f5760405162461bcd60e51b815260040180806020018281038252602681526020018061192d6026913960400191505060405180910390fd5b6117888561189a565b6117d9576040805162461bcd60e51b815260206004820152601d60248201527f416464726573733a2063616c6c20746f206e6f6e2d636f6e7472616374000000604482015290519081900360640190fd5b60006060866001600160a01b031685876040518082805190602001908083835b602083106118185780518252601f1990920191602091820191016117f9565b6001836020036101000a03801982511681845116808217855250505050505090500191505060006040518083038185875af1925050503d806000811461187a576040519150601f19603f3d011682016040523d82523d6000602084013e61187f565b606091505b509150915061188f8282866118a0565b979650505050505050565b3b151590565b606083156118af57508161166b565b8251156118bf5782518084602001fd5b60405162461bcd60e51b815260206004820181815284516024840152845185939192839260440191908501908083836000831561161f57818101518382015260200161160756fe4f776e61626c653a206e6577206f776e657220697320746865207a65726f2061646472657373416464726573733a20696e73756666696369656e742062616c616e636520666f722063616c6c536166654d6174683a206d756c7469706c69636174696f6e206f766572666c6f774f776e61626c653a2063616c6c6572206973206e6f7420746865206f776e65725361666545524332303a204552433230206f7065726174696f6e20646964206e6f742073756363656564a2646970667358221220857901407ed8e08ae369842c88e42e3ae74d544416806cd253b90b98e39eed7664736f6c634300060c0033",
  "immutableReferences": {},
  "source": "// SPDX-License-Identifier: UNLICENSED\r\npragma solidity 0.6.12;\r\n\r\nimport '@openzeppelin/contracts/math/SafeMath.sol';\r\nimport '@openzeppelin/contracts/access/Ownable.sol';\r\nimport '@openzeppelin/contracts/token/ERC20/IERC20.sol';\r\nimport '@openzeppelin/contracts/token/ERC20/SafeERC20.sol';\r\n\r\nimport './libraries/RouterHelper.sol';\r\nimport \"./interfaces/IFeeReceiver.sol\";\r\n\r\ncontract FeeDistributor is Ownable {\r\n    using SafeMath for uint256;\r\n    using SafeERC20 for IERC20;\r\n\r\n    uint256 public platformShareBP;\r\n\r\n    address public rewardsReceiver;\r\n    address public feeHolder;\r\n\r\n    address public schedulerAddress;\r\n\r\n    address public wElaAddress;\r\n\r\n    event RescueTokens(address indexed user, address indexed token, uint256 amount);\r\n    event UpdateFeeSettings(address indexed user, uint platformShareBP);\r\n    event UpdateFeeReceivers(address indexed user, address rewardsReceiver, address feeHolder);\r\n    event SetSchedulerAddress(address indexed user, address newAddr);\r\n\r\n    constructor(\r\n        address _rewardsReceiver,\r\n        address _feeHolder,\r\n        address _schedulerAddress,\r\n        address _wElaAddress\r\n    ) public {\r\n        rewardsReceiver = _rewardsReceiver;\r\n        feeHolder = _feeHolder;\r\n        schedulerAddress = _schedulerAddress;\r\n        wElaAddress = _wElaAddress;\r\n    }\r\n\r\n    modifier onlyAdmins(){\r\n        require(msg.sender == schedulerAddress || msg.sender == owner(), \"onlyAdmins: FORBIDDEN\");\r\n        _;\r\n    }\r\n\r\n    function removeLiquidity(address router, address lpToken) external onlyAdmins {\r\n        uint256 amount = IERC20(lpToken).balanceOf(address(this));\r\n        RouterHelper.removeLiquidity(router, lpToken, amount);\r\n    }\r\n\r\n    function sellTokens(address router, address inputToken, address outputToken, address[] memory path) external onlyAdmins {\r\n        uint256 amount = IERC20(inputToken).balanceOf(address(this));\r\n        RouterHelper.swapTokens(router, amount, inputToken, outputToken, path);\r\n    }\r\n\r\n    function distributeFees() external onlyAdmins {\r\n\r\n        uint256 balance = IERC20(wElaAddress).balanceOf(address(this));\r\n\r\n        uint256 platformAmount = balance.mul(platformShareBP).div(10000);\r\n        uint256 receiverAmount = balance.sub(platformAmount);\r\n\r\n        IERC20(wElaAddress).safeIncreaseAllowance(rewardsReceiver, receiverAmount);\r\n        IFeeReceiver(rewardsReceiver).income(receiverAmount);\r\n\r\n        safeTokenTransfer(feeHolder, platformAmount);\r\n    }\r\n\r\n    function safeTokenTransfer(address to, uint256 amount) internal {\r\n        uint256 balance = IERC20(wElaAddress).balanceOf(address(this));\r\n        if (amount > balance) {\r\n            IERC20(wElaAddress).safeTransfer(to, balance);\r\n        } else {\r\n            IERC20(wElaAddress).safeTransfer(to, amount);\r\n        }\r\n    }\r\n\r\n    function rescueToken(address token) external onlyOwner {\r\n        uint256 balance = IERC20(token).balanceOf(address(this));\r\n        IERC20(token).safeTransfer(feeHolder, balance);\r\n        emit RescueTokens(msg.sender, token, balance);\r\n    }\r\n\r\n    function updateFeeSettings(uint256 _platformShareBP) external onlyOwner {\r\n        platformShareBP = _platformShareBP;\r\n        emit UpdateFeeSettings(msg.sender, platformShareBP);\r\n    }\r\n\r\n    function updateFeeReceivers(address _rewardsReceiver, address _feeHolder) external onlyOwner {\r\n        rewardsReceiver = _rewardsReceiver;\r\n        feeHolder = _feeHolder;\r\n        emit UpdateFeeReceivers(msg.sender, rewardsReceiver, feeHolder);\r\n    }\r\n\r\n    function setSchedulerAddr(address newAddr) external onlyAdmins {\r\n        schedulerAddress = newAddr;\r\n        emit SetSchedulerAddress(msg.sender, newAddr);\r\n    }\r\n}",
  "sourcePath": "D:\\Posao - Stefan\\Stefan - razno\\Blockchain\\ElavateFinance\\auto-swap\\contracts\\FeeDistributor.sol",
  "compiler": {
    "name": "solc",
    "version": "0.6.12+commit.27d51765.Emscripten.clang"
  },
  "schemaVersion": "3.4.3",
  "updatedAt": "2021-08-27T19:12:17.665Z",
  "networkType": "ethereum",
  "devdoc": {
    "kind": "dev",
    "methods": {
      "owner()": {
        "details": "Returns the address of the current owner."
      },
      "renounceOwnership()": {
        "details": "Leaves the contract without owner. It will not be possible to call `onlyOwner` functions anymore. Can only be called by the current owner. NOTE: Renouncing ownership will leave the contract without an owner, thereby removing any functionality that is only available to the owner."
      },
      "transferOwnership(address)": {
        "details": "Transfers ownership of the contract to a new account (`newOwner`). Can only be called by the current owner."
      }
    },
    "version": 1
  },
  "userdoc": {
    "kind": "user",
    "methods": {},
    "version": 1
  }
}