{
  "contractName": "GlideVault",
  "abi": [
    {
      "inputs": [
        {
          "internalType": "contract IERC20",
          "name": "_token",
          "type": "address"
        },
        {
          "internalType": "contract IERC20",
          "name": "_receiptToken",
          "type": "address"
        },
        {
          "internalType": "contract IMasterChef",
          "name": "_masterchef",
          "type": "address"
        },
        {
          "internalType": "address",
          "name": "_admin",
          "type": "address"
        },
        {
          "internalType": "address",
          "name": "_treasury",
          "type": "address"
        }
      ],
      "stateMutability": "nonpayable",
      "type": "constructor"
    },
    {
      "anonymous": false,
      "inputs": [
        {
          "indexed": true,
          "internalType": "address",
          "name": "sender",
          "type": "address"
        },
        {
          "indexed": false,
          "internalType": "uint256",
          "name": "amount",
          "type": "uint256"
        },
        {
          "indexed": false,
          "internalType": "uint256",
          "name": "shares",
          "type": "uint256"
        },
        {
          "indexed": false,
          "internalType": "uint256",
          "name": "lastDepositedTime",
          "type": "uint256"
        }
      ],
      "name": "Deposit",
      "type": "event"
    },
    {
      "anonymous": false,
      "inputs": [
        {
          "indexed": true,
          "internalType": "address",
          "name": "sender",
          "type": "address"
        },
        {
          "indexed": false,
          "internalType": "uint256",
          "name": "performanceFee",
          "type": "uint256"
        },
        {
          "indexed": false,
          "internalType": "uint256",
          "name": "callFee",
          "type": "uint256"
        }
      ],
      "name": "Harvest",
      "type": "event"
    },
    {
      "anonymous": false,
      "inputs": [
        {
          "indexed": true,
          "internalType": "address",
          "name": "previousOwner",
          "type": "address"
        },
        {
          "indexed": true,
          "internalType": "address",
          "name": "newOwner",
          "type": "address"
        }
      ],
      "name": "OwnershipTransferred",
      "type": "event"
    },
    {
      "anonymous": false,
      "inputs": [],
      "name": "Pause",
      "type": "event"
    },
    {
      "anonymous": false,
      "inputs": [
        {
          "indexed": false,
          "internalType": "address",
          "name": "account",
          "type": "address"
        }
      ],
      "name": "Paused",
      "type": "event"
    },
    {
      "anonymous": false,
      "inputs": [],
      "name": "Unpause",
      "type": "event"
    },
    {
      "anonymous": false,
      "inputs": [
        {
          "indexed": false,
          "internalType": "address",
          "name": "account",
          "type": "address"
        }
      ],
      "name": "Unpaused",
      "type": "event"
    },
    {
      "anonymous": false,
      "inputs": [
        {
          "indexed": true,
          "internalType": "address",
          "name": "sender",
          "type": "address"
        },
        {
          "indexed": false,
          "internalType": "uint256",
          "name": "amount",
          "type": "uint256"
        },
        {
          "indexed": false,
          "internalType": "uint256",
          "name": "shares",
          "type": "uint256"
        }
      ],
      "name": "Withdraw",
      "type": "event"
    },
    {
      "inputs": [],
      "name": "MAX_CALL_FEE",
      "outputs": [
        {
          "internalType": "uint256",
          "name": "",
          "type": "uint256"
        }
      ],
      "stateMutability": "view",
      "type": "function",
      "constant": true
    },
    {
      "inputs": [],
      "name": "MAX_PERFORMANCE_FEE",
      "outputs": [
        {
          "internalType": "uint256",
          "name": "",
          "type": "uint256"
        }
      ],
      "stateMutability": "view",
      "type": "function",
      "constant": true
    },
    {
      "inputs": [],
      "name": "MAX_WITHDRAW_FEE",
      "outputs": [
        {
          "internalType": "uint256",
          "name": "",
          "type": "uint256"
        }
      ],
      "stateMutability": "view",
      "type": "function",
      "constant": true
    },
    {
      "inputs": [],
      "name": "MAX_WITHDRAW_FEE_PERIOD",
      "outputs": [
        {
          "internalType": "uint256",
          "name": "",
          "type": "uint256"
        }
      ],
      "stateMutability": "view",
      "type": "function",
      "constant": true
    },
    {
      "inputs": [],
      "name": "admin",
      "outputs": [
        {
          "internalType": "address",
          "name": "",
          "type": "address"
        }
      ],
      "stateMutability": "view",
      "type": "function",
      "constant": true
    },
    {
      "inputs": [],
      "name": "callFee",
      "outputs": [
        {
          "internalType": "uint256",
          "name": "",
          "type": "uint256"
        }
      ],
      "stateMutability": "view",
      "type": "function",
      "constant": true
    },
    {
      "inputs": [],
      "name": "lastHarvestedTime",
      "outputs": [
        {
          "internalType": "uint256",
          "name": "",
          "type": "uint256"
        }
      ],
      "stateMutability": "view",
      "type": "function",
      "constant": true
    },
    {
      "inputs": [],
      "name": "masterchef",
      "outputs": [
        {
          "internalType": "contract IMasterChef",
          "name": "",
          "type": "address"
        }
      ],
      "stateMutability": "view",
      "type": "function",
      "constant": true
    },
    {
      "inputs": [],
      "name": "owner",
      "outputs": [
        {
          "internalType": "address",
          "name": "",
          "type": "address"
        }
      ],
      "stateMutability": "view",
      "type": "function",
      "constant": true
    },
    {
      "inputs": [],
      "name": "paused",
      "outputs": [
        {
          "internalType": "bool",
          "name": "",
          "type": "bool"
        }
      ],
      "stateMutability": "view",
      "type": "function",
      "constant": true
    },
    {
      "inputs": [],
      "name": "performanceFee",
      "outputs": [
        {
          "internalType": "uint256",
          "name": "",
          "type": "uint256"
        }
      ],
      "stateMutability": "view",
      "type": "function",
      "constant": true
    },
    {
      "inputs": [],
      "name": "receiptToken",
      "outputs": [
        {
          "internalType": "contract IERC20",
          "name": "",
          "type": "address"
        }
      ],
      "stateMutability": "view",
      "type": "function",
      "constant": true
    },
    {
      "inputs": [],
      "name": "renounceOwnership",
      "outputs": [],
      "stateMutability": "nonpayable",
      "type": "function"
    },
    {
      "inputs": [],
      "name": "token",
      "outputs": [
        {
          "internalType": "contract IERC20",
          "name": "",
          "type": "address"
        }
      ],
      "stateMutability": "view",
      "type": "function",
      "constant": true
    },
    {
      "inputs": [],
      "name": "totalShares",
      "outputs": [
        {
          "internalType": "uint256",
          "name": "",
          "type": "uint256"
        }
      ],
      "stateMutability": "view",
      "type": "function",
      "constant": true
    },
    {
      "inputs": [
        {
          "internalType": "address",
          "name": "newOwner",
          "type": "address"
        }
      ],
      "name": "transferOwnership",
      "outputs": [],
      "stateMutability": "nonpayable",
      "type": "function"
    },
    {
      "inputs": [],
      "name": "treasury",
      "outputs": [
        {
          "internalType": "address",
          "name": "",
          "type": "address"
        }
      ],
      "stateMutability": "view",
      "type": "function",
      "constant": true
    },
    {
      "inputs": [
        {
          "internalType": "address",
          "name": "",
          "type": "address"
        }
      ],
      "name": "userInfo",
      "outputs": [
        {
          "internalType": "uint256",
          "name": "shares",
          "type": "uint256"
        },
        {
          "internalType": "uint256",
          "name": "lastDepositedTime",
          "type": "uint256"
        },
        {
          "internalType": "uint256",
          "name": "glideAtLastUserAction",
          "type": "uint256"
        },
        {
          "internalType": "uint256",
          "name": "lastUserActionTime",
          "type": "uint256"
        }
      ],
      "stateMutability": "view",
      "type": "function",
      "constant": true
    },
    {
      "inputs": [],
      "name": "withdrawFee",
      "outputs": [
        {
          "internalType": "uint256",
          "name": "",
          "type": "uint256"
        }
      ],
      "stateMutability": "view",
      "type": "function",
      "constant": true
    },
    {
      "inputs": [],
      "name": "withdrawFeePeriod",
      "outputs": [
        {
          "internalType": "uint256",
          "name": "",
          "type": "uint256"
        }
      ],
      "stateMutability": "view",
      "type": "function",
      "constant": true
    },
    {
      "inputs": [
        {
          "internalType": "uint256",
          "name": "_amount",
          "type": "uint256"
        }
      ],
      "name": "deposit",
      "outputs": [],
      "stateMutability": "nonpayable",
      "type": "function"
    },
    {
      "inputs": [],
      "name": "withdrawAll",
      "outputs": [],
      "stateMutability": "nonpayable",
      "type": "function"
    },
    {
      "inputs": [],
      "name": "harvest",
      "outputs": [],
      "stateMutability": "nonpayable",
      "type": "function"
    },
    {
      "inputs": [
        {
          "internalType": "address",
          "name": "_admin",
          "type": "address"
        }
      ],
      "name": "setAdmin",
      "outputs": [],
      "stateMutability": "nonpayable",
      "type": "function"
    },
    {
      "inputs": [
        {
          "internalType": "address",
          "name": "_treasury",
          "type": "address"
        }
      ],
      "name": "setTreasury",
      "outputs": [],
      "stateMutability": "nonpayable",
      "type": "function"
    },
    {
      "inputs": [
        {
          "internalType": "uint256",
          "name": "_performanceFee",
          "type": "uint256"
        }
      ],
      "name": "setPerformanceFee",
      "outputs": [],
      "stateMutability": "nonpayable",
      "type": "function"
    },
    {
      "inputs": [
        {
          "internalType": "uint256",
          "name": "_callFee",
          "type": "uint256"
        }
      ],
      "name": "setCallFee",
      "outputs": [],
      "stateMutability": "nonpayable",
      "type": "function"
    },
    {
      "inputs": [
        {
          "internalType": "uint256",
          "name": "_withdrawFee",
          "type": "uint256"
        }
      ],
      "name": "setWithdrawFee",
      "outputs": [],
      "stateMutability": "nonpayable",
      "type": "function"
    },
    {
      "inputs": [
        {
          "internalType": "uint256",
          "name": "_withdrawFeePeriod",
          "type": "uint256"
        }
      ],
      "name": "setWithdrawFeePeriod",
      "outputs": [],
      "stateMutability": "nonpayable",
      "type": "function"
    },
    {
      "inputs": [],
      "name": "emergencyWithdraw",
      "outputs": [],
      "stateMutability": "nonpayable",
      "type": "function"
    },
    {
      "inputs": [
        {
          "internalType": "address",
          "name": "_token",
          "type": "address"
        }
      ],
      "name": "inCaseTokensGetStuck",
      "outputs": [],
      "stateMutability": "nonpayable",
      "type": "function"
    },
    {
      "inputs": [],
      "name": "pause",
      "outputs": [],
      "stateMutability": "nonpayable",
      "type": "function"
    },
    {
      "inputs": [],
      "name": "unpause",
      "outputs": [],
      "stateMutability": "nonpayable",
      "type": "function"
    },
    {
      "inputs": [],
      "name": "calculateHarvestGlideRewards",
      "outputs": [
        {
          "internalType": "uint256",
          "name": "",
          "type": "uint256"
        }
      ],
      "stateMutability": "view",
      "type": "function",
      "constant": true
    },
    {
      "inputs": [],
      "name": "calculateTotalPendingGlideRewards",
      "outputs": [
        {
          "internalType": "uint256",
          "name": "",
          "type": "uint256"
        }
      ],
      "stateMutability": "view",
      "type": "function",
      "constant": true
    },
    {
      "inputs": [],
      "name": "getPricePerFullShare",
      "outputs": [
        {
          "internalType": "uint256",
          "name": "",
          "type": "uint256"
        }
      ],
      "stateMutability": "view",
      "type": "function",
      "constant": true
    },
    {
      "inputs": [
        {
          "internalType": "uint256",
          "name": "_shares",
          "type": "uint256"
        }
      ],
      "name": "withdraw",
      "outputs": [],
      "stateMutability": "nonpayable",
      "type": "function"
    },
    {
      "inputs": [],
      "name": "available",
      "outputs": [
        {
          "internalType": "uint256",
          "name": "",
          "type": "uint256"
        }
      ],
      "stateMutability": "view",
      "type": "function",
      "constant": true
    },
    {
      "inputs": [],
      "name": "balanceOf",
      "outputs": [
        {
          "internalType": "uint256",
          "name": "",
          "type": "uint256"
        }
      ],
      "stateMutability": "view",
      "type": "function",
      "constant": true
    }
  ],
  "bytecode": "0x60e060405260c86006556019600755600a6008556203f4806009553480156200002757600080fd5b5060405162002e3b38038062002e3b833981810160405260a08110156200004d57600080fd5b508051602082015160408301516060840151608090940151929391929091906000620000786200014a565b600080546001600160a01b0319166001600160a01b0383169081178255604051929350917f8be0079c531659141344cd1fd0a4f28419497f9722a3daafe3b4186f6b6457e0908290a3506000805460ff60a01b191690556001600160601b0319606086811b821660805285811b821660a05284901b1660c052600480546001600160a01b038481166001600160a01b0319928316179092556005805484841692169190911790556200013f9086168460001962001c846200014e602090811b91909117901c565b505050505062000616565b3390565b801580620001f15750604080517fdd62ed3e0000000000000000000000000000000000000000000000000000000081523060048201526001600160a01b03848116602483015291519185169163dd62ed3e91604480820192602092909190829003018186803b158015620001c157600080fd5b505afa158015620001d6573d6000803e3d6000fd5b505050506040513d6020811015620001ed57600080fd5b5051155b62000248576040517f08c379a000000000000000000000000000000000000000000000000000000000815260040180806020018281038252603681526020018062002e056036913960400191505060405180910390fd5b604080516001600160a01b038416602482015260448082018490528251808303909101815260649091019091526020810180516001600160e01b039081167f095ea7b30000000000000000000000000000000000000000000000000000000017909152620002b9918591620002be16565b505050565b60606200031a826040518060400160405280602081526020017f5361666545524332303a206c6f772d6c6576656c2063616c6c206661696c6564815250856001600160a01b03166200039460201b62001d9c179092919060201c565b805190915015620002b9578080602001905160208110156200033b57600080fd5b5051620002b9576040517f08c379a000000000000000000000000000000000000000000000000000000000815260040180806020018281038252602a81526020018062002ddb602a913960400191505060405180910390fd5b6060620003a58484600085620003af565b90505b9392505050565b606030318311156200040d576040517f08c379a000000000000000000000000000000000000000000000000000000000815260040180806020018281038252602681526020018062002db56026913960400191505060405180910390fd5b62000418856200054c565b6200048457604080517f08c379a000000000000000000000000000000000000000000000000000000000815260206004820152601d60248201527f416464726573733a2063616c6c20746f206e6f6e2d636f6e7472616374000000604482015290519081900360640190fd5b60006060866001600160a01b031685876040518082805190602001908083835b60208310620004c55780518252601f199092019160209182019101620004a4565b6001836020036101000a03801982511681845116808217855250505050505090500191505060006040518083038185875af1925050503d806000811462000529576040519150601f19603f3d011682016040523d82523d6000602084013e6200052e565b606091505b5090925090506200054182828662000552565b979650505050505050565b3b151590565b6060831562000563575081620003a8565b825115620005745782518084602001fd5b816040517f08c379a00000000000000000000000000000000000000000000000000000000081526004018080602001828103825283818151815260200191508051906020019080838360005b83811015620005da578181015183820152602001620005c0565b50505050905090810190601f168015620006085780820380516001836020036101000a031916815260200191505b509250505060405180910390fd5b60805160601c60a05160601c60c05160601c6127196200069c600039806104f552806108be5280610c6b52806110b352806116d252806117f45280611c3e52806120095250806119335280611a455250806109b65280610a325280610d255280610d7a5280610df0528061117b52806115c952806118c25280611c6252506127196000f3fe608060405234801561001057600080fd5b506004361061023d5760003560e01c8063853828b61161013b578063db2e21bc116100b8578063f0f442601161007c578063f0f442601461048c578063f2fde38b146104b2578063f851a440146104d8578063fb1db278146104e0578063fc0c546a146104e85761023d565b8063db2e21bc14610446578063def68a9c1461044e578063df10b4e614610474578063e941fa781461047c578063ec78e832146104845761023d565b8063b6ac642a116100ff578063b6ac642a146103fc578063b6b55f2514610419578063bdca916514610436578063c7844a7c1461043e578063d4b0de2f146102e45761023d565b8063853828b6146103d457806387788782146103dc5780638da5cb5b146103e457806390321e1a146103ec578063b60f0531146103f45761023d565b80634641257d116101c957806370897b231161018d57806370897b2314610397578063715018a6146103b4578063722713f7146103bc57806377c7b8fc146103c45780638456cb59146103cc5761023d565b80634641257d1461032157806348a0d754146103295780635c975abb1461033157806361d027b31461034d578063704b6c02146103715761023d565b80632ad5a53f116102105780632ad5a53f146102e45780632cfc5f01146102ec5780632e1a7d4d146102f45780633a98ef39146103115780633f4ba83a146103195761023d565b80630d997fef146102425780631959a0021461025c5780631efac1b8146102a857806326465826146102c7575b600080fd5b61024a6104f0565b60408051918252519081900360200190f35b6102826004803603602081101561027257600080fd5b50356001600160a01b03166105af565b604080519485526020850193909352838301919091526060830152519081900360800190f35b6102c5600480360360208110156102be57600080fd5b50356105d7565b005b6102c5600480360360208110156102dd57600080fd5b503561066b565b61024a6106fd565b61024a610702565b6102c56004803603602081101561030a57600080fd5b5035610709565b61024a610a99565b6102c5610a9f565b6102c5610b74565b61024a610dec565b610339610e8c565b604080519115158252519081900360200190f35b610355610e9c565b604080516001600160a01b039092168252519081900360200190f35b6102c56004803603602081101561038757600080fd5b50356001600160a01b0316610eab565b6102c5600480360360208110156103ad57600080fd5b5035610f79565b6102c561100c565b61024a6110ae565b61024a6111f4565b6102c561122e565b6102c5611300565b61024a6113be565b6103556113c4565b61024a6113d3565b61024a6113d9565b6102c56004803603602081101561041257600080fd5b50356113df565b6102c56004803603602081101561042f57600080fd5b5035611471565b61024a6116c7565b61024a6116cd565b6102c56117a5565b6102c56004803603602081101561046457600080fd5b50356001600160a01b0316611873565b61024a611a37565b61024a611a3d565b610355611a43565b6102c5600480360360208110156104a257600080fd5b50356001600160a01b0316611a67565b6102c5600480360360208110156104c857600080fd5b50356001600160a01b0316611b35565b610355611c2d565b610355611c3c565b610355611c60565b6000807f00000000000000000000000000000000000000000000000000000000000000006001600160a01b031663da6dfb806000306040518363ffffffff1660e01b815260040180838152602001826001600160a01b031681526020019250505060206040518083038186803b15801561056957600080fd5b505afa15801561057d573d6000803e3d6000fd5b505050506040513d602081101561059357600080fd5b505190506105a96105a2610dec565b8290611db5565b91505090565b6001602081905260009182526040909120805491810154600282015460039092015490919084565b6004546001600160a01b03163314610624576040805162461bcd60e51b815260206004820152600b60248201526a61646d696e3a207775743f60a81b604482015290519081900360640190fd5b6203f4808111156106665760405162461bcd60e51b815260040180806020018281038252603d815260200180612617603d913960400191505060405180910390fd5b600955565b6004546001600160a01b031633146106b8576040805162461bcd60e51b815260206004820152600b60248201526a61646d696e3a207775743f60a81b604482015290519081900360640190fd5b60648111156106f85760405162461bcd60e51b81526004018080602001828103825260288152602001806125786028913960400191505060405180910390fd5b600755565b606481565b6203f48081565b61071233611e18565b1561075b576040805162461bcd60e51b815260206004820152601460248201527318dbdb9d1c9858dd081b9bdd08185b1b1bddd95960621b604482015290519081900360640190fd5b3332146107ac576040805162461bcd60e51b815260206004820152601a6024820152791c1c9bde1e4818dbdb9d1c9858dd081b9bdd08185b1b1bddd95960321b604482015290519081900360640190fd5b33600090815260016020526040902081610803576040805162461bcd60e51b81526020600482015260136024820152724e6f7468696e6720746f20776974686472617760681b604482015290519081900360640190fd5b8054821115610859576040805162461bcd60e51b815260206004820152601f60248201527f576974686472617720616d6f756e7420657863656564732062616c616e636500604482015290519081900360640190fd5b60006108796002546108738561086d6110ae565b90611e1e565b90611e77565b82549091506108889084611eb9565b82556002546108979084611eb9565b60025560006108a4610dec565b90508181101561096d5760006108ba8383611eb9565b90507f00000000000000000000000000000000000000000000000000000000000000006001600160a01b0316631058d281826040518263ffffffff1660e01b815260040180828152602001915050600060405180830381600087803b15801561092257600080fd5b505af1158015610936573d6000803e3d6000fd5b505050506000610944610dec565b905060006109528285611eb9565b905082811015610969576109668482611db5565b94505b5050505b600954600184015461097e91611db5565b4210156109ed5760006109a261271061087360085486611e1e90919063ffffffff16565b6005549091506109df906001600160a01b037f00000000000000000000000000000000000000000000000000000000000000008116911683611efb565b6109e98382611eb9565b9250505b825415610a1757610a0d600254610873610a056110ae565b865490611e1e565b6002840155610a1f565b600060028401555b426003840155610a596001600160a01b037f0000000000000000000000000000000000000000000000000000000000000000163384611efb565b6040805183815260208101869052815133927ff279e6a1f5e320cca91135676d9cb6e44ca8a08c0b88342bcdb1144f6511b568928290030190a250505050565b60025481565b6004546001600160a01b03163314610aec576040805162461bcd60e51b815260206004820152600b60248201526a61646d696e3a207775743f60a81b604482015290519081900360640190fd5b600054600160a01b900460ff16610b41576040805162461bcd60e51b815260206004820152601460248201527314185d5cd8589b194e881b9bdd081c185d5cd95960621b604482015290519081900360640190fd5b610b49611f4d565b6040517f7805862f689e2f13df9f062ff482ad3ad112aca9e0847911ed832e158c525b3390600090a1565b610b7d33611e18565b15610bc6576040805162461bcd60e51b815260206004820152601460248201527318dbdb9d1c9858dd081b9bdd08185b1b1bddd95960621b604482015290519081900360640190fd5b333214610c17576040805162461bcd60e51b815260206004820152601a6024820152791c1c9bde1e4818dbdb9d1c9858dd081b9bdd08185b1b1bddd95960321b604482015290519081900360640190fd5b600054600160a01b900460ff1615610c69576040805162461bcd60e51b815260206004820152601060248201526f14185d5cd8589b194e881c185d5cd95960821b604482015290519081900360640190fd5b7f00000000000000000000000000000000000000000000000000000000000000006001600160a01b0316631058d28160006040518263ffffffff1660e01b815260040180828152602001915050600060405180830381600087803b158015610cd057600080fd5b505af1158015610ce4573d6000803e3d6000fd5b505050506000610cf2610dec565b90506000610d1161271061087360065485611e1e90919063ffffffff16565b600554909150610d4e906001600160a01b037f00000000000000000000000000000000000000000000000000000000000000008116911683611efb565b6000610d6b61271061087360075486611e1e90919063ffffffff16565b9050610da16001600160a01b037f0000000000000000000000000000000000000000000000000000000000000000163383611efb565b610da9611ff5565b426003556040805183815260208101839052815133927f71bab65ced2e5750775a0613be067df48ef06cf92a496ebf7663ae0660924954928290030190a2505050565b60007f00000000000000000000000000000000000000000000000000000000000000006001600160a01b03166370a08231306040518263ffffffff1660e01b815260040180826001600160a01b0316815260200191505060206040518083038186803b158015610e5b57600080fd5b505afa158015610e6f573d6000803e3d6000fd5b505050506040513d6020811015610e8557600080fd5b5051905090565b600054600160a01b900460ff1690565b6005546001600160a01b031681565b610eb3612089565b6000546001600160a01b03908116911614610f03576040805162461bcd60e51b815260206004820181905260248201526000805160206125f7833981519152604482015290519081900360640190fd5b6001600160a01b038116610f57576040805162461bcd60e51b815260206004820152601660248201527543616e6e6f74206265207a65726f206164647265737360501b604482015290519081900360640190fd5b600480546001600160a01b0319166001600160a01b0392909216919091179055565b6004546001600160a01b03163314610fc6576040805162461bcd60e51b815260206004820152600b60248201526a61646d696e3a207775743f60a81b604482015290519081900360640190fd5b6101f48111156110075760405162461bcd60e51b81526004018080602001828103825260368152602001806125a06036913960400191505060405180910390fd5b600655565b611014612089565b6000546001600160a01b03908116911614611064576040805162461bcd60e51b815260206004820181905260248201526000805160206125f7833981519152604482015290519081900360640190fd5b600080546040516001600160a01b03909116907f8be0079c531659141344cd1fd0a4f28419497f9722a3daafe3b4186f6b6457e0908390a3600080546001600160a01b0319169055565b6000807f00000000000000000000000000000000000000000000000000000000000000006001600160a01b03166393f1a40b6000306040518363ffffffff1660e01b815260040180838152602001826001600160a01b0316815260200192505050604080518083038186803b15801561112657600080fd5b505afa15801561113a573d6000803e3d6000fd5b505050506040513d604081101561115057600080fd5b5051604080516370a0823160e01b815230600482015290519192506105a99183916001600160a01b037f000000000000000000000000000000000000000000000000000000000000000016916370a0823191602480820192602092909190829003018186803b1580156111c257600080fd5b505afa1580156111d6573d6000803e3d6000fd5b505050506040513d60208110156111ec57600080fd5b505190611db5565b600060025460001461121f5761121a600254610873670de0b6b3a764000061086d6110ae565b611229565b670de0b6b3a76400005b905090565b6004546001600160a01b0316331461127b576040805162461bcd60e51b815260206004820152600b60248201526a61646d696e3a207775743f60a81b604482015290519081900360640190fd5b600054600160a01b900460ff16156112cd576040805162461bcd60e51b815260206004820152601060248201526f14185d5cd8589b194e881c185d5cd95960821b604482015290519081900360640190fd5b6112d561208d565b6040517f6985a02210a168e66602d3235cb6db0e70f92b3ba4d376a33c0f3d9434bff62590600090a1565b61130933611e18565b15611352576040805162461bcd60e51b815260206004820152601460248201527318dbdb9d1c9858dd081b9bdd08185b1b1bddd95960621b604482015290519081900360640190fd5b3332146113a3576040805162461bcd60e51b815260206004820152601a6024820152791c1c9bde1e4818dbdb9d1c9858dd081b9bdd08185b1b1bddd95960321b604482015290519081900360640190fd5b336000908152600160205260409020546113bc90610709565b565b60065481565b6000546001600160a01b031690565b60075481565b60035481565b6004546001600160a01b0316331461142c576040805162461bcd60e51b815260206004820152600b60248201526a61646d696e3a207775743f60a81b604482015290519081900360640190fd5b606481111561146c5760405162461bcd60e51b815260040180806020018281038252603081526020018061267e6030913960400191505060405180910390fd5b600855565b600054600160a01b900460ff16156114c3576040805162461bcd60e51b815260206004820152601060248201526f14185d5cd8589b194e881c185d5cd95960821b604482015290519081900360640190fd5b6114cc33611e18565b15611515576040805162461bcd60e51b815260206004820152601460248201527318dbdb9d1c9858dd081b9bdd08185b1b1bddd95960621b604482015290519081900360640190fd5b333214611566576040805162461bcd60e51b815260206004820152601a6024820152791c1c9bde1e4818dbdb9d1c9858dd081b9bdd08185b1b1bddd95960321b604482015290519081900360640190fd5b600081116115b0576040805162461bcd60e51b8152602060048201526012602482015271139bdd1a1a5b99c81d1bc819195c1bdcda5d60721b604482015290519081900360640190fd5b60006115ba6110ae565b90506115f16001600160a01b037f00000000000000000000000000000000000000000000000000000000000000001633308561211b565b600060025460001461161d576116168261087360025486611e1e90919063ffffffff16565b9050611620565b50815b336000908152600160205260409020805461163b9083611db5565b81554260018201556002546116509083611db5565b600281905561166c906108736116646110ae565b845490611e1e565b600282015542600382015561167f611ff5565b60408051858152602081018490524281830152905133917f36af321ec8d3c75236829c5317affd40ddb308863a1236d2d277a4025cccee1e919081900360600190a250505050565b6101f481565b6000807f00000000000000000000000000000000000000000000000000000000000000006001600160a01b031663da6dfb806000306040518363ffffffff1660e01b815260040180838152602001826001600160a01b031681526020019250505060206040518083038186803b15801561174657600080fd5b505afa15801561175a573d6000803e3d6000fd5b505050506040513d602081101561177057600080fd5b5051905061177f6105a2610dec565b9050600061179e61271061087360075485611e1e90919063ffffffff16565b9250505090565b6004546001600160a01b031633146117f2576040805162461bcd60e51b815260206004820152600b60248201526a61646d696e3a207775743f60a81b604482015290519081900360640190fd5b7f00000000000000000000000000000000000000000000000000000000000000006001600160a01b0316635312ea8e60006040518263ffffffff1660e01b815260040180828152602001915050600060405180830381600087803b15801561185957600080fd5b505af115801561186d573d6000803e3d6000fd5b50505050565b6004546001600160a01b031633146118c0576040805162461bcd60e51b815260206004820152600b60248201526a61646d696e3a207775743f60a81b604482015290519081900360640190fd5b7f00000000000000000000000000000000000000000000000000000000000000006001600160a01b0316816001600160a01b031614156119315760405162461bcd60e51b81526004018080602001828103825260258152602001806125086025913960400191505060405180910390fd5b7f00000000000000000000000000000000000000000000000000000000000000006001600160a01b0316816001600160a01b031614156119a25760405162461bcd60e51b81526004018080602001828103825260258152602001806125536025913960400191505060405180910390fd5b6000816001600160a01b03166370a08231306040518263ffffffff1660e01b815260040180826001600160a01b0316815260200191505060206040518083038186803b1580156119f157600080fd5b505afa158015611a05573d6000803e3d6000fd5b505050506040513d6020811015611a1b57600080fd5b50519050611a336001600160a01b0383163383611efb565b5050565b60095481565b60085481565b7f000000000000000000000000000000000000000000000000000000000000000081565b611a6f612089565b6000546001600160a01b03908116911614611abf576040805162461bcd60e51b815260206004820181905260248201526000805160206125f7833981519152604482015290519081900360640190fd5b6001600160a01b038116611b13576040805162461bcd60e51b815260206004820152601660248201527543616e6e6f74206265207a65726f206164647265737360501b604482015290519081900360640190fd5b600580546001600160a01b0319166001600160a01b0392909216919091179055565b611b3d612089565b6000546001600160a01b03908116911614611b8d576040805162461bcd60e51b815260206004820181905260248201526000805160206125f7833981519152604482015290519081900360640190fd5b6001600160a01b038116611bd25760405162461bcd60e51b81526004018080602001828103825260268152602001806124e26026913960400191505060405180910390fd5b600080546040516001600160a01b03808516939216917f8be0079c531659141344cd1fd0a4f28419497f9722a3daafe3b4186f6b6457e091a3600080546001600160a01b0319166001600160a01b0392909216919091179055565b6004546001600160a01b031681565b7f000000000000000000000000000000000000000000000000000000000000000081565b7f000000000000000000000000000000000000000000000000000000000000000081565b801580611d0a575060408051636eb1769f60e11b81523060048201526001600160a01b03848116602483015291519185169163dd62ed3e91604480820192602092909190829003018186803b158015611cdc57600080fd5b505afa158015611cf0573d6000803e3d6000fd5b505050506040513d6020811015611d0657600080fd5b5051155b611d455760405162461bcd60e51b81526004018080602001828103825260368152602001806126ae6036913960400191505060405180910390fd5b604080516001600160a01b038416602482015260448082018490528251808303909101815260649091019091526020810180516001600160e01b031663095ea7b360e01b179052611d97908490612171565b505050565b6060611dab8484600085612222565b90505b9392505050565b600082820183811015611e0f576040805162461bcd60e51b815260206004820152601b60248201527f536166654d6174683a206164646974696f6e206f766572666c6f770000000000604482015290519081900360640190fd5b90505b92915050565b3b151590565b600082611e2d57506000611e12565b82820282848281611e3a57fe5b0414611e0f5760405162461bcd60e51b81526004018080602001828103825260218152602001806125d66021913960400191505060405180910390fd5b6000611e0f83836040518060400160405280601a81526020017f536166654d6174683a206469766973696f6e206279207a65726f00000000000081525061237f565b6000611e0f83836040518060400160405280601e81526020017f536166654d6174683a207375627472616374696f6e206f766572666c6f770000815250612421565b604080516001600160a01b038416602482015260448082018490528251808303909101815260649091019091526020810180516001600160e01b031663a9059cbb60e01b179052611d97908490612171565b600054600160a01b900460ff16611fa2576040805162461bcd60e51b815260206004820152601460248201527314185d5cd8589b194e881b9bdd081c185d5cd95960621b604482015290519081900360640190fd5b6000805460ff60a01b191690557f5db9ee0a495bf2e6ff9c91a7834c1ba4fdd244a5e8aa4e537bd38aeae4b073aa611fd8612089565b604080516001600160a01b039092168252519081900360200190a1565b6000611fff610dec565b90508015612086577f00000000000000000000000000000000000000000000000000000000000000006001600160a01b03166341441d3b826040518263ffffffff1660e01b815260040180828152602001915050600060405180830381600087803b15801561206d57600080fd5b505af1158015612081573d6000803e3d6000fd5b505050505b50565b3390565b600054600160a01b900460ff16156120df576040805162461bcd60e51b815260206004820152601060248201526f14185d5cd8589b194e881c185d5cd95960821b604482015290519081900360640190fd5b6000805460ff60a01b1916600160a01b1790557f62e78cea01bee320cd4e420270b5ea74000d11b0c9f74754ebdbfc544b05a258611fd8612089565b604080516001600160a01b0380861660248301528416604482015260648082018490528251808303909101815260849091019091526020810180516001600160e01b03166323b872dd60e01b17905261186d9085905b60606121c6826040518060400160405280602081526020017f5361666545524332303a206c6f772d6c6576656c2063616c6c206661696c6564815250856001600160a01b0316611d9c9092919063ffffffff16565b805190915015611d97578080602001905160208110156121e557600080fd5b5051611d975760405162461bcd60e51b815260040180806020018281038252602a815260200180612654602a913960400191505060405180910390fd5b606030318311156122645760405162461bcd60e51b815260040180806020018281038252602681526020018061252d6026913960400191505060405180910390fd5b61226d85611e18565b6122be576040805162461bcd60e51b815260206004820152601d60248201527f416464726573733a2063616c6c20746f206e6f6e2d636f6e7472616374000000604482015290519081900360640190fd5b60006060866001600160a01b031685876040518082805190602001908083835b602083106122fd5780518252601f1990920191602091820191016122de565b6001836020036101000a03801982511681845116808217855250505050505090500191505060006040518083038185875af1925050503d806000811461235f576040519150601f19603f3d011682016040523d82523d6000602084013e612364565b606091505b509150915061237482828661247b565b979650505050505050565b6000818361240b5760405162461bcd60e51b81526004018080602001828103825283818151815260200191508051906020019080838360005b838110156123d05781810151838201526020016123b8565b50505050905090810190601f1680156123fd5780820380516001836020036101000a031916815260200191505b509250505060405180910390fd5b50600083858161241757fe5b0495945050505050565b600081848411156124735760405162461bcd60e51b81526020600482018181528351602484015283519092839260449091019190850190808383600083156123d05781810151838201526020016123b8565b505050900390565b6060831561248a575081611dae565b82511561249a5782518084602001fd5b60405162461bcd60e51b81526020600482018181528451602484015284518593919283926044019190850190808383600083156123d05781810151838201526020016123b856fe4f776e61626c653a206e6577206f776e657220697320746865207a65726f2061646472657373546f6b656e2063616e6e6f742062652073616d65206173206465706f73697420746f6b656e416464726573733a20696e73756666696369656e742062616c616e636520666f722063616c6c546f6b656e2063616e6e6f742062652073616d65206173207265636569707420746f6b656e63616c6c4665652063616e6e6f74206265206d6f7265207468616e204d41585f43414c4c5f464545706572666f726d616e63654665652063616e6e6f74206265206d6f7265207468616e204d41585f504552464f524d414e43455f464545536166654d6174683a206d756c7469706c69636174696f6e206f766572666c6f774f776e61626c653a2063616c6c6572206973206e6f7420746865206f776e65727769746864726177466565506572696f642063616e6e6f74206265206d6f7265207468616e204d41585f57495448445241575f4645455f504552494f445361666545524332303a204552433230206f7065726174696f6e20646964206e6f74207375636365656477697468647261774665652063616e6e6f74206265206d6f7265207468616e204d41585f57495448445241575f4645455361666545524332303a20617070726f76652066726f6d206e6f6e2d7a65726f20746f206e6f6e2d7a65726f20616c6c6f77616e6365a2646970667358221220077b7b865ac143bccb36c58db2fd8fec411f365a4e6d5243b5734b66d0e7c77e64736f6c634300060c0033416464726573733a20696e73756666696369656e742062616c616e636520666f722063616c6c5361666545524332303a204552433230206f7065726174696f6e20646964206e6f7420737563636565645361666545524332303a20617070726f76652066726f6d206e6f6e2d7a65726f20746f206e6f6e2d7a65726f20616c6c6f77616e6365",
  "immutableReferences": {
    "12214": [
      {
        "length": 32,
        "start": 2486
      },
      {
        "length": 32,
        "start": 2610
      },
      {
        "length": 32,
        "start": 3365
      },
      {
        "length": 32,
        "start": 3450
      },
      {
        "length": 32,
        "start": 3568
      },
      {
        "length": 32,
        "start": 4475
      },
      {
        "length": 32,
        "start": 5577
      },
      {
        "length": 32,
        "start": 6338
      },
      {
        "length": 32,
        "start": 7266
      }
    ],
    "12216": [
      {
        "length": 32,
        "start": 6451
      },
      {
        "length": 32,
        "start": 6725
      }
    ],
    "12218": [
      {
        "length": 32,
        "start": 1269
      },
      {
        "length": 32,
        "start": 2238
      },
      {
        "length": 32,
        "start": 3179
      },
      {
        "length": 32,
        "start": 4275
      },
      {
        "length": 32,
        "start": 5842
      },
      {
        "length": 32,
        "start": 6132
      },
      {
        "length": 32,
        "start": 7230
      },
      {
        "length": 32,
        "start": 8201
      }
    ]
  },
  "source": "// SPDX-License-Identifier: UNLICENSED\r\npragma solidity 0.6.12;\r\n\r\nimport \"@openzeppelin/contracts/math/SafeMath.sol\";\r\nimport '@openzeppelin/contracts/token/ERC20/IERC20.sol';\r\nimport '@openzeppelin/contracts/token/ERC20/SafeERC20.sol';\r\nimport \"@openzeppelin/contracts/access/Ownable.sol\";\r\nimport \"@openzeppelin/contracts/utils/Pausable.sol\";\r\n\r\nimport \"./interfaces/IMasterChef.sol\";\r\n\r\ncontract GlideVault is Ownable, Pausable {\r\n    using SafeERC20 for IERC20;\r\n    using SafeMath for uint256;\r\n\r\n    struct UserInfo {\r\n        uint256 shares; // number of shares for a user\r\n        uint256 lastDepositedTime; // keeps track of deposited time for potential penalty\r\n        uint256 glideAtLastUserAction; // keeps track of glide deposited at the last user action\r\n        uint256 lastUserActionTime; // keeps track of the last user action time\r\n    }\r\n\r\n    IERC20 public immutable token; // Glide token\r\n    IERC20 public immutable receiptToken; // Sugar token\r\n\r\n    IMasterChef public immutable masterchef;\r\n\r\n    mapping(address => UserInfo) public userInfo;\r\n\r\n    uint256 public totalShares;\r\n    uint256 public lastHarvestedTime;\r\n    address public admin;\r\n    address public treasury;\r\n\r\n    uint256 public constant MAX_PERFORMANCE_FEE = 500; // 5%\r\n    uint256 public constant MAX_CALL_FEE = 100; // 1%\r\n    uint256 public constant MAX_WITHDRAW_FEE = 100; // 1%\r\n    uint256 public constant MAX_WITHDRAW_FEE_PERIOD = 72 hours; // 3 days\r\n\r\n    uint256 public performanceFee = 200; // 2%\r\n    uint256 public callFee = 25; // 0.25%\r\n    uint256 public withdrawFee = 10; // 0.1%\r\n    uint256 public withdrawFeePeriod = 72 hours; // 3 days\r\n\r\n    event Deposit(address indexed sender, uint256 amount, uint256 shares, uint256 lastDepositedTime);\r\n    event Withdraw(address indexed sender, uint256 amount, uint256 shares);\r\n    event Harvest(address indexed sender, uint256 performanceFee, uint256 callFee);\r\n    event Pause();\r\n    event Unpause();\r\n\r\n    /**\r\n     * @notice Constructor\r\n     * @param _token: Glide token contract\r\n     * @param _receiptToken: Sugar token contract\r\n     * @param _masterchef: MasterChef contract\r\n     * @param _admin: address of the admin\r\n     * @param _treasury: address of the treasury (collects fees)\r\n     */\r\n    constructor(\r\n        IERC20 _token,\r\n        IERC20 _receiptToken,\r\n        IMasterChef _masterchef,\r\n        address _admin,\r\n        address _treasury\r\n    ) public {\r\n        token = _token;\r\n        receiptToken = _receiptToken;\r\n        masterchef = _masterchef;\r\n        admin = _admin;\r\n        treasury = _treasury;\r\n\r\n        // Infinite approve\r\n        IERC20(_token).safeApprove(address(_masterchef), uint256(-1));\r\n    }\r\n\r\n    /**\r\n     * @notice Checks if the msg.sender is the admin address\r\n     */\r\n    modifier onlyAdmin() {\r\n        require(msg.sender == admin, \"admin: wut?\");\r\n        _;\r\n    }\r\n\r\n    /**\r\n     * @notice Checks if the msg.sender is a contract or a proxy\r\n     */\r\n    modifier notContract() {\r\n        require(!_isContract(msg.sender), \"contract not allowed\");\r\n        require(msg.sender == tx.origin, \"proxy contract not allowed\");\r\n        _;\r\n    }\r\n\r\n    /**\r\n     * @notice Deposits funds into the Glide Vault\r\n     * @dev Only possible when contract not paused.\r\n     * @param _amount: number of tokens to deposit (in GLIDE)\r\n     */\r\n    function deposit(uint256 _amount) external whenNotPaused notContract {\r\n        require(_amount > 0, \"Nothing to deposit\");\r\n\r\n        uint256 pool = balanceOf();\r\n        token.safeTransferFrom(msg.sender, address(this), _amount);\r\n        uint256 currentShares = 0;\r\n        if (totalShares != 0) {\r\n            currentShares = (_amount.mul(totalShares)).div(pool);\r\n        } else {\r\n            currentShares = _amount;\r\n        }\r\n        UserInfo storage user = userInfo[msg.sender];\r\n\r\n        user.shares = user.shares.add(currentShares);\r\n        user.lastDepositedTime = block.timestamp;\r\n\r\n        totalShares = totalShares.add(currentShares);\r\n\r\n        user.glideAtLastUserAction = user.shares.mul(balanceOf()).div(totalShares);\r\n        user.lastUserActionTime = block.timestamp;\r\n\r\n        _earn();\r\n\r\n        emit Deposit(msg.sender, _amount, currentShares, block.timestamp);\r\n    }\r\n\r\n    /**\r\n     * @notice Withdraws all funds for a user\r\n     */\r\n    function withdrawAll() external notContract {\r\n        withdraw(userInfo[msg.sender].shares);\r\n    }\r\n\r\n    /**\r\n     * @notice Reinvests GLIDE tokens into MasterChef\r\n     * @dev Only possible when contract not paused.\r\n     */\r\n    function harvest() external notContract whenNotPaused {\r\n        IMasterChef(masterchef).leaveStaking(0);\r\n\r\n        uint256 bal = available();\r\n        uint256 currentPerformanceFee = bal.mul(performanceFee).div(10000);\r\n        token.safeTransfer(treasury, currentPerformanceFee);\r\n\r\n        uint256 currentCallFee = bal.mul(callFee).div(10000);\r\n        token.safeTransfer(msg.sender, currentCallFee);\r\n\r\n        _earn();\r\n\r\n        lastHarvestedTime = block.timestamp;\r\n\r\n        emit Harvest(msg.sender, currentPerformanceFee, currentCallFee);\r\n    }\r\n\r\n    /**\r\n     * @notice Sets admin address\r\n     * @dev Only callable by the contract owner.\r\n     */\r\n    function setAdmin(address _admin) external onlyOwner {\r\n        require(_admin != address(0), \"Cannot be zero address\");\r\n        admin = _admin;\r\n    }\r\n\r\n    /**\r\n     * @notice Sets treasury address\r\n     * @dev Only callable by the contract owner.\r\n     */\r\n    function setTreasury(address _treasury) external onlyOwner {\r\n        require(_treasury != address(0), \"Cannot be zero address\");\r\n        treasury = _treasury;\r\n    }\r\n\r\n    /**\r\n     * @notice Sets performance fee\r\n     * @dev Only callable by the contract admin.\r\n     */\r\n    function setPerformanceFee(uint256 _performanceFee) external onlyAdmin {\r\n        require(_performanceFee <= MAX_PERFORMANCE_FEE, \"performanceFee cannot be more than MAX_PERFORMANCE_FEE\");\r\n        performanceFee = _performanceFee;\r\n    }\r\n\r\n    /**\r\n     * @notice Sets call fee\r\n     * @dev Only callable by the contract admin.\r\n     */\r\n    function setCallFee(uint256 _callFee) external onlyAdmin {\r\n        require(_callFee <= MAX_CALL_FEE, \"callFee cannot be more than MAX_CALL_FEE\");\r\n        callFee = _callFee;\r\n    }\r\n\r\n    /**\r\n     * @notice Sets withdraw fee\r\n     * @dev Only callable by the contract admin.\r\n     */\r\n    function setWithdrawFee(uint256 _withdrawFee) external onlyAdmin {\r\n        require(_withdrawFee <= MAX_WITHDRAW_FEE, \"withdrawFee cannot be more than MAX_WITHDRAW_FEE\");\r\n        withdrawFee = _withdrawFee;\r\n    }\r\n\r\n    /**\r\n     * @notice Sets withdraw fee period\r\n     * @dev Only callable by the contract admin.\r\n     */\r\n    function setWithdrawFeePeriod(uint256 _withdrawFeePeriod) external onlyAdmin {\r\n        require(\r\n            _withdrawFeePeriod <= MAX_WITHDRAW_FEE_PERIOD,\r\n            \"withdrawFeePeriod cannot be more than MAX_WITHDRAW_FEE_PERIOD\"\r\n        );\r\n        withdrawFeePeriod = _withdrawFeePeriod;\r\n    }\r\n\r\n    /**\r\n     * @notice Withdraws from MasterChef to Vault without caring about rewards.\r\n     * @dev EMERGENCY ONLY. Only callable by the contract admin.\r\n     */\r\n    function emergencyWithdraw() external onlyAdmin {\r\n        IMasterChef(masterchef).emergencyWithdraw(0);\r\n    }\r\n\r\n    /**\r\n     * @notice Withdraw unexpected tokens sent to the Glide Vault\r\n     */\r\n    function inCaseTokensGetStuck(address _token) external onlyAdmin {\r\n        require(_token != address(token), \"Token cannot be same as deposit token\");\r\n        require(_token != address(receiptToken), \"Token cannot be same as receipt token\");\r\n\r\n        uint256 amount = IERC20(_token).balanceOf(address(this));\r\n        IERC20(_token).safeTransfer(msg.sender, amount);\r\n    }\r\n\r\n    /**\r\n     * @notice Triggers stopped state\r\n     * @dev Only possible when contract not paused.\r\n     */\r\n    function pause() external onlyAdmin whenNotPaused {\r\n        _pause();\r\n        emit Pause();\r\n    }\r\n\r\n    /**\r\n     * @notice Returns to normal state\r\n     * @dev Only possible when contract is paused.\r\n     */\r\n    function unpause() external onlyAdmin whenPaused {\r\n        _unpause();\r\n        emit Unpause();\r\n    }\r\n\r\n    /**\r\n     * @notice Calculates the expected harvest reward from third party\r\n     * @return Expected reward to collect in GLIDE\r\n     */\r\n    function calculateHarvestGlideRewards() external view returns (uint256) {\r\n        uint256 amount = IMasterChef(masterchef).pendingGlide(0, address(this));\r\n        amount = amount.add(available());\r\n        uint256 currentCallFee = amount.mul(callFee).div(10000);\r\n\r\n        return currentCallFee;\r\n    }\r\n\r\n    /**\r\n     * @notice Calculates the total pending rewards that can be restaked\r\n     * @return Returns total pending glide rewards\r\n     */\r\n    function calculateTotalPendingGlideRewards() external view returns (uint256) {\r\n        uint256 amount = IMasterChef(masterchef).pendingGlide(0, address(this));\r\n        amount = amount.add(available());\r\n\r\n        return amount;\r\n    }\r\n\r\n    /**\r\n     * @notice Calculates the price per share\r\n     */\r\n    function getPricePerFullShare() external view returns (uint256) {\r\n        return totalShares == 0 ? 1e18 : balanceOf().mul(1e18).div(totalShares);\r\n    }\r\n\r\n    /**\r\n     * @notice Withdraws from funds from the Glide Vault\r\n     * @param _shares: Number of shares to withdraw\r\n     */\r\n    function withdraw(uint256 _shares) public notContract {\r\n        UserInfo storage user = userInfo[msg.sender];\r\n        require(_shares > 0, \"Nothing to withdraw\");\r\n        require(_shares <= user.shares, \"Withdraw amount exceeds balance\");\r\n\r\n        uint256 currentAmount = (balanceOf().mul(_shares)).div(totalShares);\r\n        user.shares = user.shares.sub(_shares);\r\n        totalShares = totalShares.sub(_shares);\r\n\r\n        uint256 bal = available();\r\n        if (bal < currentAmount) {\r\n            uint256 balWithdraw = currentAmount.sub(bal);\r\n            IMasterChef(masterchef).leaveStaking(balWithdraw);\r\n            uint256 balAfter = available();\r\n            uint256 diff = balAfter.sub(bal);\r\n            if (diff < balWithdraw) {\r\n                currentAmount = bal.add(diff);\r\n            }\r\n        }\r\n\r\n        if (block.timestamp < user.lastDepositedTime.add(withdrawFeePeriod)) {\r\n            uint256 currentWithdrawFee = currentAmount.mul(withdrawFee).div(10000);\r\n            token.safeTransfer(treasury, currentWithdrawFee);\r\n            currentAmount = currentAmount.sub(currentWithdrawFee);\r\n        }\r\n\r\n        if (user.shares > 0) {\r\n            user.glideAtLastUserAction = user.shares.mul(balanceOf()).div(totalShares);\r\n        } else {\r\n            user.glideAtLastUserAction = 0;\r\n        }\r\n\r\n        user.lastUserActionTime = block.timestamp;\r\n\r\n        token.safeTransfer(msg.sender, currentAmount);\r\n\r\n        emit Withdraw(msg.sender, currentAmount, _shares);\r\n    }\r\n\r\n    /**\r\n     * @notice Custom logic for how much the vault allows to be borrowed\r\n     * @dev The contract puts 100% of the tokens to work.\r\n     */\r\n    function available() public view returns (uint256) {\r\n        return token.balanceOf(address(this));\r\n    }\r\n\r\n    /**\r\n     * @notice Calculates the total underlying tokens\r\n     * @dev It includes tokens held by the contract and held in MasterChef\r\n     */\r\n    function balanceOf() public view returns (uint256) {\r\n        (uint256 amount, ) = IMasterChef(masterchef).userInfo(0, address(this));\r\n        return token.balanceOf(address(this)).add(amount);\r\n    }\r\n\r\n    /**\r\n     * @notice Deposits tokens into MasterChef to earn staking rewards\r\n     */\r\n    function _earn() internal {\r\n        uint256 bal = available();\r\n        if (bal > 0) {\r\n            IMasterChef(masterchef).enterStaking(bal);\r\n        }\r\n    }\r\n\r\n    /**\r\n     * @notice Checks if address is a contract\r\n     * @dev It prevents contract from being targetted\r\n     */\r\n    function _isContract(address addr) internal view returns (bool) {\r\n        uint256 size;\r\n        assembly {\r\n            size := extcodesize(addr)\r\n        }\r\n        return size > 0;\r\n    }\r\n}",
  "sourcePath": "D:\\Posao-Stefan\\Stefan-razno\\Blockchain\\GlideFinance\\glide-contracts\\contracts\\Vault\\GlideVault.sol",
  "compiler": {
    "name": "solc",
    "version": "0.6.12+commit.27d51765.Emscripten.clang"
  },
  "schemaVersion": "3.4.3",
  "updatedAt": "2021-10-10T19:26:05.120Z",
  "networkType": "ethereum",
  "devdoc": {
    "kind": "dev",
    "methods": {
      "available()": {
        "details": "The contract puts 100% of the tokens to work."
      },
      "balanceOf()": {
        "details": "It includes tokens held by the contract and held in MasterChef"
      },
      "calculateHarvestGlideRewards()": {
        "returns": {
          "_0": "Expected reward to collect in GLIDE"
        }
      },
      "calculateTotalPendingGlideRewards()": {
        "returns": {
          "_0": "Returns total pending glide rewards"
        }
      },
      "constructor": {
        "params": {
          "_admin": ": address of the admin",
          "_masterchef": ": MasterChef contract",
          "_receiptToken": ": Sugar token contract",
          "_token": ": Glide token contract",
          "_treasury": ": address of the treasury (collects fees)"
        }
      },
      "deposit(uint256)": {
        "details": "Only possible when contract not paused.",
        "params": {
          "_amount": ": number of tokens to deposit (in GLIDE)"
        }
      },
      "emergencyWithdraw()": {
        "details": "EMERGENCY ONLY. Only callable by the contract admin."
      },
      "harvest()": {
        "details": "Only possible when contract not paused."
      },
      "owner()": {
        "details": "Returns the address of the current owner."
      },
      "pause()": {
        "details": "Only possible when contract not paused."
      },
      "paused()": {
        "details": "Returns true if the contract is paused, and false otherwise."
      },
      "renounceOwnership()": {
        "details": "Leaves the contract without owner. It will not be possible to call `onlyOwner` functions anymore. Can only be called by the current owner. NOTE: Renouncing ownership will leave the contract without an owner, thereby removing any functionality that is only available to the owner."
      },
      "setAdmin(address)": {
        "details": "Only callable by the contract owner."
      },
      "setCallFee(uint256)": {
        "details": "Only callable by the contract admin."
      },
      "setPerformanceFee(uint256)": {
        "details": "Only callable by the contract admin."
      },
      "setTreasury(address)": {
        "details": "Only callable by the contract owner."
      },
      "setWithdrawFee(uint256)": {
        "details": "Only callable by the contract admin."
      },
      "setWithdrawFeePeriod(uint256)": {
        "details": "Only callable by the contract admin."
      },
      "transferOwnership(address)": {
        "details": "Transfers ownership of the contract to a new account (`newOwner`). Can only be called by the current owner."
      },
      "unpause()": {
        "details": "Only possible when contract is paused."
      },
      "withdraw(uint256)": {
        "params": {
          "_shares": ": Number of shares to withdraw"
        }
      }
    },
    "version": 1
  },
  "userdoc": {
    "kind": "user",
    "methods": {
      "available()": {
        "notice": "Custom logic for how much the vault allows to be borrowed"
      },
      "balanceOf()": {
        "notice": "Calculates the total underlying tokens"
      },
      "calculateHarvestGlideRewards()": {
        "notice": "Calculates the expected harvest reward from third party"
      },
      "calculateTotalPendingGlideRewards()": {
        "notice": "Calculates the total pending rewards that can be restaked"
      },
      "constructor": "Constructor",
      "deposit(uint256)": {
        "notice": "Deposits funds into the Glide Vault"
      },
      "emergencyWithdraw()": {
        "notice": "Withdraws from MasterChef to Vault without caring about rewards."
      },
      "getPricePerFullShare()": {
        "notice": "Calculates the price per share"
      },
      "harvest()": {
        "notice": "Reinvests GLIDE tokens into MasterChef"
      },
      "inCaseTokensGetStuck(address)": {
        "notice": "Withdraw unexpected tokens sent to the Glide Vault"
      },
      "pause()": {
        "notice": "Triggers stopped state"
      },
      "setAdmin(address)": {
        "notice": "Sets admin address"
      },
      "setCallFee(uint256)": {
        "notice": "Sets call fee"
      },
      "setPerformanceFee(uint256)": {
        "notice": "Sets performance fee"
      },
      "setTreasury(address)": {
        "notice": "Sets treasury address"
      },
      "setWithdrawFee(uint256)": {
        "notice": "Sets withdraw fee"
      },
      "setWithdrawFeePeriod(uint256)": {
        "notice": "Sets withdraw fee period"
      },
      "unpause()": {
        "notice": "Returns to normal state"
      },
      "withdraw(uint256)": {
        "notice": "Withdraws from funds from the Glide Vault"
      },
      "withdrawAll()": {
        "notice": "Withdraws all funds for a user"
      }
    },
    "version": 1
  }
}