{
  "contractName": "GlideFactory",
  "abi": [
    {
      "inputs": [
        {
          "internalType": "address",
          "name": "_feeToSetter",
          "type": "address"
        }
      ],
      "stateMutability": "nonpayable",
      "type": "constructor"
    },
    {
      "anonymous": false,
      "inputs": [
        {
          "indexed": true,
          "internalType": "address",
          "name": "token0",
          "type": "address"
        },
        {
          "indexed": true,
          "internalType": "address",
          "name": "token1",
          "type": "address"
        },
        {
          "indexed": false,
          "internalType": "address",
          "name": "pair",
          "type": "address"
        },
        {
          "indexed": false,
          "internalType": "uint256",
          "name": "",
          "type": "uint256"
        }
      ],
      "name": "PairCreated",
      "type": "event"
    },
    {
      "anonymous": false,
      "inputs": [
        {
          "indexed": true,
          "internalType": "address",
          "name": "caller",
          "type": "address"
        },
        {
          "indexed": true,
          "internalType": "address",
          "name": "newAddress",
          "type": "address"
        }
      ],
      "name": "SetAdminAddress",
      "type": "event"
    },
    {
      "anonymous": false,
      "inputs": [
        {
          "indexed": true,
          "internalType": "address",
          "name": "caller",
          "type": "address"
        },
        {
          "indexed": true,
          "internalType": "address",
          "name": "newAddress",
          "type": "address"
        }
      ],
      "name": "SetFeeAddress",
      "type": "event"
    },
    {
      "inputs": [
        {
          "internalType": "uint256",
          "name": "",
          "type": "uint256"
        }
      ],
      "name": "allPairs",
      "outputs": [
        {
          "internalType": "address",
          "name": "",
          "type": "address"
        }
      ],
      "stateMutability": "view",
      "type": "function",
      "constant": true
    },
    {
      "inputs": [],
      "name": "feeTo",
      "outputs": [
        {
          "internalType": "address",
          "name": "",
          "type": "address"
        }
      ],
      "stateMutability": "view",
      "type": "function",
      "constant": true
    },
    {
      "inputs": [],
      "name": "feeToSetter",
      "outputs": [
        {
          "internalType": "address",
          "name": "",
          "type": "address"
        }
      ],
      "stateMutability": "view",
      "type": "function",
      "constant": true
    },
    {
      "inputs": [
        {
          "internalType": "address",
          "name": "",
          "type": "address"
        },
        {
          "internalType": "address",
          "name": "",
          "type": "address"
        }
      ],
      "name": "getPair",
      "outputs": [
        {
          "internalType": "address",
          "name": "",
          "type": "address"
        }
      ],
      "stateMutability": "view",
      "type": "function",
      "constant": true
    },
    {
      "inputs": [],
      "name": "initCodeHash",
      "outputs": [
        {
          "internalType": "bytes32",
          "name": "",
          "type": "bytes32"
        }
      ],
      "stateMutability": "view",
      "type": "function",
      "constant": true
    },
    {
      "inputs": [],
      "name": "allPairsLength",
      "outputs": [
        {
          "internalType": "uint256",
          "name": "",
          "type": "uint256"
        }
      ],
      "stateMutability": "view",
      "type": "function",
      "constant": true
    },
    {
      "inputs": [
        {
          "internalType": "address",
          "name": "tokenA",
          "type": "address"
        },
        {
          "internalType": "address",
          "name": "tokenB",
          "type": "address"
        }
      ],
      "name": "createPair",
      "outputs": [
        {
          "internalType": "address",
          "name": "pair",
          "type": "address"
        }
      ],
      "stateMutability": "nonpayable",
      "type": "function"
    },
    {
      "inputs": [
        {
          "internalType": "address",
          "name": "_feeTo",
          "type": "address"
        }
      ],
      "name": "setFeeTo",
      "outputs": [],
      "stateMutability": "nonpayable",
      "type": "function"
    },
    {
      "inputs": [
        {
          "internalType": "address",
          "name": "_feeToSetter",
          "type": "address"
        }
      ],
      "name": "setFeeToSetter",
      "outputs": [],
      "stateMutability": "nonpayable",
      "type": "function"
    },
    {
      "inputs": [
        {
          "internalType": "address",
          "name": "tokenA",
          "type": "address"
        },
        {
          "internalType": "address",
          "name": "tokenB",
          "type": "address"
        }
      ],
      "name": "sortTokens",
      "outputs": [
        {
          "internalType": "address",
          "name": "token0",
          "type": "address"
        },
        {
          "internalType": "address",
          "name": "token1",
          "type": "address"
        }
      ],
      "stateMutability": "pure",
      "type": "function",
      "constant": true
    },
    {
      "inputs": [
        {
          "internalType": "address",
          "name": "tokenA",
          "type": "address"
        },
        {
          "internalType": "address",
          "name": "tokenB",
          "type": "address"
        }
      ],
      "name": "pairFor",
      "outputs": [
        {
          "internalType": "address",
          "name": "pair",
          "type": "address"
        }
      ],
      "stateMutability": "view",
      "type": "function",
      "constant": true
    },
    {
      "inputs": [
        {
          "internalType": "address",
          "name": "tokenA",
          "type": "address"
        },
        {
          "internalType": "address",
          "name": "tokenB",
          "type": "address"
        }
      ],
      "name": "getReserves",
      "outputs": [
        {
          "internalType": "uint256",
          "name": "reserveA",
          "type": "uint256"
        },
        {
          "internalType": "uint256",
          "name": "reserveB",
          "type": "uint256"
        }
      ],
      "stateMutability": "view",
      "type": "function",
      "constant": true
    },
    {
      "inputs": [
        {
          "internalType": "uint256",
          "name": "amountA",
          "type": "uint256"
        },
        {
          "internalType": "uint256",
          "name": "reserveA",
          "type": "uint256"
        },
        {
          "internalType": "uint256",
          "name": "reserveB",
          "type": "uint256"
        }
      ],
      "name": "quote",
      "outputs": [
        {
          "internalType": "uint256",
          "name": "amountB",
          "type": "uint256"
        }
      ],
      "stateMutability": "pure",
      "type": "function",
      "constant": true
    },
    {
      "inputs": [
        {
          "internalType": "uint256",
          "name": "amountIn",
          "type": "uint256"
        },
        {
          "internalType": "uint256",
          "name": "reserveIn",
          "type": "uint256"
        },
        {
          "internalType": "uint256",
          "name": "reserveOut",
          "type": "uint256"
        }
      ],
      "name": "getAmountOut",
      "outputs": [
        {
          "internalType": "uint256",
          "name": "amountOut",
          "type": "uint256"
        }
      ],
      "stateMutability": "view",
      "type": "function",
      "constant": true
    },
    {
      "inputs": [
        {
          "internalType": "uint256",
          "name": "amountOut",
          "type": "uint256"
        },
        {
          "internalType": "uint256",
          "name": "reserveIn",
          "type": "uint256"
        },
        {
          "internalType": "uint256",
          "name": "reserveOut",
          "type": "uint256"
        }
      ],
      "name": "getAmountIn",
      "outputs": [
        {
          "internalType": "uint256",
          "name": "amountIn",
          "type": "uint256"
        }
      ],
      "stateMutability": "view",
      "type": "function",
      "constant": true
    },
    {
      "inputs": [
        {
          "internalType": "uint256",
          "name": "amountIn",
          "type": "uint256"
        },
        {
          "internalType": "address[]",
          "name": "path",
          "type": "address[]"
        }
      ],
      "name": "getAmountsOut",
      "outputs": [
        {
          "internalType": "uint256[]",
          "name": "amounts",
          "type": "uint256[]"
        }
      ],
      "stateMutability": "view",
      "type": "function",
      "constant": true
    },
    {
      "inputs": [
        {
          "internalType": "uint256",
          "name": "amountOut",
          "type": "uint256"
        },
        {
          "internalType": "address[]",
          "name": "path",
          "type": "address[]"
        }
      ],
      "name": "getAmountsIn",
      "outputs": [
        {
          "internalType": "uint256[]",
          "name": "amounts",
          "type": "uint256[]"
        }
      ],
      "stateMutability": "view",
      "type": "function",
      "constant": true
    }
  ],
  "bytecode": "0x608060405234801561001057600080fd5b506040516159e03803806159e08339818101604052602081101561003357600080fd5b5051600180546001600160a01b0319166001600160a01b03831617905560405161005f602082016100ec565b6020820181038252601f19601f820116604052506040516020018082805190602001908083835b602083106100a55780518252601f199092019160209182019101610086565b6001836020036101000a03801982511681845116808217855250505050505090500191505060405160208183030381529060405280519060200120600281905550506100f9565b6122e9806136f783390190565b6135ef806101086000396000f3fe608060405234801561001057600080fd5b506004361061010b5760003560e01c806396ed28f9116100a2578063d06ca61f11610071578063d06ca61f146103c9578063d52bb6f414610473578063db4c545e146104ba578063e6a43905146104c2578063f46901ed146104f05761010b565b806396ed28f91461031c578063a2e74af61461034a578063ad615dec14610372578063c9c653961461039b5761010b565b80631f00ca74116100de5780631f00ca7414610194578063544caa561461028e578063574f2ba3146102eb57806385f8c259146102f35761010b565b8063017e7e5814610110578063054d50d414610134578063094b74151461016f5780631e3dd18b14610177575b600080fd5b610118610516565b604080516001600160a01b039092168252519081900360200190f35b61015d6004803603606081101561014a57600080fd5b5080359060208101359060400135610525565b60408051918252519081900360200190f35b6101186105fd565b6101186004803603602081101561018d57600080fd5b503561060c565b61023e600480360360408110156101aa57600080fd5b813591908101906040810160208201356401000000008111156101cc57600080fd5b8201836020820111156101de57600080fd5b8035906020019184602083028401116401000000008311171561020057600080fd5b919080806020026020016040519081016040528093929190818152602001838360200280828437600092019190915250929550610633945050505050565b60408051602080825283518183015283519192839290830191858101910280838360005b8381101561027a578181015183820152602001610262565b505050509050019250505060405180910390f35b6102bc600480360360408110156102a457600080fd5b506001600160a01b038135811691602001351661077e565b60405180836001600160a01b03168152602001826001600160a01b031681526020019250505060405180910390f35b61015d61085c565b61015d6004803603606081101561030957600080fd5b5080359060208101359060400135610862565b6101186004803603604081101561033257600080fd5b506001600160a01b038135811691602001351661093a565b6103706004803603602081101561036057600080fd5b50356001600160a01b03166109cf565b005b61015d6004803603606081101561038857600080fd5b5080359060208101359060400135610a6d565b610118600480360360408110156103b157600080fd5b506001600160a01b0381358116916020013516610b13565b61023e600480360360408110156103df57600080fd5b8135919081019060408101602082013564010000000081111561040157600080fd5b82018360208201111561041357600080fd5b8035906020019184602083028401116401000000008311171561043557600080fd5b919080806020026020016040519081016040528093929190818152602001838360200280828437600092019190915250929550610e30945050505050565b6104a16004803603604081101561048957600080fd5b506001600160a01b0381358116916020013516610f66565b6040805192835260208301919091528051918290030190f35b61015d61103d565b610118600480360360408110156104d857600080fd5b506001600160a01b0381358116916020013516611043565b6103706004803603602081101561050657600080fd5b50356001600160a01b0316611069565b6000546001600160a01b031681565b60008084116105655760405162461bcd60e51b81526004018080602001828103825260278152602001806135266027913960400191505060405180910390fd5b6000831180156105755750600082115b6105b05760405162461bcd60e51b815260040180806020018281038252602481526020018061354d6024913960400191505060405180910390fd5b60006105be856103e5611106565b905060006105cc8285611106565b905060006105e6836105e0886103e8611106565b9061116f565b90508082816105f157fe5b04979650505050505050565b6001546001600160a01b031681565b6004818154811061061957fe5b6000918252602090912001546001600160a01b0316905081565b606060028251101561068c576040805162461bcd60e51b815260206004820152601a60248201527f476c696465466163746f72793a20494e56414c49445f50415448000000000000604482015290519081900360640190fd5b815167ffffffffffffffff811180156106a457600080fd5b506040519080825280602002602001820160405280156106ce578160200160208202803683370190505b50905082816001835103815181106106e257fe5b60209081029190910101528151600019015b80156107775760008061073085600185038151811061070f57fe5b602002602001015186858151811061072357fe5b6020026020010151610f66565b9150915061075284848151811061074357fe5b60200260200101518383610862565b84600185038151811061076157fe5b60209081029190910101525050600019016106f4565b5092915050565b600080826001600160a01b0316846001600160a01b031614156107d25760405162461bcd60e51b81526004018080602001828103825260218152602001806135716021913960400191505060405180910390fd5b826001600160a01b0316846001600160a01b0316106107f25782846107f5565b83835b90925090506001600160a01b038216610855576040805162461bcd60e51b815260206004820152601a60248201527f476c696465466163746f72793a205a45524f5f41444452455353000000000000604482015290519081900360640190fd5b9250929050565b60045490565b60008084116108a25760405162461bcd60e51b81526004018080602001828103825260288152602001806135926028913960400191505060405180910390fd5b6000831180156108b25750600082115b6108ed5760405162461bcd60e51b815260040180806020018281038252602481526020018061354d6024913960400191505060405180910390fd5b60006109056103e86108ff8688611106565b90611106565b905060006109196103e56108ff86896111be565b9050610930600182848161092957fe5b049061116f565b9695505050505050565b6000806000610949858561077e565b604080516bffffffffffffffffffffffff19606094851b811660208084019190915293851b166034820152815160288183030181526048820183528051908401206002546001600160f81b031960688401523090951b6069830152607d820152609d808201949094528151808203909401845260bd019052815191012095945050505050565b6001546001600160a01b03163314610a21576040805162461bcd60e51b815260206004820152601060248201526f23b634b2329d102327a92124a22222a760811b604482015290519081900360640190fd5b600180546001600160a01b0319166001600160a01b03831690811790915560405133907fa04c5533d9faa4e43e1061e405227c4820b0f264d4cd02e5de4247e5bc76e45090600090a350565b6000808411610aad5760405162461bcd60e51b81526004018080602001828103825260218152602001806135056021913960400191505060405180910390fd5b600083118015610abd5750600082115b610af85760405162461bcd60e51b815260040180806020018281038252602481526020018061354d6024913960400191505060405180910390fd5b82610b038584611106565b81610b0a57fe5b04949350505050565b6000816001600160a01b0316836001600160a01b03161415610b7c576040805162461bcd60e51b815260206004820152601a60248201527f476c6964653a204944454e544943414c5f414444524553534553000000000000604482015290519081900360640190fd5b600080836001600160a01b0316856001600160a01b031610610b9f578385610ba2565b84845b90925090506001600160a01b038216610bf8576040805162461bcd60e51b8152602060048201526013602482015272476c6964653a205a45524f5f4144445245535360681b604482015290519081900360640190fd5b6001600160a01b03828116600090815260036020908152604080832085851684529091529020541615610c67576040805162461bcd60e51b8152602060048201526012602482015271476c6964653a20504149525f45584953545360701b604482015290519081900360640190fd5b606060405180602001610c799061120e565b6020820181038252601f19601f8201166040525090506000838360405160200180836001600160a01b031660601b8152601401826001600160a01b031660601b815260140192505050604051602081830303815290604052805190602001209050808251602084016000f59450846001600160a01b031663485cc95585856040518363ffffffff1660e01b815260040180836001600160a01b03168152602001826001600160a01b0316815260200192505050600060405180830381600087803b158015610d4657600080fd5b505af1158015610d5a573d6000803e3d6000fd5b505050506001600160a01b0384811660008181526003602081815260408084208987168086529083528185208054978d166001600160a01b031998891681179091559383528185208686528352818520805488168517905560048054600181018255958190527f8a35acfbc15ff81a39ae7d344fd709f28e8600b4aa8c65c6b64bfe7fe36bd19b90950180549097168417909655925483519283529082015281517f0d3648bd0f6ba80134a33ba9275ac585d9d315f0ad8355cddefde31afa28d0e9929181900390910190a35050505092915050565b6060600282511015610e89576040805162461bcd60e51b815260206004820152601a60248201527f476c696465466163746f72793a20494e56414c49445f50415448000000000000604482015290519081900360640190fd5b815167ffffffffffffffff81118015610ea157600080fd5b50604051908082528060200260200182016040528015610ecb578160200160208202803683370190505b5090508281600081518110610edc57fe5b60200260200101818152505060005b600183510381101561077757600080610f20858481518110610f0957fe5b602002602001015186856001018151811061072357fe5b91509150610f42848481518110610f3357fe5b60200260200101518383610525565b848460010181518110610f5157fe5b60209081029190910101525050600101610eeb565b6000806000610f75858561077e565b509050610f82858561093a565b50600080610f90878761093a565b6001600160a01b0316630902f1ac6040518163ffffffff1660e01b815260040160606040518083038186803b158015610fc857600080fd5b505afa158015610fdc573d6000803e3d6000fd5b505050506040513d6060811015610ff257600080fd5b5080516020909101516dffffffffffffffffffffffffffff91821693501690506001600160a01b038781169084161461102c57808261102f565b81815b909890975095505050505050565b60025481565b60036020908152600092835260408084209091529082529020546001600160a01b031681565b6001546001600160a01b031633146110bb576040805162461bcd60e51b815260206004820152601060248201526f23b634b2329d102327a92124a22222a760811b604482015290519081900360640190fd5b600080546001600160a01b0319166001600160a01b0383169081178255604051909133917fd44190acf9d04bdb5d3a1aafff7e6dee8b40b93dfb8c5d3f0eea4b9f4539c3f79190a350565b60008115806111215750508082028282828161111e57fe5b04145b611169576040805162461bcd60e51b815260206004820152601460248201527364732d6d6174682d6d756c2d6f766572666c6f7760601b604482015290519081900360640190fd5b92915050565b80820182811015611169576040805162461bcd60e51b815260206004820152601460248201527364732d6d6174682d6164642d6f766572666c6f7760601b604482015290519081900360640190fd5b80820382811115611169576040805162461bcd60e51b815260206004820152601560248201527464732d6d6174682d7375622d756e646572666c6f7760581b604482015290519081900360640190fd5b6122e98061121c8339019056fe60806040526001600c5534801561001557600080fd5b50604080518082018252600981527f476c696465204c5073000000000000000000000000000000000000000000000060209182015281518083018352600181527f31000000000000000000000000000000000000000000000000000000000000009082015281517f8b73c3c69bb8fe3d512ecc4cf759cc79239f7b179b0ffacaa9a75d522b39400f818301527f257a122b0778c125a45ec6fba82af2ffa08a29825d64ac24884f24edc88a3178818401527fc89efdaa54c0f20c7adf612882df0950f5a951637e0307cdcb4c672f298b8bc66060820152601460808201523060a0808301919091528351808303909101815260c09091019092528151910120600355600580546001600160a01b031916331790556121b1806101386000396000f3fe608060405234801561001057600080fd5b50600436106101a95760003560e01c80636a627842116100f9578063ba9a7a5611610097578063d21220a711610071578063d21220a714610534578063d505accf1461053c578063dd62ed3e1461058d578063fff6cae9146105bb576101a9565b8063ba9a7a56146104fe578063bc25cf7714610506578063c45a01551461052c576101a9565b80637ecebe00116100d35780637ecebe001461046557806389afcb441461048b57806395d89b41146104ca578063a9059cbb146104d2576101a9565b80636a6278421461041157806370a08231146104375780637464fc3d1461045d576101a9565b806323b872dd116101665780633644e515116101405780633644e515146103cb578063485cc955146103d35780635909c0d5146104015780635a3d549314610409576101a9565b806323b872dd1461036f57806330adf81f146103a5578063313ce567146103ad576101a9565b8063022c0d9f146101ae57806306fdde031461023c5780630902f1ac146102b9578063095ea7b3146102f15780630dfe16811461033157806318160ddd14610355575b600080fd5b61023a600480360360808110156101c457600080fd5b8135916020810135916001600160a01b0360408301351691908101906080810160608201356401000000008111156101fb57600080fd5b82018360208201111561020d57600080fd5b8035906020019184600183028401116401000000008311171561022f57600080fd5b5090925090506105c3565b005b610244610aeb565b6040805160208082528351818301528351919283929083019185019080838360005b8381101561027e578181015183820152602001610266565b50505050905090810190601f1680156102ab5780820380516001836020036101000a031916815260200191505b509250505060405180910390f35b6102c1610b10565b604080516001600160701b03948516815292909316602083015263ffffffff168183015290519081900360600190f35b61031d6004803603604081101561030757600080fd5b506001600160a01b038135169060200135610b3a565b604080519115158252519081900360200190f35b610339610b51565b604080516001600160a01b039092168252519081900360200190f35b61035d610b60565b60408051918252519081900360200190f35b61031d6004803603606081101561038557600080fd5b506001600160a01b03813581169160208101359091169060400135610b66565b61035d610c34565b6103b5610c58565b6040805160ff9092168252519081900360200190f35b61035d610c5d565b61023a600480360360408110156103e957600080fd5b506001600160a01b0381358116916020013516610c63565b61035d610ce3565b61035d610ce9565b61035d6004803603602081101561042757600080fd5b50356001600160a01b0316610cef565b61035d6004803603602081101561044d57600080fd5b50356001600160a01b0316610fc7565b61035d610fd9565b61035d6004803603602081101561047b57600080fd5b50356001600160a01b0316610fdf565b6104b1600480360360208110156104a157600080fd5b50356001600160a01b0316610ff1565b6040805192835260208301919091528051918290030190f35b610244611381565b61031d600480360360408110156104e857600080fd5b506001600160a01b0381351690602001356113a5565b61035d6113b2565b61023a6004803603602081101561051c57600080fd5b50356001600160a01b03166113b8565b610339611526565b610339611535565b61023a600480360360e081101561055257600080fd5b506001600160a01b03813581169160208101359091169060408101359060608101359060ff6080820135169060a08101359060c00135611544565b61035d600480360360408110156105a357600080fd5b506001600160a01b0381358116916020013516611742565b61023a61175f565b600c5460011461060a576040805162461bcd60e51b815260206004820152600d60248201526c11db1a59194e881313d0d2d151609a1b604482015290519081900360640190fd5b6000600c558415158061061d5750600084115b6106585760405162461bcd60e51b81526004018080602001828103825260218152602001806121136021913960400191505060405180910390fd5b600080610663610b10565b5091509150816001600160701b0316871080156106885750806001600160701b031686105b6106d9576040805162461bcd60e51b815260206004820152601d60248201527f476c6964653a20494e53554646494349454e545f4c4951554944495459000000604482015290519081900360640190fd5b60065460075460009182916001600160a01b039182169190811690891682148015906107175750806001600160a01b0316896001600160a01b031614155b61075c576040805162461bcd60e51b8152602060048201526011602482015270476c6964653a20494e56414c49445f544f60781b604482015290519081900360640190fd5b8a1561076d5761076d828a8d6118bd565b891561077e5761077e818a8c6118bd565b861561083057886001600160a01b0316638c32f62b338d8d8c8c6040518663ffffffff1660e01b815260040180866001600160a01b03168152602001858152602001848152602001806020018281038252848482818152602001925080828437600081840152601f19601f8201169050808301925050509650505050505050600060405180830381600087803b15801561081757600080fd5b505af115801561082b573d6000803e3d6000fd5b505050505b604080516370a0823160e01b815230600482015290516001600160a01b038416916370a08231916024808301926020929190829003018186803b15801561087657600080fd5b505afa15801561088a573d6000803e3d6000fd5b505050506040513d60208110156108a057600080fd5b5051604080516370a0823160e01b815230600482015290519195506001600160a01b038316916370a0823191602480820192602092909190829003018186803b1580156108ec57600080fd5b505afa158015610900573d6000803e3d6000fd5b505050506040513d602081101561091657600080fd5b5051925060009150506001600160701b0385168a90038311610939576000610948565b89856001600160701b03160383035b9050600089856001600160701b0316038311610965576000610974565b89856001600160701b03160383035b905060008211806109855750600081115b6109d6576040805162461bcd60e51b815260206004820181905260248201527f476c6964653a20494e53554646494349454e545f494e5055545f414d4f554e54604482015290519081900360640190fd5b60006109f86109e6846003611a50565b6109f2876103e8611a50565b90611ab3565b90506000610a0a6109e6846003611a50565b9050610a2f620f4240610a296001600160701b038b8116908b16611a50565b90611a50565b610a398383611a50565b1015610a77576040805162461bcd60e51b8152602060048201526008602482015267476c6964653a204b60c01b604482015290519081900360640190fd5b5050610a8584848888611b03565b60408051838152602081018390528082018d9052606081018c905290516001600160a01b038b169133917fd78ad95fa46c994b6551d0da85fc275fe613ce37657fb8d5e3d130840159d8229181900360800190a350506001600c55505050505050505050565b60405180604001604052806009815260200168476c696465204c507360b81b81525081565b6008546001600160701b0380821692600160701b830490911691600160e01b900463ffffffff1690565b6000610b47338484611cbe565b5060015b92915050565b6006546001600160a01b031681565b60005481565b6001600160a01b038316600090815260026020908152604080832033845290915281205460001914610c1f576001600160a01b0384166000908152600260209081526040808320338452909152902054610bc09083611ab3565b6001600160a01b03851660008181526002602090815260408083203380855290835292819020949094558351868152935191937f8c5be1e5ebec7d5bd14f71427d1e84f3dd0314c0f7b2291e5b200ac8c7c3b925929081900390910190a35b610c2a848484611d20565b5060019392505050565b7f6e71edae12b1b97f4d1f60370fef10105fa2faae0126114a169c64845d6126c981565b601281565b60035481565b6005546001600160a01b03163314610cb5576040805162461bcd60e51b815260206004820152601060248201526f23b634b2329d102327a92124a22222a760811b604482015290519081900360640190fd5b600680546001600160a01b039384166001600160a01b03199182161790915560078054929093169116179055565b60095481565b600a5481565b6000600c54600114610d38576040805162461bcd60e51b815260206004820152600d60248201526c11db1a59194e881313d0d2d151609a1b604482015290519081900360640190fd5b6000600c81905580610d48610b10565b50600654604080516370a0823160e01b815230600482015290519395509193506000926001600160a01b03909116916370a08231916024808301926020929190829003018186803b158015610d9c57600080fd5b505afa158015610db0573d6000803e3d6000fd5b505050506040513d6020811015610dc657600080fd5b5051600754604080516370a0823160e01b815230600482015290519293506000926001600160a01b03909216916370a0823191602480820192602092909190829003018186803b158015610e1957600080fd5b505afa158015610e2d573d6000803e3d6000fd5b505050506040513d6020811015610e4357600080fd5b505190506000610e5c836001600160701b038716611ab3565b90506000610e73836001600160701b038716611ab3565b90506000610e818787611dce565b60005490915080610eb857610ea46103e86109f2610e9f8787611a50565b611f06565b9850610eb360006103e8611f58565b610efb565b610ef86001600160701b038916610ecf8684611a50565b81610ed657fe5b046001600160701b038916610eeb8685611a50565b81610ef257fe5b04611fe2565b98505b60008911610f3a5760405162461bcd60e51b81526004018080602001828103825260248152602001806121346024913960400191505060405180910390fd5b610f448a8a611f58565b610f5086868a8a611b03565b8115610f7a57600854610f76906001600160701b0380821691600160701b900416611a50565b600b555b6040805185815260208101859052815133927f4c209b5fc8ad50758f13e2e1088ba56a560dff690a1c6fef26394f4c03821c4f928290030190a250506001600c5550949695505050505050565b60016020526000908152604090205481565b600b5481565b60046020526000908152604090205481565b600080600c5460011461103b576040805162461bcd60e51b815260206004820152600d60248201526c11db1a59194e881313d0d2d151609a1b604482015290519081900360640190fd5b6000600c8190558061104b610b10565b50600654600754604080516370a0823160e01b815230600482015290519496509294506001600160a01b039182169391169160009184916370a08231916024808301926020929190829003018186803b1580156110a757600080fd5b505afa1580156110bb573d6000803e3d6000fd5b505050506040513d60208110156110d157600080fd5b5051604080516370a0823160e01b815230600482015290519192506000916001600160a01b038516916370a08231916024808301926020929190829003018186803b15801561111f57600080fd5b505afa158015611133573d6000803e3d6000fd5b505050506040513d602081101561114957600080fd5b5051306000908152600160205260408120549192506111688888611dce565b600054909150806111798487611a50565b8161118057fe5b049a508061118e8486611a50565b8161119557fe5b04995060008b1180156111a8575060008a115b6111e35760405162461bcd60e51b81526004018080602001828103825260248152602001806121586024913960400191505060405180910390fd5b6111ed3084611ffa565b6111f8878d8d6118bd565b611203868d8c6118bd565b604080516370a0823160e01b815230600482015290516001600160a01b038916916370a08231916024808301926020929190829003018186803b15801561124957600080fd5b505afa15801561125d573d6000803e3d6000fd5b505050506040513d602081101561127357600080fd5b5051604080516370a0823160e01b815230600482015290519196506001600160a01b038816916370a0823191602480820192602092909190829003018186803b1580156112bf57600080fd5b505afa1580156112d3573d6000803e3d6000fd5b505050506040513d60208110156112e957600080fd5b505193506112f985858b8b611b03565b81156113235760085461131f906001600160701b0380821691600160701b900416611a50565b600b555b604080518c8152602081018c905281516001600160a01b038f169233927fdccd412f0b1252819cb1fd330b93224ca42612892bb3f4f789976e6d81936496929081900390910190a35050505050505050506001600c81905550915091565b604051806040016040528060088152602001670476c6964652d4c560c41b81525081565b6000610b47338484611d20565b6103e881565b600c546001146113ff576040805162461bcd60e51b815260206004820152600d60248201526c11db1a59194e881313d0d2d151609a1b604482015290519081900360640190fd5b6000600c55600654600754600854604080516370a0823160e01b815230600482015290516001600160a01b0394851694909316926114a892859287926114a3926001600160701b03169185916370a0823191602480820192602092909190829003018186803b15801561147157600080fd5b505afa158015611485573d6000803e3d6000fd5b505050506040513d602081101561149b57600080fd5b505190611ab3565b6118bd565b61151c81846114a36008600e9054906101000a90046001600160701b03166001600160701b0316856001600160a01b03166370a08231306040518263ffffffff1660e01b815260040180826001600160a01b0316815260200191505060206040518083038186803b15801561147157600080fd5b50506001600c5550565b6005546001600160a01b031681565b6007546001600160a01b031681565b4284101561158a576040805162461bcd60e51b815260206004820152600e60248201526d11db1a59194e881156141254915160921b604482015290519081900360640190fd5b6003546001600160a01b0380891660008181526004602090815260408083208054600180820190925582517f6e71edae12b1b97f4d1f60370fef10105fa2faae0126114a169c64845d6126c98186015280840196909652958d166060860152608085018c905260a085019590955260c08085018b90528151808603909101815260e08501825280519083012061190160f01b6101008601526101028501969096526101228085019690965280518085039096018652610142840180825286519683019690962095839052610162840180825286905260ff89166101828501526101a284018890526101c28401879052519193926101e280820193601f1981019281900390910190855afa1580156116a5573d6000803e3d6000fd5b5050604051601f1901519150506001600160a01b038116158015906116db5750886001600160a01b0316816001600160a01b0316145b61172c576040805162461bcd60e51b815260206004820152601860248201527f476c6964653a20494e56414c49445f5349474e41545552450000000000000000604482015290519081900360640190fd5b611737898989611cbe565b505050505050505050565b600260209081526000928352604080842090915290825290205481565b600c546001146117a6576040805162461bcd60e51b815260206004820152600d60248201526c11db1a59194e881313d0d2d151609a1b604482015290519081900360640190fd5b6000600c55600654604080516370a0823160e01b815230600482015290516118b6926001600160a01b0316916370a08231916024808301926020929190829003018186803b1580156117f757600080fd5b505afa15801561180b573d6000803e3d6000fd5b505050506040513d602081101561182157600080fd5b5051600754604080516370a0823160e01b815230600482015290516001600160a01b03909216916370a0823191602480820192602092909190829003018186803b15801561186e57600080fd5b505afa158015611882573d6000803e3d6000fd5b505050506040513d602081101561189857600080fd5b50516008546001600160701b0380821691600160701b900416611b03565b6001600c55565b604080518082018252601981527f7472616e7366657228616464726573732c75696e74323536290000000000000060209182015281516001600160a01b0385811660248301526044808301869052845180840390910181526064909201845291810180516001600160e01b031663a9059cbb60e01b1781529251815160009460609489169392918291908083835b6020831061196a5780518252601f19909201916020918201910161194b565b6001836020036101000a0380198251168184511680821785525050505050509050019150506000604051808303816000865af19150503d80600081146119cc576040519150601f19603f3d011682016040523d82523d6000602084013e6119d1565b606091505b50915091508180156119ff5750805115806119ff57508080602001905160208110156119fc57600080fd5b50515b611a49576040805162461bcd60e51b815260206004820152601660248201527511db1a59194e881514905394d1915497d1905253115160521b604482015290519081900360640190fd5b5050505050565b6000811580611a6b57505080820282828281611a6857fe5b04145b610b4b576040805162461bcd60e51b815260206004820152601460248201527364732d6d6174682d6d756c2d6f766572666c6f7760601b604482015290519081900360640190fd5b80820382811115610b4b576040805162461bcd60e51b815260206004820152601560248201527464732d6d6174682d7375622d756e646572666c6f7760581b604482015290519081900360640190fd5b6001600160701b038411801590611b2157506001600160701b038311155b611b64576040805162461bcd60e51b815260206004820152600f60248201526e476c6964653a204f564552464c4f5760881b604482015290519081900360640190fd5b60085463ffffffff42811691600160e01b90048116820390811615801590611b9457506001600160701b03841615155b8015611ba857506001600160701b03831615155b15611c13578063ffffffff16611bd085611bc18661208c565b6001600160e01b03169061209e565b600980546001600160e01b03929092169290920201905563ffffffff8116611bfb84611bc18761208c565b600a80546001600160e01b0392909216929092020190555b600880546dffffffffffffffffffffffffffff19166001600160701b03888116919091176dffffffffffffffffffffffffffff60701b1916600160701b8883168102919091176001600160e01b0316600160e01b63ffffffff871602179283905560408051848416815291909304909116602082015281517f1c411e9a96e071241c2f21f7726b17ae89e3cab4c78be50e062b03a9fffbbad1929181900390910190a1505050505050565b6001600160a01b03808416600081815260026020908152604080832094871680845294825291829020859055815185815291517f8c5be1e5ebec7d5bd14f71427d1e84f3dd0314c0f7b2291e5b200ac8c7c3b9259281900390910190a3505050565b6001600160a01b038316600090815260016020526040902054611d439082611ab3565b6001600160a01b038085166000908152600160205260408082209390935590841681522054611d7290826120c3565b6001600160a01b0380841660008181526001602090815260409182902094909455805185815290519193928716927fddf252ad1be2c89b69c2b068fc378daa952ba7f163c4a11628f55a4df523b3ef92918290030190a3505050565b600080600560009054906101000a90046001600160a01b03166001600160a01b031663017e7e586040518163ffffffff1660e01b815260040160206040518083038186803b158015611e1f57600080fd5b505afa158015611e33573d6000803e3d6000fd5b505050506040513d6020811015611e4957600080fd5b5051600b546001600160a01b038216158015945091925090611ef2578015611eed576000611e86610e9f6001600160701b03888116908816611a50565b90506000611e9383611f06565b905080821115611eea576000611eb5611eac8484611ab3565b60005490611a50565b90506000611ec660058504846120c3565b90506000818381611ed357fe5b0490508015611ee657611ee68782611f58565b5050505b50505b611efe565b8015611efe576000600b555b505092915050565b60006003821115611f49575080600160028204015b81811015611f4357809150600281828581611f3257fe5b040181611f3b57fe5b049050611f1b565b50611f53565b8115611f53575060015b919050565b600054611f6590826120c3565b60009081556001600160a01b038316815260016020526040902054611f8a90826120c3565b6001600160a01b03831660008181526001602090815260408083209490945583518581529351929391927fddf252ad1be2c89b69c2b068fc378daa952ba7f163c4a11628f55a4df523b3ef9281900390910190a35050565b6000818310611ff15781611ff3565b825b9392505050565b6001600160a01b03821660009081526001602052604090205461201d9082611ab3565b6001600160a01b038316600090815260016020526040812091909155546120449082611ab3565b60009081556040805183815290516001600160a01b038516917fddf252ad1be2c89b69c2b068fc378daa952ba7f163c4a11628f55a4df523b3ef919081900360200190a35050565b6001600160701b0316600160701b0290565b60006001600160701b0382166001600160e01b038416816120bb57fe5b049392505050565b80820182811015610b4b576040805162461bcd60e51b815260206004820152601460248201527364732d6d6174682d6164642d6f766572666c6f7760601b604482015290519081900360640190fdfe476c6964653a20494e53554646494349454e545f4f55545055545f414d4f554e54476c6964653a20494e53554646494349454e545f4c49515549444954595f4d494e544544476c6964653a20494e53554646494349454e545f4c49515549444954595f4255524e4544a2646970667358221220a9663dd7faeb16bc2fef8db199175b8f09d921fc55235a5e2d030cf2105d6f6164736f6c634300060c0033476c696465466163746f72793a20494e53554646494349454e545f414d4f554e54476c696465466163746f72793a20494e53554646494349454e545f494e5055545f414d4f554e54476c696465466163746f72793a20494e53554646494349454e545f4c4951554944495459476c696465466163746f72793a204944454e544943414c5f414444524553534553476c696465466163746f72793a20494e53554646494349454e545f4f55545055545f414d4f554e54a2646970667358221220f4029540c942e9600b8c927c56840408a1b232b9d2863c50ba42c21927e3114464736f6c634300060c003360806040526001600c5534801561001557600080fd5b50604080518082018252600981527f476c696465204c5073000000000000000000000000000000000000000000000060209182015281518083018352600181527f31000000000000000000000000000000000000000000000000000000000000009082015281517f8b73c3c69bb8fe3d512ecc4cf759cc79239f7b179b0ffacaa9a75d522b39400f818301527f257a122b0778c125a45ec6fba82af2ffa08a29825d64ac24884f24edc88a3178818401527fc89efdaa54c0f20c7adf612882df0950f5a951637e0307cdcb4c672f298b8bc66060820152601460808201523060a0808301919091528351808303909101815260c09091019092528151910120600355600580546001600160a01b031916331790556121b1806101386000396000f3fe608060405234801561001057600080fd5b50600436106101a95760003560e01c80636a627842116100f9578063ba9a7a5611610097578063d21220a711610071578063d21220a714610534578063d505accf1461053c578063dd62ed3e1461058d578063fff6cae9146105bb576101a9565b8063ba9a7a56146104fe578063bc25cf7714610506578063c45a01551461052c576101a9565b80637ecebe00116100d35780637ecebe001461046557806389afcb441461048b57806395d89b41146104ca578063a9059cbb146104d2576101a9565b80636a6278421461041157806370a08231146104375780637464fc3d1461045d576101a9565b806323b872dd116101665780633644e515116101405780633644e515146103cb578063485cc955146103d35780635909c0d5146104015780635a3d549314610409576101a9565b806323b872dd1461036f57806330adf81f146103a5578063313ce567146103ad576101a9565b8063022c0d9f146101ae57806306fdde031461023c5780630902f1ac146102b9578063095ea7b3146102f15780630dfe16811461033157806318160ddd14610355575b600080fd5b61023a600480360360808110156101c457600080fd5b8135916020810135916001600160a01b0360408301351691908101906080810160608201356401000000008111156101fb57600080fd5b82018360208201111561020d57600080fd5b8035906020019184600183028401116401000000008311171561022f57600080fd5b5090925090506105c3565b005b610244610aeb565b6040805160208082528351818301528351919283929083019185019080838360005b8381101561027e578181015183820152602001610266565b50505050905090810190601f1680156102ab5780820380516001836020036101000a031916815260200191505b509250505060405180910390f35b6102c1610b10565b604080516001600160701b03948516815292909316602083015263ffffffff168183015290519081900360600190f35b61031d6004803603604081101561030757600080fd5b506001600160a01b038135169060200135610b3a565b604080519115158252519081900360200190f35b610339610b51565b604080516001600160a01b039092168252519081900360200190f35b61035d610b60565b60408051918252519081900360200190f35b61031d6004803603606081101561038557600080fd5b506001600160a01b03813581169160208101359091169060400135610b66565b61035d610c34565b6103b5610c58565b6040805160ff9092168252519081900360200190f35b61035d610c5d565b61023a600480360360408110156103e957600080fd5b506001600160a01b0381358116916020013516610c63565b61035d610ce3565b61035d610ce9565b61035d6004803603602081101561042757600080fd5b50356001600160a01b0316610cef565b61035d6004803603602081101561044d57600080fd5b50356001600160a01b0316610fc7565b61035d610fd9565b61035d6004803603602081101561047b57600080fd5b50356001600160a01b0316610fdf565b6104b1600480360360208110156104a157600080fd5b50356001600160a01b0316610ff1565b6040805192835260208301919091528051918290030190f35b610244611381565b61031d600480360360408110156104e857600080fd5b506001600160a01b0381351690602001356113a5565b61035d6113b2565b61023a6004803603602081101561051c57600080fd5b50356001600160a01b03166113b8565b610339611526565b610339611535565b61023a600480360360e081101561055257600080fd5b506001600160a01b03813581169160208101359091169060408101359060608101359060ff6080820135169060a08101359060c00135611544565b61035d600480360360408110156105a357600080fd5b506001600160a01b0381358116916020013516611742565b61023a61175f565b600c5460011461060a576040805162461bcd60e51b815260206004820152600d60248201526c11db1a59194e881313d0d2d151609a1b604482015290519081900360640190fd5b6000600c558415158061061d5750600084115b6106585760405162461bcd60e51b81526004018080602001828103825260218152602001806121136021913960400191505060405180910390fd5b600080610663610b10565b5091509150816001600160701b0316871080156106885750806001600160701b031686105b6106d9576040805162461bcd60e51b815260206004820152601d60248201527f476c6964653a20494e53554646494349454e545f4c4951554944495459000000604482015290519081900360640190fd5b60065460075460009182916001600160a01b039182169190811690891682148015906107175750806001600160a01b0316896001600160a01b031614155b61075c576040805162461bcd60e51b8152602060048201526011602482015270476c6964653a20494e56414c49445f544f60781b604482015290519081900360640190fd5b8a1561076d5761076d828a8d6118bd565b891561077e5761077e818a8c6118bd565b861561083057886001600160a01b0316638c32f62b338d8d8c8c6040518663ffffffff1660e01b815260040180866001600160a01b03168152602001858152602001848152602001806020018281038252848482818152602001925080828437600081840152601f19601f8201169050808301925050509650505050505050600060405180830381600087803b15801561081757600080fd5b505af115801561082b573d6000803e3d6000fd5b505050505b604080516370a0823160e01b815230600482015290516001600160a01b038416916370a08231916024808301926020929190829003018186803b15801561087657600080fd5b505afa15801561088a573d6000803e3d6000fd5b505050506040513d60208110156108a057600080fd5b5051604080516370a0823160e01b815230600482015290519195506001600160a01b038316916370a0823191602480820192602092909190829003018186803b1580156108ec57600080fd5b505afa158015610900573d6000803e3d6000fd5b505050506040513d602081101561091657600080fd5b5051925060009150506001600160701b0385168a90038311610939576000610948565b89856001600160701b03160383035b9050600089856001600160701b0316038311610965576000610974565b89856001600160701b03160383035b905060008211806109855750600081115b6109d6576040805162461bcd60e51b815260206004820181905260248201527f476c6964653a20494e53554646494349454e545f494e5055545f414d4f554e54604482015290519081900360640190fd5b60006109f86109e6846003611a50565b6109f2876103e8611a50565b90611ab3565b90506000610a0a6109e6846003611a50565b9050610a2f620f4240610a296001600160701b038b8116908b16611a50565b90611a50565b610a398383611a50565b1015610a77576040805162461bcd60e51b8152602060048201526008602482015267476c6964653a204b60c01b604482015290519081900360640190fd5b5050610a8584848888611b03565b60408051838152602081018390528082018d9052606081018c905290516001600160a01b038b169133917fd78ad95fa46c994b6551d0da85fc275fe613ce37657fb8d5e3d130840159d8229181900360800190a350506001600c55505050505050505050565b60405180604001604052806009815260200168476c696465204c507360b81b81525081565b6008546001600160701b0380821692600160701b830490911691600160e01b900463ffffffff1690565b6000610b47338484611cbe565b5060015b92915050565b6006546001600160a01b031681565b60005481565b6001600160a01b038316600090815260026020908152604080832033845290915281205460001914610c1f576001600160a01b0384166000908152600260209081526040808320338452909152902054610bc09083611ab3565b6001600160a01b03851660008181526002602090815260408083203380855290835292819020949094558351868152935191937f8c5be1e5ebec7d5bd14f71427d1e84f3dd0314c0f7b2291e5b200ac8c7c3b925929081900390910190a35b610c2a848484611d20565b5060019392505050565b7f6e71edae12b1b97f4d1f60370fef10105fa2faae0126114a169c64845d6126c981565b601281565b60035481565b6005546001600160a01b03163314610cb5576040805162461bcd60e51b815260206004820152601060248201526f23b634b2329d102327a92124a22222a760811b604482015290519081900360640190fd5b600680546001600160a01b039384166001600160a01b03199182161790915560078054929093169116179055565b60095481565b600a5481565b6000600c54600114610d38576040805162461bcd60e51b815260206004820152600d60248201526c11db1a59194e881313d0d2d151609a1b604482015290519081900360640190fd5b6000600c81905580610d48610b10565b50600654604080516370a0823160e01b815230600482015290519395509193506000926001600160a01b03909116916370a08231916024808301926020929190829003018186803b158015610d9c57600080fd5b505afa158015610db0573d6000803e3d6000fd5b505050506040513d6020811015610dc657600080fd5b5051600754604080516370a0823160e01b815230600482015290519293506000926001600160a01b03909216916370a0823191602480820192602092909190829003018186803b158015610e1957600080fd5b505afa158015610e2d573d6000803e3d6000fd5b505050506040513d6020811015610e4357600080fd5b505190506000610e5c836001600160701b038716611ab3565b90506000610e73836001600160701b038716611ab3565b90506000610e818787611dce565b60005490915080610eb857610ea46103e86109f2610e9f8787611a50565b611f06565b9850610eb360006103e8611f58565b610efb565b610ef86001600160701b038916610ecf8684611a50565b81610ed657fe5b046001600160701b038916610eeb8685611a50565b81610ef257fe5b04611fe2565b98505b60008911610f3a5760405162461bcd60e51b81526004018080602001828103825260248152602001806121346024913960400191505060405180910390fd5b610f448a8a611f58565b610f5086868a8a611b03565b8115610f7a57600854610f76906001600160701b0380821691600160701b900416611a50565b600b555b6040805185815260208101859052815133927f4c209b5fc8ad50758f13e2e1088ba56a560dff690a1c6fef26394f4c03821c4f928290030190a250506001600c5550949695505050505050565b60016020526000908152604090205481565b600b5481565b60046020526000908152604090205481565b600080600c5460011461103b576040805162461bcd60e51b815260206004820152600d60248201526c11db1a59194e881313d0d2d151609a1b604482015290519081900360640190fd5b6000600c8190558061104b610b10565b50600654600754604080516370a0823160e01b815230600482015290519496509294506001600160a01b039182169391169160009184916370a08231916024808301926020929190829003018186803b1580156110a757600080fd5b505afa1580156110bb573d6000803e3d6000fd5b505050506040513d60208110156110d157600080fd5b5051604080516370a0823160e01b815230600482015290519192506000916001600160a01b038516916370a08231916024808301926020929190829003018186803b15801561111f57600080fd5b505afa158015611133573d6000803e3d6000fd5b505050506040513d602081101561114957600080fd5b5051306000908152600160205260408120549192506111688888611dce565b600054909150806111798487611a50565b8161118057fe5b049a508061118e8486611a50565b8161119557fe5b04995060008b1180156111a8575060008a115b6111e35760405162461bcd60e51b81526004018080602001828103825260248152602001806121586024913960400191505060405180910390fd5b6111ed3084611ffa565b6111f8878d8d6118bd565b611203868d8c6118bd565b604080516370a0823160e01b815230600482015290516001600160a01b038916916370a08231916024808301926020929190829003018186803b15801561124957600080fd5b505afa15801561125d573d6000803e3d6000fd5b505050506040513d602081101561127357600080fd5b5051604080516370a0823160e01b815230600482015290519196506001600160a01b038816916370a0823191602480820192602092909190829003018186803b1580156112bf57600080fd5b505afa1580156112d3573d6000803e3d6000fd5b505050506040513d60208110156112e957600080fd5b505193506112f985858b8b611b03565b81156113235760085461131f906001600160701b0380821691600160701b900416611a50565b600b555b604080518c8152602081018c905281516001600160a01b038f169233927fdccd412f0b1252819cb1fd330b93224ca42612892bb3f4f789976e6d81936496929081900390910190a35050505050505050506001600c81905550915091565b604051806040016040528060088152602001670476c6964652d4c560c41b81525081565b6000610b47338484611d20565b6103e881565b600c546001146113ff576040805162461bcd60e51b815260206004820152600d60248201526c11db1a59194e881313d0d2d151609a1b604482015290519081900360640190fd5b6000600c55600654600754600854604080516370a0823160e01b815230600482015290516001600160a01b0394851694909316926114a892859287926114a3926001600160701b03169185916370a0823191602480820192602092909190829003018186803b15801561147157600080fd5b505afa158015611485573d6000803e3d6000fd5b505050506040513d602081101561149b57600080fd5b505190611ab3565b6118bd565b61151c81846114a36008600e9054906101000a90046001600160701b03166001600160701b0316856001600160a01b03166370a08231306040518263ffffffff1660e01b815260040180826001600160a01b0316815260200191505060206040518083038186803b15801561147157600080fd5b50506001600c5550565b6005546001600160a01b031681565b6007546001600160a01b031681565b4284101561158a576040805162461bcd60e51b815260206004820152600e60248201526d11db1a59194e881156141254915160921b604482015290519081900360640190fd5b6003546001600160a01b0380891660008181526004602090815260408083208054600180820190925582517f6e71edae12b1b97f4d1f60370fef10105fa2faae0126114a169c64845d6126c98186015280840196909652958d166060860152608085018c905260a085019590955260c08085018b90528151808603909101815260e08501825280519083012061190160f01b6101008601526101028501969096526101228085019690965280518085039096018652610142840180825286519683019690962095839052610162840180825286905260ff89166101828501526101a284018890526101c28401879052519193926101e280820193601f1981019281900390910190855afa1580156116a5573d6000803e3d6000fd5b5050604051601f1901519150506001600160a01b038116158015906116db5750886001600160a01b0316816001600160a01b0316145b61172c576040805162461bcd60e51b815260206004820152601860248201527f476c6964653a20494e56414c49445f5349474e41545552450000000000000000604482015290519081900360640190fd5b611737898989611cbe565b505050505050505050565b600260209081526000928352604080842090915290825290205481565b600c546001146117a6576040805162461bcd60e51b815260206004820152600d60248201526c11db1a59194e881313d0d2d151609a1b604482015290519081900360640190fd5b6000600c55600654604080516370a0823160e01b815230600482015290516118b6926001600160a01b0316916370a08231916024808301926020929190829003018186803b1580156117f757600080fd5b505afa15801561180b573d6000803e3d6000fd5b505050506040513d602081101561182157600080fd5b5051600754604080516370a0823160e01b815230600482015290516001600160a01b03909216916370a0823191602480820192602092909190829003018186803b15801561186e57600080fd5b505afa158015611882573d6000803e3d6000fd5b505050506040513d602081101561189857600080fd5b50516008546001600160701b0380821691600160701b900416611b03565b6001600c55565b604080518082018252601981527f7472616e7366657228616464726573732c75696e74323536290000000000000060209182015281516001600160a01b0385811660248301526044808301869052845180840390910181526064909201845291810180516001600160e01b031663a9059cbb60e01b1781529251815160009460609489169392918291908083835b6020831061196a5780518252601f19909201916020918201910161194b565b6001836020036101000a0380198251168184511680821785525050505050509050019150506000604051808303816000865af19150503d80600081146119cc576040519150601f19603f3d011682016040523d82523d6000602084013e6119d1565b606091505b50915091508180156119ff5750805115806119ff57508080602001905160208110156119fc57600080fd5b50515b611a49576040805162461bcd60e51b815260206004820152601660248201527511db1a59194e881514905394d1915497d1905253115160521b604482015290519081900360640190fd5b5050505050565b6000811580611a6b57505080820282828281611a6857fe5b04145b610b4b576040805162461bcd60e51b815260206004820152601460248201527364732d6d6174682d6d756c2d6f766572666c6f7760601b604482015290519081900360640190fd5b80820382811115610b4b576040805162461bcd60e51b815260206004820152601560248201527464732d6d6174682d7375622d756e646572666c6f7760581b604482015290519081900360640190fd5b6001600160701b038411801590611b2157506001600160701b038311155b611b64576040805162461bcd60e51b815260206004820152600f60248201526e476c6964653a204f564552464c4f5760881b604482015290519081900360640190fd5b60085463ffffffff42811691600160e01b90048116820390811615801590611b9457506001600160701b03841615155b8015611ba857506001600160701b03831615155b15611c13578063ffffffff16611bd085611bc18661208c565b6001600160e01b03169061209e565b600980546001600160e01b03929092169290920201905563ffffffff8116611bfb84611bc18761208c565b600a80546001600160e01b0392909216929092020190555b600880546dffffffffffffffffffffffffffff19166001600160701b03888116919091176dffffffffffffffffffffffffffff60701b1916600160701b8883168102919091176001600160e01b0316600160e01b63ffffffff871602179283905560408051848416815291909304909116602082015281517f1c411e9a96e071241c2f21f7726b17ae89e3cab4c78be50e062b03a9fffbbad1929181900390910190a1505050505050565b6001600160a01b03808416600081815260026020908152604080832094871680845294825291829020859055815185815291517f8c5be1e5ebec7d5bd14f71427d1e84f3dd0314c0f7b2291e5b200ac8c7c3b9259281900390910190a3505050565b6001600160a01b038316600090815260016020526040902054611d439082611ab3565b6001600160a01b038085166000908152600160205260408082209390935590841681522054611d7290826120c3565b6001600160a01b0380841660008181526001602090815260409182902094909455805185815290519193928716927fddf252ad1be2c89b69c2b068fc378daa952ba7f163c4a11628f55a4df523b3ef92918290030190a3505050565b600080600560009054906101000a90046001600160a01b03166001600160a01b031663017e7e586040518163ffffffff1660e01b815260040160206040518083038186803b158015611e1f57600080fd5b505afa158015611e33573d6000803e3d6000fd5b505050506040513d6020811015611e4957600080fd5b5051600b546001600160a01b038216158015945091925090611ef2578015611eed576000611e86610e9f6001600160701b03888116908816611a50565b90506000611e9383611f06565b905080821115611eea576000611eb5611eac8484611ab3565b60005490611a50565b90506000611ec660058504846120c3565b90506000818381611ed357fe5b0490508015611ee657611ee68782611f58565b5050505b50505b611efe565b8015611efe576000600b555b505092915050565b60006003821115611f49575080600160028204015b81811015611f4357809150600281828581611f3257fe5b040181611f3b57fe5b049050611f1b565b50611f53565b8115611f53575060015b919050565b600054611f6590826120c3565b60009081556001600160a01b038316815260016020526040902054611f8a90826120c3565b6001600160a01b03831660008181526001602090815260408083209490945583518581529351929391927fddf252ad1be2c89b69c2b068fc378daa952ba7f163c4a11628f55a4df523b3ef9281900390910190a35050565b6000818310611ff15781611ff3565b825b9392505050565b6001600160a01b03821660009081526001602052604090205461201d9082611ab3565b6001600160a01b038316600090815260016020526040812091909155546120449082611ab3565b60009081556040805183815290516001600160a01b038516917fddf252ad1be2c89b69c2b068fc378daa952ba7f163c4a11628f55a4df523b3ef919081900360200190a35050565b6001600160701b0316600160701b0290565b60006001600160701b0382166001600160e01b038416816120bb57fe5b049392505050565b80820182811015610b4b576040805162461bcd60e51b815260206004820152601460248201527364732d6d6174682d6164642d6f766572666c6f7760601b604482015290519081900360640190fdfe476c6964653a20494e53554646494349454e545f4f55545055545f414d4f554e54476c6964653a20494e53554646494349454e545f4c49515549444954595f4d494e544544476c6964653a20494e53554646494349454e545f4c49515549444954595f4255524e4544a2646970667358221220a9663dd7faeb16bc2fef8db199175b8f09d921fc55235a5e2d030cf2105d6f6164736f6c634300060c0033",
  "immutableReferences": {},
  "source": "// SPDX-License-Identifier: UNLICENSED\r\npragma solidity =0.6.12;\r\n\r\nimport './interfaces/IGlideFactory.sol';\r\nimport './GlidePair.sol';\r\n\r\ncontract GlideFactory is IGlideFactory {\r\n    using SafeMath for uint;\r\n\r\n    address public override feeTo;\r\n    address public override feeToSetter;\r\n\r\n    bytes32 public initCodeHash;\r\n \r\n    mapping(address => mapping(address => address)) public override getPair;\r\n    address[] public override allPairs;\r\n\r\n    event PairCreated(address indexed token0, address indexed token1, address pair, uint);\r\n    event SetAdminAddress(address indexed caller, address indexed newAddress);\r\n    event SetFeeAddress(address indexed caller, address indexed newAddress);\r\n\r\n    constructor(address _feeToSetter) public {\r\n        feeToSetter = _feeToSetter;\r\n        initCodeHash = keccak256(abi.encodePacked(type(GlidePair).creationCode));\r\n    }\r\n\r\n    function allPairsLength() external view override returns (uint) {\r\n        return allPairs.length;\r\n    }\r\n\r\n    function createPair(address tokenA, address tokenB) external override returns (address pair) {\r\n        require(tokenA != tokenB, 'Glide: IDENTICAL_ADDRESSES');\r\n        (address token0, address token1) = tokenA < tokenB ? (tokenA, tokenB) : (tokenB, tokenA);\r\n        require(token0 != address(0), 'Glide: ZERO_ADDRESS');\r\n        require(getPair[token0][token1] == address(0), 'Glide: PAIR_EXISTS'); // single check is sufficient\r\n        bytes memory bytecode = type(GlidePair).creationCode;\r\n        bytes32 salt = keccak256(abi.encodePacked(token0, token1));\r\n        assembly {\r\n            pair := create2(0, add(bytecode, 32), mload(bytecode), salt)\r\n        }\r\n        IGlidePair(pair).initialize(token0, token1);\r\n        getPair[token0][token1] = pair;\r\n        getPair[token1][token0] = pair; // populate mapping in the reverse direction\r\n        allPairs.push(pair);\r\n        emit PairCreated(token0, token1, pair, allPairs.length);\r\n    }\r\n\r\n    function setFeeTo(address _feeTo) external override {\r\n        require(msg.sender == feeToSetter, 'Glide: FORBIDDEN');\r\n        feeTo = _feeTo;\r\n        emit SetFeeAddress(msg.sender, _feeTo);\r\n    }\r\n\r\n    function setFeeToSetter(address _feeToSetter) external override {\r\n        require(msg.sender == feeToSetter, 'Glide: FORBIDDEN');\r\n        feeToSetter = _feeToSetter;\r\n        emit SetAdminAddress(msg.sender, _feeToSetter);\r\n    }\r\n\r\n    // returns sorted token addresses, used to handle return values from pairs sorted in this order\r\n    function sortTokens(address tokenA, address tokenB) public pure override returns (address token0, address token1) {\r\n        require(tokenA != tokenB, 'GlideFactory: IDENTICAL_ADDRESSES');\r\n        (token0, token1) = tokenA < tokenB ? (tokenA, tokenB) : (tokenB, tokenA);\r\n        require(token0 != address(0), 'GlideFactory: ZERO_ADDRESS');\r\n    }\r\n\r\n    // calculates the CREATE2 address for a pair without making any external calls\r\n    function pairFor(address tokenA, address tokenB) public view override returns (address pair) {\r\n        (address token0, address token1) = sortTokens(tokenA, tokenB);\r\n        pair = address(uint(keccak256(abi.encodePacked(\r\n                hex'ff',\r\n                address(this),\r\n                keccak256(abi.encodePacked(token0, token1)),\r\n                initCodeHash\r\n            ))));\r\n    }\r\n\r\n    // fetches and sorts the reserves for a pair\r\n    function getReserves(address tokenA, address tokenB) public view override returns (uint reserveA, uint reserveB) {\r\n        (address token0,) = sortTokens(tokenA, tokenB);\r\n        pairFor(tokenA, tokenB);\r\n        (uint reserve0, uint reserve1,) = IGlidePair(pairFor(tokenA, tokenB)).getReserves();\r\n        (reserveA, reserveB) = tokenA == token0 ? (reserve0, reserve1) : (reserve1, reserve0);\r\n    }\r\n\r\n    // given some amount of an asset and pair reserves, returns an equivalent amount of the other asset\r\n    function quote(uint amountA, uint reserveA, uint reserveB) public pure override returns (uint amountB) {\r\n        require(amountA > 0, 'GlideFactory: INSUFFICIENT_AMOUNT');\r\n        require(reserveA > 0 && reserveB > 0, 'GlideFactory: INSUFFICIENT_LIQUIDITY');\r\n        amountB = amountA.mul(reserveB) / reserveA;\r\n    }\r\n\r\n    // given an input amount of an asset and pair reserves, returns the maximum output amount of the other asset\r\n    function getAmountOut(uint amountIn, uint reserveIn, uint reserveOut) public view override returns (uint amountOut) {\r\n        require(amountIn > 0, 'GlideFactory: INSUFFICIENT_INPUT_AMOUNT');\r\n        require(reserveIn > 0 && reserveOut > 0, 'GlideFactory: INSUFFICIENT_LIQUIDITY');\r\n        uint amountInWithFee = amountIn.mul(997);\r\n        uint numerator = amountInWithFee.mul(reserveOut);\r\n        uint denominator = reserveIn.mul(1000).add(amountInWithFee);\r\n        amountOut = numerator / denominator;\r\n    }\r\n\r\n    // given an output amount of an asset and pair reserves, returns a required input amount of the other asset\r\n    function getAmountIn(uint amountOut, uint reserveIn, uint reserveOut) public view override returns (uint amountIn) {\r\n        require(amountOut > 0, 'GlideFactory: INSUFFICIENT_OUTPUT_AMOUNT');\r\n        require(reserveIn > 0 && reserveOut > 0, 'GlideFactory: INSUFFICIENT_LIQUIDITY');\r\n        uint numerator = reserveIn.mul(amountOut).mul(1000);\r\n        uint denominator = reserveOut.sub(amountOut).mul(997);\r\n        amountIn = (numerator / denominator).add(1);\r\n    }\r\n\r\n    // performs chained getAmountOut calculations on any number of pairs\r\n    function getAmountsOut(uint amountIn, address[] memory path) public view override returns (uint[] memory amounts) {\r\n        require(path.length >= 2, 'GlideFactory: INVALID_PATH');\r\n        amounts = new uint[](path.length);\r\n        amounts[0] = amountIn;\r\n        for (uint i; i < path.length - 1; i++) {\r\n            (uint reserveIn, uint reserveOut) = getReserves(path[i], path[i + 1]);\r\n            amounts[i + 1] = getAmountOut(amounts[i], reserveIn, reserveOut);\r\n        }\r\n    }\r\n\r\n    // performs chained getAmountIn calculations on any number of pairs\r\n    function getAmountsIn(uint amountOut, address[] memory path) public view override returns (uint[] memory amounts) {\r\n        require(path.length >= 2, 'GlideFactory: INVALID_PATH');\r\n        amounts = new uint[](path.length);\r\n        amounts[amounts.length - 1] = amountOut;\r\n        for (uint i = path.length - 1; i > 0; i--) {\r\n            (uint reserveIn, uint reserveOut) = getReserves(path[i - 1], path[i]);\r\n            amounts[i - 1] = getAmountIn(amounts[i], reserveIn, reserveOut);\r\n        }\r\n    }\r\n}",
  "sourcePath": "D:\\Posao-Stefan\\Stefan-razno\\Blockchain\\GlideFinance\\glide-contracts\\contracts\\Swap\\GlideFactory.sol",
  "compiler": {
    "name": "solc",
    "version": "0.6.12+commit.27d51765.Emscripten.clang"
  },
  "schemaVersion": "3.4.3",
  "updatedAt": "2021-10-10T19:26:28.894Z",
  "networkType": "ethereum",
  "devdoc": {
    "kind": "dev",
    "methods": {},
    "version": 1
  },
  "userdoc": {
    "kind": "user",
    "methods": {},
    "version": 1
  }
}