{
  "contractName": "GlideToken",
  "abi": [
    {
      "anonymous": false,
      "inputs": [
        {
          "indexed": true,
          "internalType": "address",
          "name": "owner",
          "type": "address"
        },
        {
          "indexed": true,
          "internalType": "address",
          "name": "spender",
          "type": "address"
        },
        {
          "indexed": false,
          "internalType": "uint256",
          "name": "value",
          "type": "uint256"
        }
      ],
      "name": "Approval",
      "type": "event"
    },
    {
      "anonymous": false,
      "inputs": [
        {
          "indexed": true,
          "internalType": "address",
          "name": "delegator",
          "type": "address"
        },
        {
          "indexed": true,
          "internalType": "address",
          "name": "fromDelegate",
          "type": "address"
        },
        {
          "indexed": true,
          "internalType": "address",
          "name": "toDelegate",
          "type": "address"
        }
      ],
      "name": "DelegateChanged",
      "type": "event"
    },
    {
      "anonymous": false,
      "inputs": [
        {
          "indexed": true,
          "internalType": "address",
          "name": "delegate",
          "type": "address"
        },
        {
          "indexed": false,
          "internalType": "uint256",
          "name": "previousBalance",
          "type": "uint256"
        },
        {
          "indexed": false,
          "internalType": "uint256",
          "name": "newBalance",
          "type": "uint256"
        }
      ],
      "name": "DelegateVotesChanged",
      "type": "event"
    },
    {
      "anonymous": false,
      "inputs": [
        {
          "indexed": true,
          "internalType": "address",
          "name": "previousOwner",
          "type": "address"
        },
        {
          "indexed": true,
          "internalType": "address",
          "name": "newOwner",
          "type": "address"
        }
      ],
      "name": "OwnershipTransferred",
      "type": "event"
    },
    {
      "anonymous": false,
      "inputs": [
        {
          "indexed": true,
          "internalType": "address",
          "name": "from",
          "type": "address"
        },
        {
          "indexed": true,
          "internalType": "address",
          "name": "to",
          "type": "address"
        },
        {
          "indexed": false,
          "internalType": "uint256",
          "name": "value",
          "type": "uint256"
        }
      ],
      "name": "Transfer",
      "type": "event"
    },
    {
      "inputs": [],
      "name": "DELEGATION_TYPEHASH",
      "outputs": [
        {
          "internalType": "bytes32",
          "name": "",
          "type": "bytes32"
        }
      ],
      "stateMutability": "view",
      "type": "function",
      "constant": true
    },
    {
      "inputs": [],
      "name": "DOMAIN_TYPEHASH",
      "outputs": [
        {
          "internalType": "bytes32",
          "name": "",
          "type": "bytes32"
        }
      ],
      "stateMutability": "view",
      "type": "function",
      "constant": true
    },
    {
      "inputs": [
        {
          "internalType": "address",
          "name": "owner",
          "type": "address"
        },
        {
          "internalType": "address",
          "name": "spender",
          "type": "address"
        }
      ],
      "name": "allowance",
      "outputs": [
        {
          "internalType": "uint256",
          "name": "",
          "type": "uint256"
        }
      ],
      "stateMutability": "view",
      "type": "function",
      "constant": true
    },
    {
      "inputs": [
        {
          "internalType": "address",
          "name": "spender",
          "type": "address"
        },
        {
          "internalType": "uint256",
          "name": "amount",
          "type": "uint256"
        }
      ],
      "name": "approve",
      "outputs": [
        {
          "internalType": "bool",
          "name": "",
          "type": "bool"
        }
      ],
      "stateMutability": "nonpayable",
      "type": "function"
    },
    {
      "inputs": [
        {
          "internalType": "address",
          "name": "account",
          "type": "address"
        }
      ],
      "name": "balanceOf",
      "outputs": [
        {
          "internalType": "uint256",
          "name": "",
          "type": "uint256"
        }
      ],
      "stateMutability": "view",
      "type": "function",
      "constant": true
    },
    {
      "inputs": [
        {
          "internalType": "address",
          "name": "",
          "type": "address"
        },
        {
          "internalType": "uint32",
          "name": "",
          "type": "uint32"
        }
      ],
      "name": "checkpoints",
      "outputs": [
        {
          "internalType": "uint32",
          "name": "fromBlock",
          "type": "uint32"
        },
        {
          "internalType": "uint256",
          "name": "votes",
          "type": "uint256"
        }
      ],
      "stateMutability": "view",
      "type": "function",
      "constant": true
    },
    {
      "inputs": [],
      "name": "decimals",
      "outputs": [
        {
          "internalType": "uint8",
          "name": "",
          "type": "uint8"
        }
      ],
      "stateMutability": "view",
      "type": "function",
      "constant": true
    },
    {
      "inputs": [
        {
          "internalType": "address",
          "name": "spender",
          "type": "address"
        },
        {
          "internalType": "uint256",
          "name": "subtractedValue",
          "type": "uint256"
        }
      ],
      "name": "decreaseAllowance",
      "outputs": [
        {
          "internalType": "bool",
          "name": "",
          "type": "bool"
        }
      ],
      "stateMutability": "nonpayable",
      "type": "function"
    },
    {
      "inputs": [
        {
          "internalType": "address",
          "name": "spender",
          "type": "address"
        },
        {
          "internalType": "uint256",
          "name": "addedValue",
          "type": "uint256"
        }
      ],
      "name": "increaseAllowance",
      "outputs": [
        {
          "internalType": "bool",
          "name": "",
          "type": "bool"
        }
      ],
      "stateMutability": "nonpayable",
      "type": "function"
    },
    {
      "inputs": [],
      "name": "name",
      "outputs": [
        {
          "internalType": "string",
          "name": "",
          "type": "string"
        }
      ],
      "stateMutability": "view",
      "type": "function",
      "constant": true
    },
    {
      "inputs": [
        {
          "internalType": "address",
          "name": "",
          "type": "address"
        }
      ],
      "name": "nonces",
      "outputs": [
        {
          "internalType": "uint256",
          "name": "",
          "type": "uint256"
        }
      ],
      "stateMutability": "view",
      "type": "function",
      "constant": true
    },
    {
      "inputs": [
        {
          "internalType": "address",
          "name": "",
          "type": "address"
        }
      ],
      "name": "numCheckpoints",
      "outputs": [
        {
          "internalType": "uint32",
          "name": "",
          "type": "uint32"
        }
      ],
      "stateMutability": "view",
      "type": "function",
      "constant": true
    },
    {
      "inputs": [],
      "name": "owner",
      "outputs": [
        {
          "internalType": "address",
          "name": "",
          "type": "address"
        }
      ],
      "stateMutability": "view",
      "type": "function",
      "constant": true
    },
    {
      "inputs": [],
      "name": "renounceOwnership",
      "outputs": [],
      "stateMutability": "nonpayable",
      "type": "function"
    },
    {
      "inputs": [],
      "name": "symbol",
      "outputs": [
        {
          "internalType": "string",
          "name": "",
          "type": "string"
        }
      ],
      "stateMutability": "view",
      "type": "function",
      "constant": true
    },
    {
      "inputs": [],
      "name": "totalSupply",
      "outputs": [
        {
          "internalType": "uint256",
          "name": "",
          "type": "uint256"
        }
      ],
      "stateMutability": "view",
      "type": "function",
      "constant": true
    },
    {
      "inputs": [
        {
          "internalType": "address",
          "name": "recipient",
          "type": "address"
        },
        {
          "internalType": "uint256",
          "name": "amount",
          "type": "uint256"
        }
      ],
      "name": "transfer",
      "outputs": [
        {
          "internalType": "bool",
          "name": "",
          "type": "bool"
        }
      ],
      "stateMutability": "nonpayable",
      "type": "function"
    },
    {
      "inputs": [
        {
          "internalType": "address",
          "name": "sender",
          "type": "address"
        },
        {
          "internalType": "address",
          "name": "recipient",
          "type": "address"
        },
        {
          "internalType": "uint256",
          "name": "amount",
          "type": "uint256"
        }
      ],
      "name": "transferFrom",
      "outputs": [
        {
          "internalType": "bool",
          "name": "",
          "type": "bool"
        }
      ],
      "stateMutability": "nonpayable",
      "type": "function"
    },
    {
      "inputs": [
        {
          "internalType": "address",
          "name": "newOwner",
          "type": "address"
        }
      ],
      "name": "transferOwnership",
      "outputs": [],
      "stateMutability": "nonpayable",
      "type": "function"
    },
    {
      "inputs": [
        {
          "internalType": "address",
          "name": "_to",
          "type": "address"
        },
        {
          "internalType": "uint256",
          "name": "_amount",
          "type": "uint256"
        }
      ],
      "name": "mint",
      "outputs": [],
      "stateMutability": "nonpayable",
      "type": "function"
    },
    {
      "inputs": [],
      "name": "getMaxTotalSupply",
      "outputs": [
        {
          "internalType": "uint256",
          "name": "",
          "type": "uint256"
        }
      ],
      "stateMutability": "pure",
      "type": "function",
      "constant": true
    },
    {
      "inputs": [
        {
          "internalType": "address",
          "name": "delegator",
          "type": "address"
        }
      ],
      "name": "delegates",
      "outputs": [
        {
          "internalType": "address",
          "name": "",
          "type": "address"
        }
      ],
      "stateMutability": "view",
      "type": "function",
      "constant": true
    },
    {
      "inputs": [
        {
          "internalType": "address",
          "name": "delegatee",
          "type": "address"
        }
      ],
      "name": "delegate",
      "outputs": [],
      "stateMutability": "nonpayable",
      "type": "function"
    },
    {
      "inputs": [
        {
          "internalType": "address",
          "name": "delegatee",
          "type": "address"
        },
        {
          "internalType": "uint256",
          "name": "nonce",
          "type": "uint256"
        },
        {
          "internalType": "uint256",
          "name": "expiry",
          "type": "uint256"
        },
        {
          "internalType": "uint8",
          "name": "v",
          "type": "uint8"
        },
        {
          "internalType": "bytes32",
          "name": "r",
          "type": "bytes32"
        },
        {
          "internalType": "bytes32",
          "name": "s",
          "type": "bytes32"
        }
      ],
      "name": "delegateBySig",
      "outputs": [],
      "stateMutability": "nonpayable",
      "type": "function"
    },
    {
      "inputs": [
        {
          "internalType": "address",
          "name": "account",
          "type": "address"
        }
      ],
      "name": "getCurrentVotes",
      "outputs": [
        {
          "internalType": "uint256",
          "name": "",
          "type": "uint256"
        }
      ],
      "stateMutability": "view",
      "type": "function",
      "constant": true
    },
    {
      "inputs": [
        {
          "internalType": "address",
          "name": "account",
          "type": "address"
        },
        {
          "internalType": "uint256",
          "name": "blockNumber",
          "type": "uint256"
        }
      ],
      "name": "getPriorVotes",
      "outputs": [
        {
          "internalType": "uint256",
          "name": "",
          "type": "uint256"
        }
      ],
      "stateMutability": "view",
      "type": "function",
      "constant": true
    }
  ],
  "bytecode": "0x60806040523480156200001157600080fd5b506040518060400160405280600581526020017f476c6964650000000000000000000000000000000000000000000000000000008152506040518060400160405280600581526020017f474c49444500000000000000000000000000000000000000000000000000000081525081600390805190602001906200009692919062000128565b508051620000ac90600490602084019062000128565b50506005805460ff19166012179055506000620000c862000124565b60058054610100600160a81b0319166101006001600160a01b03841690810291909117909155604051919250906000907f8be0079c531659141344cd1fd0a4f28419497f9722a3daafe3b4186f6b6457e0908290a350620001c4565b3390565b828054600181600116156101000203166002900490600052602060002090601f016020900481019282601f106200016b57805160ff19168380011785556200019b565b828001600101855582156200019b579182015b828111156200019b5782518255916020019190600101906200017e565b50620001a9929150620001ad565b5090565b5b80821115620001a95760008155600101620001ae565b611b9e80620001d46000396000f3fe608060405234801561001057600080fd5b506004361061018e5760003560e01c8063715018a6116100de578063a9059cbb11610097578063dd62ed3e11610071578063dd62ed3e14610524578063e7a324dc14610552578063f1127ed81461055a578063f2fde38b146105ac5761018e565b8063a9059cbb1461048b578063b4b5ea57146104b7578063c3cda520146104dd5761018e565b8063715018a6146103f5578063782d6fe1146103fd5780637ecebe00146104295780638da5cb5b1461044f57806395d89b4114610457578063a457c2d71461045f5761018e565b8063395093511161014b5780635c19a95c116101255780635c19a95c146103625780635db30bb1146103885780636fcfff451461039057806370a08231146103cf5761018e565b806339509351146102c657806340c10f19146102f2578063587cde1e146103205761018e565b806306fdde0314610193578063095ea7b31461021057806318160ddd1461025057806320606b701461026a57806323b872dd14610272578063313ce567146102a8575b600080fd5b61019b6105d2565b6040805160208082528351818301528351919283929083019185019080838360005b838110156101d55781810151838201526020016101bd565b50505050905090810190601f1680156102025780820380516001836020036101000a031916815260200191505b509250505060405180910390f35b61023c6004803603604081101561022657600080fd5b506001600160a01b038135169060200135610668565b604080519115158252519081900360200190f35b610258610686565b60408051918252519081900360200190f35b61025861068c565b61023c6004803603606081101561028857600080fd5b506001600160a01b038135811691602081013590911690604001356106b0565b6102b0610737565b6040805160ff9092168252519081900360200190f35b61023c600480360360408110156102dc57600080fd5b506001600160a01b038135169060200135610740565b61031e6004803603604081101561030857600080fd5b506001600160a01b03813516906020013561078e565b005b6103466004803603602081101561033657600080fd5b50356001600160a01b0316610883565b604080516001600160a01b039092168252519081900360200190f35b61031e6004803603602081101561037857600080fd5b50356001600160a01b03166108a1565b6102586108ae565b6103b6600480360360208110156103a657600080fd5b50356001600160a01b03166108bd565b6040805163ffffffff9092168252519081900360200190f35b610258600480360360208110156103e557600080fd5b50356001600160a01b03166108d5565b61031e6108f0565b6102586004803603604081101561041357600080fd5b506001600160a01b0381351690602001356109af565b6102586004803603602081101561043f57600080fd5b50356001600160a01b0316610bb7565b610346610bc9565b61019b610bdd565b61023c6004803603604081101561047557600080fd5b506001600160a01b038135169060200135610c3e565b61023c600480360360408110156104a157600080fd5b506001600160a01b038135169060200135610ca6565b610258600480360360208110156104cd57600080fd5b50356001600160a01b0316610cba565b61031e600480360360c08110156104f357600080fd5b506001600160a01b038135169060208101359060408101359060ff6060820135169060808101359060a00135610d1e565b6102586004803603604081101561053a57600080fd5b506001600160a01b0381358116916020013516610f91565b610258610fbc565b61058c6004803603604081101561057057600080fd5b5080356001600160a01b0316906020013563ffffffff16610fe0565b6040805163ffffffff909316835260208301919091528051918290030190f35b61031e600480360360208110156105c257600080fd5b50356001600160a01b031661100d565b60038054604080516020601f600260001961010060018816150201909516949094049384018190048102820181019092528281526060939092909183018282801561065e5780601f106106335761010080835404028352916020019161065e565b820191906000526020600020905b81548152906001019060200180831161064157829003601f168201915b5050505050905090565b600061067c610675611128565b848461112c565b5060015b92915050565b60025490565b7f8cad95687ba82c2ce50e74f7b754645e5117c3a5bec8151c0726d5857980a86681565b60006106bd848484611218565b61072d846106c9611128565b61072885604051806060016040528060288152602001611a76602891396001600160a01b038a16600090815260016020526040812090610707611128565b6001600160a01b031681526020810191909152604001600020549190611373565b61112c565b5060019392505050565b60055460ff1690565b600061067c61074d611128565b84610728856001600061075e611128565b6001600160a01b03908116825260208083019390935260409182016000908120918c16815292529020549061140a565b610796611128565b60055461010090046001600160a01b039081169116146107fd576040805162461bcd60e51b815260206004820181905260248201527f4f776e61626c653a2063616c6c6572206973206e6f7420746865206f776e6572604482015290519081900360640190fd5b6a295be96e6406697200000081610812610686565b0111156108505760405162461bcd60e51b8152600401808060200182810382526027815260200180611a4f6027913960400191505060405180910390fd5b61085a8282611464565b6001600160a01b0380831660009081526006602052604081205461087f921683611554565b5050565b6001600160a01b039081166000908152600660205260409020541690565b6108ab3382611696565b50565b6a295be96e6406697200000090565b60086020526000908152604090205463ffffffff1681565b6001600160a01b031660009081526020819052604090205490565b6108f8611128565b60055461010090046001600160a01b0390811691161461095f576040805162461bcd60e51b815260206004820181905260248201527f4f776e61626c653a2063616c6c6572206973206e6f7420746865206f776e6572604482015290519081900360640190fd5b60055460405160009161010090046001600160a01b0316907f8be0079c531659141344cd1fd0a4f28419497f9722a3daafe3b4186f6b6457e0908390a360058054610100600160a81b0319169055565b60004382106109ef5760405162461bcd60e51b8152600401808060200182810382526028815260200180611b1c6028913960400191505060405180910390fd5b6001600160a01b03831660009081526008602052604090205463ffffffff1680610a1d576000915050610680565b6001600160a01b038416600090815260076020908152604080832063ffffffff600019860181168552925290912054168310610a8c576001600160a01b03841660009081526007602090815260408083206000199490940163ffffffff16835292905220600101549050610680565b6001600160a01b038416600090815260076020908152604080832083805290915290205463ffffffff16831015610ac7576000915050610680565b600060001982015b8163ffffffff168163ffffffff161115610b8057600282820363ffffffff16048103610af9611935565b506001600160a01b038716600090815260076020908152604080832063ffffffff808616855290835292819020815180830190925280549093168082526001909301549181019190915290871415610b5b576020015194506106809350505050565b805163ffffffff16871115610b7257819350610b79565b6001820392505b5050610acf565b506001600160a01b038516600090815260076020908152604080832063ffffffff9094168352929052206001015491505092915050565b60096020526000908152604090205481565b60055461010090046001600160a01b031690565b60048054604080516020601f600260001961010060018816150201909516949094049384018190048102820181019092528281526060939092909183018282801561065e5780601f106106335761010080835404028352916020019161065e565b600061067c610c4b611128565b8461072885604051806060016040528060258152602001611b446025913960016000610c75611128565b6001600160a01b03908116825260208083019390935260409182016000908120918d16815292529020549190611373565b600061067c610cb3611128565b8484611218565b6001600160a01b03811660009081526008602052604081205463ffffffff1680610ce5576000610d17565b6001600160a01b038316600090815260076020908152604080832063ffffffff60001986011684529091529020600101545b9392505050565b60007f8cad95687ba82c2ce50e74f7b754645e5117c3a5bec8151c0726d5857980a866610d496105d2565b80519060200120610d5861172b565b60408051602080820195909552808201939093526060830191909152306080808401919091528151808403909101815260a0830182528051908401207fe48329057bfd03d55e49b547132e39cffd9c1820ad7b9d4c5307691425d15adf60c08401526001600160a01b038b1660e084015261010083018a90526101208084018a9052825180850390910181526101408401835280519085012061190160f01b6101608501526101628401829052610182808501829052835180860390910181526101a285018085528151918701919091206000918290526101c2860180865281905260ff8b166101e287015261020286018a90526102228601899052935192965090949293909260019261024280840193601f198301929081900390910190855afa158015610e8b573d6000803e3d6000fd5b5050604051601f1901519150506001600160a01b038116610edd5760405162461bcd60e51b81526004018080602001828103825260278152602001806119706027913960400191505060405180910390fd5b6001600160a01b03811660009081526009602052604090208054600181019091558914610f3b5760405162461bcd60e51b8152600401808060200182810382526023815260200180611a2c6023913960400191505060405180910390fd5b87421115610f7a5760405162461bcd60e51b81526004018080602001828103825260278152602001806119df6027913960400191505060405180910390fd5b610f84818b611696565b505050505b505050505050565b6001600160a01b03918216600090815260016020908152604080832093909416825291909152205490565b7fe48329057bfd03d55e49b547132e39cffd9c1820ad7b9d4c5307691425d15adf81565b60076020908152600092835260408084209091529082529020805460019091015463ffffffff9091169082565b611015611128565b60055461010090046001600160a01b0390811691161461107c576040805162461bcd60e51b815260206004820181905260248201527f4f776e61626c653a2063616c6c6572206973206e6f7420746865206f776e6572604482015290519081900360640190fd5b6001600160a01b0381166110c15760405162461bcd60e51b81526004018080602001828103825260268152602001806119976026913960400191505060405180910390fd5b6005546040516001600160a01b0380841692610100900416907f8be0079c531659141344cd1fd0a4f28419497f9722a3daafe3b4186f6b6457e090600090a3600580546001600160a01b0390921661010002610100600160a81b0319909216919091179055565b3390565b6001600160a01b0383166111715760405162461bcd60e51b8152600401808060200182810382526024815260200180611ac36024913960400191505060405180910390fd5b6001600160a01b0382166111b65760405162461bcd60e51b81526004018080602001828103825260228152602001806119bd6022913960400191505060405180910390fd5b6001600160a01b03808416600081815260016020908152604080832094871680845294825291829020859055815185815291517f8c5be1e5ebec7d5bd14f71427d1e84f3dd0314c0f7b2291e5b200ac8c7c3b9259281900390910190a3505050565b6001600160a01b03831661125d5760405162461bcd60e51b8152600401808060200182810382526025815260200180611a9e6025913960400191505060405180910390fd5b6001600160a01b0382166112a25760405162461bcd60e51b815260040180806020018281038252602381526020018061194d6023913960400191505060405180910390fd5b6112ad838383611691565b6112ea81604051806060016040528060268152602001611a06602691396001600160a01b0386166000908152602081905260409020549190611373565b6001600160a01b038085166000908152602081905260408082209390935590841681522054611319908261140a565b6001600160a01b038084166000818152602081815260409182902094909455805185815290519193928716927fddf252ad1be2c89b69c2b068fc378daa952ba7f163c4a11628f55a4df523b3ef92918290030190a3505050565b600081848411156114025760405162461bcd60e51b81526004018080602001828103825283818151815260200191508051906020019080838360005b838110156113c75781810151838201526020016113af565b50505050905090810190601f1680156113f45780820380516001836020036101000a031916815260200191505b509250505060405180910390fd5b505050900390565b600082820183811015610d17576040805162461bcd60e51b815260206004820152601b60248201527f536166654d6174683a206164646974696f6e206f766572666c6f770000000000604482015290519081900360640190fd5b6001600160a01b0382166114bf576040805162461bcd60e51b815260206004820152601f60248201527f45524332303a206d696e7420746f20746865207a65726f206164647265737300604482015290519081900360640190fd5b6114cb60008383611691565b6002546114d8908261140a565b6002556001600160a01b0382166000908152602081905260409020546114fe908261140a565b6001600160a01b0383166000818152602081815260408083209490945583518581529351929391927fddf252ad1be2c89b69c2b068fc378daa952ba7f163c4a11628f55a4df523b3ef9281900390910190a35050565b816001600160a01b0316836001600160a01b0316141580156115765750600081115b15611691576001600160a01b03831615611608576001600160a01b03831660009081526008602052604081205463ffffffff1690816115b65760006115e8565b6001600160a01b038516600090815260076020908152604080832063ffffffff60001987011684529091529020600101545b905060006115f68285611730565b905061160486848484611772565b5050505b6001600160a01b03821615611691576001600160a01b03821660009081526008602052604081205463ffffffff169081611643576000611675565b6001600160a01b038416600090815260076020908152604080832063ffffffff60001987011684529091529020600101545b90506000611683828561140a565b9050610f8985848484611772565b505050565b6001600160a01b03808316600090815260066020526040812054909116906116bd846108d5565b6001600160a01b0385811660008181526006602052604080822080546001600160a01b031916898616908117909155905194955093928616927f3134e8a2e6d97e929a7e54011ea5485d7d196dd5f0ba4d4ef95803e8e3fc257f9190a4611725828483611554565b50505050565b601490565b6000610d1783836040518060400160405280601e81526020017f536166654d6174683a207375627472616374696f6e206f766572666c6f770000815250611373565b600061179643604051806060016040528060358152602001611ae7603591396118d7565b905060008463ffffffff161180156117df57506001600160a01b038516600090815260076020908152604080832063ffffffff6000198901811685529252909120548282169116145b1561181c576001600160a01b038516600090815260076020908152604080832063ffffffff6000198901168452909152902060010182905561188d565b60408051808201825263ffffffff808416825260208083018681526001600160a01b038a166000818152600784528681208b8616825284528681209551865490861663ffffffff19918216178755925160019687015590815260089092529390208054928801909116919092161790555b604080518481526020810184905281516001600160a01b038816927fdec2bacdd2f05b59de34da9b523dff8be42e5e38e818c82fdb0bae774387a724928290030190a25050505050565b600081640100000000841061192d5760405162461bcd60e51b81526020600482018181528351602484015283519092839260449091019190850190808383600083156113c75781810151838201526020016113af565b509192915050565b60408051808201909152600080825260208201529056fe45524332303a207472616e7366657220746f20746865207a65726f2061646472657373474c4944453a3a64656c656761746542795369673a20696e76616c6964207369676e61747572654f776e61626c653a206e6577206f776e657220697320746865207a65726f206164647265737345524332303a20617070726f766520746f20746865207a65726f2061646472657373474c4944453a3a64656c656761746542795369673a207369676e6174757265206578706972656445524332303a207472616e7366657220616d6f756e7420657863656564732062616c616e6365474c4944453a3a64656c656761746542795369673a20696e76616c6964206e6f6e636545524332303a206d696e74696e67206d6f7265207468656e204d6178546f74616c537570706c7945524332303a207472616e7366657220616d6f756e74206578636565647320616c6c6f77616e636545524332303a207472616e736665722066726f6d20746865207a65726f206164647265737345524332303a20617070726f76652066726f6d20746865207a65726f2061646472657373474c4944453a3a5f7772697465436865636b706f696e743a20626c6f636b206e756d62657220657863656564732033322062697473474c4944453a3a6765745072696f72566f7465733a206e6f74207965742064657465726d696e656445524332303a2064656372656173656420616c6c6f77616e63652062656c6f77207a65726fa2646970667358221220bddd16ec013a4eaa0da4b0fdc880fd5dced53f47ad0719ae47a59446b2b8fd8864736f6c634300060c0033",
  "immutableReferences": {},
  "source": "// SPDX-License-Identifier: UNLICENSED\r\npragma solidity 0.6.12;\r\n\r\nimport '@openzeppelin/contracts/token/ERC20/ERC20.sol';\r\nimport '@openzeppelin/contracts/access/Ownable.sol';\r\n\r\n// GlideToken with Governance.\r\ncontract GlideToken is ERC20('Glide', 'GLIDE'), Ownable  {\r\n    /// @notice Creates `_amount` token to `_to`. Must only be called by the owner (MasterChef).\r\n\r\n    uint256 constant private _maxTotalSupply = 50000000e18; // 50,000,000 max supply\r\n\r\n    function mint(address _to, uint256 _amount) public onlyOwner {\r\n        require(totalSupply() + _amount <= _maxTotalSupply, \"ERC20: minting more then MaxTotalSupply\");\r\n\r\n        _mint(_to, _amount);\r\n        _moveDelegates(address(0), _delegates[_to], _amount);\r\n    }\r\n\r\n    // Returns maximum total supply of the token\r\n    function getMaxTotalSupply() external pure returns (uint256) {\r\n        return _maxTotalSupply;\r\n    }\r\n    \r\n    // Copied and modified from YAM code:\r\n    // https://github.com/yam-finance/yam-protocol/blob/master/contracts/token/YAMGovernanceStorage.sol\r\n    // https://github.com/yam-finance/yam-protocol/blob/master/contracts/token/YAMGovernance.sol\r\n    // Which is copied and modified from COMPOUND:\r\n    // https://github.com/compound-finance/compound-protocol/blob/master/contracts/Governance/Comp.sol\r\n\r\n    /// @notice A record of each accounts delegate\r\n    mapping (address => address) internal _delegates;\r\n\r\n    /// @notice A checkpoint for marking number of votes from a given block\r\n    struct Checkpoint {\r\n        uint32 fromBlock;\r\n        uint256 votes;\r\n    }\r\n\r\n    /// @notice A record of votes checkpoints for each account, by index\r\n    mapping (address => mapping (uint32 => Checkpoint)) public checkpoints;\r\n\r\n    /// @notice The number of checkpoints for each account\r\n    mapping (address => uint32) public numCheckpoints;\r\n\r\n    /// @notice The EIP-712 typehash for the contract's domain\r\n    bytes32 public constant DOMAIN_TYPEHASH = keccak256(\"EIP712Domain(string name,uint256 chainId,address verifyingContract)\");\r\n\r\n    /// @notice The EIP-712 typehash for the delegation struct used by the contract\r\n    bytes32 public constant DELEGATION_TYPEHASH = keccak256(\"Delegation(address delegatee,uint256 nonce,uint256 expiry)\");\r\n\r\n    /// @notice A record of states for signing / validating signatures\r\n    mapping (address => uint) public nonces;\r\n\r\n      /// @notice An event thats emitted when an account changes its delegate\r\n    event DelegateChanged(address indexed delegator, address indexed fromDelegate, address indexed toDelegate);\r\n\r\n    /// @notice An event thats emitted when a delegate account's vote balance changes\r\n    event DelegateVotesChanged(address indexed delegate, uint previousBalance, uint newBalance);\r\n\r\n    /**\r\n     * @notice Delegate votes from `msg.sender` to `delegatee`\r\n     * @param delegator The address to get delegatee for\r\n     */\r\n    function delegates(address delegator)\r\n        external\r\n        view\r\n        returns (address)\r\n    {\r\n        return _delegates[delegator];\r\n    }\r\n\r\n   /**\r\n    * @notice Delegate votes from `msg.sender` to `delegatee`\r\n    * @param delegatee The address to delegate votes to\r\n    */\r\n    function delegate(address delegatee) external {\r\n        return _delegate(msg.sender, delegatee);\r\n    }\r\n\r\n    /**\r\n     * @notice Delegates votes from signatory to `delegatee`\r\n     * @param delegatee The address to delegate votes to\r\n     * @param nonce The contract state required to match the signature\r\n     * @param expiry The time at which to expire the signature\r\n     * @param v The recovery byte of the signature\r\n     * @param r Half of the ECDSA signature pair\r\n     * @param s Half of the ECDSA signature pair\r\n     */\r\n    function delegateBySig(\r\n        address delegatee,\r\n        uint nonce,\r\n        uint expiry,\r\n        uint8 v,\r\n        bytes32 r,\r\n        bytes32 s\r\n    )\r\n        external\r\n    {\r\n        bytes32 domainSeparator = keccak256(\r\n            abi.encode(\r\n                DOMAIN_TYPEHASH,\r\n                keccak256(bytes(name())),\r\n                getChainId(),\r\n                address(this)\r\n            )\r\n        );\r\n\r\n        bytes32 structHash = keccak256(\r\n            abi.encode(\r\n                DELEGATION_TYPEHASH,\r\n                delegatee,\r\n                nonce,\r\n                expiry\r\n            )\r\n        );\r\n\r\n        bytes32 digest = keccak256(\r\n            abi.encodePacked(\r\n                \"\\x19\\x01\",\r\n                domainSeparator,\r\n                structHash\r\n            )\r\n        );\r\n\r\n        address signatory = ecrecover(digest, v, r, s);\r\n        require(signatory != address(0), \"GLIDE::delegateBySig: invalid signature\");\r\n        require(nonce == nonces[signatory]++, \"GLIDE::delegateBySig: invalid nonce\");\r\n        require(now <= expiry, \"GLIDE::delegateBySig: signature expired\");\r\n        return _delegate(signatory, delegatee);\r\n    }\r\n\r\n    /**\r\n     * @notice Gets the current votes balance for `account`\r\n     * @param account The address to get votes balance\r\n     * @return The number of current votes for `account`\r\n     */\r\n    function getCurrentVotes(address account)\r\n        external\r\n        view\r\n        returns (uint256)\r\n    {\r\n        uint32 nCheckpoints = numCheckpoints[account];\r\n        return nCheckpoints > 0 ? checkpoints[account][nCheckpoints - 1].votes : 0;\r\n    }\r\n\r\n    /**\r\n     * @notice Determine the prior number of votes for an account as of a block number\r\n     * @dev Block number must be a finalized block or else this function will revert to prevent misinformation.\r\n     * @param account The address of the account to check\r\n     * @param blockNumber The block number to get the vote balance at\r\n     * @return The number of votes the account had as of the given block\r\n     */\r\n    function getPriorVotes(address account, uint blockNumber)\r\n        external\r\n        view\r\n        returns (uint256)\r\n    {\r\n        require(blockNumber < block.number, \"GLIDE::getPriorVotes: not yet determined\");\r\n\r\n        uint32 nCheckpoints = numCheckpoints[account];\r\n        if (nCheckpoints == 0) {\r\n            return 0;\r\n        }\r\n\r\n        // First check most recent balance\r\n        if (checkpoints[account][nCheckpoints - 1].fromBlock <= blockNumber) {\r\n            return checkpoints[account][nCheckpoints - 1].votes;\r\n        }\r\n\r\n        // Next check implicit zero balance\r\n        if (checkpoints[account][0].fromBlock > blockNumber) {\r\n            return 0;\r\n        }\r\n\r\n        uint32 lower = 0;\r\n        uint32 upper = nCheckpoints - 1;\r\n        while (upper > lower) {\r\n            uint32 center = upper - (upper - lower) / 2; // ceil, avoiding overflow\r\n            Checkpoint memory cp = checkpoints[account][center];\r\n            if (cp.fromBlock == blockNumber) {\r\n                return cp.votes;\r\n            } else if (cp.fromBlock < blockNumber) {\r\n                lower = center;\r\n            } else {\r\n                upper = center - 1;\r\n            }\r\n        }\r\n        return checkpoints[account][lower].votes;\r\n    }\r\n\r\n    function _delegate(address delegator, address delegatee)\r\n        internal\r\n    {\r\n        address currentDelegate = _delegates[delegator];\r\n        uint256 delegatorBalance = balanceOf(delegator); // balance of underlying GLIDEs (not scaled);\r\n        _delegates[delegator] = delegatee;\r\n\r\n        emit DelegateChanged(delegator, currentDelegate, delegatee);\r\n\r\n        _moveDelegates(currentDelegate, delegatee, delegatorBalance);\r\n    }\r\n\r\n    function _moveDelegates(address srcRep, address dstRep, uint256 amount) internal {\r\n        if (srcRep != dstRep && amount > 0) {\r\n            if (srcRep != address(0)) {\r\n                // decrease old representative\r\n                uint32 srcRepNum = numCheckpoints[srcRep];\r\n                uint256 srcRepOld = srcRepNum > 0 ? checkpoints[srcRep][srcRepNum - 1].votes : 0;\r\n                uint256 srcRepNew = srcRepOld.sub(amount);\r\n                _writeCheckpoint(srcRep, srcRepNum, srcRepOld, srcRepNew);\r\n            }\r\n\r\n            if (dstRep != address(0)) {\r\n                // increase new representative\r\n                uint32 dstRepNum = numCheckpoints[dstRep];\r\n                uint256 dstRepOld = dstRepNum > 0 ? checkpoints[dstRep][dstRepNum - 1].votes : 0;\r\n                uint256 dstRepNew = dstRepOld.add(amount);\r\n                _writeCheckpoint(dstRep, dstRepNum, dstRepOld, dstRepNew);\r\n            }\r\n        }\r\n    }\r\n\r\n    function _writeCheckpoint(\r\n        address delegatee,\r\n        uint32 nCheckpoints,\r\n        uint256 oldVotes,\r\n        uint256 newVotes\r\n    )\r\n        internal\r\n    {\r\n        uint32 blockNumber = safe32(block.number, \"GLIDE::_writeCheckpoint: block number exceeds 32 bits\");\r\n\r\n        if (nCheckpoints > 0 && checkpoints[delegatee][nCheckpoints - 1].fromBlock == blockNumber) {\r\n            checkpoints[delegatee][nCheckpoints - 1].votes = newVotes;\r\n        } else {\r\n            checkpoints[delegatee][nCheckpoints] = Checkpoint(blockNumber, newVotes);\r\n            numCheckpoints[delegatee] = nCheckpoints + 1;\r\n        }\r\n\r\n        emit DelegateVotesChanged(delegatee, oldVotes, newVotes);\r\n    }\r\n\r\n    function safe32(uint n, string memory errorMessage) internal pure returns (uint32) {\r\n        require(n < 2**32, errorMessage);\r\n        return uint32(n);\r\n    }\r\n\r\n    function getChainId() internal pure returns (uint) {\r\n        uint256 chainId;\r\n        assembly { chainId := 20 }\r\n        return chainId;\r\n    }\r\n}",
  "sourcePath": "D:\\Posao - Stefan\\Stefan - razno\\Blockchain\\ElavateFinance\\auto-swap\\contracts\\Farm\\GlideToken.sol",
  "compiler": {
    "name": "solc",
    "version": "0.6.12+commit.27d51765.Emscripten.clang"
  },
  "schemaVersion": "3.4.3",
  "updatedAt": "2021-09-01T13:40:58.639Z",
  "networkType": "ethereum",
  "devdoc": {
    "kind": "dev",
    "methods": {
      "allowance(address,address)": {
        "details": "See {IERC20-allowance}."
      },
      "approve(address,uint256)": {
        "details": "See {IERC20-approve}. Requirements: - `spender` cannot be the zero address."
      },
      "balanceOf(address)": {
        "details": "See {IERC20-balanceOf}."
      },
      "decimals()": {
        "details": "Returns the number of decimals used to get its user representation. For example, if `decimals` equals `2`, a balance of `505` tokens should be displayed to a user as `5,05` (`505 / 10 ** 2`). Tokens usually opt for a value of 18, imitating the relationship between Ether and Wei. This is the value {ERC20} uses, unless {_setupDecimals} is called. NOTE: This information is only used for _display_ purposes: it in no way affects any of the arithmetic of the contract, including {IERC20-balanceOf} and {IERC20-transfer}."
      },
      "decreaseAllowance(address,uint256)": {
        "details": "Atomically decreases the allowance granted to `spender` by the caller. This is an alternative to {approve} that can be used as a mitigation for problems described in {IERC20-approve}. Emits an {Approval} event indicating the updated allowance. Requirements: - `spender` cannot be the zero address. - `spender` must have allowance for the caller of at least `subtractedValue`."
      },
      "delegate(address)": {
        "params": {
          "delegatee": "The address to delegate votes to"
        }
      },
      "delegateBySig(address,uint256,uint256,uint8,bytes32,bytes32)": {
        "params": {
          "delegatee": "The address to delegate votes to",
          "expiry": "The time at which to expire the signature",
          "nonce": "The contract state required to match the signature",
          "r": "Half of the ECDSA signature pair",
          "s": "Half of the ECDSA signature pair",
          "v": "The recovery byte of the signature"
        }
      },
      "delegates(address)": {
        "params": {
          "delegator": "The address to get delegatee for"
        }
      },
      "getCurrentVotes(address)": {
        "params": {
          "account": "The address to get votes balance"
        },
        "returns": {
          "_0": "The number of current votes for `account`"
        }
      },
      "getPriorVotes(address,uint256)": {
        "details": "Block number must be a finalized block or else this function will revert to prevent misinformation.",
        "params": {
          "account": "The address of the account to check",
          "blockNumber": "The block number to get the vote balance at"
        },
        "returns": {
          "_0": "The number of votes the account had as of the given block"
        }
      },
      "increaseAllowance(address,uint256)": {
        "details": "Atomically increases the allowance granted to `spender` by the caller. This is an alternative to {approve} that can be used as a mitigation for problems described in {IERC20-approve}. Emits an {Approval} event indicating the updated allowance. Requirements: - `spender` cannot be the zero address."
      },
      "name()": {
        "details": "Returns the name of the token."
      },
      "owner()": {
        "details": "Returns the address of the current owner."
      },
      "renounceOwnership()": {
        "details": "Leaves the contract without owner. It will not be possible to call `onlyOwner` functions anymore. Can only be called by the current owner. NOTE: Renouncing ownership will leave the contract without an owner, thereby removing any functionality that is only available to the owner."
      },
      "symbol()": {
        "details": "Returns the symbol of the token, usually a shorter version of the name."
      },
      "totalSupply()": {
        "details": "See {IERC20-totalSupply}."
      },
      "transfer(address,uint256)": {
        "details": "See {IERC20-transfer}. Requirements: - `recipient` cannot be the zero address. - the caller must have a balance of at least `amount`."
      },
      "transferFrom(address,address,uint256)": {
        "details": "See {IERC20-transferFrom}. Emits an {Approval} event indicating the updated allowance. This is not required by the EIP. See the note at the beginning of {ERC20}. Requirements: - `sender` and `recipient` cannot be the zero address. - `sender` must have a balance of at least `amount`. - the caller must have allowance for ``sender``'s tokens of at least `amount`."
      },
      "transferOwnership(address)": {
        "details": "Transfers ownership of the contract to a new account (`newOwner`). Can only be called by the current owner."
      }
    },
    "version": 1
  },
  "userdoc": {
    "events": {
      "DelegateChanged(address,address,address)": {
        "notice": "An event thats emitted when an account changes its delegate"
      },
      "DelegateVotesChanged(address,uint256,uint256)": {
        "notice": "An event thats emitted when a delegate account's vote balance changes"
      }
    },
    "kind": "user",
    "methods": {
      "DELEGATION_TYPEHASH()": {
        "notice": "The EIP-712 typehash for the delegation struct used by the contract"
      },
      "DOMAIN_TYPEHASH()": {
        "notice": "The EIP-712 typehash for the contract's domain"
      },
      "checkpoints(address,uint32)": {
        "notice": "A record of votes checkpoints for each account, by index"
      },
      "delegate(address)": {
        "notice": "Delegate votes from `msg.sender` to `delegatee`"
      },
      "delegateBySig(address,uint256,uint256,uint8,bytes32,bytes32)": {
        "notice": "Delegates votes from signatory to `delegatee`"
      },
      "delegates(address)": {
        "notice": "Delegate votes from `msg.sender` to `delegatee`"
      },
      "getCurrentVotes(address)": {
        "notice": "Gets the current votes balance for `account`"
      },
      "getPriorVotes(address,uint256)": {
        "notice": "Determine the prior number of votes for an account as of a block number"
      },
      "nonces(address)": {
        "notice": "A record of states for signing / validating signatures"
      },
      "numCheckpoints(address)": {
        "notice": "The number of checkpoints for each account"
      }
    },
    "version": 1
  }
}