{
  "contractName": "MasterChef",
  "abi": [
    {
      "inputs": [
        {
          "internalType": "contract GlideToken",
          "name": "_cake",
          "type": "address"
        },
        {
          "internalType": "contract Sugar",
          "name": "_sugar",
          "type": "address"
        },
        {
          "internalType": "address",
          "name": "_devaddr",
          "type": "address"
        },
        {
          "internalType": "address",
          "name": "_treasuryaddr",
          "type": "address"
        },
        {
          "internalType": "uint256",
          "name": "_cakePerBlock",
          "type": "uint256"
        },
        {
          "internalType": "uint256",
          "name": "_startBlock",
          "type": "uint256"
        }
      ],
      "stateMutability": "nonpayable",
      "type": "constructor"
    },
    {
      "anonymous": false,
      "inputs": [
        {
          "indexed": true,
          "internalType": "address",
          "name": "user",
          "type": "address"
        },
        {
          "indexed": true,
          "internalType": "uint256",
          "name": "pid",
          "type": "uint256"
        },
        {
          "indexed": false,
          "internalType": "uint256",
          "name": "amount",
          "type": "uint256"
        }
      ],
      "name": "Deposit",
      "type": "event"
    },
    {
      "anonymous": false,
      "inputs": [
        {
          "indexed": true,
          "internalType": "address",
          "name": "user",
          "type": "address"
        },
        {
          "indexed": true,
          "internalType": "uint256",
          "name": "pid",
          "type": "uint256"
        },
        {
          "indexed": false,
          "internalType": "uint256",
          "name": "amount",
          "type": "uint256"
        }
      ],
      "name": "EmergencyWithdraw",
      "type": "event"
    },
    {
      "anonymous": false,
      "inputs": [
        {
          "indexed": true,
          "internalType": "address",
          "name": "previousOwner",
          "type": "address"
        },
        {
          "indexed": true,
          "internalType": "address",
          "name": "newOwner",
          "type": "address"
        }
      ],
      "name": "OwnershipTransferred",
      "type": "event"
    },
    {
      "anonymous": false,
      "inputs": [
        {
          "indexed": true,
          "internalType": "address",
          "name": "user",
          "type": "address"
        },
        {
          "indexed": true,
          "internalType": "uint256",
          "name": "pid",
          "type": "uint256"
        },
        {
          "indexed": false,
          "internalType": "uint256",
          "name": "amount",
          "type": "uint256"
        }
      ],
      "name": "Withdraw",
      "type": "event"
    },
    {
      "inputs": [],
      "name": "bonusReductionPeriod",
      "outputs": [
        {
          "internalType": "uint256",
          "name": "",
          "type": "uint256"
        }
      ],
      "stateMutability": "view",
      "type": "function"
    },
    {
      "inputs": [],
      "name": "cake",
      "outputs": [
        {
          "internalType": "contract GlideToken",
          "name": "",
          "type": "address"
        }
      ],
      "stateMutability": "view",
      "type": "function"
    },
    {
      "inputs": [],
      "name": "cakePerBlock",
      "outputs": [
        {
          "internalType": "uint256",
          "name": "",
          "type": "uint256"
        }
      ],
      "stateMutability": "view",
      "type": "function"
    },
    {
      "inputs": [],
      "name": "devaddr",
      "outputs": [
        {
          "internalType": "address",
          "name": "",
          "type": "address"
        }
      ],
      "stateMutability": "view",
      "type": "function"
    },
    {
      "inputs": [],
      "name": "owner",
      "outputs": [
        {
          "internalType": "address",
          "name": "",
          "type": "address"
        }
      ],
      "stateMutability": "view",
      "type": "function"
    },
    {
      "inputs": [
        {
          "internalType": "uint256",
          "name": "",
          "type": "uint256"
        }
      ],
      "name": "poolInfo",
      "outputs": [
        {
          "internalType": "contract IERC20",
          "name": "lpToken",
          "type": "address"
        },
        {
          "internalType": "uint256",
          "name": "allocPoint",
          "type": "uint256"
        },
        {
          "internalType": "uint256",
          "name": "lastRewardBlock",
          "type": "uint256"
        },
        {
          "internalType": "uint256",
          "name": "accCakePerShare",
          "type": "uint256"
        }
      ],
      "stateMutability": "view",
      "type": "function"
    },
    {
      "inputs": [],
      "name": "reductionPeriod",
      "outputs": [
        {
          "internalType": "uint256",
          "name": "",
          "type": "uint256"
        }
      ],
      "stateMutability": "view",
      "type": "function"
    },
    {
      "inputs": [],
      "name": "renounceOwnership",
      "outputs": [],
      "stateMutability": "nonpayable",
      "type": "function"
    },
    {
      "inputs": [],
      "name": "startBlock",
      "outputs": [
        {
          "internalType": "uint256",
          "name": "",
          "type": "uint256"
        }
      ],
      "stateMutability": "view",
      "type": "function"
    },
    {
      "inputs": [],
      "name": "sugar",
      "outputs": [
        {
          "internalType": "contract Sugar",
          "name": "",
          "type": "address"
        }
      ],
      "stateMutability": "view",
      "type": "function"
    },
    {
      "inputs": [],
      "name": "totalAllocPoint",
      "outputs": [
        {
          "internalType": "uint256",
          "name": "",
          "type": "uint256"
        }
      ],
      "stateMutability": "view",
      "type": "function"
    },
    {
      "inputs": [
        {
          "internalType": "address",
          "name": "newOwner",
          "type": "address"
        }
      ],
      "name": "transferOwnership",
      "outputs": [],
      "stateMutability": "nonpayable",
      "type": "function"
    },
    {
      "inputs": [],
      "name": "treasuryaddr",
      "outputs": [
        {
          "internalType": "address",
          "name": "",
          "type": "address"
        }
      ],
      "stateMutability": "view",
      "type": "function"
    },
    {
      "inputs": [
        {
          "internalType": "uint256",
          "name": "",
          "type": "uint256"
        },
        {
          "internalType": "address",
          "name": "",
          "type": "address"
        }
      ],
      "name": "userInfo",
      "outputs": [
        {
          "internalType": "uint256",
          "name": "amount",
          "type": "uint256"
        },
        {
          "internalType": "uint256",
          "name": "rewardDebt",
          "type": "uint256"
        }
      ],
      "stateMutability": "view",
      "type": "function"
    },
    {
      "inputs": [],
      "name": "poolLength",
      "outputs": [
        {
          "internalType": "uint256",
          "name": "",
          "type": "uint256"
        }
      ],
      "stateMutability": "view",
      "type": "function"
    },
    {
      "inputs": [
        {
          "internalType": "uint256",
          "name": "blockNumber",
          "type": "uint256"
        }
      ],
      "name": "phase",
      "outputs": [
        {
          "internalType": "uint256",
          "name": "",
          "type": "uint256"
        }
      ],
      "stateMutability": "view",
      "type": "function"
    },
    {
      "inputs": [],
      "name": "phase",
      "outputs": [
        {
          "internalType": "uint256",
          "name": "",
          "type": "uint256"
        }
      ],
      "stateMutability": "view",
      "type": "function"
    },
    {
      "inputs": [
        {
          "internalType": "uint256",
          "name": "phaseNumber",
          "type": "uint256"
        }
      ],
      "name": "rewardPerPhase",
      "outputs": [
        {
          "internalType": "uint256",
          "name": "",
          "type": "uint256"
        }
      ],
      "stateMutability": "view",
      "type": "function"
    },
    {
      "inputs": [],
      "name": "reward",
      "outputs": [
        {
          "internalType": "uint256",
          "name": "",
          "type": "uint256"
        }
      ],
      "stateMutability": "view",
      "type": "function"
    },
    {
      "inputs": [
        {
          "internalType": "uint256",
          "name": "blockNumber",
          "type": "uint256"
        }
      ],
      "name": "reward",
      "outputs": [
        {
          "internalType": "uint256",
          "name": "",
          "type": "uint256"
        }
      ],
      "stateMutability": "view",
      "type": "function"
    },
    {
      "inputs": [
        {
          "internalType": "uint256",
          "name": "_lastRewardBlock",
          "type": "uint256"
        },
        {
          "internalType": "uint256",
          "name": "_blockNumber",
          "type": "uint256"
        }
      ],
      "name": "getGlideRewardPerBlock",
      "outputs": [
        {
          "internalType": "uint256",
          "name": "",
          "type": "uint256"
        }
      ],
      "stateMutability": "view",
      "type": "function"
    },
    {
      "inputs": [
        {
          "internalType": "uint256",
          "name": "_lastRewardBlock",
          "type": "uint256"
        }
      ],
      "name": "getGlideReward",
      "outputs": [
        {
          "internalType": "uint256",
          "name": "",
          "type": "uint256"
        }
      ],
      "stateMutability": "view",
      "type": "function"
    },
    {
      "inputs": [
        {
          "internalType": "uint256",
          "name": "_allocPoint",
          "type": "uint256"
        },
        {
          "internalType": "contract IERC20",
          "name": "_lpToken",
          "type": "address"
        },
        {
          "internalType": "bool",
          "name": "_withUpdate",
          "type": "bool"
        }
      ],
      "name": "add",
      "outputs": [],
      "stateMutability": "nonpayable",
      "type": "function"
    },
    {
      "inputs": [
        {
          "internalType": "uint256",
          "name": "_pid",
          "type": "uint256"
        },
        {
          "internalType": "uint256",
          "name": "_allocPoint",
          "type": "uint256"
        },
        {
          "internalType": "bool",
          "name": "_withUpdate",
          "type": "bool"
        }
      ],
      "name": "set",
      "outputs": [],
      "stateMutability": "nonpayable",
      "type": "function"
    },
    {
      "inputs": [
        {
          "internalType": "uint256",
          "name": "_pid",
          "type": "uint256"
        },
        {
          "internalType": "address",
          "name": "_user",
          "type": "address"
        }
      ],
      "name": "pendingCake",
      "outputs": [
        {
          "internalType": "uint256",
          "name": "",
          "type": "uint256"
        }
      ],
      "stateMutability": "view",
      "type": "function"
    },
    {
      "inputs": [],
      "name": "massUpdatePools",
      "outputs": [],
      "stateMutability": "nonpayable",
      "type": "function"
    },
    {
      "inputs": [
        {
          "internalType": "uint256",
          "name": "_pid",
          "type": "uint256"
        }
      ],
      "name": "updatePool",
      "outputs": [],
      "stateMutability": "nonpayable",
      "type": "function"
    },
    {
      "inputs": [
        {
          "internalType": "uint256",
          "name": "_pid",
          "type": "uint256"
        },
        {
          "internalType": "uint256",
          "name": "_amount",
          "type": "uint256"
        }
      ],
      "name": "deposit",
      "outputs": [],
      "stateMutability": "nonpayable",
      "type": "function"
    },
    {
      "inputs": [
        {
          "internalType": "uint256",
          "name": "_pid",
          "type": "uint256"
        },
        {
          "internalType": "uint256",
          "name": "_amount",
          "type": "uint256"
        }
      ],
      "name": "withdraw",
      "outputs": [],
      "stateMutability": "nonpayable",
      "type": "function"
    },
    {
      "inputs": [
        {
          "internalType": "uint256",
          "name": "_amount",
          "type": "uint256"
        }
      ],
      "name": "enterStaking",
      "outputs": [],
      "stateMutability": "nonpayable",
      "type": "function"
    },
    {
      "inputs": [
        {
          "internalType": "uint256",
          "name": "_amount",
          "type": "uint256"
        }
      ],
      "name": "leaveStaking",
      "outputs": [],
      "stateMutability": "nonpayable",
      "type": "function"
    },
    {
      "inputs": [
        {
          "internalType": "uint256",
          "name": "_pid",
          "type": "uint256"
        }
      ],
      "name": "emergencyWithdraw",
      "outputs": [],
      "stateMutability": "nonpayable",
      "type": "function"
    },
    {
      "inputs": [
        {
          "internalType": "address",
          "name": "_devaddr",
          "type": "address"
        }
      ],
      "name": "dev",
      "outputs": [],
      "stateMutability": "nonpayable",
      "type": "function"
    }
  ],
  "bytecode": "0x60806040526217fe80600655622ffd006007556000600a553480156200002457600080fd5b50604051620036d5380380620036d5833981810160405260c08110156200004a57600080fd5b8101908080519060200190929190805190602001909291908051906020019092919080519060200190929190805190602001909291908051906020019092919050505060006200009f6200033260201b60201c565b9050806000806101000a81548173ffffffffffffffffffffffffffffffffffffffff021916908373ffffffffffffffffffffffffffffffffffffffff1602179055508073ffffffffffffffffffffffffffffffffffffffff16600073ffffffffffffffffffffffffffffffffffffffff167f8be0079c531659141344cd1fd0a4f28419497f9722a3daafe3b4186f6b6457e060405160405180910390a35085600160006101000a81548173ffffffffffffffffffffffffffffffffffffffff021916908373ffffffffffffffffffffffffffffffffffffffff16021790555084600260006101000a81548173ffffffffffffffffffffffffffffffffffffffff021916908373ffffffffffffffffffffffffffffffffffffffff16021790555083600360006101000a81548173ffffffffffffffffffffffffffffffffffffffff021916908373ffffffffffffffffffffffffffffffffffffffff16021790555082600460006101000a81548173ffffffffffffffffffffffffffffffffffffffff021916908373ffffffffffffffffffffffffffffffffffffffff1602179055508160058190555080600b81905550600860405180608001604052808873ffffffffffffffffffffffffffffffffffffffff1681526020016103e88152602001600b5481526020016000815250908060018154018082558091505060019003906000526020600020906004020160009091909190915060008201518160000160006101000a81548173ffffffffffffffffffffffffffffffffffffffff021916908373ffffffffffffffffffffffffffffffffffffffff16021790555060208201518160010155604082015181600201556060820151816003015550506103e8600a819055505050505050506200033a565b600033905090565b61338b806200034a6000396000f3fe608060405234801561001057600080fd5b506004361061020b5760003560e01c80635d5ebf161161012a578063a0e0e13c116100bd578063ba624f441161008c578063dce1748411610071578063dce1748414610842578063e2bbb15814610876578063f2fde38b146108ae5761020b565b8063ba624f44146107f0578063d49e77cd1461080e5761020b565b8063a0e0e13c14610710578063a9fb763c14610744578063b1c9fe6e14610786578063b307681c146107a45761020b565b8063715018a6116100f9578063715018a6146106255780638d88a90e1461062f5780638da5cb5b1461067357806393f1a40b146106a75761020b565b80635d5ebf1614610561578063630b5ba1146105a357806364482f79146105ad5780636e99b75e146105f15761020b565b8063228cb733116101a257806348cd4cb11161017157806348cd4cb1146104c95780634e9c14f1146104e757806351eb05a6146105055780635312ea8e146105335761020b565b8063228cb7331461040357806341441d3b14610421578063441a3e701461044f57806347cf5b59146104875761020b565b8063135f8aa7116101de578063135f8aa7146102dc5780631526fe271461031e57806317caf6f11461038b5780631eaaa045146103a95761020b565b80630755e0b614610210578063081e3eda1461022e5780631058d2811461024c5780631175a1dd1461027a575b600080fd5b6102186108f2565b6040518082815260200191505060405180910390f35b6102366108f8565b6040518082815260200191505060405180910390f35b6102786004803603602081101561026257600080fd5b8101908080359060200190929190505050610905565b005b6102c66004803603604081101561029057600080fd5b8101908080359060200190929190803573ffffffffffffffffffffffffffffffffffffffff169060200190929190505050610c10565b6040518082815260200191505060405180910390f35b610308600480360360208110156102f257600080fd5b8101908080359060200190929190505050610e41565b6040518082815260200191505060405180910390f35b61034a6004803603602081101561033457600080fd5b8101908080359060200190929190505050610eed565b604051808573ffffffffffffffffffffffffffffffffffffffff16815260200184815260200183815260200182815260200194505050505060405180910390f35b610393610f4a565b6040518082815260200191505060405180910390f35b610401600480360360608110156103bf57600080fd5b8101908080359060200190929190803573ffffffffffffffffffffffffffffffffffffffff169060200190929190803515159060200190929190505050610f50565b005b61040b611131565b6040518082815260200191505060405180910390f35b61044d6004803603602081101561043757600080fd5b8101908080359060200190929190505050611141565b005b6104856004803603604081101561046557600080fd5b8101908080359060200190929190803590602001909291905050506113e2565b005b6104b36004803603602081101561049d57600080fd5b81019080803590602001909291905050506116b7565b6040518082815260200191505060405180910390f35b6104d16116ca565b6040518082815260200191505060405180910390f35b6104ef6116d0565b6040518082815260200191505060405180910390f35b6105316004803603602081101561051b57600080fd5b81019080803590602001909291905050506116d6565b005b61055f6004803603602081101561054957600080fd5b8101908080359060200190929190505050611b5f565b005b61058d6004803603602081101561057757600080fd5b8101908080359060200190929190505050611c91565b6040518082815260200191505060405180910390f35b6105ab611d18565b005b6105ef600480360360608110156105c357600080fd5b810190808035906020019092919080359060200190929190803515159060200190929190505050611d45565b005b6105f9611ea5565b604051808273ffffffffffffffffffffffffffffffffffffffff16815260200191505060405180910390f35b61062d611ecb565b005b6106716004803603602081101561064557600080fd5b81019080803573ffffffffffffffffffffffffffffffffffffffff169060200190929190505050612051565b005b61067b612158565b604051808273ffffffffffffffffffffffffffffffffffffffff16815260200191505060405180910390f35b6106f3600480360360408110156106bd57600080fd5b8101908080359060200190929190803573ffffffffffffffffffffffffffffffffffffffff169060200190929190505050612181565b604051808381526020018281526020019250505060405180910390f35b6107186121b2565b604051808273ffffffffffffffffffffffffffffffffffffffff16815260200191505060405180910390f35b6107706004803603602081101561075a57600080fd5b81019080803590602001909291905050506121d8565b6040518082815260200191505060405180910390f35b61078e6121f7565b6040518082815260200191505060405180910390f35b6107da600480360360408110156107ba57600080fd5b810190808035906020019092919080359060200190929190505050612207565b6040518082815260200191505060405180910390f35b6107f86123c3565b6040518082815260200191505060405180910390f35b6108166123c9565b604051808273ffffffffffffffffffffffffffffffffffffffff16815260200191505060405180910390f35b61084a6123ef565b604051808273ffffffffffffffffffffffffffffffffffffffff16815260200191505060405180910390f35b6108ac6004803603604081101561088c57600080fd5b810190808035906020019092919080359060200190929190505050612415565b005b6108f0600480360360208110156108c457600080fd5b81019080803573ffffffffffffffffffffffffffffffffffffffff169060200190929190505050612680565b005b60055481565b6000600880549050905090565b6000600860008154811061091557fe5b9060005260206000209060040201905060006009600080815260200190815260200160002060003373ffffffffffffffffffffffffffffffffffffffff1673ffffffffffffffffffffffffffffffffffffffff168152602001908152602001600020905082816000015410156109f3576040517f08c379a00000000000000000000000000000000000000000000000000000000081526004018080602001828103825260128152602001807f77697468647261773a206e6f7420676f6f64000000000000000000000000000081525060200191505060405180910390fd5b6109fd60006116d6565b6000610a478260010154610a3964e8d4a51000610a2b8760030154876000015461288b90919063ffffffff16565b61291190919063ffffffff16565b61295b90919063ffffffff16565b90506000811115610a5d57610a5c33826129a5565b5b6000841115610ad557610a7d84836000015461295b90919063ffffffff16565b8260000181905550610ad433858560000160009054906101000a900473ffffffffffffffffffffffffffffffffffffffff1673ffffffffffffffffffffffffffffffffffffffff16612a549092919063ffffffff16565b5b610b0764e8d4a51000610af98560030154856000015461288b90919063ffffffff16565b61291190919063ffffffff16565b8260010181905550600260009054906101000a900473ffffffffffffffffffffffffffffffffffffffff1673ffffffffffffffffffffffffffffffffffffffff16639dc29fac33866040518363ffffffff1660e01b8152600401808373ffffffffffffffffffffffffffffffffffffffff16815260200182815260200192505050600060405180830381600087803b158015610ba257600080fd5b505af1158015610bb6573d6000803e3d6000fd5b5050505060003373ffffffffffffffffffffffffffffffffffffffff167ff279e6a1f5e320cca91135676d9cb6e44ca8a08c0b88342bcdb1144f6511b568866040518082815260200191505060405180910390a350505050565b60008060088481548110610c2057fe5b9060005260206000209060040201905060006009600086815260200190815260200160002060008573ffffffffffffffffffffffffffffffffffffffff1673ffffffffffffffffffffffffffffffffffffffff168152602001908152602001600020905060008260030154905060008360000160009054906101000a900473ffffffffffffffffffffffffffffffffffffffff1673ffffffffffffffffffffffffffffffffffffffff166370a08231306040518263ffffffff1660e01b8152600401808273ffffffffffffffffffffffffffffffffffffffff16815260200191505060206040518083038186803b158015610d1a57600080fd5b505afa158015610d2e573d6000803e3d6000fd5b505050506040513d6020811015610d4457600080fd5b81019080805190602001909291905050509050836002015443118015610d6b575060008114155b15610df1576000610d7f85600201546116b7565b90506000610dae600a54610da088600101548561288b90919063ffffffff16565b61291190919063ffffffff16565b9050610dec610ddd84610dcf64e8d4a510008561288b90919063ffffffff16565b61291190919063ffffffff16565b85612af690919063ffffffff16565b935050505b610e358360010154610e2764e8d4a51000610e1986886000015461288b90919063ffffffff16565b61291190919063ffffffff16565b61295b90919063ffffffff16565b94505050505092915050565b6000806007541415610e565760009050610ee8565b600b54821115610ee3576000610e8a6001610e7c600b548661295b90919063ffffffff16565b61295b90919063ffffffff16565b90506006548111610e9f576001915050610ee8565b610edb6002610ecd600754610ebf6006548661295b90919063ffffffff16565b61291190919063ffffffff16565b612af690919063ffffffff16565b915050610ee8565b600090505b919050565b60088181548110610efa57fe5b90600052602060002090600402016000915090508060000160009054906101000a900473ffffffffffffffffffffffffffffffffffffffff16908060010154908060020154908060030154905084565b600a5481565b610f58612b7e565b73ffffffffffffffffffffffffffffffffffffffff1660008054906101000a900473ffffffffffffffffffffffffffffffffffffffff1673ffffffffffffffffffffffffffffffffffffffff1614611018576040517f08c379a00000000000000000000000000000000000000000000000000000000081526004018080602001828103825260208152602001807f4f776e61626c653a2063616c6c6572206973206e6f7420746865206f776e657281525060200191505060405180910390fd5b801561102757611026611d18565b5b6000600b54431161103a57600b5461103c565b435b905061105384600a54612af690919063ffffffff16565b600a81905550600860405180608001604052808573ffffffffffffffffffffffffffffffffffffffff1681526020018681526020018381526020016000815250908060018154018082558091505060019003906000526020600020906004020160009091909190915060008201518160000160006101000a81548173ffffffffffffffffffffffffffffffffffffffff021916908373ffffffffffffffffffffffffffffffffffffffff160217905550602082015181600101556040820151816002015560608201518160030155505061112b612b86565b50505050565b600061113c436121d8565b905090565b6000600860008154811061115157fe5b9060005260206000209060040201905060006009600080815260200190815260200160002060003373ffffffffffffffffffffffffffffffffffffffff1673ffffffffffffffffffffffffffffffffffffffff16815260200190815260200160002090506111bf60006116d6565b60008160000154111561122e576000611216826001015461120864e8d4a510006111fa8760030154876000015461288b90919063ffffffff16565b61291190919063ffffffff16565b61295b90919063ffffffff16565b9050600081111561122c5761122b33826129a5565b5b505b60008311156112a8576112883330858560000160009054906101000a900473ffffffffffffffffffffffffffffffffffffffff1673ffffffffffffffffffffffffffffffffffffffff16612c72909392919063ffffffff16565b61129f838260000154612af690919063ffffffff16565b81600001819055505b6112da64e8d4a510006112cc8460030154846000015461288b90919063ffffffff16565b61291190919063ffffffff16565b8160010181905550600260009054906101000a900473ffffffffffffffffffffffffffffffffffffffff1673ffffffffffffffffffffffffffffffffffffffff166340c10f1933856040518363ffffffff1660e01b8152600401808373ffffffffffffffffffffffffffffffffffffffff16815260200182815260200192505050600060405180830381600087803b15801561137557600080fd5b505af1158015611389573d6000803e3d6000fd5b5050505060003373ffffffffffffffffffffffffffffffffffffffff167f90890809c654f11d6e72a28fa60149770a0d11ec6c92319d6ceb2bb0a4ea1a15856040518082815260200191505060405180910390a3505050565b6000821415611459576040517f08c379a000000000000000000000000000000000000000000000000000000000815260040180806020018281038252601a8152602001807f77697468647261772043414b4520627920756e7374616b696e6700000000000081525060200191505060405180910390fd5b60006008838154811061146857fe5b9060005260206000209060040201905060006009600085815260200190815260200160002060003373ffffffffffffffffffffffffffffffffffffffff1673ffffffffffffffffffffffffffffffffffffffff16815260200190815260200160002090508281600001541015611546576040517f08c379a00000000000000000000000000000000000000000000000000000000081526004018080602001828103825260128152602001807f77697468647261773a206e6f7420676f6f64000000000000000000000000000081525060200191505060405180910390fd5b61154f846116d6565b6000611599826001015461158b64e8d4a5100061157d8760030154876000015461288b90919063ffffffff16565b61291190919063ffffffff16565b61295b90919063ffffffff16565b905060008111156115af576115ae33826129a5565b5b6000841115611627576115cf84836000015461295b90919063ffffffff16565b826000018190555061162633858560000160009054906101000a900473ffffffffffffffffffffffffffffffffffffffff1673ffffffffffffffffffffffffffffffffffffffff16612a549092919063ffffffff16565b5b61165964e8d4a5100061164b8560030154856000015461288b90919063ffffffff16565b61291190919063ffffffff16565b8260010181905550843373ffffffffffffffffffffffffffffffffffffffff167ff279e6a1f5e320cca91135676d9cb6e44ca8a08c0b88342bcdb1144f6511b568866040518082815260200191505060405180910390a35050505050565b60006116c38243612207565b9050919050565b600b5481565b60065481565b6000600882815481106116e557fe5b90600052602060002090600402019050806002015443116117065750611b5c565b60008160000160009054906101000a900473ffffffffffffffffffffffffffffffffffffffff1673ffffffffffffffffffffffffffffffffffffffff166370a08231306040518263ffffffff1660e01b8152600401808273ffffffffffffffffffffffffffffffffffffffff16815260200191505060206040518083038186803b15801561179357600080fd5b505afa1580156117a7573d6000803e3d6000fd5b505050506040513d60208110156117bd57600080fd5b8101908080519060200190929190505050905060008114156117e9574382600201819055505050611b5c565b60006117f883600201546116b7565b90506000611827600a5461181986600101548561288b90919063ffffffff16565b61291190919063ffffffff16565b9050600160009054906101000a900473ffffffffffffffffffffffffffffffffffffffff1673ffffffffffffffffffffffffffffffffffffffff166340c10f19600360009054906101000a900473ffffffffffffffffffffffffffffffffffffffff166118b26103e86118a4607d8761288b90919063ffffffff16565b61291190919063ffffffff16565b6040518363ffffffff1660e01b8152600401808373ffffffffffffffffffffffffffffffffffffffff16815260200182815260200192505050600060405180830381600087803b15801561190557600080fd5b505af1158015611919573d6000803e3d6000fd5b50505050600160009054906101000a900473ffffffffffffffffffffffffffffffffffffffff1673ffffffffffffffffffffffffffffffffffffffff166340c10f19600460009054906101000a900473ffffffffffffffffffffffffffffffffffffffff166119a66103e861199860e18761288b90919063ffffffff16565b61291190919063ffffffff16565b6040518363ffffffff1660e01b8152600401808373ffffffffffffffffffffffffffffffffffffffff16815260200182815260200192505050600060405180830381600087803b1580156119f957600080fd5b505af1158015611a0d573d6000803e3d6000fd5b50505050600160009054906101000a900473ffffffffffffffffffffffffffffffffffffffff1673ffffffffffffffffffffffffffffffffffffffff166340c10f19600260009054906101000a900473ffffffffffffffffffffffffffffffffffffffff16611a9b6103e8611a8d61028a8761288b90919063ffffffff16565b61291190919063ffffffff16565b6040518363ffffffff1660e01b8152600401808373ffffffffffffffffffffffffffffffffffffffff16815260200182815260200192505050600060405180830381600087803b158015611aee57600080fd5b505af1158015611b02573d6000803e3d6000fd5b50505050611b46611b3384611b2564e8d4a510008561288b90919063ffffffff16565b61291190919063ffffffff16565b8560030154612af690919063ffffffff16565b8460030181905550438460020181905550505050505b50565b600060088281548110611b6e57fe5b9060005260206000209060040201905060006009600084815260200190815260200160002060003373ffffffffffffffffffffffffffffffffffffffff1673ffffffffffffffffffffffffffffffffffffffff1681526020019081526020016000209050611c253382600001548460000160009054906101000a900473ffffffffffffffffffffffffffffffffffffffff1673ffffffffffffffffffffffffffffffffffffffff16612a549092919063ffffffff16565b823373ffffffffffffffffffffffffffffffffffffffff167fbb757047c2b5f3974fe26b7c10f732e7bce710b0952a71082702781e62ae059583600001546040518082815260200191505060405180910390a36000816000018190555060008160010181905550505050565b600080821415611ca45760009050611d13565b6001821415611cb7576005549050611d13565b611d106002830360640a611d026002850360550a611cf46064611ce6604b60055461288b90919063ffffffff16565b61291190919063ffffffff16565b61288b90919063ffffffff16565b61291190919063ffffffff16565b90505b919050565b6000600880549050905060005b81811015611d4157611d36816116d6565b806001019050611d25565b5050565b611d4d612b7e565b73ffffffffffffffffffffffffffffffffffffffff1660008054906101000a900473ffffffffffffffffffffffffffffffffffffffff1673ffffffffffffffffffffffffffffffffffffffff1614611e0d576040517f08c379a00000000000000000000000000000000000000000000000000000000081526004018080602001828103825260208152602001807f4f776e61626c653a2063616c6c6572206973206e6f7420746865206f776e657281525060200191505060405180910390fd5b8015611e1c57611e1b611d18565b5b600060088481548110611e2b57fe5b90600052602060002090600402016001015490508260088581548110611e4d57fe5b906000526020600020906004020160010181905550828114611e9f57611e9083611e8283600a5461295b90919063ffffffff16565b612af690919063ffffffff16565b600a81905550611e9e612b86565b5b50505050565b600460009054906101000a900473ffffffffffffffffffffffffffffffffffffffff1681565b611ed3612b7e565b73ffffffffffffffffffffffffffffffffffffffff1660008054906101000a900473ffffffffffffffffffffffffffffffffffffffff1673ffffffffffffffffffffffffffffffffffffffff1614611f93576040517f08c379a00000000000000000000000000000000000000000000000000000000081526004018080602001828103825260208152602001807f4f776e61626c653a2063616c6c6572206973206e6f7420746865206f776e657281525060200191505060405180910390fd5b600073ffffffffffffffffffffffffffffffffffffffff1660008054906101000a900473ffffffffffffffffffffffffffffffffffffffff1673ffffffffffffffffffffffffffffffffffffffff167f8be0079c531659141344cd1fd0a4f28419497f9722a3daafe3b4186f6b6457e060405160405180910390a360008060006101000a81548173ffffffffffffffffffffffffffffffffffffffff021916908373ffffffffffffffffffffffffffffffffffffffff160217905550565b600360009054906101000a900473ffffffffffffffffffffffffffffffffffffffff1673ffffffffffffffffffffffffffffffffffffffff163373ffffffffffffffffffffffffffffffffffffffff1614612114576040517f08c379a00000000000000000000000000000000000000000000000000000000081526004018080602001828103825260098152602001807f6465763a207775743f000000000000000000000000000000000000000000000081525060200191505060405180910390fd5b80600360006101000a81548173ffffffffffffffffffffffffffffffffffffffff021916908373ffffffffffffffffffffffffffffffffffffffff16021790555050565b60008060009054906101000a900473ffffffffffffffffffffffffffffffffffffffff16905090565b6009602052816000526040600020602052806000526040600020600091509150508060000154908060010154905082565b600260009054906101000a900473ffffffffffffffffffffffffffffffffffffffff1681565b6000806121e483610e41565b90506121ef816121d8565b915050919050565b600061220243610e41565b905090565b600081831115612262576040517f08c379a00000000000000000000000000000000000000000000000000000000081526004018080602001828103825260358152602001806132f76035913960400191505060405180910390fd5b600b5483116122bc576040517f08c379a000000000000000000000000000000000000000000000000000000000815260040180806020018281038252602a8152602001806132cd602a913960400191505060405180910390fd5b6000806122c885610e41565b905060006122d585610e41565b90505b80821015612376576000612322600654612314600b546123066007546001890361288b90919063ffffffff16565b612af690919063ffffffff16565b612af690919063ffffffff16565b9050612363612354612333836121d8565b6123468a8561295b90919063ffffffff16565b61288b90919063ffffffff16565b85612af690919063ffffffff16565b93508096508280600101935050506122d8565b6123b56123a6612385876121d8565b612398898961295b90919063ffffffff16565b61288b90919063ffffffff16565b84612af690919063ffffffff16565b925082935050505092915050565b60075481565b600360009054906101000a900473ffffffffffffffffffffffffffffffffffffffff1681565b600160009054906101000a900473ffffffffffffffffffffffffffffffffffffffff1681565b600082141561248c576040517f08c379a00000000000000000000000000000000000000000000000000000000081526004018080602001828103825260178152602001807f6465706f7369742043414b45206279207374616b696e6700000000000000000081525060200191505060405180910390fd5b60006008838154811061249b57fe5b9060005260206000209060040201905060006009600085815260200190815260200160002060003373ffffffffffffffffffffffffffffffffffffffff1673ffffffffffffffffffffffffffffffffffffffff1681526020019081526020016000209050612508846116d6565b60008160000154111561257757600061255f826001015461255164e8d4a510006125438760030154876000015461288b90919063ffffffff16565b61291190919063ffffffff16565b61295b90919063ffffffff16565b905060008111156125755761257433826129a5565b5b505b60008311156125f1576125d13330858560000160009054906101000a900473ffffffffffffffffffffffffffffffffffffffff1673ffffffffffffffffffffffffffffffffffffffff16612c72909392919063ffffffff16565b6125e8838260000154612af690919063ffffffff16565b81600001819055505b61262364e8d4a510006126158460030154846000015461288b90919063ffffffff16565b61291190919063ffffffff16565b8160010181905550833373ffffffffffffffffffffffffffffffffffffffff167f90890809c654f11d6e72a28fa60149770a0d11ec6c92319d6ceb2bb0a4ea1a15856040518082815260200191505060405180910390a350505050565b612688612b7e565b73ffffffffffffffffffffffffffffffffffffffff1660008054906101000a900473ffffffffffffffffffffffffffffffffffffffff1673ffffffffffffffffffffffffffffffffffffffff1614612748576040517f08c379a00000000000000000000000000000000000000000000000000000000081526004018080602001828103825260208152602001807f4f776e61626c653a2063616c6c6572206973206e6f7420746865206f776e657281525060200191505060405180910390fd5b600073ffffffffffffffffffffffffffffffffffffffff168173ffffffffffffffffffffffffffffffffffffffff1614156127ce576040517f08c379a00000000000000000000000000000000000000000000000000000000081526004018080602001828103825260268152602001806132606026913960400191505060405180910390fd5b8073ffffffffffffffffffffffffffffffffffffffff1660008054906101000a900473ffffffffffffffffffffffffffffffffffffffff1673ffffffffffffffffffffffffffffffffffffffff167f8be0079c531659141344cd1fd0a4f28419497f9722a3daafe3b4186f6b6457e060405160405180910390a3806000806101000a81548173ffffffffffffffffffffffffffffffffffffffff021916908373ffffffffffffffffffffffffffffffffffffffff16021790555050565b60008083141561289e576000905061290b565b60008284029050828482816128af57fe5b0414612906576040517f08c379a00000000000000000000000000000000000000000000000000000000081526004018080602001828103825260218152602001806132ac6021913960400191505060405180910390fd5b809150505b92915050565b600061295383836040518060400160405280601a81526020017f536166654d6174683a206469766973696f6e206279207a65726f000000000000815250612d33565b905092915050565b600061299d83836040518060400160405280601e81526020017f536166654d6174683a207375627472616374696f6e206f766572666c6f770000815250612df9565b905092915050565b600260009054906101000a900473ffffffffffffffffffffffffffffffffffffffff1673ffffffffffffffffffffffffffffffffffffffff1663a2e6ddcc83836040518363ffffffff1660e01b8152600401808373ffffffffffffffffffffffffffffffffffffffff16815260200182815260200192505050600060405180830381600087803b158015612a3857600080fd5b505af1158015612a4c573d6000803e3d6000fd5b505050505050565b612af18363a9059cbb60e01b8484604051602401808373ffffffffffffffffffffffffffffffffffffffff16815260200182815260200192505050604051602081830303815290604052907bffffffffffffffffffffffffffffffffffffffffffffffffffffffff19166020820180517bffffffffffffffffffffffffffffffffffffffffffffffffffffffff8381831617835250505050612eb9565b505050565b600080828401905083811015612b74576040517f08c379a000000000000000000000000000000000000000000000000000000000815260040180806020018281038252601b8152602001807f536166654d6174683a206164646974696f6e206f766572666c6f77000000000081525060200191505060405180910390fd5b8091505092915050565b600033905090565b60006008805490509050600080600190505b82811015612bde57612bd160088281548110612bb057fe5b90600052602060002090600402016001015483612af690919063ffffffff16565b9150806001019050612b98565b5060008114612c6e57612bfb60038261291190919063ffffffff16565b9050612c4381612c356008600081548110612c1257fe5b906000526020600020906004020160010154600a5461295b90919063ffffffff16565b612af690919063ffffffff16565b600a81905550806008600081548110612c5857fe5b9060005260206000209060040201600101819055505b5050565b612d2d846323b872dd60e01b858585604051602401808473ffffffffffffffffffffffffffffffffffffffff1681526020018373ffffffffffffffffffffffffffffffffffffffff1681526020018281526020019350505050604051602081830303815290604052907bffffffffffffffffffffffffffffffffffffffffffffffffffffffff19166020820180517bffffffffffffffffffffffffffffffffffffffffffffffffffffffff8381831617835250505050612eb9565b50505050565b60008083118290612ddf576040517f08c379a00000000000000000000000000000000000000000000000000000000081526004018080602001828103825283818151815260200191508051906020019080838360005b83811015612da4578082015181840152602081019050612d89565b50505050905090810190601f168015612dd15780820380516001836020036101000a031916815260200191505b509250505060405180910390fd5b506000838581612deb57fe5b049050809150509392505050565b6000838311158290612ea6576040517f08c379a00000000000000000000000000000000000000000000000000000000081526004018080602001828103825283818151815260200191508051906020019080838360005b83811015612e6b578082015181840152602081019050612e50565b50505050905090810190601f168015612e985780820380516001836020036101000a031916815260200191505b509250505060405180910390fd5b5060008385039050809150509392505050565b6060612f1b826040518060400160405280602081526020017f5361666545524332303a206c6f772d6c6576656c2063616c6c206661696c65648152508573ffffffffffffffffffffffffffffffffffffffff16612fa89092919063ffffffff16565b9050600081511115612fa357808060200190516020811015612f3c57600080fd5b8101908080519060200190929190505050612fa2576040517f08c379a000000000000000000000000000000000000000000000000000000000815260040180806020018281038252602a81526020018061332c602a913960400191505060405180910390fd5b5b505050565b6060612fb78484600085612fc0565b90509392505050565b6060823073ffffffffffffffffffffffffffffffffffffffff16311015613032576040517f08c379a00000000000000000000000000000000000000000000000000000000081526004018080602001828103825260268152602001806132866026913960400191505060405180910390fd5b61303b85613180565b6130ad576040517f08c379a000000000000000000000000000000000000000000000000000000000815260040180806020018281038252601d8152602001807f416464726573733a2063616c6c20746f206e6f6e2d636f6e747261637400000081525060200191505060405180910390fd5b600060608673ffffffffffffffffffffffffffffffffffffffff1685876040518082805190602001908083835b602083106130fd57805182526020820191506020810190506020830392506130da565b6001836020036101000a03801982511681845116808217855250505050505090500191505060006040518083038185875af1925050503d806000811461315f576040519150601f19603f3d011682016040523d82523d6000602084013e613164565b606091505b5091509150613174828286613193565b92505050949350505050565b600080823b905060008111915050919050565b606083156131a357829050613258565b6000835111156131b65782518084602001fd5b816040517f08c379a00000000000000000000000000000000000000000000000000000000081526004018080602001828103825283818151815260200191508051906020019080838360005b8381101561321d578082015181840152602081019050613202565b50505050905090810190601f16801561324a5780820380516001836020036101000a031916815260200191505b509250505060405180910390fd5b939250505056fe4f776e61626c653a206e6577206f776e657220697320746865207a65726f2061646472657373416464726573733a20696e73756666696369656e742062616c616e636520666f722063616c6c536166654d6174683a206d756c7469706c69636174696f6e206f766572666c6f774d6173746572436865663a206d757374206265206c6172676572207468656e207374617274426c6f636b4d6173746572436865663a206d757374206c6974746c65207468616e207468652063757272656e7420626c6f636b206e756d6265725361666545524332303a204552433230206f7065726174696f6e20646964206e6f742073756363656564a26469706673582212205ac88e5c6bf873188bb06d9a9e4d2f04365c4a3f865e6d1aacc47bbd0295847b64736f6c634300060c0033",
  "immutableReferences": {},
  "source": "// SPDX-License-Identifier: MIT\r\npragma solidity 0.6.12;\r\n\r\nimport \"@openzeppelin/contracts/math/SafeMath.sol\";\r\nimport '@openzeppelin/contracts/token/ERC20/IERC20.sol';\r\nimport '@openzeppelin/contracts/token/ERC20/SafeERC20.sol';\r\nimport \"@openzeppelin/contracts/access/Ownable.sol\";\r\n\r\nimport \"./tokens/GlideToken.sol\";\r\nimport \"./tokens/Sugar.sol\";\r\n\r\n// import \"@nomiclabs/buidler/console.sol\";\r\n\r\n// MasterChef is the master of Cake. He can make Cake and he is a fair guy.\r\n//\r\n// Note that it's ownable and the owner wields tremendous power. The ownership\r\n// will be transferred to a governance smart contract once CAKE is sufficiently\r\n// distributed and the community can show to govern itself.\r\n//\r\n// Have fun reading it. Hopefully it's bug-free. God bless.\r\ncontract MasterChef is Ownable {\r\n    using SafeMath for uint256;\r\n    using SafeERC20 for IERC20;\r\n\r\n    // Info of each user.\r\n    struct UserInfo {\r\n        uint256 amount;     // How many LP tokens the user has provided.\r\n        uint256 rewardDebt; // Reward debt. See explanation below.\r\n        //\r\n        // We do some fancy math here. Basically, any point in time, the amount of CAKEs\r\n        // entitled to a user but is pending to be distributed is:\r\n        //\r\n        //   pending reward = (user.amount * pool.accCakePerShare) - user.rewardDebt\r\n        //\r\n        // Whenever a user deposits or withdraws LP tokens to a pool. Here's what happens:\r\n        //   1. The pool's `accCakePerShare` (and `lastRewardBlock`) gets updated.\r\n        //   2. User receives the pending reward sent to his/her address.\r\n        //   3. User's `amount` gets updated.\r\n        //   4. User's `rewardDebt` gets updated.\r\n    }\r\n\r\n    // Info of each pool.\r\n    struct PoolInfo {\r\n        IERC20 lpToken;           // Address of LP token contract.\r\n        uint256 allocPoint;       // How many allocation points assigned to this pool. CAKEs to distribute per block.\r\n        uint256 lastRewardBlock;  // Last block number that CAKEs distribution occurs.\r\n        uint256 accCakePerShare; // Accumulated CAKEs per share, times 1e12. See below.\r\n    }\r\n\r\n    // The CAKE TOKEN!\r\n    GlideToken public cake;\r\n    // The SUGAR TOKEN!\r\n    Sugar public sugar;\r\n    // Dev address.\r\n    address public devaddr;\r\n    // Treasury address\r\n    address public treasuryaddr;\r\n    // CAKE tokens created per block.\r\n    uint256 public cakePerBlock;\r\n    // Bounus reduction period\r\n    uint256 public bonusReductionPeriod = 1572480; //12 * 60 * 24 * 91 (91 is 3 months in days)\r\n    // Reduction period\r\n    uint256 public reductionPeriod = 3144960; //12 * 60 * 24 * 182 (182 is 6 months in days)\r\n\r\n    // Info of each pool.\r\n    PoolInfo[] public poolInfo;\r\n    // Info of each user that stakes LP tokens.\r\n    mapping (uint256 => mapping (address => UserInfo)) public userInfo;\r\n    // Total allocation points. Must be the sum of all allocation points in all pools.\r\n    uint256 public totalAllocPoint = 0;\r\n    // The block number when GLIDE mining starts.\r\n    uint256 public startBlock;\r\n\r\n    event Deposit(address indexed user, uint256 indexed pid, uint256 amount);\r\n    event Withdraw(address indexed user, uint256 indexed pid, uint256 amount);\r\n    event EmergencyWithdraw(address indexed user, uint256 indexed pid, uint256 amount);\r\n\r\n    constructor(\r\n        GlideToken _cake,\r\n        Sugar _sugar,\r\n        address _devaddr,\r\n        address _treasuryaddr,\r\n        uint256 _cakePerBlock,\r\n        uint256 _startBlock\r\n    ) public {\r\n        cake = _cake;\r\n        sugar = _sugar;\r\n        devaddr = _devaddr;\r\n        treasuryaddr = _treasuryaddr;\r\n        cakePerBlock = _cakePerBlock;\r\n        startBlock = _startBlock;\r\n\r\n        // staking pool\r\n        poolInfo.push(PoolInfo({\r\n            lpToken: _cake,\r\n            allocPoint: 1000,\r\n            lastRewardBlock: startBlock,\r\n            accCakePerShare: 0\r\n        }));\r\n\r\n        totalAllocPoint = 1000;\r\n\r\n    }\r\n\r\n    function poolLength() external view returns (uint256) {\r\n        return poolInfo.length;\r\n    }\r\n\r\n    // At what phase\r\n    function phase(uint256 blockNumber) public view returns (uint256) {\r\n        if (reductionPeriod == 0) {\r\n            return 0;\r\n        }\r\n        if (blockNumber > startBlock) {\r\n            // calculate block number from start block\r\n            uint256 blockNumberFromStart = blockNumber.sub(startBlock).sub(1); \r\n            // if blockNumberFromStart less then block for reduction period, then we are in one phase\r\n            if (blockNumberFromStart <= bonusReductionPeriod) { \r\n                return 1;\r\n            } else { \r\n                // calculate phase and add 2, because, will be start from one, and one phase is bonus phase \r\n                return blockNumberFromStart.sub(bonusReductionPeriod).div(reductionPeriod).add(2);\r\n            }\r\n        }\r\n        return 0;\r\n    }\r\n\r\n    function phase() public view returns (uint256) {\r\n        return phase(block.number);\r\n    }\r\n\r\n    // get Glide token reward per block\r\n    function rewardPerPhase(uint256 phaseNumber) public view returns (uint256) {\r\n        if (phaseNumber == 0) {\r\n            return 0;\r\n        } else if (phaseNumber == 1) {\r\n            return cakePerBlock;\r\n        } else {\r\n            return cakePerBlock.mul(75).div(100).mul(85 ** (phaseNumber - 2)).div(100 ** (phaseNumber - 2));\r\n        }\r\n    }\r\n\r\n    function reward(uint256 blockNumber) public view returns (uint256) {\r\n        uint256 _phase = phase(blockNumber);\r\n        return reward(_phase);\r\n    }\r\n\r\n    function reward() public view returns (uint256) {\r\n        return reward(block.number);\r\n    }\r\n\r\n    // Rewards for the current block\r\n    function getGlideRewardPerBlock(uint256 _lastRewardBlock, uint256 _blockNumber) public view returns (uint256) {\r\n        require(_lastRewardBlock <= _blockNumber, \"MasterChef: must little than the current block number\");\r\n        require(_lastRewardBlock > startBlock, \"MasterChef: must be larger then startBlock\");\r\n        uint256 blockReward = 0;\r\n        uint256 n = phase(_lastRewardBlock);\r\n        uint256 m = phase(_blockNumber);\r\n        // If it crosses the cycle\r\n        while (n < m) {\r\n            // Get the last block of the previous cycle\r\n            uint256 r = (n - 1).mul(reductionPeriod).add(startBlock).add(bonusReductionPeriod);\r\n            // Get rewards from previous periods\r\n            blockReward = blockReward.add((r.sub(_lastRewardBlock)).mul(reward(r)));\r\n            _lastRewardBlock = r;\r\n\r\n            n++;\r\n        }\r\n        blockReward = blockReward.add((_blockNumber.sub(_lastRewardBlock)).mul(reward(_blockNumber)));\r\n        return blockReward;\r\n    }\r\n\r\n    // Rewards for the current block\r\n    function getGlideReward(uint256 _lastRewardBlock) public view returns (uint256) {\r\n        return getGlideRewardPerBlock(_lastRewardBlock, block.number);\r\n    }\r\n\r\n    // Add a new lp to the pool. Can only be called by the owner.\r\n    // XXX DO NOT add the same LP token more than once. Rewards will be messed up if you do.\r\n    function add(uint256 _allocPoint, IERC20 _lpToken, bool _withUpdate) public onlyOwner {\r\n        if (_withUpdate) {\r\n            massUpdatePools();\r\n        }\r\n        uint256 lastRewardBlock = block.number > startBlock ? block.number : startBlock;\r\n        totalAllocPoint = totalAllocPoint.add(_allocPoint);\r\n        poolInfo.push(PoolInfo({\r\n            lpToken: _lpToken,\r\n            allocPoint: _allocPoint,\r\n            lastRewardBlock: lastRewardBlock,\r\n            accCakePerShare: 0\r\n        }));\r\n        updateStakingPool();\r\n    }\r\n\r\n    // Update the given pool's CAKE allocation point. Can only be called by the owner.\r\n    function set(uint256 _pid, uint256 _allocPoint, bool _withUpdate) public onlyOwner {\r\n        if (_withUpdate) {\r\n            massUpdatePools();\r\n        }\r\n        uint256 prevAllocPoint = poolInfo[_pid].allocPoint;\r\n        poolInfo[_pid].allocPoint = _allocPoint;\r\n        if (prevAllocPoint != _allocPoint) {\r\n            totalAllocPoint = totalAllocPoint.sub(prevAllocPoint).add(_allocPoint);\r\n            updateStakingPool();\r\n        }\r\n    }\r\n\r\n    function updateStakingPool() internal {\r\n        uint256 length = poolInfo.length;\r\n        uint256 points = 0;\r\n        for (uint256 pid = 1; pid < length; ++pid) {\r\n            points = points.add(poolInfo[pid].allocPoint);\r\n        }\r\n        if (points != 0) {\r\n            points = points.div(3);\r\n            totalAllocPoint = totalAllocPoint.sub(poolInfo[0].allocPoint).add(points);\r\n            poolInfo[0].allocPoint = points;\r\n        }\r\n    }\r\n\r\n    // View function to see pending CAKEs on frontend.\r\n    function pendingCake(uint256 _pid, address _user) external view returns (uint256) {\r\n        PoolInfo storage pool = poolInfo[_pid];\r\n        UserInfo storage user = userInfo[_pid][_user];\r\n        uint256 accCakePerShare = pool.accCakePerShare;\r\n        uint256 lpSupply = pool.lpToken.balanceOf(address(this));\r\n        if (block.number > pool.lastRewardBlock && lpSupply != 0) {\r\n            uint256 glidePerBlockCalculated = getGlideReward(pool.lastRewardBlock);\r\n            uint256 glideReward = glidePerBlockCalculated.mul(pool.allocPoint).div(totalAllocPoint);\r\n            accCakePerShare = accCakePerShare.add(glideReward.mul(1e12).div(lpSupply));\r\n        }\r\n        return user.amount.mul(accCakePerShare).div(1e12).sub(user.rewardDebt);\r\n    }\r\n\r\n    // Update reward variables for all pools. Be careful of gas spending!\r\n    function massUpdatePools() public {\r\n        uint256 length = poolInfo.length;\r\n        for (uint256 pid = 0; pid < length; ++pid) {\r\n            updatePool(pid);\r\n        }\r\n    }\r\n\r\n\r\n    // Update reward variables of the given pool to be up-to-date.\r\n    function updatePool(uint256 _pid) public {\r\n        PoolInfo storage pool = poolInfo[_pid];\r\n        if (block.number <= pool.lastRewardBlock) {\r\n            return;\r\n        }\r\n        uint256 lpSupply = pool.lpToken.balanceOf(address(this));\r\n        if (lpSupply == 0) {\r\n            pool.lastRewardBlock = block.number;\r\n            return;\r\n        }\r\n\r\n        uint256 glidePerBlockCalculated = getGlideReward(pool.lastRewardBlock);\r\n        uint256 glideReward = glidePerBlockCalculated.mul(pool.allocPoint).div(totalAllocPoint);\r\n        cake.mint(devaddr, glideReward.mul(125).div(1000));\r\n        cake.mint(treasuryaddr, glideReward.mul(225).div(1000));\r\n        cake.mint(address(sugar), glideReward.mul(650).div(1000));\r\n        pool.accCakePerShare = pool.accCakePerShare.add(glideReward.mul(1e12).div(lpSupply));\r\n        pool.lastRewardBlock = block.number;\r\n    }\r\n\r\n    // Deposit LP tokens to MasterChef for CAKE allocation.\r\n    function deposit(uint256 _pid, uint256 _amount) public {\r\n\r\n        require (_pid != 0, 'deposit CAKE by staking');\r\n\r\n        PoolInfo storage pool = poolInfo[_pid];\r\n        UserInfo storage user = userInfo[_pid][msg.sender];\r\n        updatePool(_pid);\r\n        if (user.amount > 0) {\r\n            uint256 pending = user.amount.mul(pool.accCakePerShare).div(1e12).sub(user.rewardDebt);\r\n            if(pending > 0) {\r\n                safeCakeTransfer(msg.sender, pending);\r\n            }\r\n        }\r\n        if (_amount > 0) {\r\n            pool.lpToken.safeTransferFrom(address(msg.sender), address(this), _amount);\r\n            user.amount = user.amount.add(_amount);\r\n        }\r\n        user.rewardDebt = user.amount.mul(pool.accCakePerShare).div(1e12);\r\n        emit Deposit(msg.sender, _pid, _amount);\r\n    }\r\n\r\n    // Withdraw LP tokens from MasterChef.\r\n    function withdraw(uint256 _pid, uint256 _amount) public {\r\n\r\n        require (_pid != 0, 'withdraw CAKE by unstaking');\r\n        PoolInfo storage pool = poolInfo[_pid];\r\n        UserInfo storage user = userInfo[_pid][msg.sender];\r\n        require(user.amount >= _amount, \"withdraw: not good\");\r\n\r\n        updatePool(_pid);\r\n        uint256 pending = user.amount.mul(pool.accCakePerShare).div(1e12).sub(user.rewardDebt);\r\n        if(pending > 0) {\r\n            safeCakeTransfer(msg.sender, pending);\r\n        }\r\n        if(_amount > 0) {\r\n            user.amount = user.amount.sub(_amount);\r\n            pool.lpToken.safeTransfer(address(msg.sender), _amount);\r\n        }\r\n        user.rewardDebt = user.amount.mul(pool.accCakePerShare).div(1e12);\r\n        emit Withdraw(msg.sender, _pid, _amount);\r\n    }\r\n\r\n    // Stake CAKE tokens to MasterChef\r\n    function enterStaking(uint256 _amount) public {\r\n        PoolInfo storage pool = poolInfo[0];\r\n        UserInfo storage user = userInfo[0][msg.sender];\r\n        updatePool(0);\r\n        if (user.amount > 0) {\r\n            uint256 pending = user.amount.mul(pool.accCakePerShare).div(1e12).sub(user.rewardDebt);\r\n            if(pending > 0) {\r\n                safeCakeTransfer(msg.sender, pending);\r\n            }\r\n        }\r\n        if(_amount > 0) {\r\n            pool.lpToken.safeTransferFrom(address(msg.sender), address(this), _amount);\r\n            user.amount = user.amount.add(_amount);\r\n        }\r\n        user.rewardDebt = user.amount.mul(pool.accCakePerShare).div(1e12);\r\n\r\n        sugar.mint(msg.sender, _amount);\r\n        emit Deposit(msg.sender, 0, _amount);\r\n    }\r\n\r\n    // Withdraw CAKE tokens from STAKING.\r\n    function leaveStaking(uint256 _amount) public {\r\n        PoolInfo storage pool = poolInfo[0];\r\n        UserInfo storage user = userInfo[0][msg.sender];\r\n        require(user.amount >= _amount, \"withdraw: not good\");\r\n        updatePool(0);\r\n        uint256 pending = user.amount.mul(pool.accCakePerShare).div(1e12).sub(user.rewardDebt);\r\n        if(pending > 0) {\r\n            safeCakeTransfer(msg.sender, pending);\r\n        }\r\n        if(_amount > 0) {\r\n            user.amount = user.amount.sub(_amount);\r\n            pool.lpToken.safeTransfer(address(msg.sender), _amount);\r\n        }\r\n        user.rewardDebt = user.amount.mul(pool.accCakePerShare).div(1e12);\r\n\r\n        sugar.burn(msg.sender, _amount);\r\n        emit Withdraw(msg.sender, 0, _amount);\r\n    }\r\n\r\n    // Withdraw without caring about rewards. EMERGENCY ONLY.\r\n    function emergencyWithdraw(uint256 _pid) public {\r\n        PoolInfo storage pool = poolInfo[_pid];\r\n        UserInfo storage user = userInfo[_pid][msg.sender];\r\n        pool.lpToken.safeTransfer(address(msg.sender), user.amount);\r\n        emit EmergencyWithdraw(msg.sender, _pid, user.amount);\r\n        user.amount = 0;\r\n        user.rewardDebt = 0;\r\n    }\r\n\r\n    // Safe cake transfer function, just in case if rounding error causes pool to not have enough CAKEs.\r\n    function safeCakeTransfer(address _to, uint256 _amount) internal {\r\n        sugar.safeCakeTransfer(_to, _amount);\r\n    }\r\n\r\n    // Update dev address by the previous dev.\r\n    function dev(address _devaddr) public {\r\n        require(msg.sender == devaddr, \"dev: wut?\");\r\n        devaddr = _devaddr;\r\n    }\r\n}",
  "sourcePath": "D:\\Posao - Stefan\\Stefan - razno\\Blockchain\\ElavateFinance\\auto-swap\\contracts\\MasterChef.sol",
  "compiler": {
    "name": "solc",
    "version": "0.6.12+commit.27d51765.Emscripten.clang"
  },
  "schemaVersion": "3.4.3",
  "updatedAt": "2021-08-19T08:23:20.857Z",
  "devdoc": {
    "kind": "dev",
    "methods": {
      "owner()": {
        "details": "Returns the address of the current owner."
      },
      "renounceOwnership()": {
        "details": "Leaves the contract without owner. It will not be possible to call `onlyOwner` functions anymore. Can only be called by the current owner. NOTE: Renouncing ownership will leave the contract without an owner, thereby removing any functionality that is only available to the owner."
      },
      "transferOwnership(address)": {
        "details": "Transfers ownership of the contract to a new account (`newOwner`). Can only be called by the current owner."
      }
    },
    "version": 1
  },
  "userdoc": {
    "kind": "user",
    "methods": {},
    "version": 1
  }
}