{
  "contractName": "MasterChef",
  "abi": [
    {
      "inputs": [
        {
          "internalType": "contract GlideToken",
          "name": "_glide",
          "type": "address"
        },
        {
          "internalType": "contract Sugar",
          "name": "_sugar",
          "type": "address"
        },
        {
          "internalType": "address",
          "name": "_devaddr",
          "type": "address"
        },
        {
          "internalType": "address",
          "name": "_treasuryaddr",
          "type": "address"
        },
        {
          "internalType": "uint256",
          "name": "_glidePerBlock",
          "type": "uint256"
        },
        {
          "internalType": "uint256",
          "name": "_startBlock",
          "type": "uint256"
        },
        {
          "internalType": "address",
          "name": "_glideTransferOwner",
          "type": "address"
        }
      ],
      "stateMutability": "nonpayable",
      "type": "constructor"
    },
    {
      "anonymous": false,
      "inputs": [
        {
          "indexed": true,
          "internalType": "address",
          "name": "user",
          "type": "address"
        },
        {
          "indexed": true,
          "internalType": "uint256",
          "name": "pid",
          "type": "uint256"
        },
        {
          "indexed": false,
          "internalType": "uint256",
          "name": "amount",
          "type": "uint256"
        }
      ],
      "name": "Deposit",
      "type": "event"
    },
    {
      "anonymous": false,
      "inputs": [
        {
          "indexed": true,
          "internalType": "address",
          "name": "user",
          "type": "address"
        },
        {
          "indexed": true,
          "internalType": "uint256",
          "name": "pid",
          "type": "uint256"
        },
        {
          "indexed": false,
          "internalType": "uint256",
          "name": "amount",
          "type": "uint256"
        }
      ],
      "name": "EmergencyWithdraw",
      "type": "event"
    },
    {
      "anonymous": false,
      "inputs": [
        {
          "indexed": false,
          "internalType": "uint256",
          "name": "message",
          "type": "uint256"
        }
      ],
      "name": "Log",
      "type": "event"
    },
    {
      "anonymous": false,
      "inputs": [
        {
          "indexed": true,
          "internalType": "address",
          "name": "previousOwner",
          "type": "address"
        },
        {
          "indexed": true,
          "internalType": "address",
          "name": "newOwner",
          "type": "address"
        }
      ],
      "name": "OwnershipTransferred",
      "type": "event"
    },
    {
      "anonymous": false,
      "inputs": [
        {
          "indexed": true,
          "internalType": "address",
          "name": "user",
          "type": "address"
        },
        {
          "indexed": true,
          "internalType": "address",
          "name": "glideTransferOwner",
          "type": "address"
        }
      ],
      "name": "SetGlideTransferOwner",
      "type": "event"
    },
    {
      "anonymous": false,
      "inputs": [
        {
          "indexed": true,
          "internalType": "address",
          "name": "user",
          "type": "address"
        },
        {
          "indexed": true,
          "internalType": "address",
          "name": "newOwner",
          "type": "address"
        }
      ],
      "name": "TransferGlideOwnership",
      "type": "event"
    },
    {
      "anonymous": false,
      "inputs": [
        {
          "indexed": true,
          "internalType": "address",
          "name": "user",
          "type": "address"
        },
        {
          "indexed": false,
          "internalType": "uint256",
          "name": "glidePerBlock",
          "type": "uint256"
        }
      ],
      "name": "UpdateEmissionRate",
      "type": "event"
    },
    {
      "anonymous": false,
      "inputs": [
        {
          "indexed": true,
          "internalType": "address",
          "name": "user",
          "type": "address"
        },
        {
          "indexed": true,
          "internalType": "uint256",
          "name": "pid",
          "type": "uint256"
        },
        {
          "indexed": false,
          "internalType": "uint256",
          "name": "amount",
          "type": "uint256"
        }
      ],
      "name": "Withdraw",
      "type": "event"
    },
    {
      "inputs": [],
      "name": "MAX_ALLOC_POINT",
      "outputs": [
        {
          "internalType": "uint256",
          "name": "",
          "type": "uint256"
        }
      ],
      "stateMutability": "view",
      "type": "function",
      "constant": true
    },
    {
      "inputs": [],
      "name": "MAX_EMISSION_RATE",
      "outputs": [
        {
          "internalType": "uint256",
          "name": "",
          "type": "uint256"
        }
      ],
      "stateMutability": "view",
      "type": "function",
      "constant": true
    },
    {
      "inputs": [],
      "name": "bonusReductionPeriod",
      "outputs": [
        {
          "internalType": "uint256",
          "name": "",
          "type": "uint256"
        }
      ],
      "stateMutability": "view",
      "type": "function",
      "constant": true
    },
    {
      "inputs": [],
      "name": "devaddr",
      "outputs": [
        {
          "internalType": "address",
          "name": "",
          "type": "address"
        }
      ],
      "stateMutability": "view",
      "type": "function",
      "constant": true
    },
    {
      "inputs": [],
      "name": "glide",
      "outputs": [
        {
          "internalType": "contract GlideToken",
          "name": "",
          "type": "address"
        }
      ],
      "stateMutability": "view",
      "type": "function",
      "constant": true
    },
    {
      "inputs": [],
      "name": "glidePerBlock",
      "outputs": [
        {
          "internalType": "uint256",
          "name": "",
          "type": "uint256"
        }
      ],
      "stateMutability": "view",
      "type": "function",
      "constant": true
    },
    {
      "inputs": [],
      "name": "glideTransferOwner",
      "outputs": [
        {
          "internalType": "address",
          "name": "",
          "type": "address"
        }
      ],
      "stateMutability": "view",
      "type": "function",
      "constant": true
    },
    {
      "inputs": [],
      "name": "owner",
      "outputs": [
        {
          "internalType": "address",
          "name": "",
          "type": "address"
        }
      ],
      "stateMutability": "view",
      "type": "function",
      "constant": true
    },
    {
      "inputs": [
        {
          "internalType": "uint256",
          "name": "",
          "type": "uint256"
        }
      ],
      "name": "poolInfo",
      "outputs": [
        {
          "internalType": "contract IERC20",
          "name": "lpToken",
          "type": "address"
        },
        {
          "internalType": "uint256",
          "name": "allocPoint",
          "type": "uint256"
        },
        {
          "internalType": "uint256",
          "name": "lastRewardBlock",
          "type": "uint256"
        },
        {
          "internalType": "uint256",
          "name": "accGlidePerShare",
          "type": "uint256"
        }
      ],
      "stateMutability": "view",
      "type": "function",
      "constant": true
    },
    {
      "inputs": [],
      "name": "reductionPeriod",
      "outputs": [
        {
          "internalType": "uint256",
          "name": "",
          "type": "uint256"
        }
      ],
      "stateMutability": "view",
      "type": "function",
      "constant": true
    },
    {
      "inputs": [],
      "name": "renounceOwnership",
      "outputs": [],
      "stateMutability": "nonpayable",
      "type": "function"
    },
    {
      "inputs": [],
      "name": "startBlock",
      "outputs": [
        {
          "internalType": "uint256",
          "name": "",
          "type": "uint256"
        }
      ],
      "stateMutability": "view",
      "type": "function",
      "constant": true
    },
    {
      "inputs": [],
      "name": "sugar",
      "outputs": [
        {
          "internalType": "contract Sugar",
          "name": "",
          "type": "address"
        }
      ],
      "stateMutability": "view",
      "type": "function",
      "constant": true
    },
    {
      "inputs": [],
      "name": "totalAllocPoint",
      "outputs": [
        {
          "internalType": "uint256",
          "name": "",
          "type": "uint256"
        }
      ],
      "stateMutability": "view",
      "type": "function",
      "constant": true
    },
    {
      "inputs": [
        {
          "internalType": "address",
          "name": "newOwner",
          "type": "address"
        }
      ],
      "name": "transferOwnership",
      "outputs": [],
      "stateMutability": "nonpayable",
      "type": "function"
    },
    {
      "inputs": [],
      "name": "treasuryaddr",
      "outputs": [
        {
          "internalType": "address",
          "name": "",
          "type": "address"
        }
      ],
      "stateMutability": "view",
      "type": "function",
      "constant": true
    },
    {
      "inputs": [
        {
          "internalType": "uint256",
          "name": "",
          "type": "uint256"
        },
        {
          "internalType": "address",
          "name": "",
          "type": "address"
        }
      ],
      "name": "userInfo",
      "outputs": [
        {
          "internalType": "uint256",
          "name": "amount",
          "type": "uint256"
        },
        {
          "internalType": "uint256",
          "name": "rewardDebt",
          "type": "uint256"
        }
      ],
      "stateMutability": "view",
      "type": "function",
      "constant": true
    },
    {
      "inputs": [],
      "name": "poolLength",
      "outputs": [
        {
          "internalType": "uint256",
          "name": "",
          "type": "uint256"
        }
      ],
      "stateMutability": "view",
      "type": "function",
      "constant": true
    },
    {
      "inputs": [
        {
          "internalType": "uint256",
          "name": "blockNumber",
          "type": "uint256"
        }
      ],
      "name": "phase",
      "outputs": [
        {
          "internalType": "uint256",
          "name": "",
          "type": "uint256"
        }
      ],
      "stateMutability": "view",
      "type": "function",
      "constant": true
    },
    {
      "inputs": [],
      "name": "phase",
      "outputs": [
        {
          "internalType": "uint256",
          "name": "",
          "type": "uint256"
        }
      ],
      "stateMutability": "view",
      "type": "function",
      "constant": true
    },
    {
      "inputs": [
        {
          "internalType": "uint256",
          "name": "phaseNumber",
          "type": "uint256"
        }
      ],
      "name": "rewardPerPhase",
      "outputs": [
        {
          "internalType": "uint256",
          "name": "",
          "type": "uint256"
        }
      ],
      "stateMutability": "view",
      "type": "function",
      "constant": true
    },
    {
      "inputs": [],
      "name": "reward",
      "outputs": [
        {
          "internalType": "uint256",
          "name": "",
          "type": "uint256"
        }
      ],
      "stateMutability": "view",
      "type": "function",
      "constant": true
    },
    {
      "inputs": [
        {
          "internalType": "uint256",
          "name": "blockNumber",
          "type": "uint256"
        }
      ],
      "name": "reward",
      "outputs": [
        {
          "internalType": "uint256",
          "name": "",
          "type": "uint256"
        }
      ],
      "stateMutability": "view",
      "type": "function",
      "constant": true
    },
    {
      "inputs": [
        {
          "internalType": "uint256",
          "name": "_lastRewardBlock",
          "type": "uint256"
        },
        {
          "internalType": "uint256",
          "name": "_blockNumber",
          "type": "uint256"
        }
      ],
      "name": "getGlideRewardPerBlock",
      "outputs": [
        {
          "internalType": "uint256",
          "name": "",
          "type": "uint256"
        }
      ],
      "stateMutability": "view",
      "type": "function",
      "constant": true
    },
    {
      "inputs": [
        {
          "internalType": "uint256",
          "name": "_lastRewardBlock",
          "type": "uint256"
        }
      ],
      "name": "getGlideReward",
      "outputs": [
        {
          "internalType": "uint256",
          "name": "",
          "type": "uint256"
        }
      ],
      "stateMutability": "view",
      "type": "function",
      "constant": true
    },
    {
      "inputs": [
        {
          "internalType": "uint256",
          "name": "_allocPoint",
          "type": "uint256"
        },
        {
          "internalType": "contract IERC20",
          "name": "_lpToken",
          "type": "address"
        },
        {
          "internalType": "bool",
          "name": "_withUpdate",
          "type": "bool"
        }
      ],
      "name": "add",
      "outputs": [],
      "stateMutability": "nonpayable",
      "type": "function"
    },
    {
      "inputs": [
        {
          "internalType": "uint256",
          "name": "_pid",
          "type": "uint256"
        },
        {
          "internalType": "uint256",
          "name": "_allocPoint",
          "type": "uint256"
        },
        {
          "internalType": "bool",
          "name": "_withUpdate",
          "type": "bool"
        }
      ],
      "name": "set",
      "outputs": [],
      "stateMutability": "nonpayable",
      "type": "function"
    },
    {
      "inputs": [
        {
          "internalType": "uint256",
          "name": "_pid",
          "type": "uint256"
        },
        {
          "internalType": "address",
          "name": "_user",
          "type": "address"
        }
      ],
      "name": "pendingGlide",
      "outputs": [
        {
          "internalType": "uint256",
          "name": "",
          "type": "uint256"
        }
      ],
      "stateMutability": "view",
      "type": "function",
      "constant": true
    },
    {
      "inputs": [],
      "name": "massUpdatePools",
      "outputs": [],
      "stateMutability": "nonpayable",
      "type": "function"
    },
    {
      "inputs": [
        {
          "internalType": "uint256",
          "name": "_pid",
          "type": "uint256"
        }
      ],
      "name": "updatePool",
      "outputs": [],
      "stateMutability": "nonpayable",
      "type": "function"
    },
    {
      "inputs": [
        {
          "internalType": "uint256",
          "name": "_pid",
          "type": "uint256"
        },
        {
          "internalType": "uint256",
          "name": "_amount",
          "type": "uint256"
        }
      ],
      "name": "deposit",
      "outputs": [],
      "stateMutability": "nonpayable",
      "type": "function"
    },
    {
      "inputs": [
        {
          "internalType": "uint256",
          "name": "_pid",
          "type": "uint256"
        },
        {
          "internalType": "uint256",
          "name": "_amount",
          "type": "uint256"
        }
      ],
      "name": "withdraw",
      "outputs": [],
      "stateMutability": "nonpayable",
      "type": "function"
    },
    {
      "inputs": [
        {
          "internalType": "uint256",
          "name": "_amount",
          "type": "uint256"
        }
      ],
      "name": "enterStaking",
      "outputs": [],
      "stateMutability": "nonpayable",
      "type": "function"
    },
    {
      "inputs": [
        {
          "internalType": "uint256",
          "name": "_amount",
          "type": "uint256"
        }
      ],
      "name": "leaveStaking",
      "outputs": [],
      "stateMutability": "nonpayable",
      "type": "function"
    },
    {
      "inputs": [
        {
          "internalType": "uint256",
          "name": "_pid",
          "type": "uint256"
        }
      ],
      "name": "emergencyWithdraw",
      "outputs": [],
      "stateMutability": "nonpayable",
      "type": "function"
    },
    {
      "inputs": [
        {
          "internalType": "address",
          "name": "_devaddr",
          "type": "address"
        }
      ],
      "name": "dev",
      "outputs": [],
      "stateMutability": "nonpayable",
      "type": "function"
    },
    {
      "inputs": [
        {
          "internalType": "uint256",
          "name": "_bonusReductionPeriod",
          "type": "uint256"
        }
      ],
      "name": "setBonusReductionPeriod",
      "outputs": [],
      "stateMutability": "nonpayable",
      "type": "function"
    },
    {
      "inputs": [
        {
          "internalType": "uint256",
          "name": "_reductionPeriod",
          "type": "uint256"
        }
      ],
      "name": "setReductionPeriod",
      "outputs": [],
      "stateMutability": "nonpayable",
      "type": "function"
    },
    {
      "inputs": [
        {
          "internalType": "uint256",
          "name": "_startBlock",
          "type": "uint256"
        }
      ],
      "name": "setStartBlock",
      "outputs": [],
      "stateMutability": "nonpayable",
      "type": "function"
    },
    {
      "inputs": [
        {
          "internalType": "uint256",
          "name": "_glidePerBlock",
          "type": "uint256"
        }
      ],
      "name": "updateEmissionRate",
      "outputs": [],
      "stateMutability": "nonpayable",
      "type": "function"
    },
    {
      "inputs": [
        {
          "internalType": "address",
          "name": "_glideTransferOwner",
          "type": "address"
        }
      ],
      "name": "setGlideTransferOwner",
      "outputs": [],
      "stateMutability": "nonpayable",
      "type": "function"
    },
    {
      "inputs": [
        {
          "internalType": "address",
          "name": "_newOwner",
          "type": "address"
        }
      ],
      "name": "transferGlideOwnership",
      "outputs": [],
      "stateMutability": "nonpayable",
      "type": "function"
    }
  ],
  "bytecode": "0x60806040526217fe80600755622ffd006008556000600b5534801561002357600080fd5b506040516200297038038062002970833981810160405260e081101561004857600080fd5b508051602082015160408301516060840151608085015160a086015160c0909601519495939492939192909190600061007f610218565b600080546001600160a01b0319166001600160a01b0383169081178255604051929350917f8be0079c531659141344cd1fd0a4f28419497f9722a3daafe3b4186f6b6457e0908290a350600180546001600160a01b03199081166001600160a01b03998a169081178355600380548316998b1699909917909855600480548216978a16979097178755600580548216968a1696909617909555600693909355600c829055600280548516918816919091179055604080516080810182529586526103e86020870181815291870192835260006060880181815260098054968701815590915296517f6e1540171b6c0c960b71a7020d9f60077f6af931a8bbf590da0223dacf75c7af949096029384018054909516959097169490941790925591517f6e1540171b6c0c960b71a7020d9f60077f6af931a8bbf590da0223dacf75c7b0830155517f6e1540171b6c0c960b71a7020d9f60077f6af931a8bbf590da0223dacf75c7b182015590517f6e1540171b6c0c960b71a7020d9f60077f6af931a8bbf590da0223dacf75c7b290910155600b5561021c565b3390565b612744806200022c6000396000f3fe608060405234801561001057600080fd5b506004361061025e5760003560e01c80636e99b75e11610146578063b307681c116100c3578063e2bbb15811610087578063e2bbb158146105ec578063f0ce0dff1461060f578063f2fde38b14610635578063f35e4a6e1461065b578063f958d1f914610678578063fa1ed437146106805761025e565b8063b307681c14610567578063ba624f441461058a578063bd7418b314610592578063d49e77cd146105b8578063da6dfb80146105c05761025e565b80638da5cb5b1161010a5780638da5cb5b146104ed57806393f1a40b146104f5578063a0e0e13c1461053a578063a9fb763c14610542578063b1c9fe6e1461055f5761025e565b80636e99b75e14610492578063715018a61461049a578063724b2b33146104a2578063897b96ff146104bf5780638d88a90e146104c75761025e565b806341441d3b116101df5780634e9c14f1116101a35780634e9c14f11461040057806351eb05a6146104085780635312ea8e146104255780635d5ebf1614610442578063630b5ba11461045f57806364482f79146104675761025e565b806341441d3b14610393578063436cc3d6146103b0578063441a3e70146103b857806347cf5b59146103db57806348cd4cb1146103f85761025e565b80631526fe27116102265780631526fe27146102fa57806317caf6f1146103475780631eaaa0451461034f578063228cb733146103835780632deedf421461038b5761025e565b8063081e3eda146102635780630ba84cd21461027d5780631058d2811461029c578063135f8aa7146102b957806314139805146102d6575b600080fd5b61026b61069d565b60408051918252519081900360200190f35b61029a6004803603602081101561029357600080fd5b50356106a3565b005b61029a600480360360208110156102b257600080fd5b503561078a565b61026b600480360360208110156102cf57600080fd5b503561096e565b6102de6109f4565b604080516001600160a01b039092168252519081900360200190f35b6103176004803603602081101561031057600080fd5b5035610a03565b604080516001600160a01b0390951685526020850193909352838301919091526060830152519081900360800190f35b61026b610a44565b61029a6004803603606081101561036557600080fd5b508035906001600160a01b0360208201351690604001351515610a4a565b61026b610c13565b6102de610c23565b61029a600480360360208110156103a957600080fd5b5035610c32565b61026b610dc6565b61029a600480360360408110156103ce57600080fd5b5080359060200135610dd3565b61026b600480360360208110156103f157600080fd5b5035610f78565b61026b610f8a565b61026b610f90565b61029a6004803603602081101561041e57600080fd5b5035610f96565b61029a6004803603602081101561043b57600080fd5b5035611347565b61026b6004803603602081101561045857600080fd5b50356113e2565b61029a61144c565b61029a6004803603606081101561047d57600080fd5b5080359060208101359060400135151561146f565b6102de611589565b61029a611598565b61029a600480360360208110156104b857600080fd5b503561163a565b61026b611697565b61029a600480360360208110156104dd57600080fd5b50356001600160a01b031661169d565b6102de61170a565b6105216004803603604081101561050b57600080fd5b50803590602001356001600160a01b0316611719565b6040805192835260208301919091528051918290030190f35b6102de61173d565b61026b6004803603602081101561055857600080fd5b503561174c565b61026b61176a565b61026b6004803603604081101561057d57600080fd5b5080359060200135611775565b61026b61189d565b61029a600480360360208110156105a857600080fd5b50356001600160a01b03166118a3565b6102de611959565b61026b600480360360408110156105d657600080fd5b50803590602001356001600160a01b0316611968565b61029a6004803603604081101561060257600080fd5b5080359060200135611bcc565b61029a6004803603602081101561062557600080fd5b50356001600160a01b0316611d30565b61029a6004803603602081101561064b57600080fd5b50356001600160a01b0316611d93565b61029a6004803603602081101561067157600080fd5b5035611e8b565b61026b611ee8565b61029a6004803603602081101561069657600080fd5b5035611eef565b60095490565b6106ab611f4c565b6000546001600160a01b039081169116146106fb576040805162461bcd60e51b81526020600482018190526024820152600080516020612690833981519152604482015290519081900360640190fd5b683635c9adc5dea00000811115610744576040805162461bcd60e51b8152602060048201526008602482015267042deeccae4dac2f60c31b604482015290519081900360640190fd5b61074c61144c565b600681905560408051828152905133917fe2492e003bbe8afa53088b406f0c1cb5d9e280370fc72a74cf116ffd343c4053919081900360200190a250565b6000600960008154811061079a57fe5b600091825260208083203384527f13da86008ba1c6922daee3e07db95305ef49ebced9f5467a0b8613fcc6b343e39091526040909220805460049092029092019250831115610825576040805162461bcd60e51b81526020600482015260126024820152711dda5d1a191c985dce881b9bdd0819dbdbd960721b604482015290519081900360640190fd5b61082f6000610f96565b6000610869826001015461086364e8d4a5100061085d87600301548760000154611f5090919063ffffffff16565b90611fa9565b90611feb565b9050801561087b5761087b338261202d565b83156108a557815461088d9085611feb565b825582546108a5906001600160a01b0316338661209e565b600383015482546108c09164e8d4a510009161085d91611f50565b600183015560035460408051632770a7eb60e21b81523360048201526024810187905290516001600160a01b0390921691639dc29fac9160448082019260009290919082900301818387803b15801561091857600080fd5b505af115801561092c573d6000803e3d6000fd5b5050604080518781529051600093503392507ff279e6a1f5e320cca91135676d9cb6e44ca8a08c0b88342bcdb1144f6511b5689181900360200190a350505050565b600060085460001415610983575060006109ef565b600c5482106109eb5760006109a3600c5484611feb90919063ffffffff16565b905060075481116109b85760019150506109ef565b6109e360026109dd60085461085d600161086360075488611feb90919063ffffffff16565b906120f5565b9150506109ef565b5060005b919050565b6001546001600160a01b031681565b60098181548110610a1057fe5b600091825260209091206004909102018054600182015460028301546003909301546001600160a01b039092169350919084565b600b5481565b610a52611f4c565b6000546001600160a01b03908116911614610aa2576040805162461bcd60e51b81526020600482018190526024820152600080516020612690833981519152604482015290519081900360640190fd5b620186a0831115610ae5576040805162461bcd60e51b8152602060048201526008602482015267042deeccae4dac2f60c31b604482015290519081900360640190fd5b8015610af357610af361144c565b6000600c544311610b0657600c54610b08565b435b600b54909150610b1890856120f5565b600b55604080516080810182526001600160a01b0385811682526020820187815292820184815260006060840181815260098054600181018255925293517f6e1540171b6c0c960b71a7020d9f60077f6af931a8bbf590da0223dacf75c7af600490920291820180546001600160a01b031916919094161790925592517f6e1540171b6c0c960b71a7020d9f60077f6af931a8bbf590da0223dacf75c7b082015591517f6e1540171b6c0c960b71a7020d9f60077f6af931a8bbf590da0223dacf75c7b1830155517f6e1540171b6c0c960b71a7020d9f60077f6af931a8bbf590da0223dacf75c7b290910155610c0d61214f565b50505050565b6000610c1e4361174c565b905090565b6002546001600160a01b031681565b60006009600081548110610c4257fe5b600091825260208083203384527f13da86008ba1c6922daee3e07db95305ef49ebced9f5467a0b8613fcc6b343e390915260408320600490920201925090610c8990610f96565b805415610cd2576000610cbe826001015461086364e8d4a5100061085d87600301548760000154611f5090919063ffffffff16565b90508015610cd057610cd0338261202d565b505b8215610cfe578154610cef906001600160a01b0316333086612214565b8054610cfb90846120f5565b81555b60038201548154610d199164e8d4a510009161085d91611f50565b6001820155600354604080516340c10f1960e01b81523360048201526024810186905290516001600160a01b03909216916340c10f199160448082019260009290919082900301818387803b158015610d7157600080fd5b505af1158015610d85573d6000803e3d6000fd5b5050604080518681529051600093503392507f90890809c654f11d6e72a28fa60149770a0d11ec6c92319d6ceb2bb0a4ea1a159181900360200190a3505050565b683635c9adc5dea0000081565b81610e25576040805162461bcd60e51b815260206004820152601b60248201527f776974686472617720474c49444520627920756e7374616b696e670000000000604482015290519081900360640190fd5b600060098381548110610e3457fe5b60009182526020808320868452600a825260408085203386529092529220805460049092029092019250831115610ea7576040805162461bcd60e51b81526020600482015260126024820152711dda5d1a191c985dce881b9bdd0819dbdbd960721b604482015290519081900360640190fd5b610eb084610f96565b6000610ede826001015461086364e8d4a5100061085d87600301548760000154611f5090919063ffffffff16565b90508015610ef057610ef0338261202d565b8315610f1a578154610f029085611feb565b82558254610f1a906001600160a01b0316338661209e565b60038301548254610f359164e8d4a510009161085d91611f50565b6001830155604080518581529051869133917ff279e6a1f5e320cca91135676d9cb6e44ca8a08c0b88342bcdb1144f6511b5689181900360200190a35050505050565b6000610f848243611775565b92915050565b600c5481565b60075481565b600060098281548110610fa557fe5b9060005260206000209060040201905080600201544311610fc65750611344565b8054604080516370a0823160e01b815230600482015290516000926001600160a01b0316916370a08231916024808301926020929190829003018186803b15801561101057600080fd5b505afa158015611024573d6000803e3d6000fd5b505050506040513d602081101561103a57600080fd5b5051905080611050575043600290910155611344565b600061105f8360020154610f78565b9050600160009054906101000a90046001600160a01b03166001600160a01b0316635db30bb16040518163ffffffff1660e01b815260040160206040518083038186803b1580156110af57600080fd5b505afa1580156110c3573d6000803e3d6000fd5b505050506040513d60208110156110d957600080fd5b5051600154604080516318160ddd60e01b8152905184926001600160a01b0316916318160ddd916004808301926020929190829003018186803b15801561111f57600080fd5b505afa158015611133573d6000803e3d6000fd5b505050506040513d602081101561114957600080fd5b5051011015610c0d576000611171600b5461085d866001015485611f5090919063ffffffff16565b905060006111876103e861085d8461028a611f50565b600154600354604080516340c10f1960e01b81526001600160a01b0392831660048201526024810185905290519394509116916340c10f199160448082019260009290919082900301818387803b1580156111e157600080fd5b505af11580156111f5573d6000803e3d6000fd5b50506001546004546001600160a01b0391821693506340c10f199250166112236103e861085d87607d611f50565b6040518363ffffffff1660e01b815260040180836001600160a01b0316815260200182815260200192505050600060405180830381600087803b15801561126957600080fd5b505af115801561127d573d6000803e3d6000fd5b50506001546005546001600160a01b0391821693506340c10f199250166112ab6103e861085d8760e1611f50565b6040518363ffffffff1660e01b815260040180836001600160a01b0316815260200182815260200192505050600060405180830381600087803b1580156112f157600080fd5b505af1158015611305573d6000803e3d6000fd5b505050506113336113288561085d64e8d4a5100085611f5090919063ffffffff16565b6003870154906120f5565b600386015550504360028401555050505b50565b60006009828154811061135657fe5b60009182526020808320858452600a8252604080852033808752935290932080546004909302909301805490945061139b926001600160a01b0391909116919061209e565b80546040805191825251849133917fbb757047c2b5f3974fe26b7c10f732e7bce710b0952a71082702781e62ae05959181900360200190a360008082556001909101555050565b60008115806113f15750601982115b156113fe575060006109ef565b816001141561141057506006546109ef565b6114456002830360640a61085d6002850360550a61143f606461085d604b600654611f5090919063ffffffff16565b90611f50565b90506109ef565b60095460005b8181101561146b5761146381610f96565b600101611452565b5050565b611477611f4c565b6000546001600160a01b039081169116146114c7576040805162461bcd60e51b81526020600482018190526024820152600080516020612690833981519152604482015290519081900360640190fd5b620186a082111561150a576040805162461bcd60e51b8152602060048201526008602482015267042deeccae4dac2f60c31b604482015290519081900360640190fd5b80156115185761151861144c565b60006009848154811061152757fe5b9060005260206000209060040201600101549050826009858154811061154957fe5b906000526020600020906004020160010181905550828114610c0d5761157e836109dd83600b54611feb90919063ffffffff16565b600b55610c0d61214f565b6005546001600160a01b031681565b6115a0611f4c565b6000546001600160a01b039081169116146115f0576040805162461bcd60e51b81526020600482018190526024820152600080516020612690833981519152604482015290519081900360640190fd5b600080546040516001600160a01b03909116907f8be0079c531659141344cd1fd0a4f28419497f9722a3daafe3b4186f6b6457e0908390a3600080546001600160a01b0319169055565b611642611f4c565b6000546001600160a01b03908116911614611692576040805162461bcd60e51b81526020600482018190526024820152600080516020612690833981519152604482015290519081900360640190fd5b600855565b60065481565b6004546001600160a01b031633146116e8576040805162461bcd60e51b81526020600482015260096024820152686465763a207775743f60b81b604482015290519081900360640190fd5b600480546001600160a01b0319166001600160a01b0392909216919091179055565b6000546001600160a01b031690565b600a6020908152600092835260408084209091529082529020805460019091015482565b6003546001600160a01b031681565b6000806117588361096e565b9050611763816113e2565b9392505050565b6000610c1e4361096e565b6000818311156117b65760405162461bcd60e51b81526004018080602001828103825260358152602001806126b06035913960400191505060405180910390fd5b600c548310156117f75760405162461bcd60e51b815260040180806020018281038252603281526020018061263d6032913960400191505060405180910390fd5b6000806118038561096e565b905060006118108561096e565b90505b808210156118735760006118416007546109dd600c546109dd60085460018903611f5090919063ffffffff16565b905061186361185c6118528361174c565b61143f848b611feb565b85906120f5565b9096509250600190910190611813565b61189361188c6118828761174c565b61143f888a611feb565b84906120f5565b9695505050505050565b60085481565b6002546001600160a01b031633146118ba57600080fd5b6001546040805163f2fde38b60e01b81526001600160a01b0384811660048301529151919092169163f2fde38b91602480830192600092919082900301818387803b15801561190857600080fd5b505af115801561191c573d6000803e3d6000fd5b50506040516001600160a01b03841692503391507fa860724f603a0e186a7b16740ca3c96b8457a2329bc4126c8db7490de85af99a90600090a350565b6004546001600160a01b031681565b6000806009848154811061197857fe5b60009182526020808320878452600a825260408085206001600160a01b03898116875290845281862060049586029093016003810154815484516370a0823160e01b81523098810198909852935191985093969395939492909116926370a08231926024808301939192829003018186803b1580156119f657600080fd5b505afa158015611a0a573d6000803e3d6000fd5b505050506040513d6020811015611a2057600080fd5b5051600285015490915043118015611a3757508015155b15611b99576000611a4b8560020154610f78565b9050600160009054906101000a90046001600160a01b03166001600160a01b0316635db30bb16040518163ffffffff1660e01b815260040160206040518083038186803b158015611a9b57600080fd5b505afa158015611aaf573d6000803e3d6000fd5b505050506040513d6020811015611ac557600080fd5b5051600154604080516318160ddd60e01b8152905184926001600160a01b0316916318160ddd916004808301926020929190829003018186803b158015611b0b57600080fd5b505afa158015611b1f573d6000803e3d6000fd5b505050506040513d6020811015611b3557600080fd5b5051011015611b97576000611b5d600b5461085d886001015485611f5090919063ffffffff16565b90506000611b736103e861085d8461028a611f50565b9050611b92611b8b8561085d8464e8d4a51000611f50565b86906120f5565b945050505b505b611bc1836001015461086364e8d4a5100061085d868860000154611f5090919063ffffffff16565b979650505050505050565b81611c1e576040805162461bcd60e51b815260206004820152601860248201527f6465706f73697420474c494445206279207374616b696e670000000000000000604482015290519081900360640190fd5b600060098381548110611c2d57fe5b60009182526020808320868452600a82526040808520338652909252922060049091029091019150611c5e84610f96565b805415611ca7576000611c93826001015461086364e8d4a5100061085d87600301548760000154611f5090919063ffffffff16565b90508015611ca557611ca5338261202d565b505b8215611cd3578154611cc4906001600160a01b0316333086612214565b8054611cd090846120f5565b81555b60038201548154611cee9164e8d4a510009161085d91611f50565b6001820155604080518481529051859133917f90890809c654f11d6e72a28fa60149770a0d11ec6c92319d6ceb2bb0a4ea1a159181900360200190a350505050565b6002546001600160a01b03163314611d4757600080fd5b600280546001600160a01b0319166001600160a01b03831690811790915560405133907f5cd2081d2ae057c10db58af06a3447337403b9d888774eb5ae1eb629afe83ae190600090a350565b611d9b611f4c565b6000546001600160a01b03908116911614611deb576040805162461bcd60e51b81526020600482018190526024820152600080516020612690833981519152604482015290519081900360640190fd5b6001600160a01b038116611e305760405162461bcd60e51b81526004018080602001828103825260268152602001806125f16026913960400191505060405180910390fd5b600080546040516001600160a01b03808516939216917f8be0079c531659141344cd1fd0a4f28419497f9722a3daafe3b4186f6b6457e091a3600080546001600160a01b0319166001600160a01b0392909216919091179055565b611e93611f4c565b6000546001600160a01b03908116911614611ee3576040805162461bcd60e51b81526020600482018190526024820152600080516020612690833981519152604482015290519081900360640190fd5b600c55565b620186a081565b611ef7611f4c565b6000546001600160a01b03908116911614611f47576040805162461bcd60e51b81526020600482018190526024820152600080516020612690833981519152604482015290519081900360640190fd5b600755565b3390565b600082611f5f57506000610f84565b82820282848281611f6c57fe5b04146117635760405162461bcd60e51b815260040180806020018281038252602181526020018061266f6021913960400191505060405180910390fd5b600061176383836040518060400160405280601a81526020017f536166654d6174683a206469766973696f6e206279207a65726f00000000000081525061226e565b600061176383836040518060400160405280601e81526020017f536166654d6174683a207375627472616374696f6e206f766572666c6f770000815250612310565b60035460408051632e462f8f60e21b81526001600160a01b038581166004830152602482018590529151919092169163b918be3c91604480830192600092919082900301818387803b15801561208257600080fd5b505af1158015612096573d6000803e3d6000fd5b505050505050565b604080516001600160a01b038416602482015260448082018490528251808303909101815260649091019091526020810180516001600160e01b031663a9059cbb60e01b1790526120f090849061236a565b505050565b600082820183811015611763576040805162461bcd60e51b815260206004820152601b60248201527f536166654d6174683a206164646974696f6e206f766572666c6f770000000000604482015290519081900360640190fd5b600954600060015b8281101561219a576121906009828154811061216f57fe5b906000526020600020906004020160010154836120f590919063ffffffff16565b9150600101612157565b50801561146b576121ac816003611fa9565b90506121e6816109dd60096000815481106121c357fe5b906000526020600020906004020160010154600b54611feb90919063ffffffff16565b600b819055508060096000815481106121fb57fe5b9060005260206000209060040201600101819055505050565b604080516001600160a01b0380861660248301528416604482015260648082018490528251808303909101815260849091019091526020810180516001600160e01b03166323b872dd60e01b179052610c0d90859061236a565b600081836122fa5760405162461bcd60e51b81526004018080602001828103825283818151815260200191508051906020019080838360005b838110156122bf5781810151838201526020016122a7565b50505050905090810190601f1680156122ec5780820380516001836020036101000a031916815260200191505b509250505060405180910390fd5b50600083858161230657fe5b0495945050505050565b600081848411156123625760405162461bcd60e51b81526020600482018181528351602484015283519092839260449091019190850190808383600083156122bf5781810151838201526020016122a7565b505050900390565b60606123bf826040518060400160405280602081526020017f5361666545524332303a206c6f772d6c6576656c2063616c6c206661696c6564815250856001600160a01b031661241b9092919063ffffffff16565b8051909150156120f0578080602001905160208110156123de57600080fd5b50516120f05760405162461bcd60e51b815260040180806020018281038252602a8152602001806126e5602a913960400191505060405180910390fd5b606061242a8484600085612432565b949350505050565b606030318311156124745760405162461bcd60e51b81526004018080602001828103825260268152602001806126176026913960400191505060405180910390fd5b61247d85612584565b6124ce576040805162461bcd60e51b815260206004820152601d60248201527f416464726573733a2063616c6c20746f206e6f6e2d636f6e7472616374000000604482015290519081900360640190fd5b60006060866001600160a01b031685876040518082805190602001908083835b6020831061250d5780518252601f1990920191602091820191016124ee565b6001836020036101000a03801982511681845116808217855250505050505090500191505060006040518083038185875af1925050503d806000811461256f576040519150601f19603f3d011682016040523d82523d6000602084013e612574565b606091505b5091509150611bc182828661258a565b3b151590565b60608315612599575081611763565b8251156125a95782518084602001fd5b60405162461bcd60e51b81526020600482018181528451602484015284518593919283926044019190850190808383600083156122bf5781810151838201526020016122a756fe4f776e61626c653a206e6577206f776e657220697320746865207a65726f2061646472657373416464726573733a20696e73756666696369656e742062616c616e636520666f722063616c6c4d6173746572436865663a206d7573742062652073616d65206f72206c6172676572207468656e207374617274426c6f636b536166654d6174683a206d756c7469706c69636174696f6e206f766572666c6f774f776e61626c653a2063616c6c6572206973206e6f7420746865206f776e65724d6173746572436865663a206d757374206c6974746c65207468616e207468652063757272656e7420626c6f636b206e756d6265725361666545524332303a204552433230206f7065726174696f6e20646964206e6f742073756363656564a26469706673582212206ef672bf5e1aed944fd2164f795fd6564891405b39822350ae74a56576b31fb364736f6c634300060c0033",
  "immutableReferences": {},
  "source": "// SPDX-License-Identifier: UNLICENSED\r\npragma solidity 0.6.12;\r\n\r\nimport \"@openzeppelin/contracts/math/SafeMath.sol\";\r\nimport '@openzeppelin/contracts/token/ERC20/IERC20.sol';\r\nimport '@openzeppelin/contracts/token/ERC20/SafeERC20.sol';\r\nimport \"@openzeppelin/contracts/access/Ownable.sol\";\r\n\r\nimport \"./tokens/GlideToken.sol\";\r\nimport \"./tokens/Sugar.sol\";\r\n\r\n// import \"@nomiclabs/buidler/console.sol\";\r\n\r\n// MasterChef is the master of Glide. He can make Glide and he is a fair guy.\r\n//\r\n// Note that it's ownable and the owner wields tremendous power. The ownership\r\n// will be transferred to a governance smart contract once GLIDE is sufficiently\r\n// distributed and the community can show to govern itself.\r\n//\r\n// Have fun reading it. Hopefully it's bug-free. God bless.\r\ncontract MasterChef is Ownable {\r\n    using SafeMath for uint256;\r\n    using SafeERC20 for IERC20;\r\n\r\n    // Info of each user.\r\n    struct UserInfo {\r\n        uint256 amount;     // How many LP tokens the user has provided.\r\n        uint256 rewardDebt; // Reward debt. See explanation below.\r\n        //\r\n        // We do some fancy math here. Basically, any point in time, the amount of GLIDEs\r\n        // entitled to a user but is pending to be distributed is:\r\n        //\r\n        //   pending reward = (user.amount * pool.accGlidePerShare) - user.rewardDebt\r\n        //\r\n        // Whenever a user deposits or withdraws LP tokens to a pool. Here's what happens:\r\n        //   1. The pool's `accGlidePerShare` (and `lastRewardBlock`) gets updated.\r\n        //   2. User receives the pending reward sent to his/her address.\r\n        //   3. User's `amount` gets updated.\r\n        //   4. User's `rewardDebt` gets updated.\r\n    }\r\n\r\n    // Info of each pool.\r\n    struct PoolInfo {\r\n        IERC20 lpToken;           // Address of LP token contract.\r\n        uint256 allocPoint;       // How many allocation points assigned to this pool. GLIDEs to distribute per block.\r\n        uint256 lastRewardBlock;  // Last block number that GLIDEs distribution occurs.\r\n        uint256 accGlidePerShare; // Accumulated GLIDEs per share, times 1e12. See below.\r\n    }\r\n\r\n    // The GLIDE TOKEN!\r\n    GlideToken public glide;\r\n    // GLIDE TOKEN transfer owner\r\n    address public glideTransferOwner;\r\n\r\n    // The SUGAR TOKEN!\r\n    Sugar public sugar;\r\n    // Dev address.\r\n    address public devaddr;\r\n    // Treasury address\r\n    address public treasuryaddr;\r\n    // GLIDE tokens created per block.\r\n    uint256 public glidePerBlock;\r\n    // GLIDE max rate (max perBlock setup)\r\n    uint256 public constant MAX_EMISSION_RATE = 1000 ether; // Safety check\r\n\r\n    // Bounus reduction period\r\n    uint256 public bonusReductionPeriod = 1572480; //12 * 60 * 24 * 91 (91 is 3 months in days)\r\n    // Reduction period\r\n    uint256 public reductionPeriod = 3144960; //12 * 60 * 24 * 182 (182 is 6 months in days)\r\n\r\n    // Info of each pool.\r\n    PoolInfo[] public poolInfo;\r\n    // Info of each user that stakes LP tokens.\r\n    mapping (uint256 => mapping (address => UserInfo)) public userInfo;\r\n    // Total allocation points. Must be the sum of all allocation points in all pools.\r\n    uint256 public totalAllocPoint = 0;\r\n    // Max allocation points safety check\r\n    uint256 public constant MAX_ALLOC_POINT = 100000;\r\n    // The block number when GLIDE mining starts.\r\n    uint256 public startBlock;\r\n\r\n    event Deposit(address indexed user, uint256 indexed pid, uint256 amount);\r\n    event Withdraw(address indexed user, uint256 indexed pid, uint256 amount);\r\n    event EmergencyWithdraw(address indexed user, uint256 indexed pid, uint256 amount);\r\n    event UpdateEmissionRate(address indexed user, uint256 glidePerBlock);\r\n    event SetGlideTransferOwner(address indexed user, address indexed glideTransferOwner);\r\n    event TransferGlideOwnership(address indexed user, address indexed newOwner);\r\n    event Log(uint256 message);\r\n\r\n    constructor(\r\n        GlideToken _glide,\r\n        Sugar _sugar,\r\n        address _devaddr,\r\n        address _treasuryaddr,\r\n        uint256 _glidePerBlock,\r\n        uint256 _startBlock,\r\n        address _glideTransferOwner\r\n    ) public {\r\n        glide = _glide;\r\n        sugar = _sugar;\r\n        devaddr = _devaddr;\r\n        treasuryaddr = _treasuryaddr;\r\n        glidePerBlock = _glidePerBlock;\r\n        startBlock = _startBlock;\r\n        glideTransferOwner = _glideTransferOwner;\r\n\r\n        // staking pool\r\n        poolInfo.push(PoolInfo({\r\n            lpToken: _glide,\r\n            allocPoint: 1000,\r\n            lastRewardBlock: startBlock,\r\n            accGlidePerShare: 0\r\n        }));\r\n\r\n        totalAllocPoint = 1000;\r\n\r\n    }\r\n\r\n    function poolLength() external view returns (uint256) {\r\n        return poolInfo.length;\r\n    }\r\n\r\n    // At what phase\r\n    function phase(uint256 blockNumber) public view returns (uint256) {\r\n        if (reductionPeriod == 0) {\r\n            return 0;\r\n        }\r\n        if (blockNumber >= startBlock) {\r\n            // calculate block number from start block\r\n            uint256 blockNumberFromStart = blockNumber.sub(startBlock); \r\n            // if blockNumberFromStart less then block for reduction period, then we are in one phase\r\n            if (blockNumberFromStart <= bonusReductionPeriod) { \r\n                return 1;\r\n            } else { \r\n                // calculate phase and add 1, because, will be start from one, and one phase is bonus phase \r\n                return (blockNumberFromStart.sub(bonusReductionPeriod).sub(1)).div(reductionPeriod).add(2);\r\n            }\r\n        }\r\n        return 0;\r\n    }\r\n\r\n    function phase() public view returns (uint256) {\r\n        return phase(block.number);\r\n    }\r\n\r\n    // get Glide token reward per block\r\n    function rewardPerPhase(uint256 phaseNumber) public view returns (uint256) {\r\n        // if larger than 25, it would be overflow error (also, in first 25 phase we will distribute all tokens)\r\n        if (phaseNumber == 0 || phaseNumber > 25) {\r\n            return 0;\r\n        } else if (phaseNumber == 1) {\r\n            return glidePerBlock;\r\n        } else {\r\n            return glidePerBlock.mul(75).div(100).mul(85 ** (phaseNumber - 2)).div(100 ** (phaseNumber - 2));\r\n        }\r\n    }\r\n\r\n    function reward(uint256 blockNumber) public view returns (uint256) {\r\n        uint256 _phase = phase(blockNumber);\r\n        return rewardPerPhase(_phase);\r\n    }\r\n\r\n    function reward() public view returns (uint256) {\r\n        return reward(block.number);\r\n    }\r\n\r\n    // Rewards for the blocks\r\n    function getGlideRewardPerBlock(uint256 _lastRewardBlock, uint256 _blockNumber) public view returns (uint256) {\r\n        require(_lastRewardBlock <= _blockNumber, \"MasterChef: must little than the current block number\");\r\n        require(_lastRewardBlock >= startBlock, \"MasterChef: must be same or larger then startBlock\");\r\n        uint256 blockReward = 0;\r\n        uint256 n = phase(_lastRewardBlock);\r\n        uint256 m = phase(_blockNumber);\r\n        // If it crosses the cycle\r\n        while (n < m) {\r\n            // Get the last block of the previous cycle\r\n            uint256 r = (n - 1).mul(reductionPeriod).add(startBlock).add(bonusReductionPeriod);\r\n            // Get rewards from previous periods\r\n            blockReward = blockReward.add((r.sub(_lastRewardBlock)).mul(reward(r)));\r\n            _lastRewardBlock = r;\r\n\r\n            n++;\r\n        }\r\n        blockReward = blockReward.add((_blockNumber.sub(_lastRewardBlock)).mul(reward(_blockNumber)));\r\n        //emit Log(blockReward);\r\n        return blockReward;\r\n    }\r\n\r\n    // Rewards for the current block\r\n    function getGlideReward(uint256 _lastRewardBlock) public view returns (uint256) {\r\n        return getGlideRewardPerBlock(_lastRewardBlock, block.number);\r\n    }\r\n\r\n    // Add a new lp to the pool. Can only be called by the owner.\r\n    // XXX DO NOT add the same LP token more than once. Rewards will be messed up if you do.\r\n    function add(uint256 _allocPoint, IERC20 _lpToken, bool _withUpdate) public onlyOwner {\r\n        require(_allocPoint <= MAX_ALLOC_POINT, \"!overmax\");\r\n        if (_withUpdate) {\r\n            massUpdatePools();\r\n        }\r\n        uint256 lastRewardBlock = block.number > startBlock ? block.number : startBlock;\r\n        totalAllocPoint = totalAllocPoint.add(_allocPoint);\r\n        poolInfo.push(PoolInfo({\r\n            lpToken: _lpToken,\r\n            allocPoint: _allocPoint,\r\n            lastRewardBlock: lastRewardBlock,\r\n            accGlidePerShare: 0\r\n        }));\r\n        updateStakingPool();\r\n    }\r\n\r\n    // Update the given pool's GLIDE allocation point. Can only be called by the owner.\r\n    function set(uint256 _pid, uint256 _allocPoint, bool _withUpdate) public onlyOwner {\r\n        require(_allocPoint <= MAX_ALLOC_POINT, \"!overmax\");\r\n        if (_withUpdate) {\r\n            massUpdatePools();\r\n        }\r\n        uint256 prevAllocPoint = poolInfo[_pid].allocPoint;\r\n        poolInfo[_pid].allocPoint = _allocPoint;\r\n        if (prevAllocPoint != _allocPoint) {\r\n            totalAllocPoint = totalAllocPoint.sub(prevAllocPoint).add(_allocPoint);\r\n            updateStakingPool();\r\n        }\r\n    }\r\n\r\n    function updateStakingPool() internal {\r\n        uint256 length = poolInfo.length;\r\n        uint256 points = 0;\r\n        for (uint256 pid = 1; pid < length; ++pid) {\r\n            points = points.add(poolInfo[pid].allocPoint);\r\n        }\r\n        if (points != 0) {\r\n            points = points.div(3);\r\n            totalAllocPoint = totalAllocPoint.sub(poolInfo[0].allocPoint).add(points);\r\n            poolInfo[0].allocPoint = points;\r\n        }\r\n    }\r\n\r\n    // View function to see pending GLIDEs on frontend.\r\n    function pendingGlide(uint256 _pid, address _user) external view returns (uint256) {\r\n        PoolInfo storage pool = poolInfo[_pid];\r\n        UserInfo storage user = userInfo[_pid][_user];\r\n        uint256 accGlidePerShare = pool.accGlidePerShare;\r\n        uint256 lpSupply = pool.lpToken.balanceOf(address(this));\r\n        if (block.number > pool.lastRewardBlock && lpSupply != 0) {\r\n            uint256 glidePerBlockCalculated = getGlideReward(pool.lastRewardBlock);\r\n            // add this check how this function not be fall on require on mint\r\n            if (glide.totalSupply() + glidePerBlockCalculated < glide.getMaxTotalSupply()) {\r\n                uint256 glideReward = glidePerBlockCalculated.mul(pool.allocPoint).div(totalAllocPoint);\r\n                uint256 glideRewardSugar = glideReward.mul(650).div(1000); //65% go to sugar\r\n                accGlidePerShare = accGlidePerShare.add(glideRewardSugar.mul(1e12).div(lpSupply));\r\n            }\r\n        }\r\n        return user.amount.mul(accGlidePerShare).div(1e12).sub(user.rewardDebt);\r\n    }\r\n\r\n    // Update reward variables for all pools. Be careful of gas spending!\r\n    function massUpdatePools() public {\r\n        uint256 length = poolInfo.length;\r\n        for (uint256 pid = 0; pid < length; ++pid) {\r\n            updatePool(pid);\r\n        }\r\n    }\r\n\r\n\r\n    // Update reward variables of the given pool to be up-to-date.\r\n    function updatePool(uint256 _pid) public {\r\n        PoolInfo storage pool = poolInfo[_pid];\r\n        if (block.number <= pool.lastRewardBlock) {\r\n            return;\r\n        }\r\n        uint256 lpSupply = pool.lpToken.balanceOf(address(this));\r\n        if (lpSupply == 0) {\r\n            pool.lastRewardBlock = block.number;\r\n            return;\r\n        }\r\n\r\n        uint256 glidePerBlockCalculated = getGlideReward(pool.lastRewardBlock);\r\n        // add this check how this function not be fall on require on mint\r\n        if (glide.totalSupply() + glidePerBlockCalculated < glide.getMaxTotalSupply()) {\r\n            uint256 glideReward = glidePerBlockCalculated.mul(pool.allocPoint).div(totalAllocPoint);\r\n            uint256 glideRewardSugar = glideReward.mul(650).div(1000); //65% go to sugar \r\n\r\n            glide.mint(address(sugar), glideRewardSugar);\r\n            glide.mint(devaddr, glideReward.mul(125).div(1000)); //12.5% go to dev addr\r\n            glide.mint(treasuryaddr, glideReward.mul(225).div(1000)); //22.5% go to treasury\r\n            \r\n            pool.accGlidePerShare = pool.accGlidePerShare.add(glideRewardSugar.mul(1e12).div(lpSupply));\r\n            pool.lastRewardBlock = block.number;\r\n        }\r\n    }\r\n\r\n    // Deposit LP tokens to MasterChef for GLIDE allocation.\r\n    function deposit(uint256 _pid, uint256 _amount) public {\r\n\r\n        require (_pid != 0, 'deposit GLIDE by staking');\r\n\r\n        PoolInfo storage pool = poolInfo[_pid];\r\n        UserInfo storage user = userInfo[_pid][msg.sender];\r\n        updatePool(_pid);\r\n        if (user.amount > 0) {\r\n            uint256 pending = user.amount.mul(pool.accGlidePerShare).div(1e12).sub(user.rewardDebt);\r\n            if(pending > 0) {\r\n                safeGlideTransfer(msg.sender, pending);\r\n            }\r\n        }\r\n        if (_amount > 0) {\r\n            pool.lpToken.safeTransferFrom(address(msg.sender), address(this), _amount);\r\n            user.amount = user.amount.add(_amount);\r\n        }\r\n        user.rewardDebt = user.amount.mul(pool.accGlidePerShare).div(1e12);\r\n        emit Deposit(msg.sender, _pid, _amount);\r\n    }\r\n\r\n    // Withdraw LP tokens from MasterChef.\r\n    function withdraw(uint256 _pid, uint256 _amount) public {\r\n\r\n        require (_pid != 0, 'withdraw GLIDE by unstaking');\r\n        PoolInfo storage pool = poolInfo[_pid];\r\n        UserInfo storage user = userInfo[_pid][msg.sender];\r\n        require(user.amount >= _amount, \"withdraw: not good\");\r\n\r\n        updatePool(_pid);\r\n        uint256 pending = user.amount.mul(pool.accGlidePerShare).div(1e12).sub(user.rewardDebt);\r\n        if(pending > 0) {\r\n            safeGlideTransfer(msg.sender, pending);\r\n        }\r\n        if(_amount > 0) {\r\n            user.amount = user.amount.sub(_amount);\r\n            pool.lpToken.safeTransfer(address(msg.sender), _amount);\r\n        }\r\n        user.rewardDebt = user.amount.mul(pool.accGlidePerShare).div(1e12);\r\n        emit Withdraw(msg.sender, _pid, _amount);\r\n    }\r\n\r\n    // Stake GLIDE tokens to MasterChef\r\n    function enterStaking(uint256 _amount) public {\r\n        PoolInfo storage pool = poolInfo[0];\r\n        UserInfo storage user = userInfo[0][msg.sender];\r\n        updatePool(0);\r\n        if (user.amount > 0) {\r\n            uint256 pending = user.amount.mul(pool.accGlidePerShare).div(1e12).sub(user.rewardDebt);\r\n            if(pending > 0) {\r\n                safeGlideTransfer(msg.sender, pending);\r\n            }\r\n        }\r\n        if(_amount > 0) {\r\n            pool.lpToken.safeTransferFrom(address(msg.sender), address(this), _amount);\r\n            user.amount = user.amount.add(_amount);\r\n        }\r\n        user.rewardDebt = user.amount.mul(pool.accGlidePerShare).div(1e12);\r\n\r\n        sugar.mint(msg.sender, _amount);\r\n        emit Deposit(msg.sender, 0, _amount);\r\n    }\r\n\r\n    // Withdraw GLIDE tokens from STAKING.\r\n    function leaveStaking(uint256 _amount) public {\r\n        PoolInfo storage pool = poolInfo[0];\r\n        UserInfo storage user = userInfo[0][msg.sender];\r\n        require(user.amount >= _amount, \"withdraw: not good\");\r\n        updatePool(0);\r\n        uint256 pending = user.amount.mul(pool.accGlidePerShare).div(1e12).sub(user.rewardDebt);\r\n        if(pending > 0) {\r\n            safeGlideTransfer(msg.sender, pending);\r\n        }\r\n        if(_amount > 0) {\r\n            user.amount = user.amount.sub(_amount);\r\n            pool.lpToken.safeTransfer(address(msg.sender), _amount);\r\n        }\r\n        user.rewardDebt = user.amount.mul(pool.accGlidePerShare).div(1e12);\r\n\r\n        sugar.burn(msg.sender, _amount);\r\n        emit Withdraw(msg.sender, 0, _amount);\r\n    }\r\n\r\n    // Withdraw without caring about rewards. EMERGENCY ONLY.\r\n    function emergencyWithdraw(uint256 _pid) public {\r\n        PoolInfo storage pool = poolInfo[_pid];\r\n        UserInfo storage user = userInfo[_pid][msg.sender];\r\n        pool.lpToken.safeTransfer(address(msg.sender), user.amount);\r\n        emit EmergencyWithdraw(msg.sender, _pid, user.amount);\r\n        user.amount = 0;\r\n        user.rewardDebt = 0;\r\n    }\r\n\r\n    // Safe glide transfer function, just in case if rounding error causes pool to not have enough GLIDEs.\r\n    function safeGlideTransfer(address _to, uint256 _amount) internal {\r\n        sugar.safeGlideTransfer(_to, _amount);\r\n    }\r\n\r\n    // Update dev address by the previous dev.\r\n    function dev(address _devaddr) public {\r\n        require(msg.sender == devaddr, \"dev: wut?\");\r\n        devaddr = _devaddr;\r\n    }\r\n\r\n    // Update bonus reduction period\r\n    function setBonusReductionPeriod(uint256 _bonusReductionPeriod) public onlyOwner {\r\n        bonusReductionPeriod = _bonusReductionPeriod;\r\n    }\r\n\r\n    // Update reduction period\r\n    function setReductionPeriod(uint256 _reductionPeriod) public onlyOwner {\r\n        reductionPeriod = _reductionPeriod;\r\n    }\r\n\r\n    // Update start block\r\n    function setStartBlock(uint256 _startBlock) public onlyOwner {\r\n        startBlock = _startBlock;\r\n    }\r\n\r\n    // Should never fail as long as massUpdatePools is called during add\r\n    function updateEmissionRate(uint256 _glidePerBlock) external onlyOwner {\r\n        require(_glidePerBlock <= MAX_EMISSION_RATE, \"!overmax\");\r\n        massUpdatePools();\r\n        glidePerBlock = _glidePerBlock;\r\n        emit UpdateEmissionRate(msg.sender, _glidePerBlock);\r\n    }\r\n\r\n    // Update Glide transfer owner. Can only be called by existing glideTransferOwner\r\n    function setGlideTransferOwner(address _glideTransferOwner) external {\r\n        require(msg.sender == glideTransferOwner);\r\n        glideTransferOwner = _glideTransferOwner;\r\n        emit SetGlideTransferOwner(msg.sender, _glideTransferOwner);\r\n    }\r\n\r\n    /**\r\n     * @dev DUE TO THIS CODE THIS CONTRACT MUST BE BEHIND A TIMELOCK (Ideally 7)\r\n     * THIS FUNCTION EXISTS ONLY IF THERE IS AN ISSUE WITH THIS CONTRACT \r\n     * AND TOKEN MIGRATION MUST HAPPEN\r\n     */\r\n    function transferGlideOwnership(address _newOwner) external {\r\n        require(msg.sender == glideTransferOwner);\r\n        glide.transferOwnership(_newOwner);\r\n        emit TransferGlideOwnership(msg.sender, _newOwner);\r\n    }\r\n}",
  "sourcePath": "D:\\Posao - Stefan\\Stefan - razno\\Blockchain\\ElavateFinance\\auto-swap\\contracts\\MasterChef.sol",
  "compiler": {
    "name": "solc",
    "version": "0.6.12+commit.27d51765.Emscripten.clang"
  },
  "schemaVersion": "3.4.3",
  "updatedAt": "2021-08-27T10:56:53.313Z",
  "networkType": "ethereum",
  "devdoc": {
    "kind": "dev",
    "methods": {
      "owner()": {
        "details": "Returns the address of the current owner."
      },
      "renounceOwnership()": {
        "details": "Leaves the contract without owner. It will not be possible to call `onlyOwner` functions anymore. Can only be called by the current owner. NOTE: Renouncing ownership will leave the contract without an owner, thereby removing any functionality that is only available to the owner."
      },
      "transferGlideOwnership(address)": {
        "details": "DUE TO THIS CODE THIS CONTRACT MUST BE BEHIND A TIMELOCK (Ideally 7) THIS FUNCTION EXISTS ONLY IF THERE IS AN ISSUE WITH THIS CONTRACT  AND TOKEN MIGRATION MUST HAPPEN"
      },
      "transferOwnership(address)": {
        "details": "Transfers ownership of the contract to a new account (`newOwner`). Can only be called by the current owner."
      }
    },
    "version": 1
  },
  "userdoc": {
    "kind": "user",
    "methods": {},
    "version": 1
  }
}