{
  "contractName": "MasterChef",
  "abi": [
    {
      "inputs": [
        {
          "internalType": "contract GlideToken",
          "name": "_glide",
          "type": "address"
        },
        {
          "internalType": "contract Sugar",
          "name": "_sugar",
          "type": "address"
        },
        {
          "internalType": "address",
          "name": "_devaddr",
          "type": "address"
        },
        {
          "internalType": "address",
          "name": "_treasuryaddr",
          "type": "address"
        },
        {
          "internalType": "uint256",
          "name": "_glidePerBlock",
          "type": "uint256"
        },
        {
          "internalType": "uint256",
          "name": "_startBlock",
          "type": "uint256"
        },
        {
          "internalType": "address",
          "name": "_glideTransferOwner",
          "type": "address"
        }
      ],
      "stateMutability": "nonpayable",
      "type": "constructor"
    },
    {
      "anonymous": false,
      "inputs": [
        {
          "indexed": true,
          "internalType": "address",
          "name": "user",
          "type": "address"
        },
        {
          "indexed": true,
          "internalType": "uint256",
          "name": "pid",
          "type": "uint256"
        },
        {
          "indexed": false,
          "internalType": "uint256",
          "name": "amount",
          "type": "uint256"
        }
      ],
      "name": "Deposit",
      "type": "event"
    },
    {
      "anonymous": false,
      "inputs": [
        {
          "indexed": true,
          "internalType": "address",
          "name": "user",
          "type": "address"
        },
        {
          "indexed": true,
          "internalType": "uint256",
          "name": "pid",
          "type": "uint256"
        },
        {
          "indexed": false,
          "internalType": "uint256",
          "name": "amount",
          "type": "uint256"
        }
      ],
      "name": "EmergencyWithdraw",
      "type": "event"
    },
    {
      "anonymous": false,
      "inputs": [
        {
          "indexed": false,
          "internalType": "uint256",
          "name": "message",
          "type": "uint256"
        }
      ],
      "name": "Log",
      "type": "event"
    },
    {
      "anonymous": false,
      "inputs": [
        {
          "indexed": true,
          "internalType": "address",
          "name": "previousOwner",
          "type": "address"
        },
        {
          "indexed": true,
          "internalType": "address",
          "name": "newOwner",
          "type": "address"
        }
      ],
      "name": "OwnershipTransferred",
      "type": "event"
    },
    {
      "anonymous": false,
      "inputs": [
        {
          "indexed": true,
          "internalType": "address",
          "name": "user",
          "type": "address"
        },
        {
          "indexed": true,
          "internalType": "address",
          "name": "glideTransferOwner",
          "type": "address"
        }
      ],
      "name": "SetGlideTransferOwner",
      "type": "event"
    },
    {
      "anonymous": false,
      "inputs": [
        {
          "indexed": true,
          "internalType": "address",
          "name": "user",
          "type": "address"
        },
        {
          "indexed": true,
          "internalType": "address",
          "name": "newOwner",
          "type": "address"
        }
      ],
      "name": "TransferGlideOwnership",
      "type": "event"
    },
    {
      "anonymous": false,
      "inputs": [
        {
          "indexed": true,
          "internalType": "address",
          "name": "user",
          "type": "address"
        },
        {
          "indexed": false,
          "internalType": "uint256",
          "name": "glidePerBlock",
          "type": "uint256"
        }
      ],
      "name": "UpdateEmissionRate",
      "type": "event"
    },
    {
      "anonymous": false,
      "inputs": [
        {
          "indexed": true,
          "internalType": "address",
          "name": "user",
          "type": "address"
        },
        {
          "indexed": true,
          "internalType": "uint256",
          "name": "pid",
          "type": "uint256"
        },
        {
          "indexed": false,
          "internalType": "uint256",
          "name": "amount",
          "type": "uint256"
        }
      ],
      "name": "Withdraw",
      "type": "event"
    },
    {
      "inputs": [],
      "name": "MAX_ALLOC_POINT",
      "outputs": [
        {
          "internalType": "uint256",
          "name": "",
          "type": "uint256"
        }
      ],
      "stateMutability": "view",
      "type": "function"
    },
    {
      "inputs": [],
      "name": "MAX_EMISSION_RATE",
      "outputs": [
        {
          "internalType": "uint256",
          "name": "",
          "type": "uint256"
        }
      ],
      "stateMutability": "view",
      "type": "function"
    },
    {
      "inputs": [],
      "name": "bonusReductionPeriod",
      "outputs": [
        {
          "internalType": "uint256",
          "name": "",
          "type": "uint256"
        }
      ],
      "stateMutability": "view",
      "type": "function"
    },
    {
      "inputs": [],
      "name": "devaddr",
      "outputs": [
        {
          "internalType": "address",
          "name": "",
          "type": "address"
        }
      ],
      "stateMutability": "view",
      "type": "function"
    },
    {
      "inputs": [],
      "name": "glide",
      "outputs": [
        {
          "internalType": "contract GlideToken",
          "name": "",
          "type": "address"
        }
      ],
      "stateMutability": "view",
      "type": "function"
    },
    {
      "inputs": [],
      "name": "glidePerBlock",
      "outputs": [
        {
          "internalType": "uint256",
          "name": "",
          "type": "uint256"
        }
      ],
      "stateMutability": "view",
      "type": "function"
    },
    {
      "inputs": [],
      "name": "glideTransferOwner",
      "outputs": [
        {
          "internalType": "address",
          "name": "",
          "type": "address"
        }
      ],
      "stateMutability": "view",
      "type": "function"
    },
    {
      "inputs": [],
      "name": "owner",
      "outputs": [
        {
          "internalType": "address",
          "name": "",
          "type": "address"
        }
      ],
      "stateMutability": "view",
      "type": "function"
    },
    {
      "inputs": [
        {
          "internalType": "uint256",
          "name": "",
          "type": "uint256"
        }
      ],
      "name": "poolInfo",
      "outputs": [
        {
          "internalType": "contract IERC20",
          "name": "lpToken",
          "type": "address"
        },
        {
          "internalType": "uint256",
          "name": "allocPoint",
          "type": "uint256"
        },
        {
          "internalType": "uint256",
          "name": "lastRewardBlock",
          "type": "uint256"
        },
        {
          "internalType": "uint256",
          "name": "accGlidePerShare",
          "type": "uint256"
        }
      ],
      "stateMutability": "view",
      "type": "function"
    },
    {
      "inputs": [],
      "name": "reductionPeriod",
      "outputs": [
        {
          "internalType": "uint256",
          "name": "",
          "type": "uint256"
        }
      ],
      "stateMutability": "view",
      "type": "function"
    },
    {
      "inputs": [],
      "name": "renounceOwnership",
      "outputs": [],
      "stateMutability": "nonpayable",
      "type": "function"
    },
    {
      "inputs": [],
      "name": "startBlock",
      "outputs": [
        {
          "internalType": "uint256",
          "name": "",
          "type": "uint256"
        }
      ],
      "stateMutability": "view",
      "type": "function"
    },
    {
      "inputs": [],
      "name": "sugar",
      "outputs": [
        {
          "internalType": "contract Sugar",
          "name": "",
          "type": "address"
        }
      ],
      "stateMutability": "view",
      "type": "function"
    },
    {
      "inputs": [],
      "name": "totalAllocPoint",
      "outputs": [
        {
          "internalType": "uint256",
          "name": "",
          "type": "uint256"
        }
      ],
      "stateMutability": "view",
      "type": "function"
    },
    {
      "inputs": [
        {
          "internalType": "address",
          "name": "newOwner",
          "type": "address"
        }
      ],
      "name": "transferOwnership",
      "outputs": [],
      "stateMutability": "nonpayable",
      "type": "function"
    },
    {
      "inputs": [],
      "name": "treasuryaddr",
      "outputs": [
        {
          "internalType": "address",
          "name": "",
          "type": "address"
        }
      ],
      "stateMutability": "view",
      "type": "function"
    },
    {
      "inputs": [
        {
          "internalType": "uint256",
          "name": "",
          "type": "uint256"
        },
        {
          "internalType": "address",
          "name": "",
          "type": "address"
        }
      ],
      "name": "userInfo",
      "outputs": [
        {
          "internalType": "uint256",
          "name": "amount",
          "type": "uint256"
        },
        {
          "internalType": "uint256",
          "name": "rewardDebt",
          "type": "uint256"
        }
      ],
      "stateMutability": "view",
      "type": "function"
    },
    {
      "inputs": [],
      "name": "poolLength",
      "outputs": [
        {
          "internalType": "uint256",
          "name": "",
          "type": "uint256"
        }
      ],
      "stateMutability": "view",
      "type": "function"
    },
    {
      "inputs": [
        {
          "internalType": "uint256",
          "name": "blockNumber",
          "type": "uint256"
        }
      ],
      "name": "phase",
      "outputs": [
        {
          "internalType": "uint256",
          "name": "",
          "type": "uint256"
        }
      ],
      "stateMutability": "view",
      "type": "function"
    },
    {
      "inputs": [],
      "name": "phase",
      "outputs": [
        {
          "internalType": "uint256",
          "name": "",
          "type": "uint256"
        }
      ],
      "stateMutability": "view",
      "type": "function"
    },
    {
      "inputs": [
        {
          "internalType": "uint256",
          "name": "phaseNumber",
          "type": "uint256"
        }
      ],
      "name": "rewardPerPhase",
      "outputs": [
        {
          "internalType": "uint256",
          "name": "",
          "type": "uint256"
        }
      ],
      "stateMutability": "view",
      "type": "function"
    },
    {
      "inputs": [],
      "name": "reward",
      "outputs": [
        {
          "internalType": "uint256",
          "name": "",
          "type": "uint256"
        }
      ],
      "stateMutability": "view",
      "type": "function"
    },
    {
      "inputs": [
        {
          "internalType": "uint256",
          "name": "blockNumber",
          "type": "uint256"
        }
      ],
      "name": "reward",
      "outputs": [
        {
          "internalType": "uint256",
          "name": "",
          "type": "uint256"
        }
      ],
      "stateMutability": "view",
      "type": "function"
    },
    {
      "inputs": [
        {
          "internalType": "uint256",
          "name": "_lastRewardBlock",
          "type": "uint256"
        },
        {
          "internalType": "uint256",
          "name": "_blockNumber",
          "type": "uint256"
        }
      ],
      "name": "getGlideRewardPerBlock",
      "outputs": [
        {
          "internalType": "uint256",
          "name": "",
          "type": "uint256"
        }
      ],
      "stateMutability": "view",
      "type": "function"
    },
    {
      "inputs": [
        {
          "internalType": "uint256",
          "name": "_lastRewardBlock",
          "type": "uint256"
        }
      ],
      "name": "getGlideReward",
      "outputs": [
        {
          "internalType": "uint256",
          "name": "",
          "type": "uint256"
        }
      ],
      "stateMutability": "view",
      "type": "function"
    },
    {
      "inputs": [
        {
          "internalType": "uint256",
          "name": "_allocPoint",
          "type": "uint256"
        },
        {
          "internalType": "contract IERC20",
          "name": "_lpToken",
          "type": "address"
        },
        {
          "internalType": "bool",
          "name": "_withUpdate",
          "type": "bool"
        }
      ],
      "name": "add",
      "outputs": [],
      "stateMutability": "nonpayable",
      "type": "function"
    },
    {
      "inputs": [
        {
          "internalType": "uint256",
          "name": "_pid",
          "type": "uint256"
        },
        {
          "internalType": "uint256",
          "name": "_allocPoint",
          "type": "uint256"
        },
        {
          "internalType": "bool",
          "name": "_withUpdate",
          "type": "bool"
        }
      ],
      "name": "set",
      "outputs": [],
      "stateMutability": "nonpayable",
      "type": "function"
    },
    {
      "inputs": [
        {
          "internalType": "uint256",
          "name": "_pid",
          "type": "uint256"
        },
        {
          "internalType": "address",
          "name": "_user",
          "type": "address"
        }
      ],
      "name": "pendingGlide",
      "outputs": [
        {
          "internalType": "uint256",
          "name": "",
          "type": "uint256"
        }
      ],
      "stateMutability": "view",
      "type": "function"
    },
    {
      "inputs": [],
      "name": "massUpdatePools",
      "outputs": [],
      "stateMutability": "nonpayable",
      "type": "function"
    },
    {
      "inputs": [
        {
          "internalType": "uint256",
          "name": "_pid",
          "type": "uint256"
        }
      ],
      "name": "updatePool",
      "outputs": [],
      "stateMutability": "nonpayable",
      "type": "function"
    },
    {
      "inputs": [
        {
          "internalType": "uint256",
          "name": "_pid",
          "type": "uint256"
        },
        {
          "internalType": "uint256",
          "name": "_amount",
          "type": "uint256"
        }
      ],
      "name": "deposit",
      "outputs": [],
      "stateMutability": "nonpayable",
      "type": "function"
    },
    {
      "inputs": [
        {
          "internalType": "uint256",
          "name": "_pid",
          "type": "uint256"
        },
        {
          "internalType": "uint256",
          "name": "_amount",
          "type": "uint256"
        }
      ],
      "name": "withdraw",
      "outputs": [],
      "stateMutability": "nonpayable",
      "type": "function"
    },
    {
      "inputs": [
        {
          "internalType": "uint256",
          "name": "_amount",
          "type": "uint256"
        }
      ],
      "name": "enterStaking",
      "outputs": [],
      "stateMutability": "nonpayable",
      "type": "function"
    },
    {
      "inputs": [
        {
          "internalType": "uint256",
          "name": "_amount",
          "type": "uint256"
        }
      ],
      "name": "leaveStaking",
      "outputs": [],
      "stateMutability": "nonpayable",
      "type": "function"
    },
    {
      "inputs": [
        {
          "internalType": "uint256",
          "name": "_pid",
          "type": "uint256"
        }
      ],
      "name": "emergencyWithdraw",
      "outputs": [],
      "stateMutability": "nonpayable",
      "type": "function"
    },
    {
      "inputs": [
        {
          "internalType": "address",
          "name": "_devaddr",
          "type": "address"
        }
      ],
      "name": "dev",
      "outputs": [],
      "stateMutability": "nonpayable",
      "type": "function"
    },
    {
      "inputs": [
        {
          "internalType": "uint256",
          "name": "_bonusReductionPeriod",
          "type": "uint256"
        }
      ],
      "name": "setBonusReductionPeriod",
      "outputs": [],
      "stateMutability": "nonpayable",
      "type": "function"
    },
    {
      "inputs": [
        {
          "internalType": "uint256",
          "name": "_reductionPeriod",
          "type": "uint256"
        }
      ],
      "name": "setReductionPeriod",
      "outputs": [],
      "stateMutability": "nonpayable",
      "type": "function"
    },
    {
      "inputs": [
        {
          "internalType": "uint256",
          "name": "_startBlock",
          "type": "uint256"
        }
      ],
      "name": "setStartBlock",
      "outputs": [],
      "stateMutability": "nonpayable",
      "type": "function"
    },
    {
      "inputs": [
        {
          "internalType": "uint256",
          "name": "_glidePerBlock",
          "type": "uint256"
        }
      ],
      "name": "updateEmissionRate",
      "outputs": [],
      "stateMutability": "nonpayable",
      "type": "function"
    },
    {
      "inputs": [
        {
          "internalType": "address",
          "name": "_glideTransferOwner",
          "type": "address"
        }
      ],
      "name": "setGlideTransferOwner",
      "outputs": [],
      "stateMutability": "nonpayable",
      "type": "function"
    },
    {
      "inputs": [
        {
          "internalType": "address",
          "name": "_newOwner",
          "type": "address"
        }
      ],
      "name": "transferGlideOwnership",
      "outputs": [],
      "stateMutability": "nonpayable",
      "type": "function"
    }
  ],
  "bytecode": "0x60806040526217fe80600755622ffd006008556000600b553480156200002457600080fd5b506040516200442438038062004424833981810160405260e08110156200004a57600080fd5b81019080805190602001909291908051906020019092919080519060200190929190805190602001909291908051906020019092919080519060200190929190805190602001909291905050506000620000a96200037e60201b60201c565b9050806000806101000a81548173ffffffffffffffffffffffffffffffffffffffff021916908373ffffffffffffffffffffffffffffffffffffffff1602179055508073ffffffffffffffffffffffffffffffffffffffff16600073ffffffffffffffffffffffffffffffffffffffff167f8be0079c531659141344cd1fd0a4f28419497f9722a3daafe3b4186f6b6457e060405160405180910390a35086600160006101000a81548173ffffffffffffffffffffffffffffffffffffffff021916908373ffffffffffffffffffffffffffffffffffffffff16021790555085600360006101000a81548173ffffffffffffffffffffffffffffffffffffffff021916908373ffffffffffffffffffffffffffffffffffffffff16021790555084600460006101000a81548173ffffffffffffffffffffffffffffffffffffffff021916908373ffffffffffffffffffffffffffffffffffffffff16021790555083600560006101000a81548173ffffffffffffffffffffffffffffffffffffffff021916908373ffffffffffffffffffffffffffffffffffffffff1602179055508260068190555081600c8190555080600260006101000a81548173ffffffffffffffffffffffffffffffffffffffff021916908373ffffffffffffffffffffffffffffffffffffffff160217905550600960405180608001604052808973ffffffffffffffffffffffffffffffffffffffff1681526020016103e88152602001600c5481526020016000815250908060018154018082558091505060019003906000526020600020906004020160009091909190915060008201518160000160006101000a81548173ffffffffffffffffffffffffffffffffffffffff021916908373ffffffffffffffffffffffffffffffffffffffff16021790555060208201518160010155604082015181600201556060820151816003015550506103e8600b819055505050505050505062000386565b600033905090565b61408e80620003966000396000f3fe608060405234801561001057600080fd5b50600436106102de5760003560e01c80636e99b75e11610186578063b307681c116100e3578063e2bbb15811610097578063f35e4a6e11610071578063f35e4a6e14610afb578063f958d1f914610b29578063fa1ed43714610b47576102de565b8063e2bbb15814610a3b578063f0ce0dff14610a73578063f2fde38b14610ab7576102de565b8063bd7418b3116100c8578063bd7418b314610961578063d49e77cd146109a5578063da6dfb80146109d9576102de565b8063b307681c146108f7578063ba624f4414610943576102de565b80638da5cb5b1161013a578063a0e0e13c1161011f578063a0e0e13c14610863578063a9fb763c14610897578063b1c9fe6e146108d9576102de565b80638da5cb5b146107c657806393f1a40b146107fa576102de565b8063724b2b331161016b578063724b2b3314610736578063897b96ff146107645780638d88a90e14610782576102de565b80636e99b75e146106f8578063715018a61461072c576102de565b806341441d3b1161023f5780634e9c14f1116101f35780635d5ebf16116101cd5780635d5ebf1614610668578063630b5ba1146106aa57806364482f79146106b4576102de565b80634e9c14f1146105ee57806351eb05a61461060c5780635312ea8e1461063a576102de565b8063441a3e7011610224578063441a3e701461055657806347cf5b591461058e57806348cd4cb1146105d0576102de565b806341441d3b1461050a578063436cc3d614610538576102de565b80631526fe27116102965780631eaaa0451161027b5780631eaaa0451461045e578063228cb733146104b85780632deedf42146104d6576102de565b80631526fe27146103d357806317caf6f114610440576102de565b80631058d281116102c75780631058d2811461032f578063135f8aa71461035d578063141398051461039f576102de565b8063081e3eda146102e35780630ba84cd214610301575b600080fd5b6102eb610b75565b6040518082815260200191505060405180910390f35b61032d6004803603602081101561031757600080fd5b8101908080359060200190929190505050610b82565b005b61035b6004803603602081101561034557600080fd5b8101908080359060200190929190505050610d29565b005b6103896004803603602081101561037357600080fd5b8101908080359060200190929190505050611034565b6040518082815260200191505060405180910390f35b6103a76110df565b604051808273ffffffffffffffffffffffffffffffffffffffff16815260200191505060405180910390f35b6103ff600480360360208110156103e957600080fd5b8101908080359060200190929190505050611105565b604051808573ffffffffffffffffffffffffffffffffffffffff16815260200184815260200183815260200182815260200194505050505060405180910390f35b610448611162565b6040518082815260200191505060405180910390f35b6104b66004803603606081101561047457600080fd5b8101908080359060200190929190803573ffffffffffffffffffffffffffffffffffffffff169060200190929190803515159060200190929190505050611168565b005b6104c06113c2565b6040518082815260200191505060405180910390f35b6104de6113d2565b604051808273ffffffffffffffffffffffffffffffffffffffff16815260200191505060405180910390f35b6105366004803603602081101561052057600080fd5b81019080803590602001909291905050506113f8565b005b610540611699565b6040518082815260200191505060405180910390f35b61058c6004803603604081101561056c57600080fd5b8101908080359060200190929190803590602001909291905050506116a6565b005b6105ba600480360360208110156105a457600080fd5b810190808035906020019092919050505061197b565b6040518082815260200191505060405180910390f35b6105d861198e565b6040518082815260200191505060405180910390f35b6105f6611994565b6040518082815260200191505060405180910390f35b6106386004803603602081101561062257600080fd5b810190808035906020019092919050505061199a565b005b6106666004803603602081101561065057600080fd5b8101908080359060200190929190505050611f78565b005b6106946004803603602081101561067e57600080fd5b81019080803590602001909291905050506120aa565b6040518082815260200191505060405180910390f35b6106b261213c565b005b6106f6600480360360608110156106ca57600080fd5b810190808035906020019092919080359060200190929190803515159060200190929190505050612169565b005b610700612342565b604051808273ffffffffffffffffffffffffffffffffffffffff16815260200191505060405180910390f35b610734612368565b005b6107626004803603602081101561074c57600080fd5b81019080803590602001909291905050506124ee565b005b61076c6125c0565b6040518082815260200191505060405180910390f35b6107c46004803603602081101561079857600080fd5b81019080803573ffffffffffffffffffffffffffffffffffffffff1690602001909291905050506125c6565b005b6107ce6126cd565b604051808273ffffffffffffffffffffffffffffffffffffffff16815260200191505060405180910390f35b6108466004803603604081101561081057600080fd5b8101908080359060200190929190803573ffffffffffffffffffffffffffffffffffffffff1690602001909291905050506126f6565b604051808381526020018281526020019250505060405180910390f35b61086b612727565b604051808273ffffffffffffffffffffffffffffffffffffffff16815260200191505060405180910390f35b6108c3600480360360208110156108ad57600080fd5b810190808035906020019092919050505061274d565b6040518082815260200191505060405180910390f35b6108e161276c565b6040518082815260200191505060405180910390f35b61092d6004803603604081101561090d57600080fd5b81019080803590602001909291908035906020019092919050505061277c565b6040518082815260200191505060405180910390f35b61094b612939565b6040518082815260200191505060405180910390f35b6109a36004803603602081101561097757600080fd5b81019080803573ffffffffffffffffffffffffffffffffffffffff16906020019092919050505061293f565b005b6109ad612a99565b604051808273ffffffffffffffffffffffffffffffffffffffff16815260200191505060405180910390f35b610a25600480360360408110156109ef57600080fd5b8101908080359060200190929190803573ffffffffffffffffffffffffffffffffffffffff169060200190929190505050612abf565b6040518082815260200191505060405180910390f35b610a7160048036036040811015610a5157600080fd5b810190808035906020019092919080359060200190929190505050612e6d565b005b610ab560048036036020811015610a8957600080fd5b81019080803573ffffffffffffffffffffffffffffffffffffffff1690602001909291905050506130d8565b005b610af960048036036020811015610acd57600080fd5b81019080803573ffffffffffffffffffffffffffffffffffffffff1690602001909291905050506131d0565b005b610b2760048036036020811015610b1157600080fd5b81019080803590602001909291905050506133db565b005b610b316134ad565b6040518082815260200191505060405180910390f35b610b7360048036036020811015610b5d57600080fd5b81019080803590602001909291905050506134b4565b005b6000600980549050905090565b610b8a613586565b73ffffffffffffffffffffffffffffffffffffffff1660008054906101000a900473ffffffffffffffffffffffffffffffffffffffff1673ffffffffffffffffffffffffffffffffffffffff1614610c4a576040517f08c379a00000000000000000000000000000000000000000000000000000000081526004018080602001828103825260208152602001807f4f776e61626c653a2063616c6c6572206973206e6f7420746865206f776e657281525060200191505060405180910390fd5b683635c9adc5dea00000811115610cc9576040517f08c379a00000000000000000000000000000000000000000000000000000000081526004018080602001828103825260088152602001807f216f7665726d617800000000000000000000000000000000000000000000000081525060200191505060405180910390fd5b610cd161213c565b806006819055503373ffffffffffffffffffffffffffffffffffffffff167fe2492e003bbe8afa53088b406f0c1cb5d9e280370fc72a74cf116ffd343c4053826040518082815260200191505060405180910390a250565b60006009600081548110610d3957fe5b906000526020600020906004020190506000600a600080815260200190815260200160002060003373ffffffffffffffffffffffffffffffffffffffff1673ffffffffffffffffffffffffffffffffffffffff16815260200190815260200160002090508281600001541015610e17576040517f08c379a00000000000000000000000000000000000000000000000000000000081526004018080602001828103825260128152602001807f77697468647261773a206e6f7420676f6f64000000000000000000000000000081525060200191505060405180910390fd5b610e21600061199a565b6000610e6b8260010154610e5d64e8d4a51000610e4f8760030154876000015461358e90919063ffffffff16565b61361490919063ffffffff16565b61365e90919063ffffffff16565b90506000811115610e8157610e8033826136a8565b5b6000841115610ef957610ea184836000015461365e90919063ffffffff16565b8260000181905550610ef833858560000160009054906101000a900473ffffffffffffffffffffffffffffffffffffffff1673ffffffffffffffffffffffffffffffffffffffff166137579092919063ffffffff16565b5b610f2b64e8d4a51000610f1d8560030154856000015461358e90919063ffffffff16565b61361490919063ffffffff16565b8260010181905550600360009054906101000a900473ffffffffffffffffffffffffffffffffffffffff1673ffffffffffffffffffffffffffffffffffffffff16639dc29fac33866040518363ffffffff1660e01b8152600401808373ffffffffffffffffffffffffffffffffffffffff16815260200182815260200192505050600060405180830381600087803b158015610fc657600080fd5b505af1158015610fda573d6000803e3d6000fd5b5050505060003373ffffffffffffffffffffffffffffffffffffffff167ff279e6a1f5e320cca91135676d9cb6e44ca8a08c0b88342bcdb1144f6511b568866040518082815260200191505060405180910390a350505050565b600080600854141561104957600090506110da565b600c5482106110d5576000611069600c548461365e90919063ffffffff16565b9050600754811161107e5760019150506110da565b6110cd60026110bf6008546110b160016110a36007548861365e90919063ffffffff16565b61365e90919063ffffffff16565b61361490919063ffffffff16565b6137f990919063ffffffff16565b9150506110da565b600090505b919050565b600160009054906101000a900473ffffffffffffffffffffffffffffffffffffffff1681565b6009818154811061111257fe5b90600052602060002090600402016000915090508060000160009054906101000a900473ffffffffffffffffffffffffffffffffffffffff16908060010154908060020154908060030154905084565b600b5481565b611170613586565b73ffffffffffffffffffffffffffffffffffffffff1660008054906101000a900473ffffffffffffffffffffffffffffffffffffffff1673ffffffffffffffffffffffffffffffffffffffff1614611230576040517f08c379a00000000000000000000000000000000000000000000000000000000081526004018080602001828103825260208152602001807f4f776e61626c653a2063616c6c6572206973206e6f7420746865206f776e657281525060200191505060405180910390fd5b620186a08311156112a9576040517f08c379a00000000000000000000000000000000000000000000000000000000081526004018080602001828103825260088152602001807f216f7665726d617800000000000000000000000000000000000000000000000081525060200191505060405180910390fd5b80156112b8576112b761213c565b5b6000600c5443116112cb57600c546112cd565b435b90506112e484600b546137f990919063ffffffff16565b600b81905550600960405180608001604052808573ffffffffffffffffffffffffffffffffffffffff1681526020018681526020018381526020016000815250908060018154018082558091505060019003906000526020600020906004020160009091909190915060008201518160000160006101000a81548173ffffffffffffffffffffffffffffffffffffffff021916908373ffffffffffffffffffffffffffffffffffffffff16021790555060208201518160010155604082015181600201556060820151816003015550506113bc613881565b50505050565b60006113cd4361274d565b905090565b600260009054906101000a900473ffffffffffffffffffffffffffffffffffffffff1681565b6000600960008154811061140857fe5b906000526020600020906004020190506000600a600080815260200190815260200160002060003373ffffffffffffffffffffffffffffffffffffffff1673ffffffffffffffffffffffffffffffffffffffff1681526020019081526020016000209050611476600061199a565b6000816000015411156114e55760006114cd82600101546114bf64e8d4a510006114b18760030154876000015461358e90919063ffffffff16565b61361490919063ffffffff16565b61365e90919063ffffffff16565b905060008111156114e3576114e233826136a8565b5b505b600083111561155f5761153f3330858560000160009054906101000a900473ffffffffffffffffffffffffffffffffffffffff1673ffffffffffffffffffffffffffffffffffffffff1661396d909392919063ffffffff16565b6115568382600001546137f990919063ffffffff16565b81600001819055505b61159164e8d4a510006115838460030154846000015461358e90919063ffffffff16565b61361490919063ffffffff16565b8160010181905550600360009054906101000a900473ffffffffffffffffffffffffffffffffffffffff1673ffffffffffffffffffffffffffffffffffffffff166340c10f1933856040518363ffffffff1660e01b8152600401808373ffffffffffffffffffffffffffffffffffffffff16815260200182815260200192505050600060405180830381600087803b15801561162c57600080fd5b505af1158015611640573d6000803e3d6000fd5b5050505060003373ffffffffffffffffffffffffffffffffffffffff167f90890809c654f11d6e72a28fa60149770a0d11ec6c92319d6ceb2bb0a4ea1a15856040518082815260200191505060405180910390a3505050565b683635c9adc5dea0000081565b600082141561171d576040517f08c379a000000000000000000000000000000000000000000000000000000000815260040180806020018281038252601b8152602001807f776974686472617720474c49444520627920756e7374616b696e67000000000081525060200191505060405180910390fd5b60006009838154811061172c57fe5b906000526020600020906004020190506000600a600085815260200190815260200160002060003373ffffffffffffffffffffffffffffffffffffffff1673ffffffffffffffffffffffffffffffffffffffff1681526020019081526020016000209050828160000154101561180a576040517f08c379a00000000000000000000000000000000000000000000000000000000081526004018080602001828103825260128152602001807f77697468647261773a206e6f7420676f6f64000000000000000000000000000081525060200191505060405180910390fd5b6118138461199a565b600061185d826001015461184f64e8d4a510006118418760030154876000015461358e90919063ffffffff16565b61361490919063ffffffff16565b61365e90919063ffffffff16565b905060008111156118735761187233826136a8565b5b60008411156118eb5761189384836000015461365e90919063ffffffff16565b82600001819055506118ea33858560000160009054906101000a900473ffffffffffffffffffffffffffffffffffffffff1673ffffffffffffffffffffffffffffffffffffffff166137579092919063ffffffff16565b5b61191d64e8d4a5100061190f8560030154856000015461358e90919063ffffffff16565b61361490919063ffffffff16565b8260010181905550843373ffffffffffffffffffffffffffffffffffffffff167ff279e6a1f5e320cca91135676d9cb6e44ca8a08c0b88342bcdb1144f6511b568866040518082815260200191505060405180910390a35050505050565b6000611987824361277c565b9050919050565b600c5481565b60075481565b6000600982815481106119a957fe5b90600052602060002090600402019050806002015443116119ca5750611f75565b60008160000160009054906101000a900473ffffffffffffffffffffffffffffffffffffffff1673ffffffffffffffffffffffffffffffffffffffff166370a08231306040518263ffffffff1660e01b8152600401808273ffffffffffffffffffffffffffffffffffffffff16815260200191505060206040518083038186803b158015611a5757600080fd5b505afa158015611a6b573d6000803e3d6000fd5b505050506040513d6020811015611a8157600080fd5b810190808051906020019092919050505090506000811415611aad574382600201819055505050611f75565b6000611abc836002015461197b565b9050600160009054906101000a900473ffffffffffffffffffffffffffffffffffffffff1673ffffffffffffffffffffffffffffffffffffffff16635db30bb16040518163ffffffff1660e01b815260040160206040518083038186803b158015611b2657600080fd5b505afa158015611b3a573d6000803e3d6000fd5b505050506040513d6020811015611b5057600080fd5b810190808051906020019092919050505081600160009054906101000a900473ffffffffffffffffffffffffffffffffffffffff1673ffffffffffffffffffffffffffffffffffffffff166318160ddd6040518163ffffffff1660e01b815260040160206040518083038186803b158015611bca57600080fd5b505afa158015611bde573d6000803e3d6000fd5b505050506040513d6020811015611bf457600080fd5b8101908080519060200190929190505050011015611f71576000611c39600b54611c2b86600101548561358e90919063ffffffff16565b61361490919063ffffffff16565b90506000611c666103e8611c5861028a8561358e90919063ffffffff16565b61361490919063ffffffff16565b9050600160009054906101000a900473ffffffffffffffffffffffffffffffffffffffff1673ffffffffffffffffffffffffffffffffffffffff166340c10f19600360009054906101000a900473ffffffffffffffffffffffffffffffffffffffff16836040518363ffffffff1660e01b8152600401808373ffffffffffffffffffffffffffffffffffffffff16815260200182815260200192505050600060405180830381600087803b158015611d1d57600080fd5b505af1158015611d31573d6000803e3d6000fd5b50505050600160009054906101000a900473ffffffffffffffffffffffffffffffffffffffff1673ffffffffffffffffffffffffffffffffffffffff166340c10f19600460009054906101000a900473ffffffffffffffffffffffffffffffffffffffff16611dbe6103e8611db0607d8861358e90919063ffffffff16565b61361490919063ffffffff16565b6040518363ffffffff1660e01b8152600401808373ffffffffffffffffffffffffffffffffffffffff16815260200182815260200192505050600060405180830381600087803b158015611e1157600080fd5b505af1158015611e25573d6000803e3d6000fd5b50505050600160009054906101000a900473ffffffffffffffffffffffffffffffffffffffff1673ffffffffffffffffffffffffffffffffffffffff166340c10f19600560009054906101000a900473ffffffffffffffffffffffffffffffffffffffff16611eb26103e8611ea460e18861358e90919063ffffffff16565b61361490919063ffffffff16565b6040518363ffffffff1660e01b8152600401808373ffffffffffffffffffffffffffffffffffffffff16815260200182815260200192505050600060405180830381600087803b158015611f0557600080fd5b505af1158015611f19573d6000803e3d6000fd5b50505050611f5d611f4a85611f3c64e8d4a510008561358e90919063ffffffff16565b61361490919063ffffffff16565b86600301546137f990919063ffffffff16565b856003018190555043856002018190555050505b5050505b50565b600060098281548110611f8757fe5b906000526020600020906004020190506000600a600084815260200190815260200160002060003373ffffffffffffffffffffffffffffffffffffffff1673ffffffffffffffffffffffffffffffffffffffff168152602001908152602001600020905061203e3382600001548460000160009054906101000a900473ffffffffffffffffffffffffffffffffffffffff1673ffffffffffffffffffffffffffffffffffffffff166137579092919063ffffffff16565b823373ffffffffffffffffffffffffffffffffffffffff167fbb757047c2b5f3974fe26b7c10f732e7bce710b0952a71082702781e62ae059583600001546040518082815260200191505060405180910390a36000816000018190555060008160010181905550505050565b6000808214806120ba5750601982115b156120c85760009050612137565b60018214156120db576006549050612137565b6121346002830360640a6121266002850360550a612118606461210a604b60065461358e90919063ffffffff16565b61361490919063ffffffff16565b61358e90919063ffffffff16565b61361490919063ffffffff16565b90505b919050565b6000600980549050905060005b818110156121655761215a8161199a565b806001019050612149565b5050565b612171613586565b73ffffffffffffffffffffffffffffffffffffffff1660008054906101000a900473ffffffffffffffffffffffffffffffffffffffff1673ffffffffffffffffffffffffffffffffffffffff1614612231576040517f08c379a00000000000000000000000000000000000000000000000000000000081526004018080602001828103825260208152602001807f4f776e61626c653a2063616c6c6572206973206e6f7420746865206f776e657281525060200191505060405180910390fd5b620186a08211156122aa576040517f08c379a00000000000000000000000000000000000000000000000000000000081526004018080602001828103825260088152602001807f216f7665726d617800000000000000000000000000000000000000000000000081525060200191505060405180910390fd5b80156122b9576122b861213c565b5b6000600984815481106122c857fe5b906000526020600020906004020160010154905082600985815481106122ea57fe5b90600052602060002090600402016001018190555082811461233c5761232d8361231f83600b5461365e90919063ffffffff16565b6137f990919063ffffffff16565b600b8190555061233b613881565b5b50505050565b600560009054906101000a900473ffffffffffffffffffffffffffffffffffffffff1681565b612370613586565b73ffffffffffffffffffffffffffffffffffffffff1660008054906101000a900473ffffffffffffffffffffffffffffffffffffffff1673ffffffffffffffffffffffffffffffffffffffff1614612430576040517f08c379a00000000000000000000000000000000000000000000000000000000081526004018080602001828103825260208152602001807f4f776e61626c653a2063616c6c6572206973206e6f7420746865206f776e657281525060200191505060405180910390fd5b600073ffffffffffffffffffffffffffffffffffffffff1660008054906101000a900473ffffffffffffffffffffffffffffffffffffffff1673ffffffffffffffffffffffffffffffffffffffff167f8be0079c531659141344cd1fd0a4f28419497f9722a3daafe3b4186f6b6457e060405160405180910390a360008060006101000a81548173ffffffffffffffffffffffffffffffffffffffff021916908373ffffffffffffffffffffffffffffffffffffffff160217905550565b6124f6613586565b73ffffffffffffffffffffffffffffffffffffffff1660008054906101000a900473ffffffffffffffffffffffffffffffffffffffff1673ffffffffffffffffffffffffffffffffffffffff16146125b6576040517f08c379a00000000000000000000000000000000000000000000000000000000081526004018080602001828103825260208152602001807f4f776e61626c653a2063616c6c6572206973206e6f7420746865206f776e657281525060200191505060405180910390fd5b8060088190555050565b60065481565b600460009054906101000a900473ffffffffffffffffffffffffffffffffffffffff1673ffffffffffffffffffffffffffffffffffffffff163373ffffffffffffffffffffffffffffffffffffffff1614612689576040517f08c379a00000000000000000000000000000000000000000000000000000000081526004018080602001828103825260098152602001807f6465763a207775743f000000000000000000000000000000000000000000000081525060200191505060405180910390fd5b80600460006101000a81548173ffffffffffffffffffffffffffffffffffffffff021916908373ffffffffffffffffffffffffffffffffffffffff16021790555050565b60008060009054906101000a900473ffffffffffffffffffffffffffffffffffffffff16905090565b600a602052816000526040600020602052806000526040600020600091509150508060000154908060010154905082565b600360009054906101000a900473ffffffffffffffffffffffffffffffffffffffff1681565b60008061275983611034565b9050612764816120aa565b915050919050565b600061277743611034565b905090565b6000818311156127d7576040517f08c379a0000000000000000000000000000000000000000000000000000000008152600401808060200182810382526035815260200180613ffa6035913960400191505060405180910390fd5b600c54831015612832576040517f08c379a0000000000000000000000000000000000000000000000000000000008152600401808060200182810382526032815260200180613fa76032913960400191505060405180910390fd5b60008061283e85611034565b9050600061284b85611034565b90505b808210156128ec57600061289860075461288a600c5461287c6008546001890361358e90919063ffffffff16565b6137f990919063ffffffff16565b6137f990919063ffffffff16565b90506128d96128ca6128a98361274d565b6128bc8a8561365e90919063ffffffff16565b61358e90919063ffffffff16565b856137f990919063ffffffff16565b935080965082806001019350505061284e565b61292b61291c6128fb8761274d565b61290e898961365e90919063ffffffff16565b61358e90919063ffffffff16565b846137f990919063ffffffff16565b925082935050505092915050565b60085481565b600260009054906101000a900473ffffffffffffffffffffffffffffffffffffffff1673ffffffffffffffffffffffffffffffffffffffff163373ffffffffffffffffffffffffffffffffffffffff161461299957600080fd5b600160009054906101000a900473ffffffffffffffffffffffffffffffffffffffff1673ffffffffffffffffffffffffffffffffffffffff1663f2fde38b826040518263ffffffff1660e01b8152600401808273ffffffffffffffffffffffffffffffffffffffff168152602001915050600060405180830381600087803b158015612a2457600080fd5b505af1158015612a38573d6000803e3d6000fd5b505050508073ffffffffffffffffffffffffffffffffffffffff163373ffffffffffffffffffffffffffffffffffffffff167fa860724f603a0e186a7b16740ca3c96b8457a2329bc4126c8db7490de85af99a60405160405180910390a350565b600460009054906101000a900473ffffffffffffffffffffffffffffffffffffffff1681565b60008060098481548110612acf57fe5b906000526020600020906004020190506000600a600086815260200190815260200160002060008573ffffffffffffffffffffffffffffffffffffffff1673ffffffffffffffffffffffffffffffffffffffff168152602001908152602001600020905060008260030154905060008360000160009054906101000a900473ffffffffffffffffffffffffffffffffffffffff1673ffffffffffffffffffffffffffffffffffffffff166370a08231306040518263ffffffff1660e01b8152600401808273ffffffffffffffffffffffffffffffffffffffff16815260200191505060206040518083038186803b158015612bc957600080fd5b505afa158015612bdd573d6000803e3d6000fd5b505050506040513d6020811015612bf357600080fd5b81019080805190602001909291905050509050836002015443118015612c1a575060008114155b15612e1d576000612c2e856002015461197b565b9050600160009054906101000a900473ffffffffffffffffffffffffffffffffffffffff1673ffffffffffffffffffffffffffffffffffffffff16635db30bb16040518163ffffffff1660e01b815260040160206040518083038186803b158015612c9857600080fd5b505afa158015612cac573d6000803e3d6000fd5b505050506040513d6020811015612cc257600080fd5b810190808051906020019092919050505081600160009054906101000a900473ffffffffffffffffffffffffffffffffffffffff1673ffffffffffffffffffffffffffffffffffffffff166318160ddd6040518163ffffffff1660e01b815260040160206040518083038186803b158015612d3c57600080fd5b505afa158015612d50573d6000803e3d6000fd5b505050506040513d6020811015612d6657600080fd5b8101908080519060200190929190505050011015612e1b576000612dab600b54612d9d88600101548561358e90919063ffffffff16565b61361490919063ffffffff16565b90506000612dd86103e8612dca61028a8561358e90919063ffffffff16565b61361490919063ffffffff16565b9050612e16612e0785612df964e8d4a510008561358e90919063ffffffff16565b61361490919063ffffffff16565b866137f990919063ffffffff16565b945050505b505b612e618360010154612e5364e8d4a51000612e4586886000015461358e90919063ffffffff16565b61361490919063ffffffff16565b61365e90919063ffffffff16565b94505050505092915050565b6000821415612ee4576040517f08c379a00000000000000000000000000000000000000000000000000000000081526004018080602001828103825260188152602001807f6465706f73697420474c494445206279207374616b696e67000000000000000081525060200191505060405180910390fd5b600060098381548110612ef357fe5b906000526020600020906004020190506000600a600085815260200190815260200160002060003373ffffffffffffffffffffffffffffffffffffffff1673ffffffffffffffffffffffffffffffffffffffff1681526020019081526020016000209050612f608461199a565b600081600001541115612fcf576000612fb78260010154612fa964e8d4a51000612f9b8760030154876000015461358e90919063ffffffff16565b61361490919063ffffffff16565b61365e90919063ffffffff16565b90506000811115612fcd57612fcc33826136a8565b5b505b6000831115613049576130293330858560000160009054906101000a900473ffffffffffffffffffffffffffffffffffffffff1673ffffffffffffffffffffffffffffffffffffffff1661396d909392919063ffffffff16565b6130408382600001546137f990919063ffffffff16565b81600001819055505b61307b64e8d4a5100061306d8460030154846000015461358e90919063ffffffff16565b61361490919063ffffffff16565b8160010181905550833373ffffffffffffffffffffffffffffffffffffffff167f90890809c654f11d6e72a28fa60149770a0d11ec6c92319d6ceb2bb0a4ea1a15856040518082815260200191505060405180910390a350505050565b600260009054906101000a900473ffffffffffffffffffffffffffffffffffffffff1673ffffffffffffffffffffffffffffffffffffffff163373ffffffffffffffffffffffffffffffffffffffff161461313257600080fd5b80600260006101000a81548173ffffffffffffffffffffffffffffffffffffffff021916908373ffffffffffffffffffffffffffffffffffffffff1602179055508073ffffffffffffffffffffffffffffffffffffffff163373ffffffffffffffffffffffffffffffffffffffff167f5cd2081d2ae057c10db58af06a3447337403b9d888774eb5ae1eb629afe83ae160405160405180910390a350565b6131d8613586565b73ffffffffffffffffffffffffffffffffffffffff1660008054906101000a900473ffffffffffffffffffffffffffffffffffffffff1673ffffffffffffffffffffffffffffffffffffffff1614613298576040517f08c379a00000000000000000000000000000000000000000000000000000000081526004018080602001828103825260208152602001807f4f776e61626c653a2063616c6c6572206973206e6f7420746865206f776e657281525060200191505060405180910390fd5b600073ffffffffffffffffffffffffffffffffffffffff168173ffffffffffffffffffffffffffffffffffffffff16141561331e576040517f08c379a0000000000000000000000000000000000000000000000000000000008152600401808060200182810382526026815260200180613f5b6026913960400191505060405180910390fd5b8073ffffffffffffffffffffffffffffffffffffffff1660008054906101000a900473ffffffffffffffffffffffffffffffffffffffff1673ffffffffffffffffffffffffffffffffffffffff167f8be0079c531659141344cd1fd0a4f28419497f9722a3daafe3b4186f6b6457e060405160405180910390a3806000806101000a81548173ffffffffffffffffffffffffffffffffffffffff021916908373ffffffffffffffffffffffffffffffffffffffff16021790555050565b6133e3613586565b73ffffffffffffffffffffffffffffffffffffffff1660008054906101000a900473ffffffffffffffffffffffffffffffffffffffff1673ffffffffffffffffffffffffffffffffffffffff16146134a3576040517f08c379a00000000000000000000000000000000000000000000000000000000081526004018080602001828103825260208152602001807f4f776e61626c653a2063616c6c6572206973206e6f7420746865206f776e657281525060200191505060405180910390fd5b80600c8190555050565b620186a081565b6134bc613586565b73ffffffffffffffffffffffffffffffffffffffff1660008054906101000a900473ffffffffffffffffffffffffffffffffffffffff1673ffffffffffffffffffffffffffffffffffffffff161461357c576040517f08c379a00000000000000000000000000000000000000000000000000000000081526004018080602001828103825260208152602001807f4f776e61626c653a2063616c6c6572206973206e6f7420746865206f776e657281525060200191505060405180910390fd5b8060078190555050565b600033905090565b6000808314156135a1576000905061360e565b60008284029050828482816135b257fe5b0414613609576040517f08c379a0000000000000000000000000000000000000000000000000000000008152600401808060200182810382526021815260200180613fd96021913960400191505060405180910390fd5b809150505b92915050565b600061365683836040518060400160405280601a81526020017f536166654d6174683a206469766973696f6e206279207a65726f000000000000815250613a2e565b905092915050565b60006136a083836040518060400160405280601e81526020017f536166654d6174683a207375627472616374696f6e206f766572666c6f770000815250613af4565b905092915050565b600360009054906101000a900473ffffffffffffffffffffffffffffffffffffffff1673ffffffffffffffffffffffffffffffffffffffff1663b918be3c83836040518363ffffffff1660e01b8152600401808373ffffffffffffffffffffffffffffffffffffffff16815260200182815260200192505050600060405180830381600087803b15801561373b57600080fd5b505af115801561374f573d6000803e3d6000fd5b505050505050565b6137f48363a9059cbb60e01b8484604051602401808373ffffffffffffffffffffffffffffffffffffffff16815260200182815260200192505050604051602081830303815290604052907bffffffffffffffffffffffffffffffffffffffffffffffffffffffff19166020820180517bffffffffffffffffffffffffffffffffffffffffffffffffffffffff8381831617835250505050613bb4565b505050565b600080828401905083811015613877576040517f08c379a000000000000000000000000000000000000000000000000000000000815260040180806020018281038252601b8152602001807f536166654d6174683a206164646974696f6e206f766572666c6f77000000000081525060200191505060405180910390fd5b8091505092915050565b60006009805490509050600080600190505b828110156138d9576138cc600982815481106138ab57fe5b906000526020600020906004020160010154836137f990919063ffffffff16565b9150806001019050613893565b5060008114613969576138f660038261361490919063ffffffff16565b905061393e81613930600960008154811061390d57fe5b906000526020600020906004020160010154600b5461365e90919063ffffffff16565b6137f990919063ffffffff16565b600b8190555080600960008154811061395357fe5b9060005260206000209060040201600101819055505b5050565b613a28846323b872dd60e01b858585604051602401808473ffffffffffffffffffffffffffffffffffffffff1681526020018373ffffffffffffffffffffffffffffffffffffffff1681526020018281526020019350505050604051602081830303815290604052907bffffffffffffffffffffffffffffffffffffffffffffffffffffffff19166020820180517bffffffffffffffffffffffffffffffffffffffffffffffffffffffff8381831617835250505050613bb4565b50505050565b60008083118290613ada576040517f08c379a00000000000000000000000000000000000000000000000000000000081526004018080602001828103825283818151815260200191508051906020019080838360005b83811015613a9f578082015181840152602081019050613a84565b50505050905090810190601f168015613acc5780820380516001836020036101000a031916815260200191505b509250505060405180910390fd5b506000838581613ae657fe5b049050809150509392505050565b6000838311158290613ba1576040517f08c379a00000000000000000000000000000000000000000000000000000000081526004018080602001828103825283818151815260200191508051906020019080838360005b83811015613b66578082015181840152602081019050613b4b565b50505050905090810190601f168015613b935780820380516001836020036101000a031916815260200191505b509250505060405180910390fd5b5060008385039050809150509392505050565b6060613c16826040518060400160405280602081526020017f5361666545524332303a206c6f772d6c6576656c2063616c6c206661696c65648152508573ffffffffffffffffffffffffffffffffffffffff16613ca39092919063ffffffff16565b9050600081511115613c9e57808060200190516020811015613c3757600080fd5b8101908080519060200190929190505050613c9d576040517f08c379a000000000000000000000000000000000000000000000000000000000815260040180806020018281038252602a81526020018061402f602a913960400191505060405180910390fd5b5b505050565b6060613cb28484600085613cbb565b90509392505050565b6060823073ffffffffffffffffffffffffffffffffffffffff16311015613d2d576040517f08c379a0000000000000000000000000000000000000000000000000000000008152600401808060200182810382526026815260200180613f816026913960400191505060405180910390fd5b613d3685613e7b565b613da8576040517f08c379a000000000000000000000000000000000000000000000000000000000815260040180806020018281038252601d8152602001807f416464726573733a2063616c6c20746f206e6f6e2d636f6e747261637400000081525060200191505060405180910390fd5b600060608673ffffffffffffffffffffffffffffffffffffffff1685876040518082805190602001908083835b60208310613df85780518252602082019150602081019050602083039250613dd5565b6001836020036101000a03801982511681845116808217855250505050505090500191505060006040518083038185875af1925050503d8060008114613e5a576040519150601f19603f3d011682016040523d82523d6000602084013e613e5f565b606091505b5091509150613e6f828286613e8e565b92505050949350505050565b600080823b905060008111915050919050565b60608315613e9e57829050613f53565b600083511115613eb15782518084602001fd5b816040517f08c379a00000000000000000000000000000000000000000000000000000000081526004018080602001828103825283818151815260200191508051906020019080838360005b83811015613f18578082015181840152602081019050613efd565b50505050905090810190601f168015613f455780820380516001836020036101000a031916815260200191505b509250505060405180910390fd5b939250505056fe4f776e61626c653a206e6577206f776e657220697320746865207a65726f2061646472657373416464726573733a20696e73756666696369656e742062616c616e636520666f722063616c6c4d6173746572436865663a206d7573742062652073616d65206f72206c6172676572207468656e207374617274426c6f636b536166654d6174683a206d756c7469706c69636174696f6e206f766572666c6f774d6173746572436865663a206d757374206c6974746c65207468616e207468652063757272656e7420626c6f636b206e756d6265725361666545524332303a204552433230206f7065726174696f6e20646964206e6f742073756363656564a2646970667358221220cdfa4f71ae6f7dcfa3be017aa7611cc9dbad0703e122701a44bde2a2d7f249e864736f6c634300060c0033",
  "immutableReferences": {},
  "source": "// SPDX-License-Identifier: UNLICENSED\r\npragma solidity 0.6.12;\r\n\r\nimport \"@openzeppelin/contracts/math/SafeMath.sol\";\r\nimport '@openzeppelin/contracts/token/ERC20/IERC20.sol';\r\nimport '@openzeppelin/contracts/token/ERC20/SafeERC20.sol';\r\nimport \"@openzeppelin/contracts/access/Ownable.sol\";\r\n\r\nimport \"./GlideToken.sol\";\r\nimport \"./Sugar.sol\";\r\n\r\n// import \"@nomiclabs/buidler/console.sol\";\r\n\r\n// MasterChef is the master of Glide. He can make Glide and he is a fair guy.\r\n//\r\n// Note that it's ownable and the owner wields tremendous power. The ownership\r\n// will be transferred to a governance smart contract once GLIDE is sufficiently\r\n// distributed and the community can show to govern itself.\r\n//\r\n// Have fun reading it. Hopefully it's bug-free. God bless.\r\ncontract MasterChef is Ownable {\r\n    using SafeMath for uint256;\r\n    using SafeERC20 for IERC20;\r\n\r\n    // Info of each user.\r\n    struct UserInfo {\r\n        uint256 amount;     // How many LP tokens the user has provided.\r\n        uint256 rewardDebt; // Reward debt. See explanation below.\r\n        //\r\n        // We do some fancy math here. Basically, any point in time, the amount of GLIDEs\r\n        // entitled to a user but is pending to be distributed is:\r\n        //\r\n        //   pending reward = (user.amount * pool.accGlidePerShare) - user.rewardDebt\r\n        //\r\n        // Whenever a user deposits or withdraws LP tokens to a pool. Here's what happens:\r\n        //   1. The pool's `accGlidePerShare` (and `lastRewardBlock`) gets updated.\r\n        //   2. User receives the pending reward sent to his/her address.\r\n        //   3. User's `amount` gets updated.\r\n        //   4. User's `rewardDebt` gets updated.\r\n    }\r\n\r\n    // Info of each pool.\r\n    struct PoolInfo {\r\n        IERC20 lpToken;           // Address of LP token contract.\r\n        uint256 allocPoint;       // How many allocation points assigned to this pool. GLIDEs to distribute per block.\r\n        uint256 lastRewardBlock;  // Last block number that GLIDEs distribution occurs.\r\n        uint256 accGlidePerShare; // Accumulated GLIDEs per share, times 1e12. See below.\r\n    }\r\n\r\n    // The GLIDE TOKEN!\r\n    GlideToken public glide;\r\n    // GLIDE TOKEN transfer owner\r\n    address public glideTransferOwner;\r\n\r\n    // The SUGAR TOKEN!\r\n    Sugar public sugar;\r\n    // Dev address.\r\n    address public devaddr;\r\n    // Treasury address\r\n    address public treasuryaddr;\r\n    // GLIDE tokens created per block.\r\n    uint256 public glidePerBlock;\r\n    // GLIDE max rate (max perBlock setup)\r\n    uint256 public constant MAX_EMISSION_RATE = 1000 ether; // Safety check\r\n\r\n    // Bounus reduction period\r\n    uint256 public bonusReductionPeriod = 1572480; //12 * 60 * 24 * 91 (91 is 3 months in days)\r\n    // Reduction period\r\n    uint256 public reductionPeriod = 3144960; //12 * 60 * 24 * 182 (182 is 6 months in days)\r\n\r\n    // Info of each pool.\r\n    PoolInfo[] public poolInfo;\r\n    // Info of each user that stakes LP tokens.\r\n    mapping (uint256 => mapping (address => UserInfo)) public userInfo;\r\n    // Total allocation points. Must be the sum of all allocation points in all pools.\r\n    uint256 public totalAllocPoint = 0;\r\n    // Max allocation points safety check\r\n    uint256 public constant MAX_ALLOC_POINT = 100000;\r\n    // The block number when GLIDE mining starts.\r\n    uint256 public startBlock;\r\n\r\n    event Deposit(address indexed user, uint256 indexed pid, uint256 amount);\r\n    event Withdraw(address indexed user, uint256 indexed pid, uint256 amount);\r\n    event EmergencyWithdraw(address indexed user, uint256 indexed pid, uint256 amount);\r\n    event UpdateEmissionRate(address indexed user, uint256 glidePerBlock);\r\n    event SetGlideTransferOwner(address indexed user, address indexed glideTransferOwner);\r\n    event TransferGlideOwnership(address indexed user, address indexed newOwner);\r\n    event Log(uint256 message);\r\n\r\n    constructor(\r\n        GlideToken _glide,\r\n        Sugar _sugar,\r\n        address _devaddr,\r\n        address _treasuryaddr,\r\n        uint256 _glidePerBlock,\r\n        uint256 _startBlock,\r\n        address _glideTransferOwner\r\n    ) public {\r\n        glide = _glide;\r\n        sugar = _sugar;\r\n        devaddr = _devaddr;\r\n        treasuryaddr = _treasuryaddr;\r\n        glidePerBlock = _glidePerBlock;\r\n        startBlock = _startBlock;\r\n        glideTransferOwner = _glideTransferOwner;\r\n\r\n        // staking pool\r\n        poolInfo.push(PoolInfo({\r\n            lpToken: _glide,\r\n            allocPoint: 1000,\r\n            lastRewardBlock: startBlock,\r\n            accGlidePerShare: 0\r\n        }));\r\n\r\n        totalAllocPoint = 1000;\r\n\r\n    }\r\n\r\n    function poolLength() external view returns (uint256) {\r\n        return poolInfo.length;\r\n    }\r\n\r\n    // At what phase\r\n    function phase(uint256 blockNumber) public view returns (uint256) {\r\n        if (reductionPeriod == 0) {\r\n            return 0;\r\n        }\r\n        if (blockNumber >= startBlock) {\r\n            // calculate block number from start block\r\n            uint256 blockNumberFromStart = blockNumber.sub(startBlock); \r\n            // if blockNumberFromStart less then block for reduction period, then we are in one phase\r\n            if (blockNumberFromStart <= bonusReductionPeriod) { \r\n                return 1;\r\n            } else { \r\n                // calculate phase and add 1, because, will be start from one, and one phase is bonus phase \r\n                return (blockNumberFromStart.sub(bonusReductionPeriod).sub(1)).div(reductionPeriod).add(2);\r\n            }\r\n        }\r\n        return 0;\r\n    }\r\n\r\n    function phase() public view returns (uint256) {\r\n        return phase(block.number);\r\n    }\r\n\r\n    // get Glide token reward per block\r\n    function rewardPerPhase(uint256 phaseNumber) public view returns (uint256) {\r\n        // if larger than 25, it would be overflow error (also, in first 25 phase we will distribute all tokens)\r\n        if (phaseNumber == 0 || phaseNumber > 25) {\r\n            return 0;\r\n        } else if (phaseNumber == 1) {\r\n            return glidePerBlock;\r\n        } else {\r\n            return glidePerBlock.mul(75).div(100).mul(85 ** (phaseNumber - 2)).div(100 ** (phaseNumber - 2));\r\n        }\r\n    }\r\n\r\n    function reward(uint256 blockNumber) public view returns (uint256) {\r\n        uint256 _phase = phase(blockNumber);\r\n        return rewardPerPhase(_phase);\r\n    }\r\n\r\n    function reward() public view returns (uint256) {\r\n        return reward(block.number);\r\n    }\r\n\r\n    // Rewards for the blocks\r\n    function getGlideRewardPerBlock(uint256 _lastRewardBlock, uint256 _blockNumber) public view returns (uint256) {\r\n        require(_lastRewardBlock <= _blockNumber, \"MasterChef: must little than the current block number\");\r\n        require(_lastRewardBlock >= startBlock, \"MasterChef: must be same or larger then startBlock\");\r\n        uint256 blockReward = 0;\r\n        uint256 n = phase(_lastRewardBlock);\r\n        uint256 m = phase(_blockNumber);\r\n        // If it crosses the cycle\r\n        while (n < m) {\r\n            // Get the last block of the previous cycle\r\n            uint256 r = (n - 1).mul(reductionPeriod).add(startBlock).add(bonusReductionPeriod);\r\n            // Get rewards from previous periods\r\n            blockReward = blockReward.add((r.sub(_lastRewardBlock)).mul(reward(r)));\r\n            _lastRewardBlock = r;\r\n\r\n            n++;\r\n        }\r\n        blockReward = blockReward.add((_blockNumber.sub(_lastRewardBlock)).mul(reward(_blockNumber)));\r\n        //emit Log(blockReward);\r\n        return blockReward;\r\n    }\r\n\r\n    // Rewards for the current block\r\n    function getGlideReward(uint256 _lastRewardBlock) public view returns (uint256) {\r\n        return getGlideRewardPerBlock(_lastRewardBlock, block.number);\r\n    }\r\n\r\n    // Add a new lp to the pool. Can only be called by the owner.\r\n    // XXX DO NOT add the same LP token more than once. Rewards will be messed up if you do.\r\n    function add(uint256 _allocPoint, IERC20 _lpToken, bool _withUpdate) public onlyOwner {\r\n        require(_allocPoint <= MAX_ALLOC_POINT, \"!overmax\");\r\n        if (_withUpdate) {\r\n            massUpdatePools();\r\n        }\r\n        uint256 lastRewardBlock = block.number > startBlock ? block.number : startBlock;\r\n        totalAllocPoint = totalAllocPoint.add(_allocPoint);\r\n        poolInfo.push(PoolInfo({\r\n            lpToken: _lpToken,\r\n            allocPoint: _allocPoint,\r\n            lastRewardBlock: lastRewardBlock,\r\n            accGlidePerShare: 0\r\n        }));\r\n        updateStakingPool();\r\n    }\r\n\r\n    // Update the given pool's GLIDE allocation point. Can only be called by the owner.\r\n    function set(uint256 _pid, uint256 _allocPoint, bool _withUpdate) public onlyOwner {\r\n        require(_allocPoint <= MAX_ALLOC_POINT, \"!overmax\");\r\n        if (_withUpdate) {\r\n            massUpdatePools();\r\n        }\r\n        uint256 prevAllocPoint = poolInfo[_pid].allocPoint;\r\n        poolInfo[_pid].allocPoint = _allocPoint;\r\n        if (prevAllocPoint != _allocPoint) {\r\n            totalAllocPoint = totalAllocPoint.sub(prevAllocPoint).add(_allocPoint);\r\n            updateStakingPool();\r\n        }\r\n    }\r\n\r\n    function updateStakingPool() internal {\r\n        uint256 length = poolInfo.length;\r\n        uint256 points = 0;\r\n        for (uint256 pid = 1; pid < length; ++pid) {\r\n            points = points.add(poolInfo[pid].allocPoint);\r\n        }\r\n        if (points != 0) {\r\n            points = points.div(3);\r\n            totalAllocPoint = totalAllocPoint.sub(poolInfo[0].allocPoint).add(points);\r\n            poolInfo[0].allocPoint = points;\r\n        }\r\n    }\r\n\r\n    // View function to see pending GLIDEs on frontend.\r\n    function pendingGlide(uint256 _pid, address _user) external view returns (uint256) {\r\n        PoolInfo storage pool = poolInfo[_pid];\r\n        UserInfo storage user = userInfo[_pid][_user];\r\n        uint256 accGlidePerShare = pool.accGlidePerShare;\r\n        uint256 lpSupply = pool.lpToken.balanceOf(address(this));\r\n        if (block.number > pool.lastRewardBlock && lpSupply != 0) {\r\n            uint256 glidePerBlockCalculated = getGlideReward(pool.lastRewardBlock);\r\n            // add this check how this function not be fall on require on mint\r\n            if (glide.totalSupply() + glidePerBlockCalculated < glide.getMaxTotalSupply()) {\r\n                uint256 glideReward = glidePerBlockCalculated.mul(pool.allocPoint).div(totalAllocPoint);\r\n                uint256 glideRewardSugar = glideReward.mul(650).div(1000); //65% go to sugar\r\n                accGlidePerShare = accGlidePerShare.add(glideRewardSugar.mul(1e12).div(lpSupply));\r\n            }\r\n        }\r\n        return user.amount.mul(accGlidePerShare).div(1e12).sub(user.rewardDebt);\r\n    }\r\n\r\n    // Update reward variables for all pools. Be careful of gas spending!\r\n    function massUpdatePools() public {\r\n        uint256 length = poolInfo.length;\r\n        for (uint256 pid = 0; pid < length; ++pid) {\r\n            updatePool(pid);\r\n        }\r\n    }\r\n\r\n\r\n    // Update reward variables of the given pool to be up-to-date.\r\n    function updatePool(uint256 _pid) public {\r\n        PoolInfo storage pool = poolInfo[_pid];\r\n        if (block.number <= pool.lastRewardBlock) {\r\n            return;\r\n        }\r\n        uint256 lpSupply = pool.lpToken.balanceOf(address(this));\r\n        if (lpSupply == 0) {\r\n            pool.lastRewardBlock = block.number;\r\n            return;\r\n        }\r\n\r\n        uint256 glidePerBlockCalculated = getGlideReward(pool.lastRewardBlock);\r\n        // add this check how this function not be fall on require on mint\r\n        if (glide.totalSupply() + glidePerBlockCalculated < glide.getMaxTotalSupply()) {\r\n            uint256 glideReward = glidePerBlockCalculated.mul(pool.allocPoint).div(totalAllocPoint);\r\n            uint256 glideRewardSugar = glideReward.mul(650).div(1000); //65% go to sugar \r\n\r\n            glide.mint(address(sugar), glideRewardSugar);\r\n            glide.mint(devaddr, glideReward.mul(125).div(1000)); //12.5% go to dev addr\r\n            glide.mint(treasuryaddr, glideReward.mul(225).div(1000)); //22.5% go to treasury\r\n            \r\n            pool.accGlidePerShare = pool.accGlidePerShare.add(glideRewardSugar.mul(1e12).div(lpSupply));\r\n            pool.lastRewardBlock = block.number;\r\n        }\r\n    }\r\n\r\n    // Deposit LP tokens to MasterChef for GLIDE allocation.\r\n    function deposit(uint256 _pid, uint256 _amount) public {\r\n\r\n        require (_pid != 0, 'deposit GLIDE by staking');\r\n\r\n        PoolInfo storage pool = poolInfo[_pid];\r\n        UserInfo storage user = userInfo[_pid][msg.sender];\r\n        updatePool(_pid);\r\n        if (user.amount > 0) {\r\n            uint256 pending = user.amount.mul(pool.accGlidePerShare).div(1e12).sub(user.rewardDebt);\r\n            if(pending > 0) {\r\n                safeGlideTransfer(msg.sender, pending);\r\n            }\r\n        }\r\n        if (_amount > 0) {\r\n            pool.lpToken.safeTransferFrom(address(msg.sender), address(this), _amount);\r\n            user.amount = user.amount.add(_amount);\r\n        }\r\n        user.rewardDebt = user.amount.mul(pool.accGlidePerShare).div(1e12);\r\n        emit Deposit(msg.sender, _pid, _amount);\r\n    }\r\n\r\n    // Withdraw LP tokens from MasterChef.\r\n    function withdraw(uint256 _pid, uint256 _amount) public {\r\n\r\n        require (_pid != 0, 'withdraw GLIDE by unstaking');\r\n        PoolInfo storage pool = poolInfo[_pid];\r\n        UserInfo storage user = userInfo[_pid][msg.sender];\r\n        require(user.amount >= _amount, \"withdraw: not good\");\r\n\r\n        updatePool(_pid);\r\n        uint256 pending = user.amount.mul(pool.accGlidePerShare).div(1e12).sub(user.rewardDebt);\r\n        if(pending > 0) {\r\n            safeGlideTransfer(msg.sender, pending);\r\n        }\r\n        if(_amount > 0) {\r\n            user.amount = user.amount.sub(_amount);\r\n            pool.lpToken.safeTransfer(address(msg.sender), _amount);\r\n        }\r\n        user.rewardDebt = user.amount.mul(pool.accGlidePerShare).div(1e12);\r\n        emit Withdraw(msg.sender, _pid, _amount);\r\n    }\r\n\r\n    // Stake GLIDE tokens to MasterChef\r\n    function enterStaking(uint256 _amount) public {\r\n        PoolInfo storage pool = poolInfo[0];\r\n        UserInfo storage user = userInfo[0][msg.sender];\r\n        updatePool(0);\r\n        if (user.amount > 0) {\r\n            uint256 pending = user.amount.mul(pool.accGlidePerShare).div(1e12).sub(user.rewardDebt);\r\n            if(pending > 0) {\r\n                safeGlideTransfer(msg.sender, pending);\r\n            }\r\n        }\r\n        if(_amount > 0) {\r\n            pool.lpToken.safeTransferFrom(address(msg.sender), address(this), _amount);\r\n            user.amount = user.amount.add(_amount);\r\n        }\r\n        user.rewardDebt = user.amount.mul(pool.accGlidePerShare).div(1e12);\r\n\r\n        sugar.mint(msg.sender, _amount);\r\n        emit Deposit(msg.sender, 0, _amount);\r\n    }\r\n\r\n    // Withdraw GLIDE tokens from STAKING.\r\n    function leaveStaking(uint256 _amount) public {\r\n        PoolInfo storage pool = poolInfo[0];\r\n        UserInfo storage user = userInfo[0][msg.sender];\r\n        require(user.amount >= _amount, \"withdraw: not good\");\r\n        updatePool(0);\r\n        uint256 pending = user.amount.mul(pool.accGlidePerShare).div(1e12).sub(user.rewardDebt);\r\n        if(pending > 0) {\r\n            safeGlideTransfer(msg.sender, pending);\r\n        }\r\n        if(_amount > 0) {\r\n            user.amount = user.amount.sub(_amount);\r\n            pool.lpToken.safeTransfer(address(msg.sender), _amount);\r\n        }\r\n        user.rewardDebt = user.amount.mul(pool.accGlidePerShare).div(1e12);\r\n\r\n        sugar.burn(msg.sender, _amount);\r\n        emit Withdraw(msg.sender, 0, _amount);\r\n    }\r\n\r\n    // Withdraw without caring about rewards. EMERGENCY ONLY.\r\n    function emergencyWithdraw(uint256 _pid) public {\r\n        PoolInfo storage pool = poolInfo[_pid];\r\n        UserInfo storage user = userInfo[_pid][msg.sender];\r\n        pool.lpToken.safeTransfer(address(msg.sender), user.amount);\r\n        emit EmergencyWithdraw(msg.sender, _pid, user.amount);\r\n        user.amount = 0;\r\n        user.rewardDebt = 0;\r\n    }\r\n\r\n    // Safe glide transfer function, just in case if rounding error causes pool to not have enough GLIDEs.\r\n    function safeGlideTransfer(address _to, uint256 _amount) internal {\r\n        sugar.safeGlideTransfer(_to, _amount);\r\n    }\r\n\r\n    // Update dev address by the previous dev.\r\n    function dev(address _devaddr) public {\r\n        require(msg.sender == devaddr, \"dev: wut?\");\r\n        devaddr = _devaddr;\r\n    }\r\n\r\n    // Update bonus reduction period\r\n    function setBonusReductionPeriod(uint256 _bonusReductionPeriod) public onlyOwner {\r\n        bonusReductionPeriod = _bonusReductionPeriod;\r\n    }\r\n\r\n    // Update reduction period\r\n    function setReductionPeriod(uint256 _reductionPeriod) public onlyOwner {\r\n        reductionPeriod = _reductionPeriod;\r\n    }\r\n\r\n    // Update start block\r\n    function setStartBlock(uint256 _startBlock) public onlyOwner {\r\n        startBlock = _startBlock;\r\n    }\r\n\r\n    // Should never fail as long as massUpdatePools is called during add\r\n    function updateEmissionRate(uint256 _glidePerBlock) external onlyOwner {\r\n        require(_glidePerBlock <= MAX_EMISSION_RATE, \"!overmax\");\r\n        massUpdatePools();\r\n        glidePerBlock = _glidePerBlock;\r\n        emit UpdateEmissionRate(msg.sender, _glidePerBlock);\r\n    }\r\n\r\n    // Update Glide transfer owner. Can only be called by existing glideTransferOwner\r\n    function setGlideTransferOwner(address _glideTransferOwner) external {\r\n        require(msg.sender == glideTransferOwner);\r\n        glideTransferOwner = _glideTransferOwner;\r\n        emit SetGlideTransferOwner(msg.sender, _glideTransferOwner);\r\n    }\r\n\r\n    /**\r\n     * @dev DUE TO THIS CODE THIS CONTRACT MUST BE BEHIND A TIMELOCK (Ideally 7)\r\n     * THIS FUNCTION EXISTS ONLY IF THERE IS AN ISSUE WITH THIS CONTRACT \r\n     * AND TOKEN MIGRATION MUST HAPPEN\r\n     */\r\n    function transferGlideOwnership(address _newOwner) external {\r\n        require(msg.sender == glideTransferOwner);\r\n        glide.transferOwnership(_newOwner);\r\n        emit TransferGlideOwnership(msg.sender, _newOwner);\r\n    }\r\n}",
  "sourcePath": "D:\\Posao - Stefan\\Stefan - razno\\Blockchain\\ElavateFinance\\auto-swap\\contracts\\Farm\\MasterChef.sol",
  "compiler": {
    "name": "solc",
    "version": "0.6.12+commit.27d51765.Emscripten.clang"
  },
  "schemaVersion": "3.4.3",
  "updatedAt": "2021-09-01T09:09:00.203Z",
  "devdoc": {
    "kind": "dev",
    "methods": {
      "owner()": {
        "details": "Returns the address of the current owner."
      },
      "renounceOwnership()": {
        "details": "Leaves the contract without owner. It will not be possible to call `onlyOwner` functions anymore. Can only be called by the current owner. NOTE: Renouncing ownership will leave the contract without an owner, thereby removing any functionality that is only available to the owner."
      },
      "transferGlideOwnership(address)": {
        "details": "DUE TO THIS CODE THIS CONTRACT MUST BE BEHIND A TIMELOCK (Ideally 7) THIS FUNCTION EXISTS ONLY IF THERE IS AN ISSUE WITH THIS CONTRACT  AND TOKEN MIGRATION MUST HAPPEN"
      },
      "transferOwnership(address)": {
        "details": "Transfers ownership of the contract to a new account (`newOwner`). Can only be called by the current owner."
      }
    },
    "version": 1
  },
  "userdoc": {
    "kind": "user",
    "methods": {},
    "version": 1
  }
}