{
  "contractName": "MasterChef",
  "abi": [
    {
      "inputs": [
        {
          "internalType": "contract GlideToken",
          "name": "_glide",
          "type": "address"
        },
        {
          "internalType": "contract Sugar",
          "name": "_sugar",
          "type": "address"
        },
        {
          "internalType": "address",
          "name": "_devaddr",
          "type": "address"
        },
        {
          "internalType": "address",
          "name": "_treasuryaddr",
          "type": "address"
        },
        {
          "internalType": "uint256",
          "name": "_glidePerBlock",
          "type": "uint256"
        },
        {
          "internalType": "uint256",
          "name": "_startBlock",
          "type": "uint256"
        },
        {
          "internalType": "address",
          "name": "_glideTransferOwner",
          "type": "address"
        }
      ],
      "stateMutability": "nonpayable",
      "type": "constructor"
    },
    {
      "anonymous": false,
      "inputs": [
        {
          "indexed": true,
          "internalType": "address",
          "name": "user",
          "type": "address"
        },
        {
          "indexed": true,
          "internalType": "uint256",
          "name": "pid",
          "type": "uint256"
        },
        {
          "indexed": false,
          "internalType": "uint256",
          "name": "amount",
          "type": "uint256"
        }
      ],
      "name": "Deposit",
      "type": "event"
    },
    {
      "anonymous": false,
      "inputs": [
        {
          "indexed": true,
          "internalType": "address",
          "name": "user",
          "type": "address"
        },
        {
          "indexed": true,
          "internalType": "uint256",
          "name": "pid",
          "type": "uint256"
        },
        {
          "indexed": false,
          "internalType": "uint256",
          "name": "amount",
          "type": "uint256"
        }
      ],
      "name": "EmergencyWithdraw",
      "type": "event"
    },
    {
      "anonymous": false,
      "inputs": [
        {
          "indexed": true,
          "internalType": "address",
          "name": "previousOwner",
          "type": "address"
        },
        {
          "indexed": true,
          "internalType": "address",
          "name": "newOwner",
          "type": "address"
        }
      ],
      "name": "OwnershipTransferred",
      "type": "event"
    },
    {
      "anonymous": false,
      "inputs": [
        {
          "indexed": true,
          "internalType": "address",
          "name": "user",
          "type": "address"
        },
        {
          "indexed": true,
          "internalType": "address",
          "name": "glideTransferOwner",
          "type": "address"
        }
      ],
      "name": "SetGlideTransferOwner",
      "type": "event"
    },
    {
      "anonymous": false,
      "inputs": [
        {
          "indexed": true,
          "internalType": "address",
          "name": "user",
          "type": "address"
        },
        {
          "indexed": true,
          "internalType": "address",
          "name": "newOwner",
          "type": "address"
        }
      ],
      "name": "TransferGlideOwnership",
      "type": "event"
    },
    {
      "anonymous": false,
      "inputs": [
        {
          "indexed": true,
          "internalType": "address",
          "name": "user",
          "type": "address"
        },
        {
          "indexed": false,
          "internalType": "uint256",
          "name": "glidePerBlock",
          "type": "uint256"
        }
      ],
      "name": "UpdateEmissionRate",
      "type": "event"
    },
    {
      "anonymous": false,
      "inputs": [
        {
          "indexed": true,
          "internalType": "address",
          "name": "user",
          "type": "address"
        },
        {
          "indexed": true,
          "internalType": "uint256",
          "name": "pid",
          "type": "uint256"
        },
        {
          "indexed": false,
          "internalType": "uint256",
          "name": "amount",
          "type": "uint256"
        }
      ],
      "name": "Withdraw",
      "type": "event"
    },
    {
      "inputs": [],
      "name": "MAX_ALLOC_POINT",
      "outputs": [
        {
          "internalType": "uint256",
          "name": "",
          "type": "uint256"
        }
      ],
      "stateMutability": "view",
      "type": "function",
      "constant": true
    },
    {
      "inputs": [],
      "name": "MAX_EMISSION_RATE",
      "outputs": [
        {
          "internalType": "uint256",
          "name": "",
          "type": "uint256"
        }
      ],
      "stateMutability": "view",
      "type": "function",
      "constant": true
    },
    {
      "inputs": [],
      "name": "bonusPeriod",
      "outputs": [
        {
          "internalType": "uint256",
          "name": "",
          "type": "uint256"
        }
      ],
      "stateMutability": "view",
      "type": "function",
      "constant": true
    },
    {
      "inputs": [],
      "name": "devaddr",
      "outputs": [
        {
          "internalType": "address",
          "name": "",
          "type": "address"
        }
      ],
      "stateMutability": "view",
      "type": "function",
      "constant": true
    },
    {
      "inputs": [],
      "name": "glide",
      "outputs": [
        {
          "internalType": "contract GlideToken",
          "name": "",
          "type": "address"
        }
      ],
      "stateMutability": "view",
      "type": "function",
      "constant": true
    },
    {
      "inputs": [],
      "name": "glidePerBlock",
      "outputs": [
        {
          "internalType": "uint256",
          "name": "",
          "type": "uint256"
        }
      ],
      "stateMutability": "view",
      "type": "function",
      "constant": true
    },
    {
      "inputs": [],
      "name": "glideTransferOwner",
      "outputs": [
        {
          "internalType": "address",
          "name": "",
          "type": "address"
        }
      ],
      "stateMutability": "view",
      "type": "function",
      "constant": true
    },
    {
      "inputs": [],
      "name": "owner",
      "outputs": [
        {
          "internalType": "address",
          "name": "",
          "type": "address"
        }
      ],
      "stateMutability": "view",
      "type": "function",
      "constant": true
    },
    {
      "inputs": [
        {
          "internalType": "contract IERC20",
          "name": "",
          "type": "address"
        }
      ],
      "name": "poolExistence",
      "outputs": [
        {
          "internalType": "bool",
          "name": "",
          "type": "bool"
        }
      ],
      "stateMutability": "view",
      "type": "function",
      "constant": true
    },
    {
      "inputs": [
        {
          "internalType": "uint256",
          "name": "",
          "type": "uint256"
        }
      ],
      "name": "poolInfo",
      "outputs": [
        {
          "internalType": "contract IERC20",
          "name": "lpToken",
          "type": "address"
        },
        {
          "internalType": "uint256",
          "name": "allocPoint",
          "type": "uint256"
        },
        {
          "internalType": "uint256",
          "name": "lastRewardBlock",
          "type": "uint256"
        },
        {
          "internalType": "uint256",
          "name": "accGlidePerShare",
          "type": "uint256"
        },
        {
          "internalType": "uint256",
          "name": "lpSupply",
          "type": "uint256"
        }
      ],
      "stateMutability": "view",
      "type": "function",
      "constant": true
    },
    {
      "inputs": [],
      "name": "reductionPeriod",
      "outputs": [
        {
          "internalType": "uint256",
          "name": "",
          "type": "uint256"
        }
      ],
      "stateMutability": "view",
      "type": "function",
      "constant": true
    },
    {
      "inputs": [],
      "name": "renounceOwnership",
      "outputs": [],
      "stateMutability": "nonpayable",
      "type": "function"
    },
    {
      "inputs": [],
      "name": "startBlock",
      "outputs": [
        {
          "internalType": "uint256",
          "name": "",
          "type": "uint256"
        }
      ],
      "stateMutability": "view",
      "type": "function",
      "constant": true
    },
    {
      "inputs": [],
      "name": "sugar",
      "outputs": [
        {
          "internalType": "contract Sugar",
          "name": "",
          "type": "address"
        }
      ],
      "stateMutability": "view",
      "type": "function",
      "constant": true
    },
    {
      "inputs": [],
      "name": "totalAllocPoint",
      "outputs": [
        {
          "internalType": "uint256",
          "name": "",
          "type": "uint256"
        }
      ],
      "stateMutability": "view",
      "type": "function",
      "constant": true
    },
    {
      "inputs": [
        {
          "internalType": "address",
          "name": "newOwner",
          "type": "address"
        }
      ],
      "name": "transferOwnership",
      "outputs": [],
      "stateMutability": "nonpayable",
      "type": "function"
    },
    {
      "inputs": [],
      "name": "treasuryaddr",
      "outputs": [
        {
          "internalType": "address",
          "name": "",
          "type": "address"
        }
      ],
      "stateMutability": "view",
      "type": "function",
      "constant": true
    },
    {
      "inputs": [
        {
          "internalType": "uint256",
          "name": "",
          "type": "uint256"
        },
        {
          "internalType": "address",
          "name": "",
          "type": "address"
        }
      ],
      "name": "userInfo",
      "outputs": [
        {
          "internalType": "uint256",
          "name": "amount",
          "type": "uint256"
        },
        {
          "internalType": "uint256",
          "name": "rewardDebt",
          "type": "uint256"
        }
      ],
      "stateMutability": "view",
      "type": "function",
      "constant": true
    },
    {
      "inputs": [],
      "name": "poolLength",
      "outputs": [
        {
          "internalType": "uint256",
          "name": "",
          "type": "uint256"
        }
      ],
      "stateMutability": "view",
      "type": "function",
      "constant": true
    },
    {
      "inputs": [
        {
          "internalType": "uint256",
          "name": "blockNumber",
          "type": "uint256"
        }
      ],
      "name": "phase",
      "outputs": [
        {
          "internalType": "uint256",
          "name": "",
          "type": "uint256"
        }
      ],
      "stateMutability": "view",
      "type": "function",
      "constant": true
    },
    {
      "inputs": [],
      "name": "phase",
      "outputs": [
        {
          "internalType": "uint256",
          "name": "",
          "type": "uint256"
        }
      ],
      "stateMutability": "view",
      "type": "function",
      "constant": true
    },
    {
      "inputs": [
        {
          "internalType": "uint256",
          "name": "phaseNumber",
          "type": "uint256"
        }
      ],
      "name": "rewardPerPhase",
      "outputs": [
        {
          "internalType": "uint256",
          "name": "",
          "type": "uint256"
        }
      ],
      "stateMutability": "view",
      "type": "function",
      "constant": true
    },
    {
      "inputs": [],
      "name": "reward",
      "outputs": [
        {
          "internalType": "uint256",
          "name": "",
          "type": "uint256"
        }
      ],
      "stateMutability": "view",
      "type": "function",
      "constant": true
    },
    {
      "inputs": [
        {
          "internalType": "uint256",
          "name": "blockNumber",
          "type": "uint256"
        }
      ],
      "name": "reward",
      "outputs": [
        {
          "internalType": "uint256",
          "name": "",
          "type": "uint256"
        }
      ],
      "stateMutability": "view",
      "type": "function",
      "constant": true
    },
    {
      "inputs": [
        {
          "internalType": "uint256",
          "name": "_lastRewardBlock",
          "type": "uint256"
        },
        {
          "internalType": "uint256",
          "name": "_blockNumber",
          "type": "uint256"
        }
      ],
      "name": "getTotalGlideReward",
      "outputs": [
        {
          "internalType": "uint256",
          "name": "",
          "type": "uint256"
        }
      ],
      "stateMutability": "view",
      "type": "function",
      "constant": true
    },
    {
      "inputs": [
        {
          "internalType": "uint256",
          "name": "_lastRewardBlock",
          "type": "uint256"
        }
      ],
      "name": "getGlideReward",
      "outputs": [
        {
          "internalType": "uint256",
          "name": "",
          "type": "uint256"
        }
      ],
      "stateMutability": "view",
      "type": "function",
      "constant": true
    },
    {
      "inputs": [
        {
          "internalType": "uint256",
          "name": "_allocPoint",
          "type": "uint256"
        },
        {
          "internalType": "contract IERC20",
          "name": "_lpToken",
          "type": "address"
        },
        {
          "internalType": "bool",
          "name": "_withUpdate",
          "type": "bool"
        }
      ],
      "name": "add",
      "outputs": [],
      "stateMutability": "nonpayable",
      "type": "function"
    },
    {
      "inputs": [
        {
          "internalType": "uint256",
          "name": "_pid",
          "type": "uint256"
        },
        {
          "internalType": "uint256",
          "name": "_allocPoint",
          "type": "uint256"
        },
        {
          "internalType": "bool",
          "name": "_withUpdate",
          "type": "bool"
        }
      ],
      "name": "set",
      "outputs": [],
      "stateMutability": "nonpayable",
      "type": "function"
    },
    {
      "inputs": [
        {
          "internalType": "uint256",
          "name": "_pid",
          "type": "uint256"
        },
        {
          "internalType": "address",
          "name": "_user",
          "type": "address"
        }
      ],
      "name": "pendingGlide",
      "outputs": [
        {
          "internalType": "uint256",
          "name": "",
          "type": "uint256"
        }
      ],
      "stateMutability": "view",
      "type": "function",
      "constant": true
    },
    {
      "inputs": [],
      "name": "massUpdatePools",
      "outputs": [],
      "stateMutability": "nonpayable",
      "type": "function"
    },
    {
      "inputs": [
        {
          "internalType": "uint256",
          "name": "_pid",
          "type": "uint256"
        }
      ],
      "name": "updatePool",
      "outputs": [],
      "stateMutability": "nonpayable",
      "type": "function"
    },
    {
      "inputs": [
        {
          "internalType": "uint256",
          "name": "_pid",
          "type": "uint256"
        },
        {
          "internalType": "uint256",
          "name": "_amount",
          "type": "uint256"
        }
      ],
      "name": "deposit",
      "outputs": [],
      "stateMutability": "nonpayable",
      "type": "function"
    },
    {
      "inputs": [
        {
          "internalType": "uint256",
          "name": "_pid",
          "type": "uint256"
        },
        {
          "internalType": "uint256",
          "name": "_amount",
          "type": "uint256"
        }
      ],
      "name": "withdraw",
      "outputs": [],
      "stateMutability": "nonpayable",
      "type": "function"
    },
    {
      "inputs": [
        {
          "internalType": "uint256",
          "name": "_amount",
          "type": "uint256"
        }
      ],
      "name": "enterStaking",
      "outputs": [],
      "stateMutability": "nonpayable",
      "type": "function"
    },
    {
      "inputs": [
        {
          "internalType": "uint256",
          "name": "_amount",
          "type": "uint256"
        }
      ],
      "name": "leaveStaking",
      "outputs": [],
      "stateMutability": "nonpayable",
      "type": "function"
    },
    {
      "inputs": [
        {
          "internalType": "uint256",
          "name": "_pid",
          "type": "uint256"
        }
      ],
      "name": "emergencyWithdraw",
      "outputs": [],
      "stateMutability": "nonpayable",
      "type": "function"
    },
    {
      "inputs": [
        {
          "internalType": "address",
          "name": "_devaddr",
          "type": "address"
        }
      ],
      "name": "setDevAddress",
      "outputs": [],
      "stateMutability": "nonpayable",
      "type": "function"
    },
    {
      "inputs": [
        {
          "internalType": "uint256",
          "name": "_newStartBlock",
          "type": "uint256"
        }
      ],
      "name": "setStartBlock",
      "outputs": [],
      "stateMutability": "nonpayable",
      "type": "function"
    },
    {
      "inputs": [
        {
          "internalType": "uint256",
          "name": "_glidePerBlock",
          "type": "uint256"
        }
      ],
      "name": "updateEmissionRate",
      "outputs": [],
      "stateMutability": "nonpayable",
      "type": "function"
    },
    {
      "inputs": [
        {
          "internalType": "address",
          "name": "_glideTransferOwner",
          "type": "address"
        }
      ],
      "name": "setGlideTransferOwner",
      "outputs": [],
      "stateMutability": "nonpayable",
      "type": "function"
    },
    {
      "inputs": [
        {
          "internalType": "address",
          "name": "_newOwner",
          "type": "address"
        }
      ],
      "name": "transferGlideOwnership",
      "outputs": [],
      "stateMutability": "nonpayable",
      "type": "function"
    }
  ],
  "bytecode": "0x60e060405260006007553480156200001657600080fd5b50604051620032f0380380620032f0833981810160405260e08110156200003c57600080fd5b508051602082015160408301516060840151608085015160a086015160c090960151949593949293919290919060006200007562000255565b600080546001600160a01b0319166001600160a01b0383169081178255604051929350917f8be0079c531659141344cd1fd0a4f28419497f9722a3daafe3b4186f6b6457e0908290a35060018080556001600160601b0319606089811b8216608090815298811b821660a0908152600380546001600160a01b039a8b166001600160a01b03199182161790915597821b90921660c052600495909555600884905560028054938816938716939093179092556040805192830181529786168083526103e86020808501828152858c0196875260009786018881529a8601888152600580548088018255818b52975197027f036b6384b5eca791c62761152d0c79bb0604c104a5fb6f4eb0703f3154bb3db08101805498909c1697909a169690961790995597517f036b6384b5eca791c62761152d0c79bb0604c104a5fb6f4eb0703f3154bb3db188015593517f036b6384b5eca791c62761152d0c79bb0604c104a5fb6f4eb0703f3154bb3db287015596517f036b6384b5eca791c62761152d0c79bb0604c104a5fb6f4eb0703f3154bb3db386015590517f036b6384b5eca791c62761152d0c79bb0604c104a5fb6f4eb0703f3154bb3db4909401939093559381526009909252929020805460ff191690921790915560075562000259565b3390565b60805160601c60a05160601c60c05160601c613011620002df600039806116c85280611c2052508061096e5280610f80528061158b52806118445280611d29528061280d525080610a7e52806112d6528061137952806113fc5280611499528061155c528061163352806116995280611dc65280611fe9528061208c52506130116000f3fe608060405234801561001057600080fd5b50600436106102535760003560e01c8063630b5ba111610146578063ba624f44116100c3578063da6dfb8011610087578063da6dfb80146105d7578063e2bbb15814610603578063f0ce0dff14610626578063f2fde38b1461064c578063f35e4a6e14610672578063f958d1f91461068f57610253565b8063ba624f4414610541578063bd7418b314610549578063cbd258b51461056f578063d0d41fe1146105a9578063d49e77cd146105cf57610253565b80638da5cb5b1161010a5780638da5cb5b146104c757806393f1a40b146104cf578063a0e0e13c14610514578063a9fb763c1461051c578063b1c9fe6e1461053957610253565b8063630b5ba11461047c57806364482f79146104845780636e99b75e146104af578063715018a6146104b7578063897b96ff146104bf57610253565b806341441d3b116101d45780634af4a127116101985780634af4a127146103fa57806351eb05a6146104025780635312ea8e1461041f5780635d2af1b71461043c5780635d5ebf161461045f57610253565b806341441d3b1461038d578063436cc3d6146103aa578063441a3e70146103b257806347cf5b59146103d557806348cd4cb1146103f257610253565b80631526fe271161021b5780631526fe27146102ef57806317caf6f1146103415780631eaaa04514610349578063228cb7331461037d5780632deedf421461038557610253565b8063081e3eda146102585780630ba84cd2146102725780631058d28114610291578063135f8aa7146102ae57806314139805146102cb575b600080fd5b610260610697565b60408051918252519081900360200190f35b61028f6004803603602081101561028857600080fd5b503561069d565b005b61028f600480360360208110156102a757600080fd5b5035610799565b610260600480360360208110156102c457600080fd5b5035610a0f565b6102d3610a7c565b604080516001600160a01b039092168252519081900360200190f35b61030c6004803603602081101561030557600080fd5b5035610aa0565b604080516001600160a01b03909616865260208601949094528484019290925260608401526080830152519081900360a00190f35b610260610ae8565b61028f6004803603606081101561035f57600080fd5b508035906001600160a01b0360208201351690604001351515610aee565b610260610de6565b6102d3610df6565b61028f600480360360208110156103a357600080fd5b5035610e05565b610260611020565b61028f600480360360408110156103c857600080fd5b508035906020013561102c565b610260600480360360208110156103eb57600080fd5b503561122f565b610260611241565b610260611247565b61028f6004803603602081101561041857600080fd5b503561124e565b61028f6004803603602081101561043557600080fd5b5035611786565b6102606004803603604081101561045257600080fd5b5080359060200135611927565b6102606004803603602081101561047557600080fd5b5035611a59565b61028f611acb565b61028f6004803603606081101561049a57600080fd5b50803590602081013590604001351515611aee565b6102d3611c1e565b61028f611c42565b610260611cee565b6102d3611cf4565b6104fb600480360360408110156104e557600080fd5b50803590602001356001600160a01b0316611d03565b6040805192835260208301919091528051918290030190f35b6102d3611d27565b6102606004803603602081101561053257600080fd5b5035611d4b565b610260611d69565b610260611d74565b61028f6004803603602081101561055f57600080fd5b50356001600160a01b0316611d7b565b6105956004803603602081101561058557600080fd5b50356001600160a01b0316611e84565b604080519115158252519081900360200190f35b61028f600480360360208110156105bf57600080fd5b50356001600160a01b0316611e99565b6102d3611f55565b610260600480360360408110156105ed57600080fd5b50803590602001356001600160a01b0316611f64565b61028f6004803603604081101561061957600080fd5b5080359060200135612167565b61028f6004803603602081101561063c57600080fd5b50356001600160a01b0316612429565b61028f6004803603602081101561066257600080fd5b50356001600160a01b03166124be565b61028f6004803603602081101561068857600080fd5b50356125c0565b6102606126e3565b60055490565b6106a56126ea565b6001600160a01b03166106b6611cf4565b6001600160a01b0316146106ff576040805162461bcd60e51b81526020600482018190526024820152600080516020612e99833981519152604482015290519081900360640190fd5b674563918244f40000811115610753576040805162461bcd60e51b815260206004820152601460248201527309ac2e6e8cae486d0cacc744042deeccae4dac2f60631b604482015290519081900360640190fd5b61075b611acb565b600481905560408051828152905133917fe2492e003bbe8afa53088b406f0c1cb5d9e280370fc72a74cf116ffd343c4053919081900360200190a250565b600260015414156107df576040805162461bcd60e51b815260206004820152601f6024820152600080516020612d5e833981519152604482015290519081900360640190fd5b6002600181905550600060056000815481106107f757fe5b600091825260208083203384527f54cdd369e4e8a8515e52ca72ec816c2101831ad1f18bf44102ed171459c9b4f8909152604090922080546005909202909201925083111561088d576040805162461bcd60e51b815260206004820152601e60248201527f4d6173746572436865663a2077697468647261773a206e6f7420676f6f640000604482015290519081900360640190fd5b610897600061124e565b60006108d482600101546108ce670de0b6b3a76400006108c8876003015487600001546126ee90919063ffffffff16565b90612747565b906127ae565b905080156108e6576108e6338261280b565b83156109245781546108f890856127ae565b8255600483015461090990856127ae565b60048401558254610924906001600160a01b0316338661289e565b6003830154825461094291670de0b6b3a7640000916108c8916126ee565b600183015560408051632770a7eb60e21b81523360048201526024810186905290516001600160a01b037f00000000000000000000000000000000000000000000000000000000000000001691639dc29fac91604480830192600092919082900301818387803b1580156109b557600080fd5b505af11580156109c9573d6000803e3d6000fd5b5050604080518781529051600093503392507ff279e6a1f5e320cca91135676d9cb6e44ca8a08c0b88342bcdb1144f6511b5689181900360200190a35050600180555050565b60006008548210610a73576000610a31600854846127ae90919063ffffffff16565b90506217fe808111610a47576001915050610a77565b610a6b6002610a65622ffd006108c860016108ce876217fe806127ae565b906128f5565b915050610a77565b5060005b919050565b7f000000000000000000000000000000000000000000000000000000000000000081565b60058181548110610aad57fe5b6000918252602090912060059091020180546001820154600283015460038401546004909401546001600160a01b0390931694509092909185565b60075481565b610af66126ea565b6001600160a01b0316610b07611cf4565b6001600160a01b031614610b50576040805162461bcd60e51b81526020600482018190526024820152600080516020612e99833981519152604482015290519081900360640190fd5b6001600160a01b038216600090815260096020526040902054829060ff1615610baa5760405162461bcd60e51b8152600401808060200182810382526025815260200180612da46025913960400191505060405180910390fd5b604080516370a0823160e01b815230600482015290516001600160a01b038516916370a08231916024808301926020929190829003018186803b158015610bf057600080fd5b505afa158015610c04573d6000803e3d6000fd5b505050506040513d6020811015610c1a57600080fd5b5050620186a0841115610c6b576040805162461bcd60e51b815260206004820152601460248201527309ac2e6e8cae486d0cacc744042deeccae4dac2f60631b604482015290519081900360640190fd5b8115610c7957610c79611acb565b60006008544311610c8c57600854610c8e565b435b600754909150610c9e90866128f5565b6007556040805160a0810182526001600160a01b0380871680835260208084018a81528486018781526000606087018181526080880182815260058054600181810183558286529a5191027f036b6384b5eca791c62761152d0c79bb0604c104a5fb6f4eb0703f3154bb3db08101805492909a166001600160a01b03199092169190911790985593517f036b6384b5eca791c62761152d0c79bb0604c104a5fb6f4eb0703f3154bb3db188015591517f036b6384b5eca791c62761152d0c79bb0604c104a5fb6f4eb0703f3154bb3db287015590517f036b6384b5eca791c62761152d0c79bb0604c104a5fb6f4eb0703f3154bb3db386015590517f036b6384b5eca791c62761152d0c79bb0604c104a5fb6f4eb0703f3154bb3db4909401939093559082526009905291909120805460ff19169091179055610ddf61294f565b5050505050565b6000610df143611d4b565b905090565b6002546001600160a01b031681565b60026001541415610e4b576040805162461bcd60e51b815260206004820152601f6024820152600080516020612d5e833981519152604482015290519081900360640190fd5b600260018190555060006005600081548110610e6357fe5b600091825260208083203384527f54cdd369e4e8a8515e52ca72ec816c2101831ad1f18bf44102ed171459c9b4f890915260408320600590920201925090610eaa9061124e565b805415610ef6576000610ee282600101546108ce670de0b6b3a76400006108c8876003015487600001546126ee90919063ffffffff16565b90508015610ef457610ef4338261280b565b505b8215610f36578154610f13906001600160a01b0316333086612a14565b8054610f1f90846128f5565b81556004820154610f3090846128f5565b60048301555b60038201548154610f5491670de0b6b3a7640000916108c8916126ee565b6001820155604080516340c10f1960e01b81523360048201526024810185905290516001600160a01b037f000000000000000000000000000000000000000000000000000000000000000016916340c10f1991604480830192600092919082900301818387803b158015610fc757600080fd5b505af1158015610fdb573d6000803e3d6000fd5b5050604080518681529051600093503392507f90890809c654f11d6e72a28fa60149770a0d11ec6c92319d6ceb2bb0a4ea1a159181900360200190a350506001805550565b674563918244f4000081565b60026001541415611072576040805162461bcd60e51b815260206004820152601f6024820152600080516020612d5e833981519152604482015290519081900360640190fd5b6002600155816110b35760405162461bcd60e51b8152600401808060200182810382526027815260200180612eb96027913960400191505060405180910390fd5b6000600583815481106110c257fe5b600091825260208083208684526006825260408085203386529092529220805460059092029092019250831115611140576040805162461bcd60e51b815260206004820152601e60248201527f4d6173746572436865663a2077697468647261773a206e6f7420676f6f640000604482015290519081900360640190fd5b6111498461124e565b600061117a82600101546108ce670de0b6b3a76400006108c8876003015487600001546126ee90919063ffffffff16565b9050801561118c5761118c338261280b565b83156111ca57815461119e90856127ae565b825560048301546111af90856127ae565b600484015582546111ca906001600160a01b0316338661289e565b600383015482546111e891670de0b6b3a7640000916108c8916126ee565b6001830155604080518581529051869133917ff279e6a1f5e320cca91135676d9cb6e44ca8a08c0b88342bcdb1144f6511b5689181900360200190a3505060018055505050565b600061123b8243611927565b92915050565b60085481565b6217fe8081565b60006005828154811061125d57fe5b906000526020600020906005020190508060020154431161127e5750611783565b6004810154158061129157506001810154155b156112a25743600290910155611783565b60006112b1826002015461122f565b905060006112d26007546108c88560010154856126ee90919063ffffffff16565b90507f00000000000000000000000000000000000000000000000000000000000000006001600160a01b0316635db30bb16040518163ffffffff1660e01b815260040160206040518083038186803b15801561132d57600080fd5b505afa158015611341573d6000803e3d6000fd5b505050506040513d602081101561135757600080fd5b5051604080516318160ddd60e01b815290516113f19184916001600160a01b037f000000000000000000000000000000000000000000000000000000000000000016916318160ddd916004808301926020929190829003018186803b1580156113bf57600080fd5b505afa1580156113d3573d6000803e3d6000fd5b505050506040513d60208110156113e957600080fd5b5051906128f5565b1115611514576115117f00000000000000000000000000000000000000000000000000000000000000006001600160a01b03166318160ddd6040518163ffffffff1660e01b815260040160206040518083038186803b15801561145357600080fd5b505afa158015611467573d6000803e3d6000fd5b505050506040513d602081101561147d57600080fd5b505160408051635db30bb160e01b815290516001600160a01b037f00000000000000000000000000000000000000000000000000000000000000001691635db30bb1916004808301926020929190829003018186803b1580156114df57600080fd5b505afa1580156114f3573d6000803e3d6000fd5b505050506040513d602081101561150957600080fd5b5051906127ae565b90505b801561177f57600061152e6103e86108c88461028a6126ee565b905060006115436103e86108c885607d6126ee565b905060006115586103e86108c88660e16126ee565b90507f00000000000000000000000000000000000000000000000000000000000000006001600160a01b03166340c10f197f0000000000000000000000000000000000000000000000000000000000000000856040518363ffffffff1660e01b815260040180836001600160a01b0316815260200182815260200192505050600060405180830381600087803b1580156115f157600080fd5b505af1158015611605573d6000803e3d6000fd5b5050600354604080516340c10f1960e01b81526001600160a01b0392831660048201526024810187905290517f000000000000000000000000000000000000000000000000000000000000000090921693506340c10f19925060448082019260009290919082900301818387803b15801561167f57600080fd5b505af1158015611693573d6000803e3d6000fd5b505050507f00000000000000000000000000000000000000000000000000000000000000006001600160a01b03166340c10f197f0000000000000000000000000000000000000000000000000000000000000000836040518363ffffffff1660e01b815260040180836001600160a01b0316815260200182815260200192505050600060405180830381600087803b15801561172e57600080fd5b505af1158015611742573d6000803e3d6000fd5b50505060048701546117709150611765906108c886670de0b6b3a76400006126ee565b6003880154906128f5565b60038701555050436002850155505b5050505b50565b600260015414156117cc576040805162461bcd60e51b815260206004820152601f6024820152600080516020612d5e833981519152604482015290519081900360640190fd5b60026001819055506000600582815481106117e357fe5b6000918252602080832085845260068252604080852033865290925290832080548482556001820194909455600590920201925090836118a45760408051632770a7eb60e21b81523360048201526024810183905290516001600160a01b037f00000000000000000000000000000000000000000000000000000000000000001691639dc29fac91604480830192600092919082900301818387803b15801561188b57600080fd5b505af115801561189f573d6000803e3d6000fd5b505050505b82546118ba906001600160a01b0316338361289e565b808360040154106118de5760048301546118d490826127ae565b60048401556118e6565b600060048401555b604080518281529051859133917fbb757047c2b5f3974fe26b7c10f732e7bce710b0952a71082702781e62ae05959181900360200190a35050600180555050565b6000818311156119685760405162461bcd60e51b8152600401808060200182810382526035815260200180612ee06035913960400191505060405180910390fd5b6008548310156119a95760405162461bcd60e51b8152600401808060200182810382526032815260200180612def6032913960400191505060405180910390fd5b6000806119b585610a0f565b905060006119c285610a0f565b90505b80821015611a2f5760006119fd6217fe80610a65600854610a65622ffd006119f760018a6127ae90919063ffffffff16565b906126ee565b9050611a1f611a18611a0e83611d4b565b6119f7848b6127ae565b85906128f5565b90965092506001909101906119c5565b611a4f611a48611a3e87611d4b565b6119f7888a6127ae565b84906128f5565b9695505050505050565b6000811580611a685750601982115b15611a7557506000610a77565b8160011415611a875750600454610a77565b611ac4611a958360026127ae565b60640a6108c8611aa68560026127ae565b60550a6119f760646108c8604b6004546126ee90919063ffffffff16565b9050610a77565b60055460005b81811015611aea57611ae28161124e565b600101611ad1565b5050565b611af66126ea565b6001600160a01b0316611b07611cf4565b6001600160a01b031614611b50576040805162461bcd60e51b81526020600482018190526024820152600080516020612e99833981519152604482015290519081900360640190fd5b620186a0821115611b9f576040805162461bcd60e51b815260206004820152601460248201527309ac2e6e8cae486d0cacc744042deeccae4dac2f60631b604482015290519081900360640190fd5b8015611bad57611bad611acb565b600060058481548110611bbc57fe5b90600052602060002090600502016001015490508260058581548110611bde57fe5b90600052602060002090600502016001018190555082811461177f57611c1383610a65836007546127ae90919063ffffffff16565b60075561177f61294f565b7f000000000000000000000000000000000000000000000000000000000000000081565b611c4a6126ea565b6001600160a01b0316611c5b611cf4565b6001600160a01b031614611ca4576040805162461bcd60e51b81526020600482018190526024820152600080516020612e99833981519152604482015290519081900360640190fd5b600080546040516001600160a01b03909116907f8be0079c531659141344cd1fd0a4f28419497f9722a3daafe3b4186f6b6457e0908390a3600080546001600160a01b0319169055565b60045481565b6000546001600160a01b031690565b60066020908152600092835260408084209091529082529020805460019091015482565b7f000000000000000000000000000000000000000000000000000000000000000081565b600080611d5783610a0f565b9050611d6281611a59565b9392505050565b6000610df143610a0f565b622ffd0081565b6002546001600160a01b03163314611dc45760405162461bcd60e51b815260040180806020018281038252602e815260200180612f15602e913960400191505060405180910390fd5b7f00000000000000000000000000000000000000000000000000000000000000006001600160a01b031663f2fde38b826040518263ffffffff1660e01b815260040180826001600160a01b03168152602001915050600060405180830381600087803b158015611e3357600080fd5b505af1158015611e47573d6000803e3d6000fd5b50506040516001600160a01b03841692503391507fa860724f603a0e186a7b16740ca3c96b8457a2329bc4126c8db7490de85af99a90600090a350565b60096020526000908152604090205460ff1681565b6001600160a01b038116611eea576040805162461bcd60e51b81526020600482015260136024820152724d6173746572436865663a216e6f6e7a65726f60681b604482015290519081900360640190fd5b6003546001600160a01b03163314611f335760405162461bcd60e51b815260040180806020018281038252602a815260200180612e21602a913960400191505060405180910390fd5b600380546001600160a01b0319166001600160a01b0392909216919091179055565b6003546001600160a01b031681565b60008060058481548110611f7457fe5b600091825260208083208784526006825260408085206001600160a01b03891686529092529220600360059092029092019081015460028201549193509043118015611fc35750600483015415155b8015611fd157506000600754115b1561213c576000611fe5846002015461122f565b90507f00000000000000000000000000000000000000000000000000000000000000006001600160a01b0316635db30bb16040518163ffffffff1660e01b815260040160206040518083038186803b15801561204057600080fd5b505afa158015612054573d6000803e3d6000fd5b505050506040513d602081101561206a57600080fd5b5051604080516318160ddd60e01b815290516120d29184916001600160a01b037f000000000000000000000000000000000000000000000000000000000000000016916318160ddd916004808301926020929190829003018186803b1580156113bf57600080fd5b101561213a5760006120f76007546108c88760010154856126ee90919063ffffffff16565b9050600061210d6103e86108c88461028a6126ee565b9050612135611a1887600401546108c8670de0b6b3a7640000856126ee90919063ffffffff16565b935050505b505b611a4f82600101546108ce670de0b6b3a76400006108c88587600001546126ee90919063ffffffff16565b600260015414156121ad576040805162461bcd60e51b815260206004820152601f6024820152600080516020612d5e833981519152604482015290519081900360640190fd5b6002600155816121ee5760405162461bcd60e51b8152600401808060200182810382526024815260200180612d3a6024913960400191505060405180910390fd5b6000600583815481106121fd57fe5b6000918252602080832086845260068252604080852033865290925292206005909102909101915061222e8461124e565b80541561227a57600061226682600101546108ce670de0b6b3a76400006108c8876003015487600001546126ee90919063ffffffff16565b9050801561227857612278338261280b565b505b82156123c5578154604080516370a0823160e01b815230600482015290516000926001600160a01b0316916370a08231916024808301926020929190829003018186803b1580156122ca57600080fd5b505afa1580156122de573d6000803e3d6000fd5b505050506040513d60208110156122f457600080fd5b50518354909150612310906001600160a01b0316333087612a14565b8254604080516370a0823160e01b815230600482015290516123609284926001600160a01b03909116916370a0823191602480820192602092909190829003018186803b1580156114df57600080fd5b9350600084116123a15760405162461bcd60e51b815260040180806020018281038252602d815260200180612e4b602d913960400191505060405180910390fd5b81546123ad90856128f5565b825560048301546123be90856128f5565b6004840155505b600382015481546123e391670de0b6b3a7640000916108c8916126ee565b6001820155604080518481529051859133917f90890809c654f11d6e72a28fa60149770a0d11ec6c92319d6ceb2bb0a4ea1a159181900360200190a35050600180555050565b6002546001600160a01b031633146124725760405162461bcd60e51b815260040180806020018281038252602e815260200180612f15602e913960400191505060405180910390fd5b600280546001600160a01b0319166001600160a01b03831690811790915560405133907f5cd2081d2ae057c10db58af06a3447337403b9d888774eb5ae1eb629afe83ae190600090a350565b6124c66126ea565b6001600160a01b03166124d7611cf4565b6001600160a01b031614612520576040805162461bcd60e51b81526020600482018190526024820152600080516020612e99833981519152604482015290519081900360640190fd5b6001600160a01b0381166125655760405162461bcd60e51b8152600401808060200182810382526026815260200180612d7e6026913960400191505060405180910390fd5b600080546040516001600160a01b03808516939216917f8be0079c531659141344cd1fd0a4f28419497f9722a3daafe3b4186f6b6457e091a3600080546001600160a01b0319166001600160a01b0392909216919091179055565b6125c86126ea565b6001600160a01b03166125d9611cf4565b6001600160a01b031614612622576040805162461bcd60e51b81526020600482018190526024820152600080516020612e99833981519152604482015290519081900360640190fd5b60085443106126625760405162461bcd60e51b8152600401808060200182810382526041815260200180612f436041913960600191505060405180910390fd5b8043106126a05760405162461bcd60e51b815260040180806020018281038252602e815260200180612fae602e913960400191505060405180910390fd5b60055460005b818110156126dc576000600582815481106126bd57fe5b60009182526020909120600260059092020101849055506001016126a6565b5050600855565b620186a081565b3390565b6000826126fd5750600061123b565b8282028284828161270a57fe5b0414611d625760405162461bcd60e51b8152600401808060200182810382526021815260200180612e786021913960400191505060405180910390fd5b600080821161279d576040805162461bcd60e51b815260206004820152601a60248201527f536166654d6174683a206469766973696f6e206279207a65726f000000000000604482015290519081900360640190fd5b8183816127a657fe5b049392505050565b600082821115612805576040805162461bcd60e51b815260206004820152601e60248201527f536166654d6174683a207375627472616374696f6e206f766572666c6f770000604482015290519081900360640190fd5b50900390565b7f00000000000000000000000000000000000000000000000000000000000000006001600160a01b031663b918be3c83836040518363ffffffff1660e01b815260040180836001600160a01b0316815260200182815260200192505050600060405180830381600087803b15801561288257600080fd5b505af1158015612896573d6000803e3d6000fd5b505050505050565b604080516001600160a01b038416602482015260448082018490528251808303909101815260649091019091526020810180516001600160e01b031663a9059cbb60e01b1790526128f0908490612a6a565b505050565b600082820183811015611d62576040805162461bcd60e51b815260206004820152601b60248201527f536166654d6174683a206164646974696f6e206f766572666c6f770000000000604482015290519081900360640190fd5b600554600060015b8281101561299a576129906005828154811061296f57fe5b906000526020600020906005020160010154836128f590919063ffffffff16565b9150600101612957565b508015611aea576129ac816003612747565b90506129e681610a6560056000815481106129c357fe5b9060005260206000209060050201600101546007546127ae90919063ffffffff16565b6007819055508060056000815481106129fb57fe5b9060005260206000209060050201600101819055505050565b604080516001600160a01b0380861660248301528416604482015260648082018490528251808303909101815260849091019091526020810180516001600160e01b03166323b872dd60e01b17905261177f9085905b6060612abf826040518060400160405280602081526020017f5361666545524332303a206c6f772d6c6576656c2063616c6c206661696c6564815250856001600160a01b0316612b1b9092919063ffffffff16565b8051909150156128f057808060200190516020811015612ade57600080fd5b50516128f05760405162461bcd60e51b815260040180806020018281038252602a815260200180612f84602a913960400191505060405180910390fd5b6060612b2a8484600085612b32565b949350505050565b60603031831115612b745760405162461bcd60e51b8152600401808060200182810382526026815260200180612dc96026913960400191505060405180910390fd5b612b7d85612c8f565b612bce576040805162461bcd60e51b815260206004820152601d60248201527f416464726573733a2063616c6c20746f206e6f6e2d636f6e7472616374000000604482015290519081900360640190fd5b60006060866001600160a01b031685876040518082805190602001908083835b60208310612c0d5780518252601f199092019160209182019101612bee565b6001836020036101000a03801982511681845116808217855250505050505090500191505060006040518083038185875af1925050503d8060008114612c6f576040519150601f19603f3d011682016040523d82523d6000602084013e612c74565b606091505b5091509150612c84828286612c95565b979650505050505050565b3b151590565b60608315612ca4575081611d62565b825115612cb45782518084602001fd5b8160405162461bcd60e51b81526004018080602001828103825283818151815260200191508051906020019080838360005b83811015612cfe578181015183820152602001612ce6565b50505050905090810190601f168015612d2b5780820380516001836020036101000a031916815260200191505b509250505060405180910390fdfe4d6173746572436865663a206465706f73697420474c494445206279207374616b696e675265656e7472616e637947756172643a207265656e7472616e742063616c6c004f776e61626c653a206e6577206f776e657220697320746865207a65726f20616464726573734d6173746572436865663a206e6f6e4475706c6963617465643a206475706c696361746564416464726573733a20696e73756666696369656e742062616c616e636520666f722063616c6c4d6173746572436865663a206d7573742062652073616d65206f72206c6172676572207468656e207374617274426c6f636b4d6173746572436865663a2073656e646572206973206e6f742073616d652061732064657620616464724d6173746572436865663a20776520646f6e7420616363657074206465706f73697473206f6620302073697a65536166654d6174683a206d756c7469706c69636174696f6e206f766572666c6f774f776e61626c653a2063616c6c6572206973206e6f7420746865206f776e65724d6173746572436865663a20776974686472617720474c49444520627920756e7374616b696e674d6173746572436865663a206d757374206c6974746c65207468616e207468652063757272656e7420626c6f636b206e756d6265724d6173746572436865663a2073656e646572206973206e6f7420676c696465207472616e73666572206f776e65724d6173746572436865663a2063616e6e6f74206368616e676520737461727420626c6f636b206966206661726d2068617320616c726561647920737461727465645361666545524332303a204552433230206f7065726174696f6e20646964206e6f7420737563636565644d6173746572436865663a2063616e6e6f742073657420737461727420626c6f636b20696e207468652070617374a2646970667358221220bd0d533b4497dc0ecd1c8a3920abd10f84d94e599117648607e2666583d151c764736f6c634300060c0033",
  "immutableReferences": {
    "3954": [
      {
        "length": 32,
        "start": 2686
      },
      {
        "length": 32,
        "start": 4822
      },
      {
        "length": 32,
        "start": 4985
      },
      {
        "length": 32,
        "start": 5116
      },
      {
        "length": 32,
        "start": 5273
      },
      {
        "length": 32,
        "start": 5468
      },
      {
        "length": 32,
        "start": 5683
      },
      {
        "length": 32,
        "start": 5785
      },
      {
        "length": 32,
        "start": 7622
      },
      {
        "length": 32,
        "start": 8169
      },
      {
        "length": 32,
        "start": 8332
      }
    ],
    "3958": [
      {
        "length": 32,
        "start": 2414
      },
      {
        "length": 32,
        "start": 3968
      },
      {
        "length": 32,
        "start": 5515
      },
      {
        "length": 32,
        "start": 6212
      },
      {
        "length": 32,
        "start": 7465
      },
      {
        "length": 32,
        "start": 10253
      }
    ],
    "3962": [
      {
        "length": 32,
        "start": 5832
      },
      {
        "length": 32,
        "start": 7200
      }
    ]
  },
  "source": "// SPDX-License-Identifier: MIT\n\npragma solidity ^0.6.12;\n\nimport \"@openzeppelin/contracts/math/SafeMath.sol\";\nimport '@openzeppelin/contracts/token/ERC20/IERC20.sol';\nimport '@openzeppelin/contracts/token/ERC20/SafeERC20.sol';\nimport \"@openzeppelin/contracts/access/Ownable.sol\";\nimport \"@openzeppelin/contracts/utils/ReentrancyGuard.sol\";\n\nimport \"./GlideToken.sol\";\nimport \"./Sugar.sol\";\n\n// MasterChef is the master of Glide. He can make Glide and he is a fair guy.\n//\n// Note that it's ownable and the owner wields tremendous power. The ownership\n// will be transferred to a governance smart contract once GLIDE is sufficiently\n// distributed and the community can show to govern itself.\n//\n// Have fun reading it. Hopefully it's bug-free. God bless.\ncontract MasterChef is Ownable, ReentrancyGuard {\n    using SafeMath for uint256;\n    using SafeERC20 for IERC20;\n\n    // Info of each user.\n    struct UserInfo {\n        uint256 amount;     // How many LP tokens the user has provided.\n        uint256 rewardDebt; // Reward debt. See explanation below.\n        //\n        // We do some fancy math here. Basically, any point in time, the amount of GLIDEs\n        // entitled to a user but is pending to be distributed is:\n        //\n        //   pending reward = (user.amount * pool.accGlidePerShare).sub(user.rewardDebt)\n        //\n        // Whenever a user deposits or withdraws LP tokens to a pool. Here's what happens:\n        //   1. The pool's `accGlidePerShare` (and `lastRewardBlock`) gets updated.\n        //   2. User receives the pending reward sent to his/her address.\n        //   3. User's `amount` gets updated.\n        //   4. User's `rewardDebt` gets updated.\n    }\n\n    // Info of each pool.\n    struct PoolInfo {\n        IERC20 lpToken;           // Address of LP token contract.\n        uint256 allocPoint;       // How many allocation points assigned to this pool. GLIDEs to distribute per block.\n        uint256 lastRewardBlock;  // Last block number that GLIDEs distribution occurs.\n        uint256 accGlidePerShare; // Accumulated GLIDEs per share, times 1e18. See below.\n        uint256 lpSupply;\n    }\n\n    // The GLIDE TOKEN!\n    GlideToken public immutable glide;\n    // GLIDE TOKEN transfer owner\n    address public glideTransferOwner;\n\n    // The SUGAR TOKEN!\n    Sugar public immutable sugar;\n    // Dev address.\n    address public devaddr;\n    // Treasury address\n    address public immutable treasuryaddr;\n    // GLIDE tokens created per block.\n    uint256 public glidePerBlock;\n    // GLIDE max rate (max perBlock setup)\n    uint256 public constant MAX_EMISSION_RATE = 5 ether; // Safety check\n\n    // Bounus reduction period\n    uint256 public constant bonusPeriod = 1572480; //12 * 60 * 24 * 91 (91 is 3 months in days)\n    // Reduction period\n    uint256 public constant reductionPeriod = 3144960; //12 * 60 * 24 * 182 (182 is 6 months in days)\n\n    // Info of each pool.\n    PoolInfo[] public poolInfo;\n    // Info of each user that stakes LP tokens.\n    mapping (uint256 => mapping (address => UserInfo)) public userInfo;\n    // Total allocation points. Must be the sum of all allocation points in all pools.\n    uint256 public totalAllocPoint = 0;\n    // Max allocation points safety check\n    uint256 public constant MAX_ALLOC_POINT = 100000;\n    // The block number when GLIDE mining starts.\n    uint256 public startBlock;\n\n    event Deposit(address indexed user, uint256 indexed pid, uint256 amount);\n    event Withdraw(address indexed user, uint256 indexed pid, uint256 amount);\n    event EmergencyWithdraw(address indexed user, uint256 indexed pid, uint256 amount);\n    event UpdateEmissionRate(address indexed user, uint256 glidePerBlock);\n    event SetGlideTransferOwner(address indexed user, address indexed glideTransferOwner);\n    event TransferGlideOwnership(address indexed user, address indexed newOwner);\n\n    mapping(IERC20 => bool) public poolExistence;\n\n    modifier nonDuplicated(IERC20 _lpToken) {\n        require(poolExistence[_lpToken] == false, \"MasterChef: nonDuplicated: duplicated\");\n        _;\n    }\n\n    constructor(\n        GlideToken _glide,\n        Sugar _sugar,\n        address _devaddr,\n        address _treasuryaddr,\n        uint256 _glidePerBlock,\n        uint256 _startBlock,\n        address _glideTransferOwner\n    ) public {\n        glide = _glide;\n        sugar = _sugar;\n        devaddr = _devaddr;\n        treasuryaddr = _treasuryaddr;\n        glidePerBlock = _glidePerBlock;\n        startBlock = _startBlock;\n        glideTransferOwner = _glideTransferOwner;\n\n        // staking pool\n        poolInfo.push(PoolInfo({\n            lpToken: _glide,\n            allocPoint: 1000,\n            lastRewardBlock: startBlock,\n            accGlidePerShare: 0,\n            lpSupply: 0\n        }));\n\n        poolExistence[_glide] = true;\n\n        totalAllocPoint = 1000;\n    }\n\n    function poolLength() external view returns (uint256) {\n        return poolInfo.length;\n    }\n\n    // At what phase\n    function phase(uint256 blockNumber) public view returns (uint256) {\n        if (reductionPeriod == 0) {\n            return 0;\n        }\n        if (blockNumber >= startBlock) {\n            // calculate block number from start block\n            uint256 blockNumberFromStart = blockNumber.sub(startBlock); \n            // if blockNumberFromStart less then block for reduction period, then we are in one phase\n            if (blockNumberFromStart <= bonusPeriod) { \n                return 1;\n            } else { \n                // calculate phase and add 1, because, will be start from one, and one phase is bonus phase \n                return (blockNumberFromStart.sub(bonusPeriod).sub(1)).div(reductionPeriod).add(2);\n            }\n        }\n        return 0;\n    }\n\n    function phase() public view returns (uint256) {\n        return phase(block.number);\n    }\n\n    // get Glide token reward per block\n    function rewardPerPhase(uint256 phaseNumber) public view returns (uint256) {\n        // if larger than 25, it would be overflow error (also, in first 25 phase we will distribute all tokens)\n        if (phaseNumber == 0 || phaseNumber > 25) {\n            return 0;\n        } else if (phaseNumber == 1) {\n            return glidePerBlock;\n        } else {\n            return glidePerBlock.mul(75).div(100).mul(85 ** (phaseNumber.sub(2))).div(100 ** (phaseNumber.sub(2)));\n        }\n    }\n\n    function reward(uint256 blockNumber) public view returns (uint256) {\n        uint256 _phase = phase(blockNumber);\n        return rewardPerPhase(_phase);\n    }\n\n    function reward() public view returns (uint256) {\n        return reward(block.number);\n    }\n\n    // Rewards total glide reward\n    function getTotalGlideReward(uint256 _lastRewardBlock, uint256 _blockNumber) public view returns (uint256) {\n        require(_lastRewardBlock <= _blockNumber, \"MasterChef: must little than the current block number\");\n        require(_lastRewardBlock >= startBlock, \"MasterChef: must be same or larger then startBlock\");\n        uint256 blockReward = 0;\n        uint256 n = phase(_lastRewardBlock);\n        uint256 m = phase(_blockNumber);\n        // If it crosses the cycle\n        while (n < m) {\n            // Get the last block of the previous cycle\n            uint256 r = (n.sub(1)).mul(reductionPeriod).add(startBlock).add(bonusPeriod);\n            // Get rewards from previous periods\n            blockReward = blockReward.add((r.sub(_lastRewardBlock)).mul(reward(r)));\n            _lastRewardBlock = r;\n\n            n++;\n        }\n        blockReward = blockReward.add((_blockNumber.sub(_lastRewardBlock)).mul(reward(_blockNumber)));\n        return blockReward;\n    }\n\n    // Rewards for the current block\n    function getGlideReward(uint256 _lastRewardBlock) public view returns (uint256) {\n        return getTotalGlideReward(_lastRewardBlock, block.number);\n    }\n\n    // Add a new lp to the pool. Can only be called by the owner.\n    function add(uint256 _allocPoint, IERC20 _lpToken, bool _withUpdate) public onlyOwner nonDuplicated(_lpToken){\n        // Make sure the provided token is ERC20\n        _lpToken.balanceOf(address(this));\n\n        require(_allocPoint <= MAX_ALLOC_POINT, \"MasterChef: !overmax\");\n        if (_withUpdate) {\n            massUpdatePools();\n        }\n        uint256 lastRewardBlock = block.number > startBlock ? block.number : startBlock;\n        totalAllocPoint = totalAllocPoint.add(_allocPoint);\n        poolInfo.push(PoolInfo({\n            lpToken: _lpToken,\n            allocPoint: _allocPoint,\n            lastRewardBlock: lastRewardBlock,\n            accGlidePerShare: 0,\n            lpSupply: 0\n        }));\n        poolExistence[_lpToken] = true;\n        updateStakingPool();\n    }\n\n    // Update the given pool's GLIDE allocation point. Can only be called by the owner.\n    function set(uint256 _pid, uint256 _allocPoint, bool _withUpdate) public onlyOwner {\n        require(_allocPoint <= MAX_ALLOC_POINT, \"MasterChef: !overmax\");\n        if (_withUpdate) {\n            massUpdatePools();\n        }\n        uint256 prevAllocPoint = poolInfo[_pid].allocPoint;\n        poolInfo[_pid].allocPoint = _allocPoint;\n        if (prevAllocPoint != _allocPoint) {\n            totalAllocPoint = totalAllocPoint.sub(prevAllocPoint).add(_allocPoint);\n            updateStakingPool();\n        }\n    }\n\n    function updateStakingPool() internal {\n        uint256 length = poolInfo.length;\n        uint256 points = 0;\n        for (uint256 pid = 1; pid < length; ++pid) {\n            points = points.add(poolInfo[pid].allocPoint);\n        }\n        if (points != 0) {\n            points = points.div(3);\n            totalAllocPoint = totalAllocPoint.sub(poolInfo[0].allocPoint).add(points);\n            poolInfo[0].allocPoint = points;\n        }\n    }\n\n    // View function to see pending GLIDEs on frontend.\n    function pendingGlide(uint256 _pid, address _user) external view returns (uint256) {\n        PoolInfo storage pool = poolInfo[_pid];\n        UserInfo storage user = userInfo[_pid][_user];\n        uint256 accGlidePerShare = pool.accGlidePerShare;\n        if (block.number > pool.lastRewardBlock && pool.lpSupply != 0 && totalAllocPoint > 0) {\n            uint256 glidePerBlockCalculated = getGlideReward(pool.lastRewardBlock);\n            // add this check how this function not be fall on require on mint\n            if (glide.totalSupply().add(glidePerBlockCalculated) < glide.getMaxTotalSupply()) {\n                uint256 glideReward = glidePerBlockCalculated.mul(pool.allocPoint).div(totalAllocPoint);\n                uint256 glideRewardSugar = glideReward.mul(650).div(1000); //65% go to sugar\n                accGlidePerShare = accGlidePerShare.add(glideRewardSugar.mul(1e18).div(pool.lpSupply));\n            }\n        }\n        return user.amount.mul(accGlidePerShare).div(1e18).sub(user.rewardDebt);\n    }\n\n    // Update reward variables for all pools. Be careful of gas spending!\n    function massUpdatePools() public {\n        uint256 length = poolInfo.length;\n        for (uint256 pid = 0; pid < length; ++pid) {\n            updatePool(pid);\n        }\n    }\n\n\n    // Update reward variables of the given pool to be up-to-date.\n    function updatePool(uint256 _pid) public {\n        PoolInfo storage pool = poolInfo[_pid];\n        if (block.number <= pool.lastRewardBlock) {\n            return;\n        }\n        \n        if (pool.lpSupply == 0 || pool.allocPoint == 0) {\n            pool.lastRewardBlock = block.number;\n            return;\n        }\n\n        uint256 glidePerBlockCalculated = getGlideReward(pool.lastRewardBlock);\n        uint256 glideReward = glidePerBlockCalculated.mul(pool.allocPoint).div(totalAllocPoint);\n        if (glide.totalSupply().add(glideReward) > glide.getMaxTotalSupply()) {\n            glideReward = (glide.getMaxTotalSupply()).sub(glide.totalSupply());\n        }\n        // add this check how this function not be fall on require on mint\n        if (glideReward != 0) {\n            uint256 glideRewardSugar = glideReward.mul(650).div(1000); //65% go to sugar \n            uint256 glideRewardDev = glideReward.mul(125).div(1000); //12.5% go to dev addr\n            uint256 glideRewardTreasury = glideReward.mul(225).div(1000); //22.5% go to treasury addr\n\n            glide.mint(address(sugar), glideRewardSugar);\n            glide.mint(devaddr, glideRewardDev); \n            glide.mint(treasuryaddr, glideRewardTreasury);\n            \n            pool.accGlidePerShare = pool.accGlidePerShare.add(glideRewardSugar.mul(1e18).div(pool.lpSupply));\n            pool.lastRewardBlock = block.number;\n        }\n    }\n\n    // Deposit LP tokens to MasterChef for GLIDE allocation.\n    function deposit(uint256 _pid, uint256 _amount) public nonReentrant {\n        require (_pid != 0, \"MasterChef: deposit GLIDE by staking\");\n\n        PoolInfo storage pool = poolInfo[_pid];\n        UserInfo storage user = userInfo[_pid][msg.sender];\n        updatePool(_pid);\n        if (user.amount > 0) {\n            uint256 pending = user.amount.mul(pool.accGlidePerShare).div(1e18).sub(user.rewardDebt);\n            if(pending > 0) {\n                safeGlideTransfer(msg.sender, pending);\n            }\n        }\n        if (_amount > 0) {\n            uint256 balanceBefore = pool.lpToken.balanceOf(address(this));\n            pool.lpToken.safeTransferFrom(msg.sender, address(this), _amount);\n            _amount = pool.lpToken.balanceOf(address(this)).sub(balanceBefore);\n            require(_amount > 0, \"MasterChef: we dont accept deposits of 0 size\");\n\n            user.amount = user.amount.add(_amount);\n            pool.lpSupply = pool.lpSupply.add(_amount);\n        }\n        user.rewardDebt = user.amount.mul(pool.accGlidePerShare).div(1e18);\n        emit Deposit(msg.sender, _pid, _amount);\n    }\n\n    // Withdraw LP tokens from MasterChef.\n    function withdraw(uint256 _pid, uint256 _amount) public nonReentrant {\n        require (_pid != 0, \"MasterChef: withdraw GLIDE by unstaking\");\n        PoolInfo storage pool = poolInfo[_pid];\n        UserInfo storage user = userInfo[_pid][msg.sender];\n        require(user.amount >= _amount, \"MasterChef: withdraw: not good\");\n\n        updatePool(_pid);\n        uint256 pending = user.amount.mul(pool.accGlidePerShare).div(1e18).sub(user.rewardDebt);\n        if(pending > 0) {\n            safeGlideTransfer(msg.sender, pending);\n        }\n        if(_amount > 0) {\n            user.amount = user.amount.sub(_amount);\n            pool.lpSupply = pool.lpSupply.sub(_amount);\n            pool.lpToken.safeTransfer(msg.sender, _amount);\n        }\n        user.rewardDebt = user.amount.mul(pool.accGlidePerShare).div(1e18);\n        emit Withdraw(msg.sender, _pid, _amount);\n    }\n\n    // Stake GLIDE tokens to MasterChef\n    function enterStaking(uint256 _amount) public nonReentrant {\n        PoolInfo storage pool = poolInfo[0];\n        UserInfo storage user = userInfo[0][msg.sender];\n        updatePool(0);\n        if (user.amount > 0) {\n            uint256 pending = user.amount.mul(pool.accGlidePerShare).div(1e18).sub(user.rewardDebt);\n            if(pending > 0) {\n                safeGlideTransfer(msg.sender, pending);\n            }\n        }\n        if(_amount > 0) {\n            pool.lpToken.safeTransferFrom(msg.sender, address(this), _amount);\n            user.amount = user.amount.add(_amount);\n            pool.lpSupply = pool.lpSupply.add(_amount);\n        }\n        user.rewardDebt = user.amount.mul(pool.accGlidePerShare).div(1e18);\n\n        sugar.mint(msg.sender, _amount);\n        emit Deposit(msg.sender, 0, _amount);\n    }\n\n    // Withdraw GLIDE tokens from STAKING.\n    function leaveStaking(uint256 _amount) public nonReentrant {\n        PoolInfo storage pool = poolInfo[0];\n        UserInfo storage user = userInfo[0][msg.sender];\n        require(user.amount >= _amount, \"MasterChef: withdraw: not good\");\n        updatePool(0);\n        uint256 pending = user.amount.mul(pool.accGlidePerShare).div(1e18).sub(user.rewardDebt);\n        if(pending > 0) {\n            safeGlideTransfer(msg.sender, pending);\n        }\n        if(_amount > 0) {\n            user.amount = user.amount.sub(_amount);\n            pool.lpSupply = pool.lpSupply.sub(_amount);\n            pool.lpToken.safeTransfer(msg.sender, _amount);\n        }\n        user.rewardDebt = user.amount.mul(pool.accGlidePerShare).div(1e18);\n\n        sugar.burn(msg.sender, _amount);\n        emit Withdraw(msg.sender, 0, _amount);\n    }\n\n    // Withdraw without caring about rewards. EMERGENCY ONLY.\n    function emergencyWithdraw(uint256 _pid) public nonReentrant {\n        PoolInfo storage pool = poolInfo[_pid];\n        UserInfo storage user = userInfo[_pid][msg.sender];\n\n        uint256 amount = user.amount;\n        user.amount = 0;\n        user.rewardDebt = 0;\n        if(_pid == 0) {\n            sugar.burn(msg.sender, amount);\n        }\n\n        pool.lpToken.safeTransfer(msg.sender, amount);\n\n        // In the case of an accounting error, we choose to let the user emergency withdraw anyway\n        if (pool.lpSupply >= amount) {\n            pool.lpSupply = pool.lpSupply.sub(amount);\n        } else {\n            pool.lpSupply = 0;\n        }\n\n        emit EmergencyWithdraw(msg.sender, _pid, amount);\n    }\n\n    // Safe glide transfer function, just in case if rounding error causes pool to not have enough GLIDEs.\n    function safeGlideTransfer(address _to, uint256 _amount) internal {\n        sugar.safeGlideTransfer(_to, _amount);\n    }\n\n    // Update dev address by the previous dev.\n    function setDevAddress(address _devaddr) public {\n        require(_devaddr != address(0), \"MasterChef:!nonzero\");\n        require(msg.sender == devaddr, \"MasterChef: sender is not same as dev addr\");\n        devaddr = _devaddr;\n    }\n\n    // Update start block\n    function setStartBlock(uint256 _newStartBlock) external onlyOwner {\n        require(block.number < startBlock, \"MasterChef: cannot change start block if farm has already started\");\n        require(block.number < _newStartBlock, \"MasterChef: cannot set start block in the past\");\n        uint256 length = poolInfo.length;\n        for (uint256 pid = 0; pid < length; ++pid) {\n            PoolInfo storage pool = poolInfo[pid];\n            pool.lastRewardBlock = _newStartBlock;\n        }\n        startBlock = _newStartBlock;\n    }\n\n    // Should never fail as long as massUpdatePools is called during add\n    function updateEmissionRate(uint256 _glidePerBlock) external onlyOwner {\n        require(_glidePerBlock <= MAX_EMISSION_RATE, \"MasterChef: !overmax\");\n        massUpdatePools();\n        glidePerBlock = _glidePerBlock;\n        emit UpdateEmissionRate(msg.sender, _glidePerBlock);\n    }\n\n    // Update Glide transfer owner. Can only be called by existing glideTransferOwner\n    function setGlideTransferOwner(address _glideTransferOwner) external {\n        require(msg.sender == glideTransferOwner, \"MasterChef: sender is not glide transfer owner\");\n        glideTransferOwner = _glideTransferOwner;\n        emit SetGlideTransferOwner(msg.sender, _glideTransferOwner);\n    }\n\n    /**\n     * @dev DUE TO THIS CODE THIS CONTRACT MUST BE BEHIND A TIMELOCK (Ideally 7)\n     * THIS FUNCTION EXISTS ONLY IF THERE IS AN ISSUE WITH THIS CONTRACT \n     * AND TOKEN MIGRATION MUST HAPPEN\n     */\n    function transferGlideOwnership(address _newOwner) external {\n        require(msg.sender == glideTransferOwner, \"MasterChef: sender is not glide transfer owner\");\n        glide.transferOwnership(_newOwner);\n        emit TransferGlideOwnership(msg.sender, _newOwner);\n    }\n}",
  "sourcePath": "/Users/stefan/Work/Blockchain/GlideFinance/glide-contracts/contracts/Farm/MasterChef.sol",
  "compiler": {
    "name": "solc",
    "version": "0.6.12+commit.27d51765.Emscripten.clang"
  },
  "schemaVersion": "3.4.3",
  "updatedAt": "2021-12-19T22:36:49.664Z",
  "networkType": "ethereum",
  "devdoc": {
    "kind": "dev",
    "methods": {
      "owner()": {
        "details": "Returns the address of the current owner."
      },
      "renounceOwnership()": {
        "details": "Leaves the contract without owner. It will not be possible to call `onlyOwner` functions anymore. Can only be called by the current owner. NOTE: Renouncing ownership will leave the contract without an owner, thereby removing any functionality that is only available to the owner."
      },
      "transferGlideOwnership(address)": {
        "details": "DUE TO THIS CODE THIS CONTRACT MUST BE BEHIND A TIMELOCK (Ideally 7) THIS FUNCTION EXISTS ONLY IF THERE IS AN ISSUE WITH THIS CONTRACT  AND TOKEN MIGRATION MUST HAPPEN"
      },
      "transferOwnership(address)": {
        "details": "Transfers ownership of the contract to a new account (`newOwner`). Can only be called by the current owner."
      }
    },
    "version": 1
  },
  "userdoc": {
    "kind": "user",
    "methods": {},
    "version": 1
  }
}