{
  "contractName": "OperaSwapFactory",
  "abi": [
    {
      "inputs": [
        {
          "internalType": "address",
          "name": "_feeToSetter",
          "type": "address"
        }
      ],
      "stateMutability": "nonpayable",
      "type": "constructor"
    },
    {
      "anonymous": false,
      "inputs": [
        {
          "indexed": true,
          "internalType": "address",
          "name": "token0",
          "type": "address"
        },
        {
          "indexed": true,
          "internalType": "address",
          "name": "token1",
          "type": "address"
        },
        {
          "indexed": false,
          "internalType": "address",
          "name": "pair",
          "type": "address"
        },
        {
          "indexed": false,
          "internalType": "uint256",
          "name": "",
          "type": "uint256"
        }
      ],
      "name": "PairCreated",
      "type": "event"
    },
    {
      "anonymous": false,
      "inputs": [
        {
          "indexed": true,
          "internalType": "address",
          "name": "caller",
          "type": "address"
        },
        {
          "indexed": true,
          "internalType": "address",
          "name": "newAddress",
          "type": "address"
        }
      ],
      "name": "SetAdminAddress",
      "type": "event"
    },
    {
      "anonymous": false,
      "inputs": [
        {
          "indexed": true,
          "internalType": "address",
          "name": "caller",
          "type": "address"
        },
        {
          "indexed": true,
          "internalType": "address",
          "name": "newAddress",
          "type": "address"
        }
      ],
      "name": "SetFeeAddress",
      "type": "event"
    },
    {
      "inputs": [],
      "name": "INIT_CODE_PAIR_HASH",
      "outputs": [
        {
          "internalType": "bytes32",
          "name": "",
          "type": "bytes32"
        }
      ],
      "stateMutability": "view",
      "type": "function",
      "constant": true
    },
    {
      "inputs": [
        {
          "internalType": "uint256",
          "name": "",
          "type": "uint256"
        }
      ],
      "name": "allPairs",
      "outputs": [
        {
          "internalType": "address",
          "name": "",
          "type": "address"
        }
      ],
      "stateMutability": "view",
      "type": "function",
      "constant": true
    },
    {
      "inputs": [],
      "name": "feeTo",
      "outputs": [
        {
          "internalType": "address",
          "name": "",
          "type": "address"
        }
      ],
      "stateMutability": "view",
      "type": "function",
      "constant": true
    },
    {
      "inputs": [],
      "name": "feeToSetter",
      "outputs": [
        {
          "internalType": "address",
          "name": "",
          "type": "address"
        }
      ],
      "stateMutability": "view",
      "type": "function",
      "constant": true
    },
    {
      "inputs": [
        {
          "internalType": "address",
          "name": "",
          "type": "address"
        },
        {
          "internalType": "address",
          "name": "",
          "type": "address"
        }
      ],
      "name": "getPair",
      "outputs": [
        {
          "internalType": "address",
          "name": "",
          "type": "address"
        }
      ],
      "stateMutability": "view",
      "type": "function",
      "constant": true
    },
    {
      "inputs": [],
      "name": "allPairsLength",
      "outputs": [
        {
          "internalType": "uint256",
          "name": "",
          "type": "uint256"
        }
      ],
      "stateMutability": "view",
      "type": "function",
      "constant": true
    },
    {
      "inputs": [
        {
          "internalType": "address",
          "name": "tokenA",
          "type": "address"
        },
        {
          "internalType": "address",
          "name": "tokenB",
          "type": "address"
        }
      ],
      "name": "createPair",
      "outputs": [
        {
          "internalType": "address",
          "name": "pair",
          "type": "address"
        }
      ],
      "stateMutability": "nonpayable",
      "type": "function"
    },
    {
      "inputs": [
        {
          "internalType": "address",
          "name": "_feeTo",
          "type": "address"
        }
      ],
      "name": "setFeeTo",
      "outputs": [],
      "stateMutability": "nonpayable",
      "type": "function"
    },
    {
      "inputs": [
        {
          "internalType": "address",
          "name": "_feeToSetter",
          "type": "address"
        }
      ],
      "name": "setFeeToSetter",
      "outputs": [],
      "stateMutability": "nonpayable",
      "type": "function"
    },
    {
      "inputs": [
        {
          "internalType": "address",
          "name": "tokenA",
          "type": "address"
        },
        {
          "internalType": "address",
          "name": "tokenB",
          "type": "address"
        }
      ],
      "name": "sortTokens",
      "outputs": [
        {
          "internalType": "address",
          "name": "token0",
          "type": "address"
        },
        {
          "internalType": "address",
          "name": "token1",
          "type": "address"
        }
      ],
      "stateMutability": "pure",
      "type": "function",
      "constant": true
    },
    {
      "inputs": [
        {
          "internalType": "address",
          "name": "tokenA",
          "type": "address"
        },
        {
          "internalType": "address",
          "name": "tokenB",
          "type": "address"
        }
      ],
      "name": "pairFor",
      "outputs": [
        {
          "internalType": "address",
          "name": "pair",
          "type": "address"
        }
      ],
      "stateMutability": "view",
      "type": "function",
      "constant": true
    },
    {
      "inputs": [
        {
          "internalType": "address",
          "name": "tokenA",
          "type": "address"
        },
        {
          "internalType": "address",
          "name": "tokenB",
          "type": "address"
        }
      ],
      "name": "getReserves",
      "outputs": [
        {
          "internalType": "uint256",
          "name": "reserveA",
          "type": "uint256"
        },
        {
          "internalType": "uint256",
          "name": "reserveB",
          "type": "uint256"
        }
      ],
      "stateMutability": "view",
      "type": "function",
      "constant": true
    },
    {
      "inputs": [
        {
          "internalType": "uint256",
          "name": "amountA",
          "type": "uint256"
        },
        {
          "internalType": "uint256",
          "name": "reserveA",
          "type": "uint256"
        },
        {
          "internalType": "uint256",
          "name": "reserveB",
          "type": "uint256"
        }
      ],
      "name": "quote",
      "outputs": [
        {
          "internalType": "uint256",
          "name": "amountB",
          "type": "uint256"
        }
      ],
      "stateMutability": "pure",
      "type": "function",
      "constant": true
    },
    {
      "inputs": [
        {
          "internalType": "uint256",
          "name": "amountIn",
          "type": "uint256"
        },
        {
          "internalType": "uint256",
          "name": "reserveIn",
          "type": "uint256"
        },
        {
          "internalType": "uint256",
          "name": "reserveOut",
          "type": "uint256"
        }
      ],
      "name": "getAmountOut",
      "outputs": [
        {
          "internalType": "uint256",
          "name": "amountOut",
          "type": "uint256"
        }
      ],
      "stateMutability": "view",
      "type": "function",
      "constant": true
    },
    {
      "inputs": [
        {
          "internalType": "uint256",
          "name": "amountOut",
          "type": "uint256"
        },
        {
          "internalType": "uint256",
          "name": "reserveIn",
          "type": "uint256"
        },
        {
          "internalType": "uint256",
          "name": "reserveOut",
          "type": "uint256"
        }
      ],
      "name": "getAmountIn",
      "outputs": [
        {
          "internalType": "uint256",
          "name": "amountIn",
          "type": "uint256"
        }
      ],
      "stateMutability": "view",
      "type": "function",
      "constant": true
    },
    {
      "inputs": [
        {
          "internalType": "uint256",
          "name": "amountIn",
          "type": "uint256"
        },
        {
          "internalType": "address[]",
          "name": "path",
          "type": "address[]"
        }
      ],
      "name": "getAmountsOut",
      "outputs": [
        {
          "internalType": "uint256[]",
          "name": "amounts",
          "type": "uint256[]"
        }
      ],
      "stateMutability": "view",
      "type": "function",
      "constant": true
    },
    {
      "inputs": [
        {
          "internalType": "uint256",
          "name": "amountOut",
          "type": "uint256"
        },
        {
          "internalType": "address[]",
          "name": "path",
          "type": "address[]"
        }
      ],
      "name": "getAmountsIn",
      "outputs": [
        {
          "internalType": "uint256[]",
          "name": "amounts",
          "type": "uint256[]"
        }
      ],
      "stateMutability": "view",
      "type": "function",
      "constant": true
    }
  ],
  "bytecode": "0x608060405234801561001057600080fd5b506040516137e63803806137e68339818101604052602081101561003357600080fd5b5051600180546001600160a01b0319166001600160a01b03909216919091179055613783806100636000396000f3fe608060405234801561001057600080fd5b506004361061010b5760003560e01c806385f8c259116100a2578063c9c6539611610071578063c9c65396146103a3578063d06ca61f146103d1578063d52bb6f41461047b578063e6a43905146104c2578063f46901ed146104f05761010b565b806385f8c259146102fb57806396ed28f914610324578063a2e74af614610352578063ad615dec1461037a5761010b565b80631f00ca74116100de5780631f00ca7414610194578063544caa561461028e578063574f2ba3146102eb5780635855a25a146102f35761010b565b8063017e7e5814610110578063054d50d414610134578063094b74151461016f5780631e3dd18b14610177575b600080fd5b610118610516565b604080516001600160a01b039092168252519081900360200190f35b61015d6004803603606081101561014a57600080fd5b5080359060208101359060400135610525565b60408051918252519081900360200190f35b6101186105fd565b6101186004803603602081101561018d57600080fd5b503561060c565b61023e600480360360408110156101aa57600080fd5b813591908101906040810160208201356401000000008111156101cc57600080fd5b8201836020820111156101de57600080fd5b8035906020019184602083028401116401000000008311171561020057600080fd5b919080806020026020016040519081016040528093929190818152602001838360200280828437600092019190915250929550610633945050505050565b60408051602080825283518183015283519192839290830191858101910280838360005b8381101561027a578181015183820152602001610262565b505050509050019250505060405180910390f35b6102bc600480360360408110156102a457600080fd5b506001600160a01b038135811691602001351661077e565b60405180836001600160a01b03168152602001826001600160a01b031681526020019250505060405180910390f35b61015d61085c565b61015d610862565b61015d6004803603606081101561031157600080fd5b50803590602081013590604001356108f5565b6101186004803603604081101561033a57600080fd5b506001600160a01b03813581169160200135166109cd565b6103786004803603602081101561036857600080fd5b50356001600160a01b0316610b16565b005b61015d6004803603606081101561039057600080fd5b5080359060208101359060400135610bb8565b610118600480360360408110156103b957600080fd5b506001600160a01b0381358116916020013516610c5e565b61023e600480360360408110156103e757600080fd5b8135919081019060408101602082013564010000000081111561040957600080fd5b82018360208201111561041b57600080fd5b8035906020019184602083028401116401000000008311171561043d57600080fd5b919080806020026020016040519081016040528093929190818152602001838360200280828437600092019190915250929550610f89945050505050565b6104a96004803603604081101561049157600080fd5b506001600160a01b03813581169160200135166110bf565b6040805192835260208301919091528051918290030190f35b610118600480360360408110156104d857600080fd5b506001600160a01b0381358116916020013516611196565b6103786004803603602081101561050657600080fd5b50356001600160a01b03166111bc565b6000546001600160a01b031681565b60008084116105655760405162461bcd60e51b815260040180806020018281038252602b815260200180613723602b913960400191505060405180910390fd5b6000831180156105755750600082115b6105b05760405162461bcd60e51b81526004018080602001828103825260288152602001806136fb6028913960400191505060405180910390fd5b60006105be856103e661125d565b905060006105cc828561125d565b905060006105e6836105e0886103e861125d565b906112c6565b90508082816105f157fe5b04979650505050505050565b6001546001600160a01b031681565b6003818154811061061957fe5b6000918252602090912001546001600160a01b0316905081565b606060028251101561068c576040805162461bcd60e51b815260206004820152601e60248201527f4f70657261537761704c6962726172793a20494e56414c49445f504154480000604482015290519081900360640190fd5b815167ffffffffffffffff811180156106a457600080fd5b506040519080825280602002602001820160405280156106ce578160200160208202803683370190505b50905082816001835103815181106106e257fe5b60209081029190910101528151600019015b80156107775760008061073085600185038151811061070f57fe5b602002602001015186858151811061072357fe5b60200260200101516110bf565b9150915061075284848151811061074357fe5b602002602001015183836108f5565b84600185038151811061076157fe5b60209081029190910101525050600019016106f4565b5092915050565b600080826001600160a01b0316846001600160a01b031614156107d25760405162461bcd60e51b81526004018080602001828103825260258152602001806136856025913960400191505060405180910390fd5b826001600160a01b0316846001600160a01b0316106107f25782846107f5565b83835b90925090506001600160a01b038216610855576040805162461bcd60e51b815260206004820152601e60248201527f4f70657261537761704c6962726172793a205a45524f5f414444524553530000604482015290519081900360640190fd5b9250929050565b60035490565b60405161087160208201611365565b6020820181038252601f19601f820116604052506040516020018082805190602001908083835b602083106108b75780518252601f199092019160209182019101610898565b6001836020036101000a0380198251168184511680821785525050505050509050019150506040516020818303038152906040528051906020012081565b60008084116109355760405162461bcd60e51b815260040180806020018281038252602c8152602001806136aa602c913960400191505060405180910390fd5b6000831180156109455750600082115b6109805760405162461bcd60e51b81526004018080602001828103825260288152602001806136fb6028913960400191505060405180910390fd5b60006109986103e8610992868861125d565b9061125d565b905060006109ac6103e66109928689611315565b90506109c360018284816109bc57fe5b04906112c6565b9695505050505050565b60008060006109dc858561077e565b9150915030828260405160200180836001600160a01b031660601b8152601401826001600160a01b031660601b8152601401925050506040516020818303038152906040528051906020012060405180602001610a3890611365565b6020820181038252601f19601f820116604052506040516020018082805190602001908083835b60208310610a7e5780518252601f199092019160209182019101610a5f565b6001836020036101000a0380198251168184511680821785525050505050509050019150506040516020818303038152906040528051906020012060405160200180806001600160f81b0319815250600101846001600160a01b031660601b815260140183815260200182815260200193505050506040516020818303038152906040528051906020012060001c9250505092915050565b6001546001600160a01b03163314610b6c576040805162461bcd60e51b815260206004820152601460248201527327b832b930a9bbb0b81d102327a92124a22222a760611b604482015290519081900360640190fd5b600180546001600160a01b0319166001600160a01b03831690811790915560405133907fa04c5533d9faa4e43e1061e405227c4820b0f264d4cd02e5de4247e5bc76e45090600090a350565b6000808411610bf85760405162461bcd60e51b81526004018080602001828103825260258152602001806136d66025913960400191505060405180910390fd5b600083118015610c085750600082115b610c435760405162461bcd60e51b81526004018080602001828103825260288152602001806136fb6028913960400191505060405180910390fd5b82610c4e858461125d565b81610c5557fe5b04949350505050565b6000816001600160a01b0316836001600160a01b03161415610cc7576040805162461bcd60e51b815260206004820152601e60248201527f4f70657261537761703a204944454e544943414c5f4144445245535345530000604482015290519081900360640190fd5b600080836001600160a01b0316856001600160a01b031610610cea578385610ced565b84845b90925090506001600160a01b038216610d4d576040805162461bcd60e51b815260206004820152601760248201527f4f70657261537761703a205a45524f5f41444452455353000000000000000000604482015290519081900360640190fd5b6001600160a01b03828116600090815260026020908152604080832085851684529091529020541615610dc0576040805162461bcd60e51b81526020600482015260166024820152754f70657261537761703a20504149525f45584953545360501b604482015290519081900360640190fd5b606060405180602001610dd290611365565b6020820181038252601f19601f8201166040525090506000838360405160200180836001600160a01b031660601b8152601401826001600160a01b031660601b815260140192505050604051602081830303815290604052805190602001209050808251602084016000f59450846001600160a01b031663485cc95585856040518363ffffffff1660e01b815260040180836001600160a01b03168152602001826001600160a01b0316815260200192505050600060405180830381600087803b158015610e9f57600080fd5b505af1158015610eb3573d6000803e3d6000fd5b505050506001600160a01b0384811660008181526002602081815260408084208987168086529083528185208054978d166001600160a01b031998891681179091559383528185208686528352818520805488168517905560038054600181018255958190527fc2575a0e9e593c00f959f8c92f12db2869c3395a3b0502d05e2516446f71f85b90950180549097168417909655925483519283529082015281517f0d3648bd0f6ba80134a33ba9275ac585d9d315f0ad8355cddefde31afa28d0e9929181900390910190a35050505092915050565b6060600282511015610fe2576040805162461bcd60e51b815260206004820152601e60248201527f4f70657261537761704c6962726172793a20494e56414c49445f504154480000604482015290519081900360640190fd5b815167ffffffffffffffff81118015610ffa57600080fd5b50604051908082528060200260200182016040528015611024578160200160208202803683370190505b509050828160008151811061103557fe5b60200260200101818152505060005b60018351038110156107775760008061107985848151811061106257fe5b602002602001015186856001018151811061072357fe5b9150915061109b84848151811061108c57fe5b60200260200101518383610525565b8484600101815181106110aa57fe5b60209081029190910101525050600101611044565b60008060006110ce858561077e565b5090506110db85856109cd565b506000806110e987876109cd565b6001600160a01b0316630902f1ac6040518163ffffffff1660e01b815260040160606040518083038186803b15801561112157600080fd5b505afa158015611135573d6000803e3d6000fd5b505050506040513d606081101561114b57600080fd5b5080516020909101516dffffffffffffffffffffffffffff91821693501690506001600160a01b0387811690841614611185578082611188565b81815b909890975095505050505050565b60026020908152600092835260408084209091529082529020546001600160a01b031681565b6001546001600160a01b03163314611212576040805162461bcd60e51b815260206004820152601460248201527327b832b930a9bbb0b81d102327a92124a22222a760611b604482015290519081900360640190fd5b600080546001600160a01b0319166001600160a01b0383169081178255604051909133917fd44190acf9d04bdb5d3a1aafff7e6dee8b40b93dfb8c5d3f0eea4b9f4539c3f79190a350565b60008115806112785750508082028282828161127557fe5b04145b6112c0576040805162461bcd60e51b815260206004820152601460248201527364732d6d6174682d6d756c2d6f766572666c6f7760601b604482015290519081900360640190fd5b92915050565b808201828110156112c0576040805162461bcd60e51b815260206004820152601460248201527364732d6d6174682d6164642d6f766572666c6f7760601b604482015290519081900360640190fd5b808203828111156112c0576040805162461bcd60e51b815260206004820152601560248201527464732d6d6174682d7375622d756e646572666c6f7760581b604482015290519081900360640190fd5b612312806113738339019056fe60806040526001600c5534801561001557600080fd5b50604080518082018252600d81527f4f7065726153776170204c50730000000000000000000000000000000000000060209182015281518083018352600181527f31000000000000000000000000000000000000000000000000000000000000009082015281517f8b73c3c69bb8fe3d512ecc4cf759cc79239f7b179b0ffacaa9a75d522b39400f818301527f15f40a41308c3a5458b3e5c94d09647d7ac64d9f9c65135f18513b33a19523e6818401527fc89efdaa54c0f20c7adf612882df0950f5a951637e0307cdcb4c672f298b8bc66060820152601460808201523060a0808301919091528351808303909101815260c09091019092528151910120600355600580546001600160a01b031916331790556121da806101386000396000f3fe608060405234801561001057600080fd5b50600436106101a95760003560e01c80636a627842116100f9578063ba9a7a5611610097578063d21220a711610071578063d21220a714610534578063d505accf1461053c578063dd62ed3e1461058d578063fff6cae9146105bb576101a9565b8063ba9a7a56146104fe578063bc25cf7714610506578063c45a01551461052c576101a9565b80637ecebe00116100d35780637ecebe001461046557806389afcb441461048b57806395d89b41146104ca578063a9059cbb146104d2576101a9565b80636a6278421461041157806370a08231146104375780637464fc3d1461045d576101a9565b806323b872dd116101665780633644e515116101405780633644e515146103cb578063485cc955146103d35780635909c0d5146104015780635a3d549314610409576101a9565b806323b872dd1461036f57806330adf81f146103a5578063313ce567146103ad576101a9565b8063022c0d9f146101ae57806306fdde031461023c5780630902f1ac146102b9578063095ea7b3146102f15780630dfe16811461033157806318160ddd14610355575b600080fd5b61023a600480360360808110156101c457600080fd5b8135916020810135916001600160a01b0360408301351691908101906080810160608201356401000000008111156101fb57600080fd5b82018360208201111561020d57600080fd5b8035906020019184600183028401116401000000008311171561022f57600080fd5b5090925090506105c3565b005b610244610acb565b6040805160208082528351818301528351919283929083019185019080838360005b8381101561027e578181015183820152602001610266565b50505050905090810190601f1680156102ab5780820380516001836020036101000a031916815260200191505b509250505060405180910390f35b6102c1610af4565b604080516001600160701b03948516815292909316602083015263ffffffff168183015290519081900360600190f35b61031d6004803603604081101561030757600080fd5b506001600160a01b038135169060200135610b1e565b604080519115158252519081900360200190f35b610339610b35565b604080516001600160a01b039092168252519081900360200190f35b61035d610b44565b60408051918252519081900360200190f35b61031d6004803603606081101561038557600080fd5b506001600160a01b03813581169160208101359091169060400135610b4a565b61035d610bde565b6103b5610c02565b6040805160ff9092168252519081900360200190f35b61035d610c07565b61023a600480360360408110156103e957600080fd5b506001600160a01b0381358116916020013516610c0d565b61035d610c91565b61035d610c97565b61035d6004803603602081101561042757600080fd5b50356001600160a01b0316610c9d565b61035d6004803603602081101561044d57600080fd5b50356001600160a01b0316610f79565b61035d610f8b565b61035d6004803603602081101561047b57600080fd5b50356001600160a01b0316610f91565b6104b1600480360360208110156104a157600080fd5b50356001600160a01b0316610fa3565b6040805192835260208301919091528051918290030190f35b610244611337565b61031d600480360360408110156104e857600080fd5b506001600160a01b03813516906020013561135f565b61035d61136c565b61023a6004803603602081101561051c57600080fd5b50356001600160a01b0316611372565b6103396114e4565b6103396114f3565b61023a600480360360e081101561055257600080fd5b506001600160a01b03813581169160208101359091169060408101359060608101359060ff6080820135169060a08101359060c00135611502565b61035d600480360360408110156105a357600080fd5b506001600160a01b0381358116916020013516611704565b61023a611721565b600c5460011461060e576040805162461bcd60e51b815260206004820152601160248201527013dc195c9854ddd85c0e881313d0d2d151607a1b604482015290519081900360640190fd5b6000600c55841515806106215750600084115b61065c5760405162461bcd60e51b81526004018080602001828103825260258152602001806121376025913960400191505060405180910390fd5b600080610667610af4565b5091509150816001600160701b03168710801561068c5750806001600160701b031686105b6106c75760405162461bcd60e51b81526004018080602001828103825260218152602001806121846021913960400191505060405180910390fd5b60065460075460009182916001600160a01b039182169190811690891682148015906107055750806001600160a01b0316896001600160a01b031614155b61074e576040805162461bcd60e51b81526020600482015260156024820152744f70657261537761703a20494e56414c49445f544f60581b604482015290519081900360640190fd5b8a1561075f5761075f828a8d611883565b891561077057610770818a8c611883565b861561082257886001600160a01b03166384800812338d8d8c8c6040518663ffffffff1660e01b815260040180866001600160a01b03168152602001858152602001848152602001806020018281038252848482818152602001925080828437600081840152601f19601f8201169050808301925050509650505050505050600060405180830381600087803b15801561080957600080fd5b505af115801561081d573d6000803e3d6000fd5b505050505b604080516370a0823160e01b815230600482015290516001600160a01b038416916370a08231916024808301926020929190829003018186803b15801561086857600080fd5b505afa15801561087c573d6000803e3d6000fd5b505050506040513d602081101561089257600080fd5b5051604080516370a0823160e01b815230600482015290519195506001600160a01b038316916370a0823191602480820192602092909190829003018186803b1580156108de57600080fd5b505afa1580156108f2573d6000803e3d6000fd5b505050506040513d602081101561090857600080fd5b5051925060009150506001600160701b0385168a9003831161092b57600061093a565b89856001600160701b03160383035b9050600089856001600160701b0316038311610957576000610966565b89856001600160701b03160383035b905060008211806109775750600081115b6109b25760405162461bcd60e51b81526004018080602001828103825260248152602001806120eb6024913960400191505060405180910390fd5b60006109d46109c2846002611a1d565b6109ce876103e8611a1d565b90611a80565b905060006109e66109c2846002611a1d565b9050610a0b620f4240610a056001600160701b038b8116908b16611a1d565b90611a1d565b610a158383611a1d565b1015610a57576040805162461bcd60e51b815260206004820152600c60248201526b4f70657261537761703a204b60a01b604482015290519081900360640190fd5b5050610a6584848888611ad0565b60408051838152602081018390528082018d9052606081018c905290516001600160a01b038b169133917fd78ad95fa46c994b6551d0da85fc275fe613ce37657fb8d5e3d130840159d8229181900360800190a350506001600c55505050505050505050565b6040518060400160405280600d81526020016c4f7065726153776170204c507360981b81525081565b6008546001600160701b0380821692600160701b830490911691600160e01b900463ffffffff1690565b6000610b2b338484611c8f565b5060015b92915050565b6006546001600160a01b031681565b60005481565b6001600160a01b038316600090815260026020908152604080832033845290915281205460001914610bc9576001600160a01b0384166000908152600260209081526040808320338452909152902054610ba49083611a80565b6001600160a01b03851660009081526002602090815260408083203384529091529020555b610bd4848484611cf1565b5060019392505050565b7f6e71edae12b1b97f4d1f60370fef10105fa2faae0126114a169c64845d6126c981565b601281565b60035481565b6005546001600160a01b03163314610c63576040805162461bcd60e51b815260206004820152601460248201527327b832b930a9bbb0b81d102327a92124a22222a760611b604482015290519081900360640190fd5b600680546001600160a01b039384166001600160a01b03199182161790915560078054929093169116179055565b60095481565b600a5481565b6000600c54600114610cea576040805162461bcd60e51b815260206004820152601160248201527013dc195c9854ddd85c0e881313d0d2d151607a1b604482015290519081900360640190fd5b6000600c81905580610cfa610af4565b50600654604080516370a0823160e01b815230600482015290519395509193506000926001600160a01b03909116916370a08231916024808301926020929190829003018186803b158015610d4e57600080fd5b505afa158015610d62573d6000803e3d6000fd5b505050506040513d6020811015610d7857600080fd5b5051600754604080516370a0823160e01b815230600482015290519293506000926001600160a01b03909216916370a0823191602480820192602092909190829003018186803b158015610dcb57600080fd5b505afa158015610ddf573d6000803e3d6000fd5b505050506040513d6020811015610df557600080fd5b505190506000610e0e836001600160701b038716611a80565b90506000610e25836001600160701b038716611a80565b90506000610e338787611d9f565b60005490915080610e6a57610e566103e86109ce610e518787611a1d565b611ede565b9850610e6560006103e8611f30565b610ead565b610eaa6001600160701b038916610e818684611a1d565b81610e8857fe5b046001600160701b038916610e9d8685611a1d565b81610ea457fe5b04611fba565b98505b60008911610eec5760405162461bcd60e51b815260040180806020018281038252602881526020018061210f6028913960400191505060405180910390fd5b610ef68a8a611f30565b610f0286868a8a611ad0565b8115610f2c57600854610f28906001600160701b0380821691600160701b900416611a1d565b600b555b6040805185815260208101859052815133927f4c209b5fc8ad50758f13e2e1088ba56a560dff690a1c6fef26394f4c03821c4f928290030190a250506001600c5550949695505050505050565b60016020526000908152604090205481565b600b5481565b60046020526000908152604090205481565b600080600c54600114610ff1576040805162461bcd60e51b815260206004820152601160248201527013dc195c9854ddd85c0e881313d0d2d151607a1b604482015290519081900360640190fd5b6000600c81905580611001610af4565b50600654600754604080516370a0823160e01b815230600482015290519496509294506001600160a01b039182169391169160009184916370a08231916024808301926020929190829003018186803b15801561105d57600080fd5b505afa158015611071573d6000803e3d6000fd5b505050506040513d602081101561108757600080fd5b5051604080516370a0823160e01b815230600482015290519192506000916001600160a01b038516916370a08231916024808301926020929190829003018186803b1580156110d557600080fd5b505afa1580156110e9573d6000803e3d6000fd5b505050506040513d60208110156110ff57600080fd5b50513060009081526001602052604081205491925061111e8888611d9f565b6000549091508061112f8487611a1d565b8161113657fe5b049a50806111448486611a1d565b8161114b57fe5b04995060008b11801561115e575060008a115b6111995760405162461bcd60e51b815260040180806020018281038252602881526020018061215c6028913960400191505060405180910390fd5b6111a33084611fd2565b6111ae878d8d611883565b6111b9868d8c611883565b604080516370a0823160e01b815230600482015290516001600160a01b038916916370a08231916024808301926020929190829003018186803b1580156111ff57600080fd5b505afa158015611213573d6000803e3d6000fd5b505050506040513d602081101561122957600080fd5b5051604080516370a0823160e01b815230600482015290519196506001600160a01b038816916370a0823191602480820192602092909190829003018186803b15801561127557600080fd5b505afa158015611289573d6000803e3d6000fd5b505050506040513d602081101561129f57600080fd5b505193506112af85858b8b611ad0565b81156112d9576008546112d5906001600160701b0380821691600160701b900416611a1d565b600b555b604080518c8152602081018c905281516001600160a01b038f169233927fdccd412f0b1252819cb1fd330b93224ca42612892bb3f4f789976e6d81936496929081900390910190a35050505050505050506001600c81905550915091565b6040518060400160405280600c81526020016b04f70657261537761702d4c560a41b81525081565b6000610b2b338484611cf1565b6103e881565b600c546001146113bd576040805162461bcd60e51b815260206004820152601160248201527013dc195c9854ddd85c0e881313d0d2d151607a1b604482015290519081900360640190fd5b6000600c55600654600754600854604080516370a0823160e01b815230600482015290516001600160a01b0394851694909316926114669285928792611461926001600160701b03169185916370a0823191602480820192602092909190829003018186803b15801561142f57600080fd5b505afa158015611443573d6000803e3d6000fd5b505050506040513d602081101561145957600080fd5b505190611a80565b611883565b6114da81846114616008600e9054906101000a90046001600160701b03166001600160701b0316856001600160a01b03166370a08231306040518263ffffffff1660e01b815260040180826001600160a01b0316815260200191505060206040518083038186803b15801561142f57600080fd5b50506001600c5550565b6005546001600160a01b031681565b6007546001600160a01b031681565b4284101561154c576040805162461bcd60e51b815260206004820152601260248201527113dc195c9854ddd85c0e881156141254915160721b604482015290519081900360640190fd5b6003546001600160a01b0380891660008181526004602090815260408083208054600180820190925582517f6e71edae12b1b97f4d1f60370fef10105fa2faae0126114a169c64845d6126c98186015280840196909652958d166060860152608085018c905260a085019590955260c08085018b90528151808603909101815260e08501825280519083012061190160f01b6101008601526101028501969096526101228085019690965280518085039096018652610142840180825286519683019690962095839052610162840180825286905260ff89166101828501526101a284018890526101c28401879052519193926101e280820193601f1981019281900390910190855afa158015611667573d6000803e3d6000fd5b5050604051601f1901519150506001600160a01b0381161580159061169d5750886001600160a01b0316816001600160a01b0316145b6116ee576040805162461bcd60e51b815260206004820152601c60248201527f4f70657261537761703a20494e56414c49445f5349474e415455524500000000604482015290519081900360640190fd5b6116f9898989611c8f565b505050505050505050565b600260209081526000928352604080842090915290825290205481565b600c5460011461176c576040805162461bcd60e51b815260206004820152601160248201527013dc195c9854ddd85c0e881313d0d2d151607a1b604482015290519081900360640190fd5b6000600c55600654604080516370a0823160e01b8152306004820152905161187c926001600160a01b0316916370a08231916024808301926020929190829003018186803b1580156117bd57600080fd5b505afa1580156117d1573d6000803e3d6000fd5b505050506040513d60208110156117e757600080fd5b5051600754604080516370a0823160e01b815230600482015290516001600160a01b03909216916370a0823191602480820192602092909190829003018186803b15801561183457600080fd5b505afa158015611848573d6000803e3d6000fd5b505050506040513d602081101561185e57600080fd5b50516008546001600160701b0380821691600160701b900416611ad0565b6001600c55565b604080518082018252601981527f7472616e7366657228616464726573732c75696e74323536290000000000000060209182015281516001600160a01b0385811660248301526044808301869052845180840390910181526064909201845291810180516001600160e01b031663a9059cbb60e01b1781529251815160009460609489169392918291908083835b602083106119305780518252601f199092019160209182019101611911565b6001836020036101000a0380198251168184511680821785525050505050509050019150506000604051808303816000865af19150503d8060008114611992576040519150601f19603f3d011682016040523d82523d6000602084013e611997565b606091505b50915091508180156119c55750805115806119c557508080602001905160208110156119c257600080fd5b50515b611a16576040805162461bcd60e51b815260206004820152601a60248201527f4f70657261537761703a205452414e534645525f4641494c4544000000000000604482015290519081900360640190fd5b5050505050565b6000811580611a3857505080820282828281611a3557fe5b04145b610b2f576040805162461bcd60e51b815260206004820152601460248201527364732d6d6174682d6d756c2d6f766572666c6f7760601b604482015290519081900360640190fd5b80820382811115610b2f576040805162461bcd60e51b815260206004820152601560248201527464732d6d6174682d7375622d756e646572666c6f7760581b604482015290519081900360640190fd5b6001600160701b038411801590611aee57506001600160701b038311155b611b35576040805162461bcd60e51b81526020600482015260136024820152724f70657261537761703a204f564552464c4f5760681b604482015290519081900360640190fd5b60085463ffffffff42811691600160e01b90048116820390811615801590611b6557506001600160701b03841615155b8015611b7957506001600160701b03831615155b15611be4578063ffffffff16611ba185611b9286612064565b6001600160e01b031690612076565b600980546001600160e01b03929092169290920201905563ffffffff8116611bcc84611b9287612064565b600a80546001600160e01b0392909216929092020190555b600880546dffffffffffffffffffffffffffff19166001600160701b03888116919091176dffffffffffffffffffffffffffff60701b1916600160701b8883168102919091176001600160e01b0316600160e01b63ffffffff871602179283905560408051848416815291909304909116602082015281517f1c411e9a96e071241c2f21f7726b17ae89e3cab4c78be50e062b03a9fffbbad1929181900390910190a1505050505050565b6001600160a01b03808416600081815260026020908152604080832094871680845294825291829020859055815185815291517f8c5be1e5ebec7d5bd14f71427d1e84f3dd0314c0f7b2291e5b200ac8c7c3b9259281900390910190a3505050565b6001600160a01b038316600090815260016020526040902054611d149082611a80565b6001600160a01b038085166000908152600160205260408082209390935590841681522054611d43908261209b565b6001600160a01b0380841660008181526001602090815260409182902094909455805185815290519193928716927fddf252ad1be2c89b69c2b068fc378daa952ba7f163c4a11628f55a4df523b3ef92918290030190a3505050565b600080600560009054906101000a90046001600160a01b03166001600160a01b031663017e7e586040518163ffffffff1660e01b815260040160206040518083038186803b158015611df057600080fd5b505afa158015611e04573d6000803e3d6000fd5b505050506040513d6020811015611e1a57600080fd5b5051600b546001600160a01b038216158015945091925090611eca578015611ec5576000611e57610e516001600160701b03888116908816611a1d565b90506000611e6483611ede565b905080821115611ec2576000611e86611e7d8484611a80565b60005490611a1d565b90506000611e9e83611e988684611a1d565b9061209b565b90506000818381611eab57fe5b0490508015611ebe57611ebe8782611f30565b5050505b50505b611ed6565b8015611ed6576000600b555b505092915050565b60006003821115611f21575080600160028204015b81811015611f1b57809150600281828581611f0a57fe5b040181611f1357fe5b049050611ef3565b50611f2b565b8115611f2b575060015b919050565b600054611f3d908261209b565b60009081556001600160a01b038316815260016020526040902054611f62908261209b565b6001600160a01b03831660008181526001602090815260408083209490945583518581529351929391927fddf252ad1be2c89b69c2b068fc378daa952ba7f163c4a11628f55a4df523b3ef9281900390910190a35050565b6000818310611fc95781611fcb565b825b9392505050565b6001600160a01b038216600090815260016020526040902054611ff59082611a80565b6001600160a01b0383166000908152600160205260408120919091555461201c9082611a80565b60009081556040805183815290516001600160a01b038516917fddf252ad1be2c89b69c2b068fc378daa952ba7f163c4a11628f55a4df523b3ef919081900360200190a35050565b6001600160701b0316600160701b0290565b60006001600160701b0382166001600160e01b0384168161209357fe5b049392505050565b80820182811015610b2f576040805162461bcd60e51b815260206004820152601460248201527364732d6d6174682d6164642d6f766572666c6f7760601b604482015290519081900360640190fdfe4f70657261537761703a20494e53554646494349454e545f494e5055545f414d4f554e544f70657261537761703a20494e53554646494349454e545f4c49515549444954595f4d494e5445444f70657261537761703a20494e53554646494349454e545f4f55545055545f414d4f554e544f70657261537761703a20494e53554646494349454e545f4c49515549444954595f4255524e45444f70657261537761703a20494e53554646494349454e545f4c4951554944495459a26469706673582212203bbd719671dc5560fe2f1a4272e57fd137ce013dd9273eb444e57bc5faf86dd564736f6c634300060c00334f70657261537761704c6962726172793a204944454e544943414c5f4144445245535345534f70657261537761704c6962726172793a20494e53554646494349454e545f4f55545055545f414d4f554e544f70657261537761704c6962726172793a20494e53554646494349454e545f414d4f554e544f70657261537761704c6962726172793a20494e53554646494349454e545f4c49515549444954594f70657261537761704c6962726172793a20494e53554646494349454e545f494e5055545f414d4f554e54a264697066735822122084470a858a0dcf92f771b9551154b5ec026a5039c22df233c29b811fd3dff0cc64736f6c634300060c0033",
  "immutableReferences": {},
  "source": "// SPDX-License-Identifier: UNLICENSED\r\npragma solidity =0.6.12;\r\n\r\nimport './interfaces/IOperaSwapFactory.sol';\r\nimport './OperaSwapPair.sol';\r\n\r\ncontract OperaSwapFactory is IOperaSwapFactory {\r\n    using SafeMath for uint;\r\n\r\n    bytes32 public constant INIT_CODE_PAIR_HASH = keccak256(abi.encodePacked(type(OperaSwapPair).creationCode));\r\n\r\n    address public override feeTo;\r\n    address public override feeToSetter;\r\n\r\n    mapping(address => mapping(address => address)) public override getPair;\r\n    address[] public override allPairs;\r\n\r\n    event PairCreated(address indexed token0, address indexed token1, address pair, uint);\r\n    event SetAdminAddress(address indexed caller, address indexed newAddress);\r\n    event SetFeeAddress(address indexed caller, address indexed newAddress);\r\n\r\n    constructor(address _feeToSetter) public {\r\n        feeToSetter = _feeToSetter;\r\n    }\r\n\r\n    function allPairsLength() external view override returns (uint) {\r\n        return allPairs.length;\r\n    }\r\n\r\n    function createPair(address tokenA, address tokenB) external override returns (address pair) {\r\n        require(tokenA != tokenB, 'OperaSwap: IDENTICAL_ADDRESSES');\r\n        (address token0, address token1) = tokenA < tokenB ? (tokenA, tokenB) : (tokenB, tokenA);\r\n        require(token0 != address(0), 'OperaSwap: ZERO_ADDRESS');\r\n        require(getPair[token0][token1] == address(0), 'OperaSwap: PAIR_EXISTS'); // single check is sufficient\r\n        bytes memory bytecode = type(OperaSwapPair).creationCode;\r\n        bytes32 salt = keccak256(abi.encodePacked(token0, token1));\r\n        assembly {\r\n            pair := create2(0, add(bytecode, 32), mload(bytecode), salt)\r\n        }\r\n        IOperaSwapPair(pair).initialize(token0, token1);\r\n        getPair[token0][token1] = pair;\r\n        getPair[token1][token0] = pair; // populate mapping in the reverse direction\r\n        allPairs.push(pair);\r\n        emit PairCreated(token0, token1, pair, allPairs.length);\r\n    }\r\n\r\n    function setFeeTo(address _feeTo) external override {\r\n        require(msg.sender == feeToSetter, 'OperaSwap: FORBIDDEN');\r\n        feeTo = _feeTo;\r\n        emit SetFeeAddress(msg.sender, _feeTo);\r\n    }\r\n\r\n    function setFeeToSetter(address _feeToSetter) external override {\r\n        require(msg.sender == feeToSetter, 'OperaSwap: FORBIDDEN');\r\n        feeToSetter = _feeToSetter;\r\n        emit SetAdminAddress(msg.sender, _feeToSetter);\r\n    }\r\n\r\n    // returns sorted token addresses, used to handle return values from pairs sorted in this order\r\n    function sortTokens(address tokenA, address tokenB) public pure override returns (address token0, address token1) {\r\n        require(tokenA != tokenB, 'OperaSwapLibrary: IDENTICAL_ADDRESSES');\r\n        (token0, token1) = tokenA < tokenB ? (tokenA, tokenB) : (tokenB, tokenA);\r\n        require(token0 != address(0), 'OperaSwapLibrary: ZERO_ADDRESS');\r\n    }\r\n\r\n    // calculates the CREATE2 address for a pair without making any external calls\r\n    function pairFor(address tokenA, address tokenB) public view override returns (address pair) {\r\n        (address token0, address token1) = sortTokens(tokenA, tokenB);\r\n        pair = address(uint(keccak256(abi.encodePacked(\r\n                hex'ff',\r\n                address(this),\r\n                keccak256(abi.encodePacked(token0, token1)),\r\n                INIT_CODE_PAIR_HASH // init code hash\r\n            ))));\r\n    }\r\n\r\n    // fetches and sorts the reserves for a pair\r\n    function getReserves(address tokenA, address tokenB) public view override returns (uint reserveA, uint reserveB) {\r\n        (address token0,) = sortTokens(tokenA, tokenB);\r\n        pairFor(tokenA, tokenB);\r\n        (uint reserve0, uint reserve1,) = IOperaSwapPair(pairFor(tokenA, tokenB)).getReserves();\r\n        (reserveA, reserveB) = tokenA == token0 ? (reserve0, reserve1) : (reserve1, reserve0);\r\n    }\r\n\r\n    // given some amount of an asset and pair reserves, returns an equivalent amount of the other asset\r\n    function quote(uint amountA, uint reserveA, uint reserveB) public pure override returns (uint amountB) {\r\n        require(amountA > 0, 'OperaSwapLibrary: INSUFFICIENT_AMOUNT');\r\n        require(reserveA > 0 && reserveB > 0, 'OperaSwapLibrary: INSUFFICIENT_LIQUIDITY');\r\n        amountB = amountA.mul(reserveB) / reserveA;\r\n    }\r\n\r\n    // given an input amount of an asset and pair reserves, returns the maximum output amount of the other asset\r\n    function getAmountOut(uint amountIn, uint reserveIn, uint reserveOut) public view override returns (uint amountOut) {\r\n        require(amountIn > 0, 'OperaSwapLibrary: INSUFFICIENT_INPUT_AMOUNT');\r\n        require(reserveIn > 0 && reserveOut > 0, 'OperaSwapLibrary: INSUFFICIENT_LIQUIDITY');\r\n        uint amountInWithFee = amountIn.mul(998);\r\n        uint numerator = amountInWithFee.mul(reserveOut);\r\n        uint denominator = reserveIn.mul(1000).add(amountInWithFee);\r\n        amountOut = numerator / denominator;\r\n    }\r\n\r\n    // given an output amount of an asset and pair reserves, returns a required input amount of the other asset\r\n    function getAmountIn(uint amountOut, uint reserveIn, uint reserveOut) public view override returns (uint amountIn) {\r\n        require(amountOut > 0, 'OperaSwapLibrary: INSUFFICIENT_OUTPUT_AMOUNT');\r\n        require(reserveIn > 0 && reserveOut > 0, 'OperaSwapLibrary: INSUFFICIENT_LIQUIDITY');\r\n        uint numerator = reserveIn.mul(amountOut).mul(1000);\r\n        uint denominator = reserveOut.sub(amountOut).mul(998);\r\n        amountIn = (numerator / denominator).add(1);\r\n    }\r\n\r\n    // performs chained getAmountOut calculations on any number of pairs\r\n    function getAmountsOut(uint amountIn, address[] memory path) public view override returns (uint[] memory amounts) {\r\n        require(path.length >= 2, 'OperaSwapLibrary: INVALID_PATH');\r\n        amounts = new uint[](path.length);\r\n        amounts[0] = amountIn;\r\n        for (uint i; i < path.length - 1; i++) {\r\n            (uint reserveIn, uint reserveOut) = getReserves(path[i], path[i + 1]);\r\n            amounts[i + 1] = getAmountOut(amounts[i], reserveIn, reserveOut);\r\n        }\r\n    }\r\n\r\n    // performs chained getAmountIn calculations on any number of pairs\r\n    function getAmountsIn(uint amountOut, address[] memory path) public view override returns (uint[] memory amounts) {\r\n        require(path.length >= 2, 'OperaSwapLibrary: INVALID_PATH');\r\n        amounts = new uint[](path.length);\r\n        amounts[amounts.length - 1] = amountOut;\r\n        for (uint i = path.length - 1; i > 0; i--) {\r\n            (uint reserveIn, uint reserveOut) = getReserves(path[i - 1], path[i]);\r\n            amounts[i - 1] = getAmountIn(amounts[i], reserveIn, reserveOut);\r\n        }\r\n    }\r\n}",
  "sourcePath": "D:/Posao - Stefan/Stefan - razno/Blockchain/ElavateFinance/auto-swap/contracts/OperaSwapFactory.sol",
  "compiler": {
    "name": "solc",
    "version": "0.6.12+commit.27d51765.Emscripten.clang"
  },
  "schemaVersion": "3.4.1",
  "updatedAt": "2021-08-05T18:13:00.033Z",
  "networkType": "ethereum",
  "devdoc": {
    "kind": "dev",
    "methods": {},
    "version": 1
  },
  "userdoc": {
    "kind": "user",
    "methods": {},
    "version": 1
  }
}