{
  "contractName": "OperaSwapFactory",
  "abi": [
    {
      "inputs": [
        {
          "internalType": "address",
          "name": "_feeToSetter",
          "type": "address"
        }
      ],
      "stateMutability": "nonpayable",
      "type": "constructor"
    },
    {
      "anonymous": false,
      "inputs": [
        {
          "indexed": true,
          "internalType": "address",
          "name": "token0",
          "type": "address"
        },
        {
          "indexed": true,
          "internalType": "address",
          "name": "token1",
          "type": "address"
        },
        {
          "indexed": false,
          "internalType": "address",
          "name": "pair",
          "type": "address"
        },
        {
          "indexed": false,
          "internalType": "uint256",
          "name": "",
          "type": "uint256"
        }
      ],
      "name": "PairCreated",
      "type": "event"
    },
    {
      "anonymous": false,
      "inputs": [
        {
          "indexed": true,
          "internalType": "address",
          "name": "caller",
          "type": "address"
        },
        {
          "indexed": true,
          "internalType": "address",
          "name": "newAddress",
          "type": "address"
        }
      ],
      "name": "SetAdminAddress",
      "type": "event"
    },
    {
      "anonymous": false,
      "inputs": [
        {
          "indexed": true,
          "internalType": "address",
          "name": "caller",
          "type": "address"
        },
        {
          "indexed": true,
          "internalType": "address",
          "name": "newAddress",
          "type": "address"
        }
      ],
      "name": "SetFeeAddress",
      "type": "event"
    },
    {
      "inputs": [
        {
          "internalType": "uint256",
          "name": "",
          "type": "uint256"
        }
      ],
      "name": "allPairs",
      "outputs": [
        {
          "internalType": "address",
          "name": "",
          "type": "address"
        }
      ],
      "stateMutability": "view",
      "type": "function"
    },
    {
      "inputs": [],
      "name": "feeTo",
      "outputs": [
        {
          "internalType": "address",
          "name": "",
          "type": "address"
        }
      ],
      "stateMutability": "view",
      "type": "function"
    },
    {
      "inputs": [],
      "name": "feeToRateDivArg",
      "outputs": [
        {
          "internalType": "uint256",
          "name": "",
          "type": "uint256"
        }
      ],
      "stateMutability": "view",
      "type": "function"
    },
    {
      "inputs": [],
      "name": "feeToRateMulArg",
      "outputs": [
        {
          "internalType": "uint256",
          "name": "",
          "type": "uint256"
        }
      ],
      "stateMutability": "view",
      "type": "function"
    },
    {
      "inputs": [],
      "name": "feeToSetter",
      "outputs": [
        {
          "internalType": "address",
          "name": "",
          "type": "address"
        }
      ],
      "stateMutability": "view",
      "type": "function"
    },
    {
      "inputs": [
        {
          "internalType": "address",
          "name": "",
          "type": "address"
        },
        {
          "internalType": "address",
          "name": "",
          "type": "address"
        }
      ],
      "name": "getPair",
      "outputs": [
        {
          "internalType": "address",
          "name": "",
          "type": "address"
        }
      ],
      "stateMutability": "view",
      "type": "function"
    },
    {
      "inputs": [],
      "name": "initCodeHash",
      "outputs": [
        {
          "internalType": "bytes32",
          "name": "",
          "type": "bytes32"
        }
      ],
      "stateMutability": "view",
      "type": "function"
    },
    {
      "inputs": [],
      "name": "allPairsLength",
      "outputs": [
        {
          "internalType": "uint256",
          "name": "",
          "type": "uint256"
        }
      ],
      "stateMutability": "view",
      "type": "function"
    },
    {
      "inputs": [
        {
          "internalType": "address",
          "name": "tokenA",
          "type": "address"
        },
        {
          "internalType": "address",
          "name": "tokenB",
          "type": "address"
        }
      ],
      "name": "createPair",
      "outputs": [
        {
          "internalType": "address",
          "name": "pair",
          "type": "address"
        }
      ],
      "stateMutability": "nonpayable",
      "type": "function"
    },
    {
      "inputs": [
        {
          "internalType": "address",
          "name": "_feeTo",
          "type": "address"
        }
      ],
      "name": "setFeeTo",
      "outputs": [],
      "stateMutability": "nonpayable",
      "type": "function"
    },
    {
      "inputs": [
        {
          "internalType": "address",
          "name": "_feeToSetter",
          "type": "address"
        }
      ],
      "name": "setFeeToSetter",
      "outputs": [],
      "stateMutability": "nonpayable",
      "type": "function"
    },
    {
      "inputs": [
        {
          "internalType": "uint256",
          "name": "_rateDivArg",
          "type": "uint256"
        },
        {
          "internalType": "uint256",
          "name": "_rateMulArg",
          "type": "uint256"
        }
      ],
      "name": "setFeeToRate",
      "outputs": [],
      "stateMutability": "nonpayable",
      "type": "function"
    },
    {
      "inputs": [
        {
          "internalType": "address",
          "name": "tokenA",
          "type": "address"
        },
        {
          "internalType": "address",
          "name": "tokenB",
          "type": "address"
        }
      ],
      "name": "sortTokens",
      "outputs": [
        {
          "internalType": "address",
          "name": "token0",
          "type": "address"
        },
        {
          "internalType": "address",
          "name": "token1",
          "type": "address"
        }
      ],
      "stateMutability": "pure",
      "type": "function"
    },
    {
      "inputs": [
        {
          "internalType": "address",
          "name": "tokenA",
          "type": "address"
        },
        {
          "internalType": "address",
          "name": "tokenB",
          "type": "address"
        }
      ],
      "name": "pairFor",
      "outputs": [
        {
          "internalType": "address",
          "name": "pair",
          "type": "address"
        }
      ],
      "stateMutability": "view",
      "type": "function"
    },
    {
      "inputs": [
        {
          "internalType": "address",
          "name": "tokenA",
          "type": "address"
        },
        {
          "internalType": "address",
          "name": "tokenB",
          "type": "address"
        }
      ],
      "name": "getReserves",
      "outputs": [
        {
          "internalType": "uint256",
          "name": "reserveA",
          "type": "uint256"
        },
        {
          "internalType": "uint256",
          "name": "reserveB",
          "type": "uint256"
        }
      ],
      "stateMutability": "view",
      "type": "function"
    },
    {
      "inputs": [
        {
          "internalType": "uint256",
          "name": "amountA",
          "type": "uint256"
        },
        {
          "internalType": "uint256",
          "name": "reserveA",
          "type": "uint256"
        },
        {
          "internalType": "uint256",
          "name": "reserveB",
          "type": "uint256"
        }
      ],
      "name": "quote",
      "outputs": [
        {
          "internalType": "uint256",
          "name": "amountB",
          "type": "uint256"
        }
      ],
      "stateMutability": "pure",
      "type": "function"
    },
    {
      "inputs": [
        {
          "internalType": "uint256",
          "name": "amountIn",
          "type": "uint256"
        },
        {
          "internalType": "uint256",
          "name": "reserveIn",
          "type": "uint256"
        },
        {
          "internalType": "uint256",
          "name": "reserveOut",
          "type": "uint256"
        }
      ],
      "name": "getAmountOut",
      "outputs": [
        {
          "internalType": "uint256",
          "name": "amountOut",
          "type": "uint256"
        }
      ],
      "stateMutability": "view",
      "type": "function"
    },
    {
      "inputs": [
        {
          "internalType": "uint256",
          "name": "amountOut",
          "type": "uint256"
        },
        {
          "internalType": "uint256",
          "name": "reserveIn",
          "type": "uint256"
        },
        {
          "internalType": "uint256",
          "name": "reserveOut",
          "type": "uint256"
        }
      ],
      "name": "getAmountIn",
      "outputs": [
        {
          "internalType": "uint256",
          "name": "amountIn",
          "type": "uint256"
        }
      ],
      "stateMutability": "view",
      "type": "function"
    },
    {
      "inputs": [
        {
          "internalType": "uint256",
          "name": "amountIn",
          "type": "uint256"
        },
        {
          "internalType": "address[]",
          "name": "path",
          "type": "address[]"
        }
      ],
      "name": "getAmountsOut",
      "outputs": [
        {
          "internalType": "uint256[]",
          "name": "amounts",
          "type": "uint256[]"
        }
      ],
      "stateMutability": "view",
      "type": "function"
    },
    {
      "inputs": [
        {
          "internalType": "uint256",
          "name": "amountOut",
          "type": "uint256"
        },
        {
          "internalType": "address[]",
          "name": "path",
          "type": "address[]"
        }
      ],
      "name": "getAmountsIn",
      "outputs": [
        {
          "internalType": "uint256[]",
          "name": "amounts",
          "type": "uint256[]"
        }
      ],
      "stateMutability": "view",
      "type": "function"
    }
  ],
  "bytecode": "0x60806040523480156200001157600080fd5b506040516200992338038062009923833981810160405260208110156200003757600080fd5b810190808051906020019092919050505080600160006101000a81548173ffffffffffffffffffffffffffffffffffffffff021916908373ffffffffffffffffffffffffffffffffffffffff160217905550604051806020016200009b906200012f565b6020820181038252601f19601f820116604052506040516020018082805190602001908083835b60208310620000e75780518252602082019150602081019050602083039250620000c2565b6001836020036101000a03801982511681845116808217855250505050505090500191505060405160208183030381529060405280519060200120600481905550506200013d565b613b3b8062005de883390190565b615c9b806200014d6000396000f3fe608060405234801561001057600080fd5b506004361061016c5760003560e01c806396ed28f9116100cd578063d52bb6f411610081578063e6a4390511610066578063e6a439051461087d578063f46901ed1461090b578063f63f5db41461094f5761016c565b8063d52bb6f4146107e0578063db4c545e1461085f5761016c565b8063ad615dec116100b2578063ad615dec146105e5578063c9c653961461063b578063d06ca61f146106c95761016c565b806396ed28f914610513578063a2e74af6146105a15761016c565b80631f00ca7411610124578063574f2ba311610109578063574f2ba31461046757806370bdd6a11461048557806385f8c259146104bd5761016c565b80631f00ca74146102a5578063544caa56146103bc5761016c565b8063054d50d411610155578063054d50d4146101c3578063094b7415146102195780631e3dd18b1461024d5761016c565b8063017e7e581461017157806303a27ef0146101a5575b600080fd5b61017961096d565b604051808273ffffffffffffffffffffffffffffffffffffffff16815260200191505060405180910390f35b6101ad610991565b6040518082815260200191505060405180910390f35b610203600480360360608110156101d957600080fd5b81019080803590602001909291908035906020019092919080359060200190929190505050610997565b6040518082815260200191505060405180910390f35b610221610ac7565b604051808273ffffffffffffffffffffffffffffffffffffffff16815260200191505060405180910390f35b6102796004803603602081101561026357600080fd5b8101908080359060200190929190505050610aed565b604051808273ffffffffffffffffffffffffffffffffffffffff16815260200191505060405180910390f35b610365600480360360408110156102bb57600080fd5b8101908080359060200190929190803590602001906401000000008111156102e257600080fd5b8201836020820111156102f457600080fd5b8035906020019184602083028401116401000000008311171561031657600080fd5b919080806020026020016040519081016040528093929190818152602001838360200280828437600081840152601f19601f820116905080830192505050505050509192919290505050610b29565b6040518080602001828103825283818151815260200191508051906020019060200280838360005b838110156103a857808201518184015260208101905061038d565b505050509050019250505060405180910390f35b61041e600480360360408110156103d257600080fd5b81019080803573ffffffffffffffffffffffffffffffffffffffff169060200190929190803573ffffffffffffffffffffffffffffffffffffffff169060200190929190505050610ca7565b604051808373ffffffffffffffffffffffffffffffffffffffff1681526020018273ffffffffffffffffffffffffffffffffffffffff1681526020019250505060405180910390f35b61046f610e1e565b6040518082815260200191505060405180910390f35b6104bb6004803603604081101561049b57600080fd5b810190808035906020019092919080359060200190929190505050610e2b565b005b6104fd600480360360608110156104d357600080fd5b81019080803590602001909291908035906020019092919080359060200190929190505050610f59565b6040518082815260200191505060405180910390f35b6105756004803603604081101561052957600080fd5b81019080803573ffffffffffffffffffffffffffffffffffffffff169060200190929190803573ffffffffffffffffffffffffffffffffffffffff169060200190929190505050611096565b604051808273ffffffffffffffffffffffffffffffffffffffff16815260200191505060405180910390f35b6105e3600480360360208110156105b757600080fd5b81019080803573ffffffffffffffffffffffffffffffffffffffff169060200190929190505050611190565b005b610625600480360360608110156105fb57600080fd5b810190808035906020019092919080359060200190929190803590602001909291905050506112f1565b6040518082815260200191505060405180910390f35b61069d6004803603604081101561065157600080fd5b81019080803573ffffffffffffffffffffffffffffffffffffffff169060200190929190803573ffffffffffffffffffffffffffffffffffffffff1690602001909291905050506113d5565b604051808273ffffffffffffffffffffffffffffffffffffffff16815260200191505060405180910390f35b610789600480360360408110156106df57600080fd5b81019080803590602001909291908035906020019064010000000081111561070657600080fd5b82018360208201111561071857600080fd5b8035906020019184602083028401116401000000008311171561073a57600080fd5b919080806020026020016040519081016040528093929190818152602001838360200280828437600081840152601f19601f820116905080830192505050505050509192919290505050611a41565b6040518080602001828103825283818151815260200191508051906020019060200280838360005b838110156107cc5780820151818401526020810190506107b1565b505050509050019250505060405180910390f35b610842600480360360408110156107f657600080fd5b81019080803573ffffffffffffffffffffffffffffffffffffffff169060200190929190803573ffffffffffffffffffffffffffffffffffffffff169060200190929190505050611bb7565b604051808381526020018281526020019250505060405180910390f35b610867611ce9565b6040518082815260200191505060405180910390f35b6108df6004803603604081101561089357600080fd5b81019080803573ffffffffffffffffffffffffffffffffffffffff169060200190929190803573ffffffffffffffffffffffffffffffffffffffff169060200190929190505050611cef565b604051808273ffffffffffffffffffffffffffffffffffffffff16815260200191505060405180910390f35b61094d6004803603602081101561092157600080fd5b81019080803573ffffffffffffffffffffffffffffffffffffffff169060200190929190505050611d31565b005b610957611e91565b6040518082815260200191505060405180910390f35b60008054906101000a900473ffffffffffffffffffffffffffffffffffffffff1681565b60025481565b60008084116109f1576040517f08c379a000000000000000000000000000000000000000000000000000000000815260040180806020018281038252602b815260200180615c3b602b913960400191505060405180910390fd5b600083118015610a015750600082115b610a56576040517f08c379a0000000000000000000000000000000000000000000000000000000008152600401808060200182810382526028815260200180615bcc6028913960400191505060405180910390fd5b6000610a6d6103e586611e9790919063ffffffff16565b90506000610a848483611e9790919063ffffffff16565b90506000610aaf83610aa16103e889611e9790919063ffffffff16565b611f2c90919063ffffffff16565b9050808281610aba57fe5b0493505050509392505050565b600160009054906101000a900473ffffffffffffffffffffffffffffffffffffffff1681565b60068181548110610afa57fe5b906000526020600020016000915054906101000a900473ffffffffffffffffffffffffffffffffffffffff1681565b6060600282511015610ba3576040517f08c379a000000000000000000000000000000000000000000000000000000000815260040180806020018281038252601e8152602001807f4f70657261537761704c6962726172793a20494e56414c49445f50415448000081525060200191505060405180910390fd5b815167ffffffffffffffff81118015610bbb57600080fd5b50604051908082528060200260200182016040528015610bea5781602001602082028036833780820191505090505b5090508281600183510381518110610bfe57fe5b6020026020010181815250506000600183510390505b6000811115610ca057600080610c53856001850381518110610c3257fe5b6020026020010151868581518110610c4657fe5b6020026020010151611bb7565b91509150610c75848481518110610c6657fe5b60200260200101518383610f59565b846001850381518110610c8457fe5b6020026020010181815250505050808060019003915050610c14565b5092915050565b6000808273ffffffffffffffffffffffffffffffffffffffff168473ffffffffffffffffffffffffffffffffffffffff161415610d2f576040517f08c379a0000000000000000000000000000000000000000000000000000000008152600401808060200182810382526024815260200180615bf46024913960400191505060405180910390fd5b8273ffffffffffffffffffffffffffffffffffffffff168473ffffffffffffffffffffffffffffffffffffffff1610610d69578284610d6c565b83835b8092508193505050600073ffffffffffffffffffffffffffffffffffffffff168273ffffffffffffffffffffffffffffffffffffffff161415610e17576040517f08c379a000000000000000000000000000000000000000000000000000000000815260040180806020018281038252601d8152602001807f4d64657853776170466163746f72793a205a45524f5f4144445245535300000081525060200191505060405180910390fd5b9250929050565b6000600680549050905090565b600160009054906101000a900473ffffffffffffffffffffffffffffffffffffffff1673ffffffffffffffffffffffffffffffffffffffff163373ffffffffffffffffffffffffffffffffffffffff1614610eee576040517f08c379a00000000000000000000000000000000000000000000000000000000081526004018080602001828103825260148152602001807f4f70657261537761703a20464f5242494444454e00000000000000000000000081525060200191505060405180910390fd5b60008211610f47576040517f08c379a0000000000000000000000000000000000000000000000000000000008152600401808060200182810382526023815260200180615c186023913960400191505060405180910390fd5b81600281905550806003819055505050565b6000808411610fb3576040517f08c379a000000000000000000000000000000000000000000000000000000000815260040180806020018281038252602c815260200180615b7b602c913960400191505060405180910390fd5b600083118015610fc35750600082115b611018576040517f08c379a0000000000000000000000000000000000000000000000000000000008152600401808060200182810382526028815260200180615bcc6028913960400191505060405180910390fd5b60006110416103e86110338787611e9790919063ffffffff16565b611e9790919063ffffffff16565b9050600061106c6103e561105e8887611faf90919063ffffffff16565b611e9790919063ffffffff16565b905061108b600182848161107c57fe5b04611f2c90919063ffffffff16565b925050509392505050565b60008060006110a58585610ca7565b91509150308282604051602001808373ffffffffffffffffffffffffffffffffffffffff1660601b81526014018273ffffffffffffffffffffffffffffffffffffffff1660601b8152601401925050506040516020818303038152906040528051906020012060045460405160200180807fff000000000000000000000000000000000000000000000000000000000000008152506001018473ffffffffffffffffffffffffffffffffffffffff1660601b815260140183815260200182815260200193505050506040516020818303038152906040528051906020012060001c9250505092915050565b600160009054906101000a900473ffffffffffffffffffffffffffffffffffffffff1673ffffffffffffffffffffffffffffffffffffffff163373ffffffffffffffffffffffffffffffffffffffff1614611253576040517f08c379a00000000000000000000000000000000000000000000000000000000081526004018080602001828103825260148152602001807f4f70657261537761703a20464f5242494444454e00000000000000000000000081525060200191505060405180910390fd5b80600160006101000a81548173ffffffffffffffffffffffffffffffffffffffff021916908373ffffffffffffffffffffffffffffffffffffffff1602179055508073ffffffffffffffffffffffffffffffffffffffff163373ffffffffffffffffffffffffffffffffffffffff167fa04c5533d9faa4e43e1061e405227c4820b0f264d4cd02e5de4247e5bc76e45060405160405180910390a350565b600080841161134b576040517f08c379a0000000000000000000000000000000000000000000000000000000008152600401808060200182810382526025815260200180615ba76025913960400191505060405180910390fd5b60008311801561135b5750600082115b6113b0576040517f08c379a0000000000000000000000000000000000000000000000000000000008152600401808060200182810382526028815260200180615bcc6028913960400191505060405180910390fd5b826113c48386611e9790919063ffffffff16565b816113cb57fe5b0490509392505050565b60008173ffffffffffffffffffffffffffffffffffffffff168373ffffffffffffffffffffffffffffffffffffffff161415611479576040517f08c379a000000000000000000000000000000000000000000000000000000000815260040180806020018281038252601e8152602001807f4f70657261537761703a204944454e544943414c5f414444524553534553000081525060200191505060405180910390fd5b6000808373ffffffffffffffffffffffffffffffffffffffff168573ffffffffffffffffffffffffffffffffffffffff16106114b65783856114b9565b84845b91509150600073ffffffffffffffffffffffffffffffffffffffff168273ffffffffffffffffffffffffffffffffffffffff161415611560576040517f08c379a00000000000000000000000000000000000000000000000000000000081526004018080602001828103825260178152602001807f4f70657261537761703a205a45524f5f4144445245535300000000000000000081525060200191505060405180910390fd5b600073ffffffffffffffffffffffffffffffffffffffff16600560008473ffffffffffffffffffffffffffffffffffffffff1673ffffffffffffffffffffffffffffffffffffffff16815260200190815260200160002060008373ffffffffffffffffffffffffffffffffffffffff1673ffffffffffffffffffffffffffffffffffffffff16815260200190815260200160002060009054906101000a900473ffffffffffffffffffffffffffffffffffffffff1673ffffffffffffffffffffffffffffffffffffffff161461169e576040517f08c379a00000000000000000000000000000000000000000000000000000000081526004018080602001828103825260168152602001807f4f70657261537761703a20504149525f4558495354530000000000000000000081525060200191505060405180910390fd5b6060604051806020016116b090612032565b6020820181038252601f19601f82011660405250905060008383604051602001808373ffffffffffffffffffffffffffffffffffffffff1660601b81526014018273ffffffffffffffffffffffffffffffffffffffff1660601b815260140192505050604051602081830303815290604052805190602001209050808251602084016000f594508473ffffffffffffffffffffffffffffffffffffffff1663485cc95585856040518363ffffffff1660e01b8152600401808373ffffffffffffffffffffffffffffffffffffffff1681526020018273ffffffffffffffffffffffffffffffffffffffff16815260200192505050600060405180830381600087803b1580156117be57600080fd5b505af11580156117d2573d6000803e3d6000fd5b5050505084600560008673ffffffffffffffffffffffffffffffffffffffff1673ffffffffffffffffffffffffffffffffffffffff16815260200190815260200160002060008573ffffffffffffffffffffffffffffffffffffffff1673ffffffffffffffffffffffffffffffffffffffff16815260200190815260200160002060006101000a81548173ffffffffffffffffffffffffffffffffffffffff021916908373ffffffffffffffffffffffffffffffffffffffff16021790555084600560008573ffffffffffffffffffffffffffffffffffffffff1673ffffffffffffffffffffffffffffffffffffffff16815260200190815260200160002060008673ffffffffffffffffffffffffffffffffffffffff1673ffffffffffffffffffffffffffffffffffffffff16815260200190815260200160002060006101000a81548173ffffffffffffffffffffffffffffffffffffffff021916908373ffffffffffffffffffffffffffffffffffffffff1602179055506006859080600181540180825580915050600190039060005260206000200160009091909190916101000a81548173ffffffffffffffffffffffffffffffffffffffff021916908373ffffffffffffffffffffffffffffffffffffffff1602179055508273ffffffffffffffffffffffffffffffffffffffff168473ffffffffffffffffffffffffffffffffffffffff167f0d3648bd0f6ba80134a33ba9275ac585d9d315f0ad8355cddefde31afa28d0e987600680549050604051808373ffffffffffffffffffffffffffffffffffffffff1681526020018281526020019250505060405180910390a35050505092915050565b6060600282511015611abb576040517f08c379a000000000000000000000000000000000000000000000000000000000815260040180806020018281038252601e8152602001807f4f70657261537761704c6962726172793a20494e56414c49445f50415448000081525060200191505060405180910390fd5b815167ffffffffffffffff81118015611ad357600080fd5b50604051908082528060200260200182016040528015611b025781602001602082028036833780820191505090505b5090508281600081518110611b1357fe5b60200260200101818152505060005b6001835103811015611bb057600080611b64858481518110611b4057fe5b6020026020010151866001860181518110611b5757fe5b6020026020010151611bb7565b91509150611b86848481518110611b7757fe5b60200260200101518383610997565b846001850181518110611b9557fe5b60200260200101818152505050508080600101915050611b22565b5092915050565b6000806000611bc68585610ca7565b509050611bd38585611096565b50600080611be18787611096565b73ffffffffffffffffffffffffffffffffffffffff16630902f1ac6040518163ffffffff1660e01b815260040160606040518083038186803b158015611c2657600080fd5b505afa158015611c3a573d6000803e3d6000fd5b505050506040513d6060811015611c5057600080fd5b81019080805190602001909291908051906020019092919080519060200190929190505050506dffffffffffffffffffffffffffff1691506dffffffffffffffffffffffffffff1691508273ffffffffffffffffffffffffffffffffffffffff168773ffffffffffffffffffffffffffffffffffffffff1614611cd4578082611cd7565b81815b80955081965050505050509250929050565b60045481565b60056020528160005260406000206020528060005260406000206000915091509054906101000a900473ffffffffffffffffffffffffffffffffffffffff1681565b600160009054906101000a900473ffffffffffffffffffffffffffffffffffffffff1673ffffffffffffffffffffffffffffffffffffffff163373ffffffffffffffffffffffffffffffffffffffff1614611df4576040517f08c379a00000000000000000000000000000000000000000000000000000000081526004018080602001828103825260148152602001807f4f70657261537761703a20464f5242494444454e00000000000000000000000081525060200191505060405180910390fd5b806000806101000a81548173ffffffffffffffffffffffffffffffffffffffff021916908373ffffffffffffffffffffffffffffffffffffffff1602179055508073ffffffffffffffffffffffffffffffffffffffff163373ffffffffffffffffffffffffffffffffffffffff167fd44190acf9d04bdb5d3a1aafff7e6dee8b40b93dfb8c5d3f0eea4b9f4539c3f760405160405180910390a350565b60035481565b600080821480611eb45750828283850292508281611eb157fe5b04145b611f26576040517f08c379a00000000000000000000000000000000000000000000000000000000081526004018080602001828103825260148152602001807f64732d6d6174682d6d756c2d6f766572666c6f7700000000000000000000000081525060200191505060405180910390fd5b92915050565b6000828284019150811015611fa9576040517f08c379a00000000000000000000000000000000000000000000000000000000081526004018080602001828103825260148152602001807f64732d6d6174682d6164642d6f766572666c6f7700000000000000000000000081525060200191505060405180910390fd5b92915050565b600082828403915081111561202c576040517f08c379a00000000000000000000000000000000000000000000000000000000081526004018080602001828103825260158152602001807f64732d6d6174682d7375622d756e646572666c6f77000000000000000000000081525060200191505060405180910390fd5b92915050565b613b3b806120408339019056fe60806040526001600c5534801561001557600080fd5b506000601490507f8b73c3c69bb8fe3d512ecc4cf759cc79239f7b179b0ffacaa9a75d522b39400f6040518060400160405280600d81526020017f4f7065726153776170204c507300000000000000000000000000000000000000815250805190602001206040518060400160405280600181526020017f3100000000000000000000000000000000000000000000000000000000000000815250805190602001208330604051602001808681526020018581526020018481526020018381526020018273ffffffffffffffffffffffffffffffffffffffff16815260200195505050505050604051602081830303815290604052805190602001206003819055505033600560006101000a81548173ffffffffffffffffffffffffffffffffffffffff021916908373ffffffffffffffffffffffffffffffffffffffff1602179055506139d3806101686000396000f3fe608060405234801561001057600080fd5b50600436106101b95760003560e01c80636a627842116100f9578063ba9a7a5611610097578063d21220a711610071578063d21220a714610879578063d505accf146108ad578063dd62ed3e14610946578063fff6cae9146109be576101b9565b8063ba9a7a56146107e3578063bc25cf7714610801578063c45a015514610845576101b9565b80637ecebe00116100d35780637ecebe001461064557806389afcb441461069d57806395d89b41146106fc578063a9059cbb1461077f576101b9565b80636a6278421461057757806370a08231146105cf5780637464fc3d14610627576101b9565b806323b872dd116101665780633644e515116101405780633644e515146104b9578063485cc955146104d75780635909c0d51461053b5780635a3d549314610559576101b9565b806323b872dd146103f657806330adf81f1461047a578063313ce56714610498576101b9565b8063095ea7b311610197578063095ea7b3146103405780630dfe1681146103a457806318160ddd146103d8576101b9565b8063022c0d9f146101be57806306fdde031461026b5780630902f1ac146102ee575b600080fd5b610269600480360360808110156101d457600080fd5b810190808035906020019092919080359060200190929190803573ffffffffffffffffffffffffffffffffffffffff1690602001909291908035906020019064010000000081111561022557600080fd5b82018360208201111561023757600080fd5b8035906020019184600183028401116401000000008311171561025957600080fd5b90919293919293905050506109c8565b005b610273611173565b6040518080602001828103825283818151815260200191508051906020019080838360005b838110156102b3578082015181840152602081019050610298565b50505050905090810190601f1680156102e05780820380516001836020036101000a031916815260200191505b509250505060405180910390f35b6102f66111ac565b60405180846dffffffffffffffffffffffffffff168152602001836dffffffffffffffffffffffffffff1681526020018263ffffffff168152602001935050505060405180910390f35b61038c6004803603604081101561035657600080fd5b81019080803573ffffffffffffffffffffffffffffffffffffffff16906020019092919080359060200190929190505050611209565b60405180821515815260200191505060405180910390f35b6103ac611220565b604051808273ffffffffffffffffffffffffffffffffffffffff16815260200191505060405180910390f35b6103e0611246565b6040518082815260200191505060405180910390f35b6104626004803603606081101561040c57600080fd5b81019080803573ffffffffffffffffffffffffffffffffffffffff169060200190929190803573ffffffffffffffffffffffffffffffffffffffff1690602001909291908035906020019092919050505061124c565b60405180821515815260200191505060405180910390f35b610482611417565b6040518082815260200191505060405180910390f35b6104a061143e565b604051808260ff16815260200191505060405180910390f35b6104c1611443565b6040518082815260200191505060405180910390f35b610539600480360360408110156104ed57600080fd5b81019080803573ffffffffffffffffffffffffffffffffffffffff169060200190929190803573ffffffffffffffffffffffffffffffffffffffff169060200190929190505050611449565b005b610543611592565b6040518082815260200191505060405180910390f35b610561611598565b6040518082815260200191505060405180910390f35b6105b96004803603602081101561058d57600080fd5b81019080803573ffffffffffffffffffffffffffffffffffffffff16906020019092919050505061159e565b6040518082815260200191505060405180910390f35b610611600480360360208110156105e557600080fd5b81019080803573ffffffffffffffffffffffffffffffffffffffff169060200190929190505050611a23565b6040518082815260200191505060405180910390f35b61062f611a3b565b6040518082815260200191505060405180910390f35b6106876004803603602081101561065b57600080fd5b81019080803573ffffffffffffffffffffffffffffffffffffffff169060200190929190505050611a41565b6040518082815260200191505060405180910390f35b6106df600480360360208110156106b357600080fd5b81019080803573ffffffffffffffffffffffffffffffffffffffff169060200190929190505050611a59565b604051808381526020018281526020019250505060405180910390f35b610704611fee565b6040518080602001828103825283818151815260200191508051906020019080838360005b83811015610744578082015181840152602081019050610729565b50505050905090810190601f1680156107715780820380516001836020036101000a031916815260200191505b509250505060405180910390f35b6107cb6004803603604081101561079557600080fd5b81019080803573ffffffffffffffffffffffffffffffffffffffff16906020019092919080359060200190929190505050612027565b60405180821515815260200191505060405180910390f35b6107eb61203e565b6040518082815260200191505060405180910390f35b6108436004803603602081101561081757600080fd5b81019080803573ffffffffffffffffffffffffffffffffffffffff169060200190929190505050612044565b005b61084d6122f3565b604051808273ffffffffffffffffffffffffffffffffffffffff16815260200191505060405180910390f35b610881612319565b604051808273ffffffffffffffffffffffffffffffffffffffff16815260200191505060405180910390f35b610944600480360360e08110156108c357600080fd5b81019080803573ffffffffffffffffffffffffffffffffffffffff169060200190929190803573ffffffffffffffffffffffffffffffffffffffff1690602001909291908035906020019092919080359060200190929190803560ff169060200190929190803590602001909291908035906020019092919050505061233f565b005b6109a86004803603604081101561095c57600080fd5b81019080803573ffffffffffffffffffffffffffffffffffffffff169060200190929190803573ffffffffffffffffffffffffffffffffffffffff169060200190929190505050612654565b6040518082815260200191505060405180910390f35b6109c6612679565b005b6001600c5414610a40576040517f08c379a00000000000000000000000000000000000000000000000000000000081526004018080602001828103825260118152602001807f4f70657261537761703a204c4f434b454400000000000000000000000000000081525060200191505060405180910390fd5b6000600c819055506000851180610a575750600084115b610aac576040517f08c379a00000000000000000000000000000000000000000000000000000000081526004018080602001828103825260258152602001806139306025913960400191505060405180910390fd5b600080610ab76111ac565b5091509150816dffffffffffffffffffffffffffff1687108015610aea5750806dffffffffffffffffffffffffffff1686105b610b3f576040517f08c379a000000000000000000000000000000000000000000000000000000000815260040180806020018281038252602181526020018061397d6021913960400191505060405180910390fd5b6000806000600660009054906101000a900473ffffffffffffffffffffffffffffffffffffffff1690506000600760009054906101000a900473ffffffffffffffffffffffffffffffffffffffff1690508173ffffffffffffffffffffffffffffffffffffffff168973ffffffffffffffffffffffffffffffffffffffff1614158015610bf857508073ffffffffffffffffffffffffffffffffffffffff168973ffffffffffffffffffffffffffffffffffffffff1614155b610c6a576040517f08c379a00000000000000000000000000000000000000000000000000000000081526004018080602001828103825260158152602001807f4f70657261537761703a20494e56414c49445f544f000000000000000000000081525060200191505060405180910390fd5b60008b1115610c7f57610c7e828a8d6128cd565b5b60008a1115610c9457610c93818a8c6128cd565b5b6000888890501115610d66578873ffffffffffffffffffffffffffffffffffffffff166384800812338d8d8c8c6040518663ffffffff1660e01b8152600401808673ffffffffffffffffffffffffffffffffffffffff168152602001858152602001848152602001806020018281038252848482818152602001925080828437600081840152601f19601f8201169050808301925050509650505050505050600060405180830381600087803b158015610d4d57600080fd5b505af1158015610d61573d6000803e3d6000fd5b505050505b8173ffffffffffffffffffffffffffffffffffffffff166370a08231306040518263ffffffff1660e01b8152600401808273ffffffffffffffffffffffffffffffffffffffff16815260200191505060206040518083038186803b158015610dcd57600080fd5b505afa158015610de1573d6000803e3d6000fd5b505050506040513d6020811015610df757600080fd5b810190808051906020019092919050505093508073ffffffffffffffffffffffffffffffffffffffff166370a08231306040518263ffffffff1660e01b8152600401808273ffffffffffffffffffffffffffffffffffffffff16815260200191505060206040518083038186803b158015610e7157600080fd5b505afa158015610e85573d6000803e3d6000fd5b505050506040513d6020811015610e9b57600080fd5b810190808051906020019092919050505092505050600089856dffffffffffffffffffffffffffff16038311610ed2576000610ee8565b89856dffffffffffffffffffffffffffff160383035b9050600089856dffffffffffffffffffffffffffff16038311610f0c576000610f22565b89856dffffffffffffffffffffffffffff160383035b90506000821180610f335750600081115b610f88576040517f08c379a00000000000000000000000000000000000000000000000000000000081526004018080602001828103825260248152602001806138e46024913960400191505060405180910390fd5b6000610fc4610fa1600385612b0490919063ffffffff16565b610fb66103e888612b0490919063ffffffff16565b612b9990919063ffffffff16565b90506000611002610fdf600385612b0490919063ffffffff16565b610ff46103e888612b0490919063ffffffff16565b612b9990919063ffffffff16565b905061104c620f424061103e896dffffffffffffffffffffffffffff168b6dffffffffffffffffffffffffffff16612b0490919063ffffffff16565b612b0490919063ffffffff16565b61105f8284612b0490919063ffffffff16565b10156110d3576040517f08c379a000000000000000000000000000000000000000000000000000000000815260040180806020018281038252600c8152602001807f4f70657261537761703a204b000000000000000000000000000000000000000081525060200191505060405180910390fd5b50506110e184848888612c1c565b8873ffffffffffffffffffffffffffffffffffffffff163373ffffffffffffffffffffffffffffffffffffffff167fd78ad95fa46c994b6551d0da85fc275fe613ce37657fb8d5e3d130840159d82284848f8f6040518085815260200184815260200183815260200182815260200194505050505060405180910390a35050505050506001600c819055505050505050565b6040518060400160405280600d81526020017f4f7065726153776170204c50730000000000000000000000000000000000000081525081565b6000806000600860009054906101000a90046dffffffffffffffffffffffffffff1692506008600e9054906101000a90046dffffffffffffffffffffffffffff1691506008601c9054906101000a900463ffffffff169050909192565b6000611216338484612f7a565b6001905092915050565b600660009054906101000a900473ffffffffffffffffffffffffffffffffffffffff1681565b60005481565b60007fffffffffffffffffffffffffffffffffffffffffffffffffffffffffffffffff600260008673ffffffffffffffffffffffffffffffffffffffff1673ffffffffffffffffffffffffffffffffffffffff16815260200190815260200160002060003373ffffffffffffffffffffffffffffffffffffffff1673ffffffffffffffffffffffffffffffffffffffff16815260200190815260200160002054146114015761138082600260008773ffffffffffffffffffffffffffffffffffffffff1673ffffffffffffffffffffffffffffffffffffffff16815260200190815260200160002060003373ffffffffffffffffffffffffffffffffffffffff1673ffffffffffffffffffffffffffffffffffffffff16815260200190815260200160002054612b9990919063ffffffff16565b600260008673ffffffffffffffffffffffffffffffffffffffff1673ffffffffffffffffffffffffffffffffffffffff16815260200190815260200160002060003373ffffffffffffffffffffffffffffffffffffffff1673ffffffffffffffffffffffffffffffffffffffff168152602001908152602001600020819055505b61140c848484613065565b600190509392505050565b7f6e71edae12b1b97f4d1f60370fef10105fa2faae0126114a169c64845d6126c960001b81565b601281565b60035481565b600560009054906101000a900473ffffffffffffffffffffffffffffffffffffffff1673ffffffffffffffffffffffffffffffffffffffff163373ffffffffffffffffffffffffffffffffffffffff161461150c576040517f08c379a00000000000000000000000000000000000000000000000000000000081526004018080602001828103825260148152602001807f4f70657261537761703a20464f5242494444454e00000000000000000000000081525060200191505060405180910390fd5b81600660006101000a81548173ffffffffffffffffffffffffffffffffffffffff021916908373ffffffffffffffffffffffffffffffffffffffff16021790555080600760006101000a81548173ffffffffffffffffffffffffffffffffffffffff021916908373ffffffffffffffffffffffffffffffffffffffff1602179055505050565b60095481565b600a5481565b60006001600c5414611618576040517f08c379a00000000000000000000000000000000000000000000000000000000081526004018080602001828103825260118152602001807f4f70657261537761703a204c4f434b454400000000000000000000000000000081525060200191505060405180910390fd5b6000600c8190555060008061162b6111ac565b50915091506000600660009054906101000a900473ffffffffffffffffffffffffffffffffffffffff1673ffffffffffffffffffffffffffffffffffffffff166370a08231306040518263ffffffff1660e01b8152600401808273ffffffffffffffffffffffffffffffffffffffff16815260200191505060206040518083038186803b1580156116bb57600080fd5b505afa1580156116cf573d6000803e3d6000fd5b505050506040513d60208110156116e557600080fd5b810190808051906020019092919050505090506000600760009054906101000a900473ffffffffffffffffffffffffffffffffffffffff1673ffffffffffffffffffffffffffffffffffffffff166370a08231306040518263ffffffff1660e01b8152600401808273ffffffffffffffffffffffffffffffffffffffff16815260200191505060206040518083038186803b15801561178357600080fd5b505afa158015611797573d6000803e3d6000fd5b505050506040513d60208110156117ad57600080fd5b8101908080519060200190929190505050905060006117e5856dffffffffffffffffffffffffffff1684612b9990919063ffffffff16565b9050600061180c856dffffffffffffffffffffffffffff1684612b9990919063ffffffff16565b9050600061181a87876131f9565b9050600080549050600081141561186e5761185a6103e861184c6118478688612b0490919063ffffffff16565b613526565b612b9990919063ffffffff16565b985061186960006103e8613588565b6118d1565b6118ce886dffffffffffffffffffffffffffff166118958387612b0490919063ffffffff16565b8161189c57fe5b04886dffffffffffffffffffffffffffff166118c18487612b0490919063ffffffff16565b816118c857fe5b046136a2565b98505b6000891161192a576040517f08c379a00000000000000000000000000000000000000000000000000000000081526004018080602001828103825260288152602001806139086028913960400191505060405180910390fd5b6119348a8a613588565b61194086868a8a612c1c565b81156119b8576119b16008600e9054906101000a90046dffffffffffffffffffffffffffff166dffffffffffffffffffffffffffff16600860009054906101000a90046dffffffffffffffffffffffffffff166dffffffffffffffffffffffffffff16612b0490919063ffffffff16565b600b819055505b3373ffffffffffffffffffffffffffffffffffffffff167f4c209b5fc8ad50758f13e2e1088ba56a560dff690a1c6fef26394f4c03821c4f8585604051808381526020018281526020019250505060405180910390a250505050505050506001600c81905550919050565b60016020528060005260406000206000915090505481565b600b5481565b60046020528060005260406000206000915090505481565b6000806001600c5414611ad4576040517f08c379a00000000000000000000000000000000000000000000000000000000081526004018080602001828103825260118152602001807f4f70657261537761703a204c4f434b454400000000000000000000000000000081525060200191505060405180910390fd5b6000600c81905550600080611ae76111ac565b50915091506000600660009054906101000a900473ffffffffffffffffffffffffffffffffffffffff1690506000600760009054906101000a900473ffffffffffffffffffffffffffffffffffffffff16905060008273ffffffffffffffffffffffffffffffffffffffff166370a08231306040518263ffffffff1660e01b8152600401808273ffffffffffffffffffffffffffffffffffffffff16815260200191505060206040518083038186803b158015611ba357600080fd5b505afa158015611bb7573d6000803e3d6000fd5b505050506040513d6020811015611bcd57600080fd5b8101908080519060200190929190505050905060008273ffffffffffffffffffffffffffffffffffffffff166370a08231306040518263ffffffff1660e01b8152600401808273ffffffffffffffffffffffffffffffffffffffff16815260200191505060206040518083038186803b158015611c4957600080fd5b505afa158015611c5d573d6000803e3d6000fd5b505050506040513d6020811015611c7357600080fd5b810190808051906020019092919050505090506000600160003073ffffffffffffffffffffffffffffffffffffffff1673ffffffffffffffffffffffffffffffffffffffff1681526020019081526020016000205490506000611cd688886131f9565b905060008054905080611cf28685612b0490919063ffffffff16565b81611cf957fe5b049a5080611d108585612b0490919063ffffffff16565b81611d1757fe5b04995060008b118015611d2a575060008a115b611d7f576040517f08c379a00000000000000000000000000000000000000000000000000000000081526004018080602001828103825260288152602001806139556028913960400191505060405180910390fd5b611d8930846136bb565b611d94878d8d6128cd565b611d9f868d8c6128cd565b8673ffffffffffffffffffffffffffffffffffffffff166370a08231306040518263ffffffff1660e01b8152600401808273ffffffffffffffffffffffffffffffffffffffff16815260200191505060206040518083038186803b158015611e0657600080fd5b505afa158015611e1a573d6000803e3d6000fd5b505050506040513d6020811015611e3057600080fd5b810190808051906020019092919050505094508573ffffffffffffffffffffffffffffffffffffffff166370a08231306040518263ffffffff1660e01b8152600401808273ffffffffffffffffffffffffffffffffffffffff16815260200191505060206040518083038186803b158015611eaa57600080fd5b505afa158015611ebe573d6000803e3d6000fd5b505050506040513d6020811015611ed457600080fd5b81019080805190602001909291905050509350611ef385858b8b612c1c565b8115611f6b57611f646008600e9054906101000a90046dffffffffffffffffffffffffffff166dffffffffffffffffffffffffffff16600860009054906101000a90046dffffffffffffffffffffffffffff166dffffffffffffffffffffffffffff16612b0490919063ffffffff16565b600b819055505b8b73ffffffffffffffffffffffffffffffffffffffff163373ffffffffffffffffffffffffffffffffffffffff167fdccd412f0b1252819cb1fd330b93224ca42612892bb3f4f789976e6d819364968d8d604051808381526020018281526020019250505060405180910390a35050505050505050506001600c81905550915091565b6040518060400160405280600c81526020017f4f70657261537761702d4c50000000000000000000000000000000000000000081525081565b6000612034338484613065565b6001905092915050565b6103e881565b6001600c54146120bc576040517f08c379a00000000000000000000000000000000000000000000000000000000081526004018080602001828103825260118152602001807f4f70657261537761703a204c4f434b454400000000000000000000000000000081525060200191505060405180910390fd5b6000600c819055506000600660009054906101000a900473ffffffffffffffffffffffffffffffffffffffff1690506000600760009054906101000a900473ffffffffffffffffffffffffffffffffffffffff1690506121fc82846121f7600860009054906101000a90046dffffffffffffffffffffffffffff166dffffffffffffffffffffffffffff168673ffffffffffffffffffffffffffffffffffffffff166370a08231306040518263ffffffff1660e01b8152600401808273ffffffffffffffffffffffffffffffffffffffff16815260200191505060206040518083038186803b1580156121ae57600080fd5b505afa1580156121c2573d6000803e3d6000fd5b505050506040513d60208110156121d857600080fd5b8101908080519060200190929190505050612b9990919063ffffffff16565b6128cd565b6122e681846122e16008600e9054906101000a90046dffffffffffffffffffffffffffff166dffffffffffffffffffffffffffff168573ffffffffffffffffffffffffffffffffffffffff166370a08231306040518263ffffffff1660e01b8152600401808273ffffffffffffffffffffffffffffffffffffffff16815260200191505060206040518083038186803b15801561229857600080fd5b505afa1580156122ac573d6000803e3d6000fd5b505050506040513d60208110156122c257600080fd5b8101908080519060200190929190505050612b9990919063ffffffff16565b6128cd565b50506001600c8190555050565b600560009054906101000a900473ffffffffffffffffffffffffffffffffffffffff1681565b600760009054906101000a900473ffffffffffffffffffffffffffffffffffffffff1681565b428410156123b5576040517f08c379a00000000000000000000000000000000000000000000000000000000081526004018080602001828103825260128152602001807f4f70657261537761703a2045585049524544000000000000000000000000000081525060200191505060405180910390fd5b60006003547f6e71edae12b1b97f4d1f60370fef10105fa2faae0126114a169c64845d6126c960001b898989600460008e73ffffffffffffffffffffffffffffffffffffffff1673ffffffffffffffffffffffffffffffffffffffff1681526020019081526020016000206000815480929190600101919050558a604051602001808781526020018673ffffffffffffffffffffffffffffffffffffffff1681526020018573ffffffffffffffffffffffffffffffffffffffff16815260200184815260200183815260200182815260200196505050505050506040516020818303038152906040528051906020012060405160200180807f190100000000000000000000000000000000000000000000000000000000000081525060020183815260200182815260200192505050604051602081830303815290604052805190602001209050600060018286868660405160008152602001604052604051808581526020018460ff1681526020018381526020018281526020019450505050506020604051602081039080840390855afa158015612558573d6000803e3d6000fd5b505050602060405103519050600073ffffffffffffffffffffffffffffffffffffffff168173ffffffffffffffffffffffffffffffffffffffff16141580156125cc57508873ffffffffffffffffffffffffffffffffffffffff168173ffffffffffffffffffffffffffffffffffffffff16145b61263e576040517f08c379a000000000000000000000000000000000000000000000000000000000815260040180806020018281038252601c8152602001807f4f70657261537761703a20494e56414c49445f5349474e41545552450000000081525060200191505060405180910390fd5b612649898989612f7a565b505050505050505050565b6002602052816000526040600020602052806000526040600020600091509150505481565b6001600c54146126f1576040517f08c379a00000000000000000000000000000000000000000000000000000000081526004018080602001828103825260118152602001807f4f70657261537761703a204c4f434b454400000000000000000000000000000081525060200191505060405180910390fd5b6000600c819055506128c3600660009054906101000a900473ffffffffffffffffffffffffffffffffffffffff1673ffffffffffffffffffffffffffffffffffffffff166370a08231306040518263ffffffff1660e01b8152600401808273ffffffffffffffffffffffffffffffffffffffff16815260200191505060206040518083038186803b15801561278557600080fd5b505afa158015612799573d6000803e3d6000fd5b505050506040513d60208110156127af57600080fd5b8101908080519060200190929190505050600760009054906101000a900473ffffffffffffffffffffffffffffffffffffffff1673ffffffffffffffffffffffffffffffffffffffff166370a08231306040518263ffffffff1660e01b8152600401808273ffffffffffffffffffffffffffffffffffffffff16815260200191505060206040518083038186803b15801561284957600080fd5b505afa15801561285d573d6000803e3d6000fd5b505050506040513d602081101561287357600080fd5b8101908080519060200190929190505050600860009054906101000a90046dffffffffffffffffffffffffffff166008600e9054906101000a90046dffffffffffffffffffffffffffff16612c1c565b6001600c81905550565b600060608473ffffffffffffffffffffffffffffffffffffffff166040518060400160405280601981526020017f7472616e7366657228616464726573732c75696e743235362900000000000000815250805190602001208585604051602401808373ffffffffffffffffffffffffffffffffffffffff16815260200182815260200192505050604051602081830303815290604052907bffffffffffffffffffffffffffffffffffffffffffffffffffffffff19166020820180517bffffffffffffffffffffffffffffffffffffffffffffffffffffffff83818316178352505050506040518082805190602001908083835b602083106129e457805182526020820191506020810190506020830392506129c1565b6001836020036101000a0380198251168184511680821785525050505050509050019150506000604051808303816000865af19150503d8060008114612a46576040519150601f19603f3d011682016040523d82523d6000602084013e612a4b565b606091505b5091509150818015612a8b5750600081511480612a8a5750808060200190516020811015612a7857600080fd5b81019080805190602001909291905050505b5b612afd576040517f08c379a000000000000000000000000000000000000000000000000000000000815260040180806020018281038252601a8152602001807f4f70657261537761703a205452414e534645525f4641494c454400000000000081525060200191505060405180910390fd5b5050505050565b600080821480612b215750828283850292508281612b1e57fe5b04145b612b93576040517f08c379a00000000000000000000000000000000000000000000000000000000081526004018080602001828103825260148152602001807f64732d6d6174682d6d756c2d6f766572666c6f7700000000000000000000000081525060200191505060405180910390fd5b92915050565b6000828284039150811115612c16576040517f08c379a00000000000000000000000000000000000000000000000000000000081526004018080602001828103825260158152602001807f64732d6d6174682d7375622d756e646572666c6f77000000000000000000000081525060200191505060405180910390fd5b92915050565b7fffffffffffffffffffffffffffffffffffffffffffffffffffffffffffffffff6dffffffffffffffffffffffffffff168411158015612c8c57507fffffffffffffffffffffffffffffffffffffffffffffffffffffffffffffffff6dffffffffffffffffffffffffffff168311155b612cfe576040517f08c379a00000000000000000000000000000000000000000000000000000000081526004018080602001828103825260138152602001807f4f70657261537761703a204f564552464c4f570000000000000000000000000081525060200191505060405180910390fd5b60006401000000004281612d0e57fe5b06905060006008601c9054906101000a900463ffffffff168203905060008163ffffffff16118015612d5157506000846dffffffffffffffffffffffffffff1614155b8015612d6e57506000836dffffffffffffffffffffffffffff1614155b15612e50578063ffffffff16612db385612d87866137d5565b7bffffffffffffffffffffffffffffffffffffffffffffffffffffffff1661380090919063ffffffff16565b7bffffffffffffffffffffffffffffffffffffffffffffffffffffffff16026009600082825401925050819055508063ffffffff16612e2184612df5876137d5565b7bffffffffffffffffffffffffffffffffffffffffffffffffffffffff1661380090919063ffffffff16565b7bffffffffffffffffffffffffffffffffffffffffffffffffffffffff1602600a600082825401925050819055505b85600860006101000a8154816dffffffffffffffffffffffffffff02191690836dffffffffffffffffffffffffffff160217905550846008600e6101000a8154816dffffffffffffffffffffffffffff02191690836dffffffffffffffffffffffffffff160217905550816008601c6101000a81548163ffffffff021916908363ffffffff1602179055507f1c411e9a96e071241c2f21f7726b17ae89e3cab4c78be50e062b03a9fffbbad1600860009054906101000a90046dffffffffffffffffffffffffffff166008600e9054906101000a90046dffffffffffffffffffffffffffff1660405180836dffffffffffffffffffffffffffff168152602001826dffffffffffffffffffffffffffff1681526020019250505060405180910390a1505050505050565b80600260008573ffffffffffffffffffffffffffffffffffffffff1673ffffffffffffffffffffffffffffffffffffffff16815260200190815260200160002060008473ffffffffffffffffffffffffffffffffffffffff1673ffffffffffffffffffffffffffffffffffffffff168152602001908152602001600020819055508173ffffffffffffffffffffffffffffffffffffffff168373ffffffffffffffffffffffffffffffffffffffff167f8c5be1e5ebec7d5bd14f71427d1e84f3dd0314c0f7b2291e5b200ac8c7c3b925836040518082815260200191505060405180910390a3505050565b6130b781600160008673ffffffffffffffffffffffffffffffffffffffff1673ffffffffffffffffffffffffffffffffffffffff16815260200190815260200160002054612b9990919063ffffffff16565b600160008573ffffffffffffffffffffffffffffffffffffffff1673ffffffffffffffffffffffffffffffffffffffff1681526020019081526020016000208190555061314c81600160008573ffffffffffffffffffffffffffffffffffffffff1673ffffffffffffffffffffffffffffffffffffffff1681526020019081526020016000205461386090919063ffffffff16565b600160008473ffffffffffffffffffffffffffffffffffffffff1673ffffffffffffffffffffffffffffffffffffffff168152602001908152602001600020819055508173ffffffffffffffffffffffffffffffffffffffff168373ffffffffffffffffffffffffffffffffffffffff167fddf252ad1be2c89b69c2b068fc378daa952ba7f163c4a11628f55a4df523b3ef836040518082815260200191505060405180910390a3505050565b600080600560009054906101000a900473ffffffffffffffffffffffffffffffffffffffff1673ffffffffffffffffffffffffffffffffffffffff1663017e7e586040518163ffffffff1660e01b815260040160206040518083038186803b15801561326457600080fd5b505afa158015613278573d6000803e3d6000fd5b505050506040513d602081101561328e57600080fd5b81019080805190602001909291905050509050600073ffffffffffffffffffffffffffffffffffffffff168173ffffffffffffffffffffffffffffffffffffffff16141591506000600b549050821561350c5760008114613507576000613326613321866dffffffffffffffffffffffffffff16886dffffffffffffffffffffffffffff16612b0490919063ffffffff16565b613526565b9050600061333383613526565b9050808211156135045760006133666133558385612b9990919063ffffffff16565b600054612b0490919063ffffffff16565b905060006134dc836134ce600560009054906101000a900473ffffffffffffffffffffffffffffffffffffffff1673ffffffffffffffffffffffffffffffffffffffff1663f63f5db46040518163ffffffff1660e01b815260040160206040518083038186803b1580156133d957600080fd5b505afa1580156133ed573d6000803e3d6000fd5b505050506040513d602081101561340357600080fd5b8101908080519060200190929190505050600560009054906101000a900473ffffffffffffffffffffffffffffffffffffffff1673ffffffffffffffffffffffffffffffffffffffff166303a27ef06040518163ffffffff1660e01b815260040160206040518083038186803b15801561347c57600080fd5b505afa158015613490573d6000803e3d6000fd5b505050506040513d60208110156134a657600080fd5b810190808051906020019092919050505088816134bf57fe5b04612b0490919063ffffffff16565b61386090919063ffffffff16565b905060008183816134e957fe5b0490506000811115613500576134ff8782613588565b5b5050505b50505b61351e565b6000811461351d576000600b819055505b5b505092915050565b6000600382111561357557819050600060016002848161354257fe5b040190505b8181101561356f5780915060028182858161355e57fe5b04018161356757fe5b049050613547565b50613583565b6000821461358257600190505b5b919050565b61359d8160005461386090919063ffffffff16565b6000819055506135f581600160008573ffffffffffffffffffffffffffffffffffffffff1673ffffffffffffffffffffffffffffffffffffffff1681526020019081526020016000205461386090919063ffffffff16565b600160008473ffffffffffffffffffffffffffffffffffffffff1673ffffffffffffffffffffffffffffffffffffffff168152602001908152602001600020819055508173ffffffffffffffffffffffffffffffffffffffff16600073ffffffffffffffffffffffffffffffffffffffff167fddf252ad1be2c89b69c2b068fc378daa952ba7f163c4a11628f55a4df523b3ef836040518082815260200191505060405180910390a35050565b60008183106136b157816136b3565b825b905092915050565b61370d81600160008573ffffffffffffffffffffffffffffffffffffffff1673ffffffffffffffffffffffffffffffffffffffff16815260200190815260200160002054612b9990919063ffffffff16565b600160008473ffffffffffffffffffffffffffffffffffffffff1673ffffffffffffffffffffffffffffffffffffffff1681526020019081526020016000208190555061376581600054612b9990919063ffffffff16565b600081905550600073ffffffffffffffffffffffffffffffffffffffff168273ffffffffffffffffffffffffffffffffffffffff167fddf252ad1be2c89b69c2b068fc378daa952ba7f163c4a11628f55a4df523b3ef836040518082815260200191505060405180910390a35050565b60006e010000000000000000000000000000826dffffffffffffffffffffffffffff16029050919050565b6000816dffffffffffffffffffffffffffff167bffffffffffffffffffffffffffffffffffffffffffffffffffffffff16837bffffffffffffffffffffffffffffffffffffffffffffffffffffffff168161385757fe5b04905092915050565b60008282840191508110156138dd576040517f08c379a00000000000000000000000000000000000000000000000000000000081526004018080602001828103825260148152602001807f64732d6d6174682d6164642d6f766572666c6f7700000000000000000000000081525060200191505060405180910390fd5b9291505056fe4f70657261537761703a20494e53554646494349454e545f494e5055545f414d4f554e544f70657261537761703a20494e53554646494349454e545f4c49515549444954595f4d494e5445444f70657261537761703a20494e53554646494349454e545f4f55545055545f414d4f554e544f70657261537761703a20494e53554646494349454e545f4c49515549444954595f4255524e45444f70657261537761703a20494e53554646494349454e545f4c4951554944495459a2646970667358221220353000e5d6e9b9e69da0faf38aa202790c4322218cf573bc35c25d2e3f1fbccf64736f6c634300060c00334f70657261537761704c6962726172793a20494e53554646494349454e545f4f55545055545f414d4f554e544f70657261537761704c6962726172793a20494e53554646494349454e545f414d4f554e544f70657261537761704c6962726172793a20494e53554646494349454e545f4c49515549444954594d64657853776170466163746f72793a204944454e544943414c5f4144445245535345534f70657261537761703a204645455f544f5f524154455f4449565f4f564552464c4f574f70657261537761704c6962726172793a20494e53554646494349454e545f494e5055545f414d4f554e54a26469706673582212205b68479d2e6980b374b22c332b5122e28cc0c1ee48910a82c68e8664adda6f4a64736f6c634300060c003360806040526001600c5534801561001557600080fd5b506000601490507f8b73c3c69bb8fe3d512ecc4cf759cc79239f7b179b0ffacaa9a75d522b39400f6040518060400160405280600d81526020017f4f7065726153776170204c507300000000000000000000000000000000000000815250805190602001206040518060400160405280600181526020017f3100000000000000000000000000000000000000000000000000000000000000815250805190602001208330604051602001808681526020018581526020018481526020018381526020018273ffffffffffffffffffffffffffffffffffffffff16815260200195505050505050604051602081830303815290604052805190602001206003819055505033600560006101000a81548173ffffffffffffffffffffffffffffffffffffffff021916908373ffffffffffffffffffffffffffffffffffffffff1602179055506139d3806101686000396000f3fe608060405234801561001057600080fd5b50600436106101b95760003560e01c80636a627842116100f9578063ba9a7a5611610097578063d21220a711610071578063d21220a714610879578063d505accf146108ad578063dd62ed3e14610946578063fff6cae9146109be576101b9565b8063ba9a7a56146107e3578063bc25cf7714610801578063c45a015514610845576101b9565b80637ecebe00116100d35780637ecebe001461064557806389afcb441461069d57806395d89b41146106fc578063a9059cbb1461077f576101b9565b80636a6278421461057757806370a08231146105cf5780637464fc3d14610627576101b9565b806323b872dd116101665780633644e515116101405780633644e515146104b9578063485cc955146104d75780635909c0d51461053b5780635a3d549314610559576101b9565b806323b872dd146103f657806330adf81f1461047a578063313ce56714610498576101b9565b8063095ea7b311610197578063095ea7b3146103405780630dfe1681146103a457806318160ddd146103d8576101b9565b8063022c0d9f146101be57806306fdde031461026b5780630902f1ac146102ee575b600080fd5b610269600480360360808110156101d457600080fd5b810190808035906020019092919080359060200190929190803573ffffffffffffffffffffffffffffffffffffffff1690602001909291908035906020019064010000000081111561022557600080fd5b82018360208201111561023757600080fd5b8035906020019184600183028401116401000000008311171561025957600080fd5b90919293919293905050506109c8565b005b610273611173565b6040518080602001828103825283818151815260200191508051906020019080838360005b838110156102b3578082015181840152602081019050610298565b50505050905090810190601f1680156102e05780820380516001836020036101000a031916815260200191505b509250505060405180910390f35b6102f66111ac565b60405180846dffffffffffffffffffffffffffff168152602001836dffffffffffffffffffffffffffff1681526020018263ffffffff168152602001935050505060405180910390f35b61038c6004803603604081101561035657600080fd5b81019080803573ffffffffffffffffffffffffffffffffffffffff16906020019092919080359060200190929190505050611209565b60405180821515815260200191505060405180910390f35b6103ac611220565b604051808273ffffffffffffffffffffffffffffffffffffffff16815260200191505060405180910390f35b6103e0611246565b6040518082815260200191505060405180910390f35b6104626004803603606081101561040c57600080fd5b81019080803573ffffffffffffffffffffffffffffffffffffffff169060200190929190803573ffffffffffffffffffffffffffffffffffffffff1690602001909291908035906020019092919050505061124c565b60405180821515815260200191505060405180910390f35b610482611417565b6040518082815260200191505060405180910390f35b6104a061143e565b604051808260ff16815260200191505060405180910390f35b6104c1611443565b6040518082815260200191505060405180910390f35b610539600480360360408110156104ed57600080fd5b81019080803573ffffffffffffffffffffffffffffffffffffffff169060200190929190803573ffffffffffffffffffffffffffffffffffffffff169060200190929190505050611449565b005b610543611592565b6040518082815260200191505060405180910390f35b610561611598565b6040518082815260200191505060405180910390f35b6105b96004803603602081101561058d57600080fd5b81019080803573ffffffffffffffffffffffffffffffffffffffff16906020019092919050505061159e565b6040518082815260200191505060405180910390f35b610611600480360360208110156105e557600080fd5b81019080803573ffffffffffffffffffffffffffffffffffffffff169060200190929190505050611a23565b6040518082815260200191505060405180910390f35b61062f611a3b565b6040518082815260200191505060405180910390f35b6106876004803603602081101561065b57600080fd5b81019080803573ffffffffffffffffffffffffffffffffffffffff169060200190929190505050611a41565b6040518082815260200191505060405180910390f35b6106df600480360360208110156106b357600080fd5b81019080803573ffffffffffffffffffffffffffffffffffffffff169060200190929190505050611a59565b604051808381526020018281526020019250505060405180910390f35b610704611fee565b6040518080602001828103825283818151815260200191508051906020019080838360005b83811015610744578082015181840152602081019050610729565b50505050905090810190601f1680156107715780820380516001836020036101000a031916815260200191505b509250505060405180910390f35b6107cb6004803603604081101561079557600080fd5b81019080803573ffffffffffffffffffffffffffffffffffffffff16906020019092919080359060200190929190505050612027565b60405180821515815260200191505060405180910390f35b6107eb61203e565b6040518082815260200191505060405180910390f35b6108436004803603602081101561081757600080fd5b81019080803573ffffffffffffffffffffffffffffffffffffffff169060200190929190505050612044565b005b61084d6122f3565b604051808273ffffffffffffffffffffffffffffffffffffffff16815260200191505060405180910390f35b610881612319565b604051808273ffffffffffffffffffffffffffffffffffffffff16815260200191505060405180910390f35b610944600480360360e08110156108c357600080fd5b81019080803573ffffffffffffffffffffffffffffffffffffffff169060200190929190803573ffffffffffffffffffffffffffffffffffffffff1690602001909291908035906020019092919080359060200190929190803560ff169060200190929190803590602001909291908035906020019092919050505061233f565b005b6109a86004803603604081101561095c57600080fd5b81019080803573ffffffffffffffffffffffffffffffffffffffff169060200190929190803573ffffffffffffffffffffffffffffffffffffffff169060200190929190505050612654565b6040518082815260200191505060405180910390f35b6109c6612679565b005b6001600c5414610a40576040517f08c379a00000000000000000000000000000000000000000000000000000000081526004018080602001828103825260118152602001807f4f70657261537761703a204c4f434b454400000000000000000000000000000081525060200191505060405180910390fd5b6000600c819055506000851180610a575750600084115b610aac576040517f08c379a00000000000000000000000000000000000000000000000000000000081526004018080602001828103825260258152602001806139306025913960400191505060405180910390fd5b600080610ab76111ac565b5091509150816dffffffffffffffffffffffffffff1687108015610aea5750806dffffffffffffffffffffffffffff1686105b610b3f576040517f08c379a000000000000000000000000000000000000000000000000000000000815260040180806020018281038252602181526020018061397d6021913960400191505060405180910390fd5b6000806000600660009054906101000a900473ffffffffffffffffffffffffffffffffffffffff1690506000600760009054906101000a900473ffffffffffffffffffffffffffffffffffffffff1690508173ffffffffffffffffffffffffffffffffffffffff168973ffffffffffffffffffffffffffffffffffffffff1614158015610bf857508073ffffffffffffffffffffffffffffffffffffffff168973ffffffffffffffffffffffffffffffffffffffff1614155b610c6a576040517f08c379a00000000000000000000000000000000000000000000000000000000081526004018080602001828103825260158152602001807f4f70657261537761703a20494e56414c49445f544f000000000000000000000081525060200191505060405180910390fd5b60008b1115610c7f57610c7e828a8d6128cd565b5b60008a1115610c9457610c93818a8c6128cd565b5b6000888890501115610d66578873ffffffffffffffffffffffffffffffffffffffff166384800812338d8d8c8c6040518663ffffffff1660e01b8152600401808673ffffffffffffffffffffffffffffffffffffffff168152602001858152602001848152602001806020018281038252848482818152602001925080828437600081840152601f19601f8201169050808301925050509650505050505050600060405180830381600087803b158015610d4d57600080fd5b505af1158015610d61573d6000803e3d6000fd5b505050505b8173ffffffffffffffffffffffffffffffffffffffff166370a08231306040518263ffffffff1660e01b8152600401808273ffffffffffffffffffffffffffffffffffffffff16815260200191505060206040518083038186803b158015610dcd57600080fd5b505afa158015610de1573d6000803e3d6000fd5b505050506040513d6020811015610df757600080fd5b810190808051906020019092919050505093508073ffffffffffffffffffffffffffffffffffffffff166370a08231306040518263ffffffff1660e01b8152600401808273ffffffffffffffffffffffffffffffffffffffff16815260200191505060206040518083038186803b158015610e7157600080fd5b505afa158015610e85573d6000803e3d6000fd5b505050506040513d6020811015610e9b57600080fd5b810190808051906020019092919050505092505050600089856dffffffffffffffffffffffffffff16038311610ed2576000610ee8565b89856dffffffffffffffffffffffffffff160383035b9050600089856dffffffffffffffffffffffffffff16038311610f0c576000610f22565b89856dffffffffffffffffffffffffffff160383035b90506000821180610f335750600081115b610f88576040517f08c379a00000000000000000000000000000000000000000000000000000000081526004018080602001828103825260248152602001806138e46024913960400191505060405180910390fd5b6000610fc4610fa1600385612b0490919063ffffffff16565b610fb66103e888612b0490919063ffffffff16565b612b9990919063ffffffff16565b90506000611002610fdf600385612b0490919063ffffffff16565b610ff46103e888612b0490919063ffffffff16565b612b9990919063ffffffff16565b905061104c620f424061103e896dffffffffffffffffffffffffffff168b6dffffffffffffffffffffffffffff16612b0490919063ffffffff16565b612b0490919063ffffffff16565b61105f8284612b0490919063ffffffff16565b10156110d3576040517f08c379a000000000000000000000000000000000000000000000000000000000815260040180806020018281038252600c8152602001807f4f70657261537761703a204b000000000000000000000000000000000000000081525060200191505060405180910390fd5b50506110e184848888612c1c565b8873ffffffffffffffffffffffffffffffffffffffff163373ffffffffffffffffffffffffffffffffffffffff167fd78ad95fa46c994b6551d0da85fc275fe613ce37657fb8d5e3d130840159d82284848f8f6040518085815260200184815260200183815260200182815260200194505050505060405180910390a35050505050506001600c819055505050505050565b6040518060400160405280600d81526020017f4f7065726153776170204c50730000000000000000000000000000000000000081525081565b6000806000600860009054906101000a90046dffffffffffffffffffffffffffff1692506008600e9054906101000a90046dffffffffffffffffffffffffffff1691506008601c9054906101000a900463ffffffff169050909192565b6000611216338484612f7a565b6001905092915050565b600660009054906101000a900473ffffffffffffffffffffffffffffffffffffffff1681565b60005481565b60007fffffffffffffffffffffffffffffffffffffffffffffffffffffffffffffffff600260008673ffffffffffffffffffffffffffffffffffffffff1673ffffffffffffffffffffffffffffffffffffffff16815260200190815260200160002060003373ffffffffffffffffffffffffffffffffffffffff1673ffffffffffffffffffffffffffffffffffffffff16815260200190815260200160002054146114015761138082600260008773ffffffffffffffffffffffffffffffffffffffff1673ffffffffffffffffffffffffffffffffffffffff16815260200190815260200160002060003373ffffffffffffffffffffffffffffffffffffffff1673ffffffffffffffffffffffffffffffffffffffff16815260200190815260200160002054612b9990919063ffffffff16565b600260008673ffffffffffffffffffffffffffffffffffffffff1673ffffffffffffffffffffffffffffffffffffffff16815260200190815260200160002060003373ffffffffffffffffffffffffffffffffffffffff1673ffffffffffffffffffffffffffffffffffffffff168152602001908152602001600020819055505b61140c848484613065565b600190509392505050565b7f6e71edae12b1b97f4d1f60370fef10105fa2faae0126114a169c64845d6126c960001b81565b601281565b60035481565b600560009054906101000a900473ffffffffffffffffffffffffffffffffffffffff1673ffffffffffffffffffffffffffffffffffffffff163373ffffffffffffffffffffffffffffffffffffffff161461150c576040517f08c379a00000000000000000000000000000000000000000000000000000000081526004018080602001828103825260148152602001807f4f70657261537761703a20464f5242494444454e00000000000000000000000081525060200191505060405180910390fd5b81600660006101000a81548173ffffffffffffffffffffffffffffffffffffffff021916908373ffffffffffffffffffffffffffffffffffffffff16021790555080600760006101000a81548173ffffffffffffffffffffffffffffffffffffffff021916908373ffffffffffffffffffffffffffffffffffffffff1602179055505050565b60095481565b600a5481565b60006001600c5414611618576040517f08c379a00000000000000000000000000000000000000000000000000000000081526004018080602001828103825260118152602001807f4f70657261537761703a204c4f434b454400000000000000000000000000000081525060200191505060405180910390fd5b6000600c8190555060008061162b6111ac565b50915091506000600660009054906101000a900473ffffffffffffffffffffffffffffffffffffffff1673ffffffffffffffffffffffffffffffffffffffff166370a08231306040518263ffffffff1660e01b8152600401808273ffffffffffffffffffffffffffffffffffffffff16815260200191505060206040518083038186803b1580156116bb57600080fd5b505afa1580156116cf573d6000803e3d6000fd5b505050506040513d60208110156116e557600080fd5b810190808051906020019092919050505090506000600760009054906101000a900473ffffffffffffffffffffffffffffffffffffffff1673ffffffffffffffffffffffffffffffffffffffff166370a08231306040518263ffffffff1660e01b8152600401808273ffffffffffffffffffffffffffffffffffffffff16815260200191505060206040518083038186803b15801561178357600080fd5b505afa158015611797573d6000803e3d6000fd5b505050506040513d60208110156117ad57600080fd5b8101908080519060200190929190505050905060006117e5856dffffffffffffffffffffffffffff1684612b9990919063ffffffff16565b9050600061180c856dffffffffffffffffffffffffffff1684612b9990919063ffffffff16565b9050600061181a87876131f9565b9050600080549050600081141561186e5761185a6103e861184c6118478688612b0490919063ffffffff16565b613526565b612b9990919063ffffffff16565b985061186960006103e8613588565b6118d1565b6118ce886dffffffffffffffffffffffffffff166118958387612b0490919063ffffffff16565b8161189c57fe5b04886dffffffffffffffffffffffffffff166118c18487612b0490919063ffffffff16565b816118c857fe5b046136a2565b98505b6000891161192a576040517f08c379a00000000000000000000000000000000000000000000000000000000081526004018080602001828103825260288152602001806139086028913960400191505060405180910390fd5b6119348a8a613588565b61194086868a8a612c1c565b81156119b8576119b16008600e9054906101000a90046dffffffffffffffffffffffffffff166dffffffffffffffffffffffffffff16600860009054906101000a90046dffffffffffffffffffffffffffff166dffffffffffffffffffffffffffff16612b0490919063ffffffff16565b600b819055505b3373ffffffffffffffffffffffffffffffffffffffff167f4c209b5fc8ad50758f13e2e1088ba56a560dff690a1c6fef26394f4c03821c4f8585604051808381526020018281526020019250505060405180910390a250505050505050506001600c81905550919050565b60016020528060005260406000206000915090505481565b600b5481565b60046020528060005260406000206000915090505481565b6000806001600c5414611ad4576040517f08c379a00000000000000000000000000000000000000000000000000000000081526004018080602001828103825260118152602001807f4f70657261537761703a204c4f434b454400000000000000000000000000000081525060200191505060405180910390fd5b6000600c81905550600080611ae76111ac565b50915091506000600660009054906101000a900473ffffffffffffffffffffffffffffffffffffffff1690506000600760009054906101000a900473ffffffffffffffffffffffffffffffffffffffff16905060008273ffffffffffffffffffffffffffffffffffffffff166370a08231306040518263ffffffff1660e01b8152600401808273ffffffffffffffffffffffffffffffffffffffff16815260200191505060206040518083038186803b158015611ba357600080fd5b505afa158015611bb7573d6000803e3d6000fd5b505050506040513d6020811015611bcd57600080fd5b8101908080519060200190929190505050905060008273ffffffffffffffffffffffffffffffffffffffff166370a08231306040518263ffffffff1660e01b8152600401808273ffffffffffffffffffffffffffffffffffffffff16815260200191505060206040518083038186803b158015611c4957600080fd5b505afa158015611c5d573d6000803e3d6000fd5b505050506040513d6020811015611c7357600080fd5b810190808051906020019092919050505090506000600160003073ffffffffffffffffffffffffffffffffffffffff1673ffffffffffffffffffffffffffffffffffffffff1681526020019081526020016000205490506000611cd688886131f9565b905060008054905080611cf28685612b0490919063ffffffff16565b81611cf957fe5b049a5080611d108585612b0490919063ffffffff16565b81611d1757fe5b04995060008b118015611d2a575060008a115b611d7f576040517f08c379a00000000000000000000000000000000000000000000000000000000081526004018080602001828103825260288152602001806139556028913960400191505060405180910390fd5b611d8930846136bb565b611d94878d8d6128cd565b611d9f868d8c6128cd565b8673ffffffffffffffffffffffffffffffffffffffff166370a08231306040518263ffffffff1660e01b8152600401808273ffffffffffffffffffffffffffffffffffffffff16815260200191505060206040518083038186803b158015611e0657600080fd5b505afa158015611e1a573d6000803e3d6000fd5b505050506040513d6020811015611e3057600080fd5b810190808051906020019092919050505094508573ffffffffffffffffffffffffffffffffffffffff166370a08231306040518263ffffffff1660e01b8152600401808273ffffffffffffffffffffffffffffffffffffffff16815260200191505060206040518083038186803b158015611eaa57600080fd5b505afa158015611ebe573d6000803e3d6000fd5b505050506040513d6020811015611ed457600080fd5b81019080805190602001909291905050509350611ef385858b8b612c1c565b8115611f6b57611f646008600e9054906101000a90046dffffffffffffffffffffffffffff166dffffffffffffffffffffffffffff16600860009054906101000a90046dffffffffffffffffffffffffffff166dffffffffffffffffffffffffffff16612b0490919063ffffffff16565b600b819055505b8b73ffffffffffffffffffffffffffffffffffffffff163373ffffffffffffffffffffffffffffffffffffffff167fdccd412f0b1252819cb1fd330b93224ca42612892bb3f4f789976e6d819364968d8d604051808381526020018281526020019250505060405180910390a35050505050505050506001600c81905550915091565b6040518060400160405280600c81526020017f4f70657261537761702d4c50000000000000000000000000000000000000000081525081565b6000612034338484613065565b6001905092915050565b6103e881565b6001600c54146120bc576040517f08c379a00000000000000000000000000000000000000000000000000000000081526004018080602001828103825260118152602001807f4f70657261537761703a204c4f434b454400000000000000000000000000000081525060200191505060405180910390fd5b6000600c819055506000600660009054906101000a900473ffffffffffffffffffffffffffffffffffffffff1690506000600760009054906101000a900473ffffffffffffffffffffffffffffffffffffffff1690506121fc82846121f7600860009054906101000a90046dffffffffffffffffffffffffffff166dffffffffffffffffffffffffffff168673ffffffffffffffffffffffffffffffffffffffff166370a08231306040518263ffffffff1660e01b8152600401808273ffffffffffffffffffffffffffffffffffffffff16815260200191505060206040518083038186803b1580156121ae57600080fd5b505afa1580156121c2573d6000803e3d6000fd5b505050506040513d60208110156121d857600080fd5b8101908080519060200190929190505050612b9990919063ffffffff16565b6128cd565b6122e681846122e16008600e9054906101000a90046dffffffffffffffffffffffffffff166dffffffffffffffffffffffffffff168573ffffffffffffffffffffffffffffffffffffffff166370a08231306040518263ffffffff1660e01b8152600401808273ffffffffffffffffffffffffffffffffffffffff16815260200191505060206040518083038186803b15801561229857600080fd5b505afa1580156122ac573d6000803e3d6000fd5b505050506040513d60208110156122c257600080fd5b8101908080519060200190929190505050612b9990919063ffffffff16565b6128cd565b50506001600c8190555050565b600560009054906101000a900473ffffffffffffffffffffffffffffffffffffffff1681565b600760009054906101000a900473ffffffffffffffffffffffffffffffffffffffff1681565b428410156123b5576040517f08c379a00000000000000000000000000000000000000000000000000000000081526004018080602001828103825260128152602001807f4f70657261537761703a2045585049524544000000000000000000000000000081525060200191505060405180910390fd5b60006003547f6e71edae12b1b97f4d1f60370fef10105fa2faae0126114a169c64845d6126c960001b898989600460008e73ffffffffffffffffffffffffffffffffffffffff1673ffffffffffffffffffffffffffffffffffffffff1681526020019081526020016000206000815480929190600101919050558a604051602001808781526020018673ffffffffffffffffffffffffffffffffffffffff1681526020018573ffffffffffffffffffffffffffffffffffffffff16815260200184815260200183815260200182815260200196505050505050506040516020818303038152906040528051906020012060405160200180807f190100000000000000000000000000000000000000000000000000000000000081525060020183815260200182815260200192505050604051602081830303815290604052805190602001209050600060018286868660405160008152602001604052604051808581526020018460ff1681526020018381526020018281526020019450505050506020604051602081039080840390855afa158015612558573d6000803e3d6000fd5b505050602060405103519050600073ffffffffffffffffffffffffffffffffffffffff168173ffffffffffffffffffffffffffffffffffffffff16141580156125cc57508873ffffffffffffffffffffffffffffffffffffffff168173ffffffffffffffffffffffffffffffffffffffff16145b61263e576040517f08c379a000000000000000000000000000000000000000000000000000000000815260040180806020018281038252601c8152602001807f4f70657261537761703a20494e56414c49445f5349474e41545552450000000081525060200191505060405180910390fd5b612649898989612f7a565b505050505050505050565b6002602052816000526040600020602052806000526040600020600091509150505481565b6001600c54146126f1576040517f08c379a00000000000000000000000000000000000000000000000000000000081526004018080602001828103825260118152602001807f4f70657261537761703a204c4f434b454400000000000000000000000000000081525060200191505060405180910390fd5b6000600c819055506128c3600660009054906101000a900473ffffffffffffffffffffffffffffffffffffffff1673ffffffffffffffffffffffffffffffffffffffff166370a08231306040518263ffffffff1660e01b8152600401808273ffffffffffffffffffffffffffffffffffffffff16815260200191505060206040518083038186803b15801561278557600080fd5b505afa158015612799573d6000803e3d6000fd5b505050506040513d60208110156127af57600080fd5b8101908080519060200190929190505050600760009054906101000a900473ffffffffffffffffffffffffffffffffffffffff1673ffffffffffffffffffffffffffffffffffffffff166370a08231306040518263ffffffff1660e01b8152600401808273ffffffffffffffffffffffffffffffffffffffff16815260200191505060206040518083038186803b15801561284957600080fd5b505afa15801561285d573d6000803e3d6000fd5b505050506040513d602081101561287357600080fd5b8101908080519060200190929190505050600860009054906101000a90046dffffffffffffffffffffffffffff166008600e9054906101000a90046dffffffffffffffffffffffffffff16612c1c565b6001600c81905550565b600060608473ffffffffffffffffffffffffffffffffffffffff166040518060400160405280601981526020017f7472616e7366657228616464726573732c75696e743235362900000000000000815250805190602001208585604051602401808373ffffffffffffffffffffffffffffffffffffffff16815260200182815260200192505050604051602081830303815290604052907bffffffffffffffffffffffffffffffffffffffffffffffffffffffff19166020820180517bffffffffffffffffffffffffffffffffffffffffffffffffffffffff83818316178352505050506040518082805190602001908083835b602083106129e457805182526020820191506020810190506020830392506129c1565b6001836020036101000a0380198251168184511680821785525050505050509050019150506000604051808303816000865af19150503d8060008114612a46576040519150601f19603f3d011682016040523d82523d6000602084013e612a4b565b606091505b5091509150818015612a8b5750600081511480612a8a5750808060200190516020811015612a7857600080fd5b81019080805190602001909291905050505b5b612afd576040517f08c379a000000000000000000000000000000000000000000000000000000000815260040180806020018281038252601a8152602001807f4f70657261537761703a205452414e534645525f4641494c454400000000000081525060200191505060405180910390fd5b5050505050565b600080821480612b215750828283850292508281612b1e57fe5b04145b612b93576040517f08c379a00000000000000000000000000000000000000000000000000000000081526004018080602001828103825260148152602001807f64732d6d6174682d6d756c2d6f766572666c6f7700000000000000000000000081525060200191505060405180910390fd5b92915050565b6000828284039150811115612c16576040517f08c379a00000000000000000000000000000000000000000000000000000000081526004018080602001828103825260158152602001807f64732d6d6174682d7375622d756e646572666c6f77000000000000000000000081525060200191505060405180910390fd5b92915050565b7fffffffffffffffffffffffffffffffffffffffffffffffffffffffffffffffff6dffffffffffffffffffffffffffff168411158015612c8c57507fffffffffffffffffffffffffffffffffffffffffffffffffffffffffffffffff6dffffffffffffffffffffffffffff168311155b612cfe576040517f08c379a00000000000000000000000000000000000000000000000000000000081526004018080602001828103825260138152602001807f4f70657261537761703a204f564552464c4f570000000000000000000000000081525060200191505060405180910390fd5b60006401000000004281612d0e57fe5b06905060006008601c9054906101000a900463ffffffff168203905060008163ffffffff16118015612d5157506000846dffffffffffffffffffffffffffff1614155b8015612d6e57506000836dffffffffffffffffffffffffffff1614155b15612e50578063ffffffff16612db385612d87866137d5565b7bffffffffffffffffffffffffffffffffffffffffffffffffffffffff1661380090919063ffffffff16565b7bffffffffffffffffffffffffffffffffffffffffffffffffffffffff16026009600082825401925050819055508063ffffffff16612e2184612df5876137d5565b7bffffffffffffffffffffffffffffffffffffffffffffffffffffffff1661380090919063ffffffff16565b7bffffffffffffffffffffffffffffffffffffffffffffffffffffffff1602600a600082825401925050819055505b85600860006101000a8154816dffffffffffffffffffffffffffff02191690836dffffffffffffffffffffffffffff160217905550846008600e6101000a8154816dffffffffffffffffffffffffffff02191690836dffffffffffffffffffffffffffff160217905550816008601c6101000a81548163ffffffff021916908363ffffffff1602179055507f1c411e9a96e071241c2f21f7726b17ae89e3cab4c78be50e062b03a9fffbbad1600860009054906101000a90046dffffffffffffffffffffffffffff166008600e9054906101000a90046dffffffffffffffffffffffffffff1660405180836dffffffffffffffffffffffffffff168152602001826dffffffffffffffffffffffffffff1681526020019250505060405180910390a1505050505050565b80600260008573ffffffffffffffffffffffffffffffffffffffff1673ffffffffffffffffffffffffffffffffffffffff16815260200190815260200160002060008473ffffffffffffffffffffffffffffffffffffffff1673ffffffffffffffffffffffffffffffffffffffff168152602001908152602001600020819055508173ffffffffffffffffffffffffffffffffffffffff168373ffffffffffffffffffffffffffffffffffffffff167f8c5be1e5ebec7d5bd14f71427d1e84f3dd0314c0f7b2291e5b200ac8c7c3b925836040518082815260200191505060405180910390a3505050565b6130b781600160008673ffffffffffffffffffffffffffffffffffffffff1673ffffffffffffffffffffffffffffffffffffffff16815260200190815260200160002054612b9990919063ffffffff16565b600160008573ffffffffffffffffffffffffffffffffffffffff1673ffffffffffffffffffffffffffffffffffffffff1681526020019081526020016000208190555061314c81600160008573ffffffffffffffffffffffffffffffffffffffff1673ffffffffffffffffffffffffffffffffffffffff1681526020019081526020016000205461386090919063ffffffff16565b600160008473ffffffffffffffffffffffffffffffffffffffff1673ffffffffffffffffffffffffffffffffffffffff168152602001908152602001600020819055508173ffffffffffffffffffffffffffffffffffffffff168373ffffffffffffffffffffffffffffffffffffffff167fddf252ad1be2c89b69c2b068fc378daa952ba7f163c4a11628f55a4df523b3ef836040518082815260200191505060405180910390a3505050565b600080600560009054906101000a900473ffffffffffffffffffffffffffffffffffffffff1673ffffffffffffffffffffffffffffffffffffffff1663017e7e586040518163ffffffff1660e01b815260040160206040518083038186803b15801561326457600080fd5b505afa158015613278573d6000803e3d6000fd5b505050506040513d602081101561328e57600080fd5b81019080805190602001909291905050509050600073ffffffffffffffffffffffffffffffffffffffff168173ffffffffffffffffffffffffffffffffffffffff16141591506000600b549050821561350c5760008114613507576000613326613321866dffffffffffffffffffffffffffff16886dffffffffffffffffffffffffffff16612b0490919063ffffffff16565b613526565b9050600061333383613526565b9050808211156135045760006133666133558385612b9990919063ffffffff16565b600054612b0490919063ffffffff16565b905060006134dc836134ce600560009054906101000a900473ffffffffffffffffffffffffffffffffffffffff1673ffffffffffffffffffffffffffffffffffffffff1663f63f5db46040518163ffffffff1660e01b815260040160206040518083038186803b1580156133d957600080fd5b505afa1580156133ed573d6000803e3d6000fd5b505050506040513d602081101561340357600080fd5b8101908080519060200190929190505050600560009054906101000a900473ffffffffffffffffffffffffffffffffffffffff1673ffffffffffffffffffffffffffffffffffffffff166303a27ef06040518163ffffffff1660e01b815260040160206040518083038186803b15801561347c57600080fd5b505afa158015613490573d6000803e3d6000fd5b505050506040513d60208110156134a657600080fd5b810190808051906020019092919050505088816134bf57fe5b04612b0490919063ffffffff16565b61386090919063ffffffff16565b905060008183816134e957fe5b0490506000811115613500576134ff8782613588565b5b5050505b50505b61351e565b6000811461351d576000600b819055505b5b505092915050565b6000600382111561357557819050600060016002848161354257fe5b040190505b8181101561356f5780915060028182858161355e57fe5b04018161356757fe5b049050613547565b50613583565b6000821461358257600190505b5b919050565b61359d8160005461386090919063ffffffff16565b6000819055506135f581600160008573ffffffffffffffffffffffffffffffffffffffff1673ffffffffffffffffffffffffffffffffffffffff1681526020019081526020016000205461386090919063ffffffff16565b600160008473ffffffffffffffffffffffffffffffffffffffff1673ffffffffffffffffffffffffffffffffffffffff168152602001908152602001600020819055508173ffffffffffffffffffffffffffffffffffffffff16600073ffffffffffffffffffffffffffffffffffffffff167fddf252ad1be2c89b69c2b068fc378daa952ba7f163c4a11628f55a4df523b3ef836040518082815260200191505060405180910390a35050565b60008183106136b157816136b3565b825b905092915050565b61370d81600160008573ffffffffffffffffffffffffffffffffffffffff1673ffffffffffffffffffffffffffffffffffffffff16815260200190815260200160002054612b9990919063ffffffff16565b600160008473ffffffffffffffffffffffffffffffffffffffff1673ffffffffffffffffffffffffffffffffffffffff1681526020019081526020016000208190555061376581600054612b9990919063ffffffff16565b600081905550600073ffffffffffffffffffffffffffffffffffffffff168273ffffffffffffffffffffffffffffffffffffffff167fddf252ad1be2c89b69c2b068fc378daa952ba7f163c4a11628f55a4df523b3ef836040518082815260200191505060405180910390a35050565b60006e010000000000000000000000000000826dffffffffffffffffffffffffffff16029050919050565b6000816dffffffffffffffffffffffffffff167bffffffffffffffffffffffffffffffffffffffffffffffffffffffff16837bffffffffffffffffffffffffffffffffffffffffffffffffffffffff168161385757fe5b04905092915050565b60008282840191508110156138dd576040517f08c379a00000000000000000000000000000000000000000000000000000000081526004018080602001828103825260148152602001807f64732d6d6174682d6164642d6f766572666c6f7700000000000000000000000081525060200191505060405180910390fd5b9291505056fe4f70657261537761703a20494e53554646494349454e545f494e5055545f414d4f554e544f70657261537761703a20494e53554646494349454e545f4c49515549444954595f4d494e5445444f70657261537761703a20494e53554646494349454e545f4f55545055545f414d4f554e544f70657261537761703a20494e53554646494349454e545f4c49515549444954595f4255524e45444f70657261537761703a20494e53554646494349454e545f4c4951554944495459a2646970667358221220353000e5d6e9b9e69da0faf38aa202790c4322218cf573bc35c25d2e3f1fbccf64736f6c634300060c0033",
  "immutableReferences": {},
  "source": "// SPDX-License-Identifier: UNLICENSED\r\npragma solidity =0.6.12;\r\n\r\nimport './interfaces/IOperaSwapFactory.sol';\r\nimport './OperaSwapPair.sol';\r\n\r\ncontract OperaSwapFactory is IOperaSwapFactory {\r\n    using SafeMath for uint;\r\n\r\n    address public override feeTo;\r\n    address public override feeToSetter;\r\n    uint256 public override feeToRateDivArg;\r\n    uint256 public override feeToRateMulArg;\r\n\r\n    bytes32 public initCodeHash;\r\n \r\n    mapping(address => mapping(address => address)) public override getPair;\r\n    address[] public override allPairs;\r\n\r\n    event PairCreated(address indexed token0, address indexed token1, address pair, uint);\r\n    event SetAdminAddress(address indexed caller, address indexed newAddress);\r\n    event SetFeeAddress(address indexed caller, address indexed newAddress);\r\n\r\n    constructor(address _feeToSetter) public {\r\n        feeToSetter = _feeToSetter;\r\n        initCodeHash = keccak256(abi.encodePacked(type(OperaSwapPair).creationCode));\r\n    }\r\n\r\n    function allPairsLength() external view override returns (uint) {\r\n        return allPairs.length;\r\n    }\r\n\r\n    function createPair(address tokenA, address tokenB) external override returns (address pair) {\r\n        require(tokenA != tokenB, 'OperaSwap: IDENTICAL_ADDRESSES');\r\n        (address token0, address token1) = tokenA < tokenB ? (tokenA, tokenB) : (tokenB, tokenA);\r\n        require(token0 != address(0), 'OperaSwap: ZERO_ADDRESS');\r\n        require(getPair[token0][token1] == address(0), 'OperaSwap: PAIR_EXISTS'); // single check is sufficient\r\n        bytes memory bytecode = type(OperaSwapPair).creationCode;\r\n        bytes32 salt = keccak256(abi.encodePacked(token0, token1));\r\n        assembly {\r\n            pair := create2(0, add(bytecode, 32), mload(bytecode), salt)\r\n        }\r\n        IOperaSwapPair(pair).initialize(token0, token1);\r\n        getPair[token0][token1] = pair;\r\n        getPair[token1][token0] = pair; // populate mapping in the reverse direction\r\n        allPairs.push(pair);\r\n        emit PairCreated(token0, token1, pair, allPairs.length);\r\n    }\r\n\r\n    function setFeeTo(address _feeTo) external override {\r\n        require(msg.sender == feeToSetter, 'OperaSwap: FORBIDDEN');\r\n        feeTo = _feeTo;\r\n        emit SetFeeAddress(msg.sender, _feeTo);\r\n    }\r\n\r\n    function setFeeToSetter(address _feeToSetter) external override {\r\n        require(msg.sender == feeToSetter, 'OperaSwap: FORBIDDEN');\r\n        feeToSetter = _feeToSetter;\r\n        emit SetAdminAddress(msg.sender, _feeToSetter);\r\n    }\r\n\r\n    function setFeeToRate(uint256 _rateDivArg, uint256 _rateMulArg) external override {\r\n        require(msg.sender == feeToSetter, 'OperaSwap: FORBIDDEN');\r\n        require(_rateDivArg > 0, \"OperaSwap: FEE_TO_RATE_DIV_OVERFLOW\");\r\n        feeToRateDivArg = _rateDivArg;\r\n        feeToRateMulArg = _rateMulArg;\r\n    }\r\n\r\n    // returns sorted token addresses, used to handle return values from pairs sorted in this order\r\n    function sortTokens(address tokenA, address tokenB) public pure override returns (address token0, address token1) {\r\n        require(tokenA != tokenB, 'MdexSwapFactory: IDENTICAL_ADDRESSES');\r\n        (token0, token1) = tokenA < tokenB ? (tokenA, tokenB) : (tokenB, tokenA);\r\n        require(token0 != address(0), 'MdexSwapFactory: ZERO_ADDRESS');\r\n    }\r\n\r\n    // calculates the CREATE2 address for a pair without making any external calls\r\n    function pairFor(address tokenA, address tokenB) public view override returns (address pair) {\r\n        (address token0, address token1) = sortTokens(tokenA, tokenB);\r\n        pair = address(uint(keccak256(abi.encodePacked(\r\n                hex'ff',\r\n                address(this),\r\n                keccak256(abi.encodePacked(token0, token1)),\r\n                initCodeHash\r\n            ))));\r\n    }\r\n\r\n    // fetches and sorts the reserves for a pair\r\n    function getReserves(address tokenA, address tokenB) public view override returns (uint reserveA, uint reserveB) {\r\n        (address token0,) = sortTokens(tokenA, tokenB);\r\n        pairFor(tokenA, tokenB);\r\n        (uint reserve0, uint reserve1,) = IOperaSwapPair(pairFor(tokenA, tokenB)).getReserves();\r\n        (reserveA, reserveB) = tokenA == token0 ? (reserve0, reserve1) : (reserve1, reserve0);\r\n    }\r\n\r\n    // given some amount of an asset and pair reserves, returns an equivalent amount of the other asset\r\n    function quote(uint amountA, uint reserveA, uint reserveB) public pure override returns (uint amountB) {\r\n        require(amountA > 0, 'OperaSwapLibrary: INSUFFICIENT_AMOUNT');\r\n        require(reserveA > 0 && reserveB > 0, 'OperaSwapLibrary: INSUFFICIENT_LIQUIDITY');\r\n        amountB = amountA.mul(reserveB) / reserveA;\r\n    }\r\n\r\n    // given an input amount of an asset and pair reserves, returns the maximum output amount of the other asset\r\n    function getAmountOut(uint amountIn, uint reserveIn, uint reserveOut) public view override returns (uint amountOut) {\r\n        require(amountIn > 0, 'OperaSwapLibrary: INSUFFICIENT_INPUT_AMOUNT');\r\n        require(reserveIn > 0 && reserveOut > 0, 'OperaSwapLibrary: INSUFFICIENT_LIQUIDITY');\r\n        uint amountInWithFee = amountIn.mul(997);\r\n        uint numerator = amountInWithFee.mul(reserveOut);\r\n        uint denominator = reserveIn.mul(1000).add(amountInWithFee);\r\n        amountOut = numerator / denominator;\r\n    }\r\n\r\n    // given an output amount of an asset and pair reserves, returns a required input amount of the other asset\r\n    function getAmountIn(uint amountOut, uint reserveIn, uint reserveOut) public view override returns (uint amountIn) {\r\n        require(amountOut > 0, 'OperaSwapLibrary: INSUFFICIENT_OUTPUT_AMOUNT');\r\n        require(reserveIn > 0 && reserveOut > 0, 'OperaSwapLibrary: INSUFFICIENT_LIQUIDITY');\r\n        uint numerator = reserveIn.mul(amountOut).mul(1000);\r\n        uint denominator = reserveOut.sub(amountOut).mul(997);\r\n        amountIn = (numerator / denominator).add(1);\r\n    }\r\n\r\n    // performs chained getAmountOut calculations on any number of pairs\r\n    function getAmountsOut(uint amountIn, address[] memory path) public view override returns (uint[] memory amounts) {\r\n        require(path.length >= 2, 'OperaSwapLibrary: INVALID_PATH');\r\n        amounts = new uint[](path.length);\r\n        amounts[0] = amountIn;\r\n        for (uint i; i < path.length - 1; i++) {\r\n            (uint reserveIn, uint reserveOut) = getReserves(path[i], path[i + 1]);\r\n            amounts[i + 1] = getAmountOut(amounts[i], reserveIn, reserveOut);\r\n        }\r\n    }\r\n\r\n    // performs chained getAmountIn calculations on any number of pairs\r\n    function getAmountsIn(uint amountOut, address[] memory path) public view override returns (uint[] memory amounts) {\r\n        require(path.length >= 2, 'OperaSwapLibrary: INVALID_PATH');\r\n        amounts = new uint[](path.length);\r\n        amounts[amounts.length - 1] = amountOut;\r\n        for (uint i = path.length - 1; i > 0; i--) {\r\n            (uint reserveIn, uint reserveOut) = getReserves(path[i - 1], path[i]);\r\n            amounts[i - 1] = getAmountIn(amounts[i], reserveIn, reserveOut);\r\n        }\r\n    }\r\n}",
  "sourcePath": "D:\\Posao - Stefan\\Stefan - razno\\Blockchain\\ElavateFinance\\auto-swap\\contracts\\OperaSwapFactory.sol",
  "compiler": {
    "name": "solc",
    "version": "0.6.12+commit.27d51765.Emscripten.clang"
  },
  "schemaVersion": "3.4.3",
  "updatedAt": "2021-08-19T08:23:20.962Z",
  "devdoc": {
    "kind": "dev",
    "methods": {},
    "version": 1
  },
  "userdoc": {
    "kind": "user",
    "methods": {},
    "version": 1
  }
}