{
  "contractName": "RewardStorage",
  "abi": [
    {
      "inputs": [
        {
          "internalType": "contract IERC20",
          "name": "_glide",
          "type": "address"
        }
      ],
      "stateMutability": "nonpayable",
      "type": "constructor"
    },
    {
      "anonymous": false,
      "inputs": [
        {
          "indexed": true,
          "internalType": "address",
          "name": "previousOwner",
          "type": "address"
        },
        {
          "indexed": true,
          "internalType": "address",
          "name": "newOwner",
          "type": "address"
        }
      ],
      "name": "OwnershipTransferred",
      "type": "event"
    },
    {
      "inputs": [],
      "name": "glide",
      "outputs": [
        {
          "internalType": "contract IERC20",
          "name": "",
          "type": "address"
        }
      ],
      "stateMutability": "view",
      "type": "function"
    },
    {
      "inputs": [],
      "name": "owner",
      "outputs": [
        {
          "internalType": "address",
          "name": "",
          "type": "address"
        }
      ],
      "stateMutability": "view",
      "type": "function"
    },
    {
      "inputs": [],
      "name": "renounceOwnership",
      "outputs": [],
      "stateMutability": "nonpayable",
      "type": "function"
    },
    {
      "inputs": [
        {
          "internalType": "address",
          "name": "newOwner",
          "type": "address"
        }
      ],
      "name": "transferOwnership",
      "outputs": [],
      "stateMutability": "nonpayable",
      "type": "function"
    },
    {
      "inputs": [
        {
          "internalType": "address",
          "name": "_to",
          "type": "address"
        },
        {
          "internalType": "uint256",
          "name": "_amount",
          "type": "uint256"
        }
      ],
      "name": "safeGlideTransfer",
      "outputs": [],
      "stateMutability": "nonpayable",
      "type": "function"
    }
  ],
  "bytecode": "0x608060405234801561001057600080fd5b506040516108723803806108728339818101604052602081101561003357600080fd5b5051600061003f6100ae565b600080546001600160a01b0319166001600160a01b0383169081178255604051929350917f8be0079c531659141344cd1fd0a4f28419497f9722a3daafe3b4186f6b6457e0908290a350600180546001600160a01b0319166001600160a01b03929092169190911790556100b2565b3390565b6107b1806100c16000396000f3fe608060405234801561001057600080fd5b50600436106100575760003560e01c8063141398051461005c578063715018a6146100805780638da5cb5b1461008a578063b918be3c14610092578063f2fde38b146100be575b600080fd5b6100646100e4565b604080516001600160a01b039092168252519081900360200190f35b6100886100f3565b005b6100646101a7565b610088600480360360408110156100a857600080fd5b506001600160a01b0381351690602001356101b6565b610088600480360360208110156100d457600080fd5b50356001600160a01b03166102d9565b6001546001600160a01b031681565b6100fb6103e3565b6000546001600160a01b0390811691161461015d576040805162461bcd60e51b815260206004820181905260248201527f4f776e61626c653a2063616c6c6572206973206e6f7420746865206f776e6572604482015290519081900360640190fd5b600080546040516001600160a01b03909116907f8be0079c531659141344cd1fd0a4f28419497f9722a3daafe3b4186f6b6457e0908390a3600080546001600160a01b0319169055565b6000546001600160a01b031690565b6101be6103e3565b6000546001600160a01b03908116911614610220576040805162461bcd60e51b815260206004820181905260248201527f4f776e61626c653a2063616c6c6572206973206e6f7420746865206f776e6572604482015290519081900360640190fd5b600154604080516370a0823160e01b815230600482015290516000926001600160a01b0316916370a08231916024808301926020929190829003018186803b15801561026b57600080fd5b505afa15801561027f573d6000803e3d6000fd5b505050506040513d602081101561029557600080fd5b50519050808211156102bd576001546102b8906001600160a01b031684836103e7565b6102d4565b6001546102d4906001600160a01b031684846103e7565b505050565b6102e16103e3565b6000546001600160a01b03908116911614610343576040805162461bcd60e51b815260206004820181905260248201527f4f776e61626c653a2063616c6c6572206973206e6f7420746865206f776e6572604482015290519081900360640190fd5b6001600160a01b0381166103885760405162461bcd60e51b81526004018080602001828103825260268152602001806107066026913960400191505060405180910390fd5b600080546040516001600160a01b03808516939216917f8be0079c531659141344cd1fd0a4f28419497f9722a3daafe3b4186f6b6457e091a3600080546001600160a01b0319166001600160a01b0392909216919091179055565b3390565b604080516001600160a01b038416602482015260448082018490528251808303909101815260649091019091526020810180516001600160e01b031663a9059cbb60e01b1790526102d49084906060610489826040518060400160405280602081526020017f5361666545524332303a206c6f772d6c6576656c2063616c6c206661696c6564815250856001600160a01b03166104e59092919063ffffffff16565b8051909150156102d4578080602001905160208110156104a857600080fd5b50516102d45760405162461bcd60e51b815260040180806020018281038252602a815260200180610752602a913960400191505060405180910390fd5b60606104f484846000856104fe565b90505b9392505050565b606030318311156105405760405162461bcd60e51b815260040180806020018281038252602681526020018061072c6026913960400191505060405180910390fd5b6105498561065b565b61059a576040805162461bcd60e51b815260206004820152601d60248201527f416464726573733a2063616c6c20746f206e6f6e2d636f6e7472616374000000604482015290519081900360640190fd5b60006060866001600160a01b031685876040518082805190602001908083835b602083106105d95780518252601f1990920191602091820191016105ba565b6001836020036101000a03801982511681845116808217855250505050505090500191505060006040518083038185875af1925050503d806000811461063b576040519150601f19603f3d011682016040523d82523d6000602084013e610640565b606091505b5091509150610650828286610661565b979650505050505050565b3b151590565b606083156106705750816104f7565b8251156106805782518084602001fd5b8160405162461bcd60e51b81526004018080602001828103825283818151815260200191508051906020019080838360005b838110156106ca5781810151838201526020016106b2565b50505050905090810190601f1680156106f75780820380516001836020036101000a031916815260200191505b509250505060405180910390fdfe4f776e61626c653a206e6577206f776e657220697320746865207a65726f2061646472657373416464726573733a20696e73756666696369656e742062616c616e636520666f722063616c6c5361666545524332303a204552433230206f7065726174696f6e20646964206e6f742073756363656564a26469706673582212205cf40979d76d5ee994ef3eaa5091076fc1200330ea6a8694d249488d7708cfeb64736f6c634300060c0033",
  "immutableReferences": {},
  "source": "// SPDX-License-Identifier: UNLICENSED\r\n\r\npragma solidity 0.6.12;\r\n\r\nimport '@openzeppelin/contracts/token/ERC20/IERC20.sol';\r\nimport '@openzeppelin/contracts/token/ERC20/SafeERC20.sol';\r\nimport \"@openzeppelin/contracts/access/Ownable.sol\";\r\n\r\ncontract RewardStorage is Ownable {\r\n    using SafeERC20 for IERC20;\r\n\r\n    // The GLIDE TOKEN!\r\n    IERC20 public glide;\r\n\r\n    constructor(\r\n        IERC20 _glide\r\n    ) public {\r\n        glide = _glide;\r\n    }\r\n\r\n    // Safe glide transfer function, just in case if rounding error causes pool to not have enough GLIDEs.\r\n    function safeGlideTransfer(address _to, uint256 _amount) external onlyOwner {\r\n        uint256 glideBal = glide.balanceOf(address(this));\r\n        if (_amount > glideBal) {\r\n            glide.safeTransfer(_to, glideBal);\r\n        } else {\r\n            glide.safeTransfer(_to, _amount);\r\n        }\r\n    }\r\n}",
  "sourcePath": "D:\\Posao - Stefan\\Stefan - razno\\Blockchain\\ElavateFinance\\auto-swap\\contracts\\RewardStorage.sol",
  "compiler": {
    "name": "solc",
    "version": "0.6.12+commit.27d51765.Emscripten.clang"
  },
  "schemaVersion": "3.4.3",
  "updatedAt": "2021-08-27T10:52:13.313Z",
  "devdoc": {
    "kind": "dev",
    "methods": {
      "owner()": {
        "details": "Returns the address of the current owner."
      },
      "renounceOwnership()": {
        "details": "Leaves the contract without owner. It will not be possible to call `onlyOwner` functions anymore. Can only be called by the current owner. NOTE: Renouncing ownership will leave the contract without an owner, thereby removing any functionality that is only available to the owner."
      },
      "transferOwnership(address)": {
        "details": "Transfers ownership of the contract to a new account (`newOwner`). Can only be called by the current owner."
      }
    },
    "version": 1
  },
  "userdoc": {
    "kind": "user",
    "methods": {},
    "version": 1
  }
}