{
  "contractName": "Sugar",
  "abi": [
    {
      "inputs": [
        {
          "internalType": "contract GlideToken",
          "name": "_glide",
          "type": "address"
        }
      ],
      "stateMutability": "nonpayable",
      "type": "constructor"
    },
    {
      "anonymous": false,
      "inputs": [
        {
          "indexed": true,
          "internalType": "address",
          "name": "owner",
          "type": "address"
        },
        {
          "indexed": true,
          "internalType": "address",
          "name": "spender",
          "type": "address"
        },
        {
          "indexed": false,
          "internalType": "uint256",
          "name": "value",
          "type": "uint256"
        }
      ],
      "name": "Approval",
      "type": "event"
    },
    {
      "anonymous": false,
      "inputs": [
        {
          "indexed": true,
          "internalType": "address",
          "name": "previousOwner",
          "type": "address"
        },
        {
          "indexed": true,
          "internalType": "address",
          "name": "newOwner",
          "type": "address"
        }
      ],
      "name": "OwnershipTransferred",
      "type": "event"
    },
    {
      "anonymous": false,
      "inputs": [
        {
          "indexed": true,
          "internalType": "address",
          "name": "from",
          "type": "address"
        },
        {
          "indexed": true,
          "internalType": "address",
          "name": "to",
          "type": "address"
        },
        {
          "indexed": false,
          "internalType": "uint256",
          "name": "value",
          "type": "uint256"
        }
      ],
      "name": "Transfer",
      "type": "event"
    },
    {
      "inputs": [
        {
          "internalType": "address",
          "name": "owner",
          "type": "address"
        },
        {
          "internalType": "address",
          "name": "spender",
          "type": "address"
        }
      ],
      "name": "allowance",
      "outputs": [
        {
          "internalType": "uint256",
          "name": "",
          "type": "uint256"
        }
      ],
      "stateMutability": "view",
      "type": "function",
      "constant": true
    },
    {
      "inputs": [
        {
          "internalType": "address",
          "name": "spender",
          "type": "address"
        },
        {
          "internalType": "uint256",
          "name": "amount",
          "type": "uint256"
        }
      ],
      "name": "approve",
      "outputs": [
        {
          "internalType": "bool",
          "name": "",
          "type": "bool"
        }
      ],
      "stateMutability": "nonpayable",
      "type": "function"
    },
    {
      "inputs": [
        {
          "internalType": "address",
          "name": "account",
          "type": "address"
        }
      ],
      "name": "balanceOf",
      "outputs": [
        {
          "internalType": "uint256",
          "name": "",
          "type": "uint256"
        }
      ],
      "stateMutability": "view",
      "type": "function",
      "constant": true
    },
    {
      "inputs": [],
      "name": "decimals",
      "outputs": [
        {
          "internalType": "uint8",
          "name": "",
          "type": "uint8"
        }
      ],
      "stateMutability": "view",
      "type": "function",
      "constant": true
    },
    {
      "inputs": [
        {
          "internalType": "address",
          "name": "spender",
          "type": "address"
        },
        {
          "internalType": "uint256",
          "name": "subtractedValue",
          "type": "uint256"
        }
      ],
      "name": "decreaseAllowance",
      "outputs": [
        {
          "internalType": "bool",
          "name": "",
          "type": "bool"
        }
      ],
      "stateMutability": "nonpayable",
      "type": "function"
    },
    {
      "inputs": [],
      "name": "glide",
      "outputs": [
        {
          "internalType": "contract GlideToken",
          "name": "",
          "type": "address"
        }
      ],
      "stateMutability": "view",
      "type": "function",
      "constant": true
    },
    {
      "inputs": [
        {
          "internalType": "address",
          "name": "spender",
          "type": "address"
        },
        {
          "internalType": "uint256",
          "name": "addedValue",
          "type": "uint256"
        }
      ],
      "name": "increaseAllowance",
      "outputs": [
        {
          "internalType": "bool",
          "name": "",
          "type": "bool"
        }
      ],
      "stateMutability": "nonpayable",
      "type": "function"
    },
    {
      "inputs": [],
      "name": "name",
      "outputs": [
        {
          "internalType": "string",
          "name": "",
          "type": "string"
        }
      ],
      "stateMutability": "view",
      "type": "function",
      "constant": true
    },
    {
      "inputs": [],
      "name": "owner",
      "outputs": [
        {
          "internalType": "address",
          "name": "",
          "type": "address"
        }
      ],
      "stateMutability": "view",
      "type": "function",
      "constant": true
    },
    {
      "inputs": [],
      "name": "renounceOwnership",
      "outputs": [],
      "stateMutability": "nonpayable",
      "type": "function"
    },
    {
      "inputs": [],
      "name": "symbol",
      "outputs": [
        {
          "internalType": "string",
          "name": "",
          "type": "string"
        }
      ],
      "stateMutability": "view",
      "type": "function",
      "constant": true
    },
    {
      "inputs": [],
      "name": "totalSupply",
      "outputs": [
        {
          "internalType": "uint256",
          "name": "",
          "type": "uint256"
        }
      ],
      "stateMutability": "view",
      "type": "function",
      "constant": true
    },
    {
      "inputs": [
        {
          "internalType": "address",
          "name": "recipient",
          "type": "address"
        },
        {
          "internalType": "uint256",
          "name": "amount",
          "type": "uint256"
        }
      ],
      "name": "transfer",
      "outputs": [
        {
          "internalType": "bool",
          "name": "",
          "type": "bool"
        }
      ],
      "stateMutability": "nonpayable",
      "type": "function"
    },
    {
      "inputs": [
        {
          "internalType": "address",
          "name": "sender",
          "type": "address"
        },
        {
          "internalType": "address",
          "name": "recipient",
          "type": "address"
        },
        {
          "internalType": "uint256",
          "name": "amount",
          "type": "uint256"
        }
      ],
      "name": "transferFrom",
      "outputs": [
        {
          "internalType": "bool",
          "name": "",
          "type": "bool"
        }
      ],
      "stateMutability": "nonpayable",
      "type": "function"
    },
    {
      "inputs": [
        {
          "internalType": "address",
          "name": "newOwner",
          "type": "address"
        }
      ],
      "name": "transferOwnership",
      "outputs": [],
      "stateMutability": "nonpayable",
      "type": "function"
    },
    {
      "inputs": [
        {
          "internalType": "address",
          "name": "_to",
          "type": "address"
        },
        {
          "internalType": "uint256",
          "name": "_amount",
          "type": "uint256"
        }
      ],
      "name": "mint",
      "outputs": [],
      "stateMutability": "nonpayable",
      "type": "function"
    },
    {
      "inputs": [
        {
          "internalType": "address",
          "name": "_from",
          "type": "address"
        },
        {
          "internalType": "uint256",
          "name": "_amount",
          "type": "uint256"
        }
      ],
      "name": "burn",
      "outputs": [],
      "stateMutability": "nonpayable",
      "type": "function"
    },
    {
      "inputs": [
        {
          "internalType": "address",
          "name": "_to",
          "type": "address"
        },
        {
          "internalType": "uint256",
          "name": "_amount",
          "type": "uint256"
        }
      ],
      "name": "safeGlideTransfer",
      "outputs": [],
      "stateMutability": "nonpayable",
      "type": "function"
    }
  ],
  "bytecode": "0x60806040523480156200001157600080fd5b506040516200149b3803806200149b833981810160405260208110156200003757600080fd5b5051604080518082018252600b81527f537567617220546f6b656e00000000000000000000000000000000000000000060208281019182528351808501909452600584527f5355474152000000000000000000000000000000000000000000000000000000908401528151919291620000b39160039162000165565b508051620000c990600490602084019062000165565b50506005805460ff19166012179055506000620000e562000161565b60058054610100600160a81b0319166101006001600160a01b03841690810291909117909155604051919250906000907f8be0079c531659141344cd1fd0a4f28419497f9722a3daafe3b4186f6b6457e0908290a350600680546001600160a01b0319166001600160a01b039290921691909117905562000201565b3390565b828054600181600116156101000203166002900490600052602060002090601f016020900481019282601f10620001a857805160ff1916838001178555620001d8565b82800160010185558215620001d8579182015b82811115620001d8578251825591602001919060010190620001bb565b50620001e6929150620001ea565b5090565b5b80821115620001e65760008155600101620001eb565b61128a80620002116000396000f3fe608060405234801561001057600080fd5b50600436106101165760003560e01c8063715018a6116100a2578063a457c2d711610071578063a457c2d71461032e578063a9059cbb1461035a578063b918be3c14610386578063dd62ed3e146103b2578063f2fde38b146103e057610116565b8063715018a6146102ea5780638da5cb5b146102f257806395d89b41146102fa5780639dc29fac1461030257610116565b806323b872dd116100e957806323b872dd14610216578063313ce5671461024c578063395093511461026a57806340c10f191461029657806370a08231146102c457610116565b806306fdde031461011b578063095ea7b31461019857806314139805146101d857806318160ddd146101fc575b600080fd5b610123610406565b6040805160208082528351818301528351919283929083019185019080838360005b8381101561015d578181015183820152602001610145565b50505050905090810190601f16801561018a5780820380516001836020036101000a031916815260200191505b509250505060405180910390f35b6101c4600480360360408110156101ae57600080fd5b506001600160a01b03813516906020013561049c565b604080519115158252519081900360200190f35b6101e06104b9565b604080516001600160a01b039092168252519081900360200190f35b6102046104c8565b60408051918252519081900360200190f35b6101c46004803603606081101561022c57600080fd5b506001600160a01b038135811691602081013590911690604001356104ce565b610254610555565b6040805160ff9092168252519081900360200190f35b6101c46004803603604081101561028057600080fd5b506001600160a01b03813516906020013561055e565b6102c2600480360360408110156102ac57600080fd5b506001600160a01b0381351690602001356105ac565b005b610204600480360360208110156102da57600080fd5b50356001600160a01b0316610617565b6102c2610632565b6101e06106df565b6101236106f3565b6102c26004803603604081101561031857600080fd5b506001600160a01b038135169060200135610754565b6101c46004803603604081101561034457600080fd5b506001600160a01b0381351690602001356107bb565b6101c46004803603604081101561037057600080fd5b506001600160a01b038135169060200135610823565b6102c26004803603604081101561039c57600080fd5b506001600160a01b038135169060200135610837565b610204600480360360408110156103c857600080fd5b506001600160a01b0381358116916020013516610a25565b6102c2600480360360208110156103f657600080fd5b50356001600160a01b0316610a50565b60038054604080516020601f60026000196101006001881615020190951694909404938401819004810282018101909252828152606093909290918301828280156104925780601f1061046757610100808354040283529160200191610492565b820191906000526020600020905b81548152906001019060200180831161047557829003601f168201915b5050505050905090565b60006104b06104a9610b59565b8484610b5d565b50600192915050565b6006546001600160a01b031681565b60025490565b60006104db848484610c49565b61054b846104e7610b59565b6105468560405180606001604052806028815260200161117e602891396001600160a01b038a16600090815260016020526040812090610525610b59565b6001600160a01b031681526020810191909152604001600020549190610da4565b610b5d565b5060019392505050565b60055460ff1690565b60006104b061056b610b59565b84610546856001600061057c610b59565b6001600160a01b03908116825260208083019390935260409182016000908120918c168152925290205490610e3b565b6105b4610b59565b60055461010090046001600160a01b03908116911614610609576040805162461bcd60e51b815260206004820181905260248201526000805160206111a6833981519152604482015290519081900360640190fd5b6106138282610e9c565b5050565b6001600160a01b031660009081526020819052604090205490565b61063a610b59565b60055461010090046001600160a01b0390811691161461068f576040805162461bcd60e51b815260206004820181905260248201526000805160206111a6833981519152604482015290519081900360640190fd5b60055460405160009161010090046001600160a01b0316907f8be0079c531659141344cd1fd0a4f28419497f9722a3daafe3b4186f6b6457e0908390a360058054610100600160a81b0319169055565b60055461010090046001600160a01b031690565b60048054604080516020601f60026000196101006001881615020190951694909404938401819004810282018101909252828152606093909290918301828280156104925780601f1061046757610100808354040283529160200191610492565b61075c610b59565b60055461010090046001600160a01b039081169116146107b1576040805162461bcd60e51b815260206004820181905260248201526000805160206111a6833981519152604482015290519081900360640190fd5b6106138282610f8c565b60006104b06107c8610b59565b846105468560405180606001604052806025815260200161123060259139600160006107f2610b59565b6001600160a01b03908116825260208083019390935260409182016000908120918d16815292529020549190610da4565b60006104b0610830610b59565b8484610c49565b61083f610b59565b60055461010090046001600160a01b03908116911614610894576040805162461bcd60e51b815260206004820181905260248201526000805160206111a6833981519152604482015290519081900360640190fd5b600654604080516370a0823160e01b815230600482015290516000926001600160a01b0316916370a08231916024808301926020929190829003018186803b1580156108df57600080fd5b505afa1580156108f3573d6000803e3d6000fd5b505050506040513d602081101561090957600080fd5b505190508082111561099d576006546040805163a9059cbb60e01b81526001600160a01b038681166004830152602482018590529151919092169163a9059cbb9160448083019260209291908290030181600087803b15801561096b57600080fd5b505af115801561097f573d6000803e3d6000fd5b505050506040513d602081101561099557600080fd5b50610a209050565b6006546040805163a9059cbb60e01b81526001600160a01b038681166004830152602482018690529151919092169163a9059cbb9160448083019260209291908290030181600087803b1580156109f357600080fd5b505af1158015610a07573d6000803e3d6000fd5b505050506040513d6020811015610a1d57600080fd5b50505b505050565b6001600160a01b03918216600090815260016020908152604080832093909416825291909152205490565b610a58610b59565b60055461010090046001600160a01b03908116911614610aad576040805162461bcd60e51b815260206004820181905260248201526000805160206111a6833981519152604482015290519081900360640190fd5b6001600160a01b038116610af25760405162461bcd60e51b81526004018080602001828103825260268152602001806111106026913960400191505060405180910390fd5b6005546040516001600160a01b0380841692610100900416907f8be0079c531659141344cd1fd0a4f28419497f9722a3daafe3b4186f6b6457e090600090a3600580546001600160a01b0390921661010002610100600160a81b0319909216919091179055565b3390565b6001600160a01b038316610ba25760405162461bcd60e51b815260040180806020018281038252602481526020018061120c6024913960400191505060405180910390fd5b6001600160a01b038216610be75760405162461bcd60e51b81526004018080602001828103825260228152602001806111366022913960400191505060405180910390fd5b6001600160a01b03808416600081815260016020908152604080832094871680845294825291829020859055815185815291517f8c5be1e5ebec7d5bd14f71427d1e84f3dd0314c0f7b2291e5b200ac8c7c3b9259281900390910190a3505050565b6001600160a01b038316610c8e5760405162461bcd60e51b81526004018080602001828103825260258152602001806111e76025913960400191505060405180910390fd5b6001600160a01b038216610cd35760405162461bcd60e51b81526004018080602001828103825260238152602001806110cb6023913960400191505060405180910390fd5b610cde838383610a20565b610d1b81604051806060016040528060268152602001611158602691396001600160a01b0386166000908152602081905260409020549190610da4565b6001600160a01b038085166000908152602081905260408082209390935590841681522054610d4a9082610e3b565b6001600160a01b038084166000818152602081815260409182902094909455805185815290519193928716927fddf252ad1be2c89b69c2b068fc378daa952ba7f163c4a11628f55a4df523b3ef92918290030190a3505050565b60008184841115610e335760405162461bcd60e51b81526004018080602001828103825283818151815260200191508051906020019080838360005b83811015610df8578181015183820152602001610de0565b50505050905090810190601f168015610e255780820380516001836020036101000a031916815260200191505b509250505060405180910390fd5b505050900390565b600082820183811015610e95576040805162461bcd60e51b815260206004820152601b60248201527f536166654d6174683a206164646974696f6e206f766572666c6f770000000000604482015290519081900360640190fd5b9392505050565b6001600160a01b038216610ef7576040805162461bcd60e51b815260206004820152601f60248201527f45524332303a206d696e7420746f20746865207a65726f206164647265737300604482015290519081900360640190fd5b610f0360008383610a20565b600254610f109082610e3b565b6002556001600160a01b038216600090815260208190526040902054610f369082610e3b565b6001600160a01b0383166000818152602081815260408083209490945583518581529351929391927fddf252ad1be2c89b69c2b068fc378daa952ba7f163c4a11628f55a4df523b3ef9281900390910190a35050565b6001600160a01b038216610fd15760405162461bcd60e51b81526004018080602001828103825260218152602001806111c66021913960400191505060405180910390fd5b610fdd82600083610a20565b61101a816040518060600160405280602281526020016110ee602291396001600160a01b0385166000908152602081905260409020549190610da4565b6001600160a01b0383166000908152602081905260409020556002546110409082611088565b6002556040805182815290516000916001600160a01b038516917fddf252ad1be2c89b69c2b068fc378daa952ba7f163c4a11628f55a4df523b3ef9181900360200190a35050565b6000610e9583836040518060400160405280601e81526020017f536166654d6174683a207375627472616374696f6e206f766572666c6f770000815250610da456fe45524332303a207472616e7366657220746f20746865207a65726f206164647265737345524332303a206275726e20616d6f756e7420657863656564732062616c616e63654f776e61626c653a206e6577206f776e657220697320746865207a65726f206164647265737345524332303a20617070726f766520746f20746865207a65726f206164647265737345524332303a207472616e7366657220616d6f756e7420657863656564732062616c616e636545524332303a207472616e7366657220616d6f756e74206578636565647320616c6c6f77616e63654f776e61626c653a2063616c6c6572206973206e6f7420746865206f776e657245524332303a206275726e2066726f6d20746865207a65726f206164647265737345524332303a207472616e736665722066726f6d20746865207a65726f206164647265737345524332303a20617070726f76652066726f6d20746865207a65726f206164647265737345524332303a2064656372656173656420616c6c6f77616e63652062656c6f77207a65726fa264697066735822122079cf9ca8d19f7ec614904cbbfcf56c14185e70f7bb6cac22f43f45064de28eb464736f6c634300060c0033",
  "immutableReferences": {},
  "source": "// SPDX-License-Identifier: UNLICENSED\r\npragma solidity 0.6.12;\r\n\r\nimport '@openzeppelin/contracts/token/ERC20/ERC20.sol';\r\nimport '@openzeppelin/contracts/access/Ownable.sol';\r\n\r\nimport \"./GlideToken.sol\";\r\n\r\n// Sugar with Governance.\r\ncontract Sugar is ERC20('Sugar Token', 'SUGAR'), Ownable {\r\n    /// @notice Creates `_amount` token to `_to`. Must only be called by the owner (MasterChef).\r\n    function mint(address _to, uint256 _amount) public onlyOwner {\r\n        _mint(_to, _amount);\r\n    }\r\n\r\n    function burn(address _from ,uint256 _amount) public onlyOwner {\r\n        _burn(_from, _amount);\r\n    }\r\n\r\n    // The GLIDE TOKEN!\r\n    GlideToken public glide;\r\n\r\n    constructor(\r\n        GlideToken _glide\r\n    ) public {\r\n        glide = _glide;\r\n    }\r\n\r\n    // Safe glide transfer function, just in case if rounding error causes pool to not have enough GLIDEs.\r\n    function safeGlideTransfer(address _to, uint256 _amount) public onlyOwner {\r\n        uint256 glideBal = glide.balanceOf(address(this));\r\n        if (_amount > glideBal) {\r\n            glide.transfer(_to, glideBal);\r\n        } else {\r\n            glide.transfer(_to, _amount);\r\n        }\r\n    }\r\n}",
  "sourcePath": "D:\\Posao-Stefan\\Stefan-razno\\Blockchain\\GlideFinance\\glide-contracts\\contracts\\Farm\\Sugar.sol",
  "compiler": {
    "name": "solc",
    "version": "0.6.12+commit.27d51765.Emscripten.clang"
  },
  "schemaVersion": "3.4.3",
  "updatedAt": "2021-10-10T19:26:05.061Z",
  "networkType": "ethereum",
  "devdoc": {
    "kind": "dev",
    "methods": {
      "allowance(address,address)": {
        "details": "See {IERC20-allowance}."
      },
      "approve(address,uint256)": {
        "details": "See {IERC20-approve}. Requirements: - `spender` cannot be the zero address."
      },
      "balanceOf(address)": {
        "details": "See {IERC20-balanceOf}."
      },
      "decimals()": {
        "details": "Returns the number of decimals used to get its user representation. For example, if `decimals` equals `2`, a balance of `505` tokens should be displayed to a user as `5,05` (`505 / 10 ** 2`). Tokens usually opt for a value of 18, imitating the relationship between Ether and Wei. This is the value {ERC20} uses, unless {_setupDecimals} is called. NOTE: This information is only used for _display_ purposes: it in no way affects any of the arithmetic of the contract, including {IERC20-balanceOf} and {IERC20-transfer}."
      },
      "decreaseAllowance(address,uint256)": {
        "details": "Atomically decreases the allowance granted to `spender` by the caller. This is an alternative to {approve} that can be used as a mitigation for problems described in {IERC20-approve}. Emits an {Approval} event indicating the updated allowance. Requirements: - `spender` cannot be the zero address. - `spender` must have allowance for the caller of at least `subtractedValue`."
      },
      "increaseAllowance(address,uint256)": {
        "details": "Atomically increases the allowance granted to `spender` by the caller. This is an alternative to {approve} that can be used as a mitigation for problems described in {IERC20-approve}. Emits an {Approval} event indicating the updated allowance. Requirements: - `spender` cannot be the zero address."
      },
      "name()": {
        "details": "Returns the name of the token."
      },
      "owner()": {
        "details": "Returns the address of the current owner."
      },
      "renounceOwnership()": {
        "details": "Leaves the contract without owner. It will not be possible to call `onlyOwner` functions anymore. Can only be called by the current owner. NOTE: Renouncing ownership will leave the contract without an owner, thereby removing any functionality that is only available to the owner."
      },
      "symbol()": {
        "details": "Returns the symbol of the token, usually a shorter version of the name."
      },
      "totalSupply()": {
        "details": "See {IERC20-totalSupply}."
      },
      "transfer(address,uint256)": {
        "details": "See {IERC20-transfer}. Requirements: - `recipient` cannot be the zero address. - the caller must have a balance of at least `amount`."
      },
      "transferFrom(address,address,uint256)": {
        "details": "See {IERC20-transferFrom}. Emits an {Approval} event indicating the updated allowance. This is not required by the EIP. See the note at the beginning of {ERC20}. Requirements: - `sender` and `recipient` cannot be the zero address. - `sender` must have a balance of at least `amount`. - the caller must have allowance for ``sender``'s tokens of at least `amount`."
      },
      "transferOwnership(address)": {
        "details": "Transfers ownership of the contract to a new account (`newOwner`). Can only be called by the current owner."
      }
    },
    "version": 1
  },
  "userdoc": {
    "kind": "user",
    "methods": {
      "mint(address,uint256)": {
        "notice": "Creates `_amount` token to `_to`. Must only be called by the owner (MasterChef)."
      }
    },
    "version": 1
  }
}