{
  "contractName": "Sugar",
  "abi": [
    {
      "inputs": [
        {
          "internalType": "contract GlideToken",
          "name": "_glide",
          "type": "address"
        }
      ],
      "stateMutability": "nonpayable",
      "type": "constructor"
    },
    {
      "anonymous": false,
      "inputs": [
        {
          "indexed": true,
          "internalType": "address",
          "name": "owner",
          "type": "address"
        },
        {
          "indexed": true,
          "internalType": "address",
          "name": "spender",
          "type": "address"
        },
        {
          "indexed": false,
          "internalType": "uint256",
          "name": "value",
          "type": "uint256"
        }
      ],
      "name": "Approval",
      "type": "event"
    },
    {
      "anonymous": false,
      "inputs": [
        {
          "indexed": true,
          "internalType": "address",
          "name": "previousOwner",
          "type": "address"
        },
        {
          "indexed": true,
          "internalType": "address",
          "name": "newOwner",
          "type": "address"
        }
      ],
      "name": "OwnershipTransferred",
      "type": "event"
    },
    {
      "anonymous": false,
      "inputs": [
        {
          "indexed": true,
          "internalType": "address",
          "name": "from",
          "type": "address"
        },
        {
          "indexed": true,
          "internalType": "address",
          "name": "to",
          "type": "address"
        },
        {
          "indexed": false,
          "internalType": "uint256",
          "name": "value",
          "type": "uint256"
        }
      ],
      "name": "Transfer",
      "type": "event"
    },
    {
      "inputs": [
        {
          "internalType": "address",
          "name": "owner",
          "type": "address"
        },
        {
          "internalType": "address",
          "name": "spender",
          "type": "address"
        }
      ],
      "name": "allowance",
      "outputs": [
        {
          "internalType": "uint256",
          "name": "",
          "type": "uint256"
        }
      ],
      "stateMutability": "view",
      "type": "function",
      "constant": true
    },
    {
      "inputs": [
        {
          "internalType": "address",
          "name": "spender",
          "type": "address"
        },
        {
          "internalType": "uint256",
          "name": "amount",
          "type": "uint256"
        }
      ],
      "name": "approve",
      "outputs": [
        {
          "internalType": "bool",
          "name": "",
          "type": "bool"
        }
      ],
      "stateMutability": "nonpayable",
      "type": "function"
    },
    {
      "inputs": [
        {
          "internalType": "address",
          "name": "account",
          "type": "address"
        }
      ],
      "name": "balanceOf",
      "outputs": [
        {
          "internalType": "uint256",
          "name": "",
          "type": "uint256"
        }
      ],
      "stateMutability": "view",
      "type": "function",
      "constant": true
    },
    {
      "inputs": [],
      "name": "decimals",
      "outputs": [
        {
          "internalType": "uint8",
          "name": "",
          "type": "uint8"
        }
      ],
      "stateMutability": "view",
      "type": "function",
      "constant": true
    },
    {
      "inputs": [
        {
          "internalType": "address",
          "name": "spender",
          "type": "address"
        },
        {
          "internalType": "uint256",
          "name": "subtractedValue",
          "type": "uint256"
        }
      ],
      "name": "decreaseAllowance",
      "outputs": [
        {
          "internalType": "bool",
          "name": "",
          "type": "bool"
        }
      ],
      "stateMutability": "nonpayable",
      "type": "function"
    },
    {
      "inputs": [],
      "name": "glide",
      "outputs": [
        {
          "internalType": "contract GlideToken",
          "name": "",
          "type": "address"
        }
      ],
      "stateMutability": "view",
      "type": "function",
      "constant": true
    },
    {
      "inputs": [
        {
          "internalType": "address",
          "name": "spender",
          "type": "address"
        },
        {
          "internalType": "uint256",
          "name": "addedValue",
          "type": "uint256"
        }
      ],
      "name": "increaseAllowance",
      "outputs": [
        {
          "internalType": "bool",
          "name": "",
          "type": "bool"
        }
      ],
      "stateMutability": "nonpayable",
      "type": "function"
    },
    {
      "inputs": [],
      "name": "name",
      "outputs": [
        {
          "internalType": "string",
          "name": "",
          "type": "string"
        }
      ],
      "stateMutability": "view",
      "type": "function",
      "constant": true
    },
    {
      "inputs": [],
      "name": "owner",
      "outputs": [
        {
          "internalType": "address",
          "name": "",
          "type": "address"
        }
      ],
      "stateMutability": "view",
      "type": "function",
      "constant": true
    },
    {
      "inputs": [],
      "name": "renounceOwnership",
      "outputs": [],
      "stateMutability": "nonpayable",
      "type": "function"
    },
    {
      "inputs": [],
      "name": "symbol",
      "outputs": [
        {
          "internalType": "string",
          "name": "",
          "type": "string"
        }
      ],
      "stateMutability": "view",
      "type": "function",
      "constant": true
    },
    {
      "inputs": [],
      "name": "totalSupply",
      "outputs": [
        {
          "internalType": "uint256",
          "name": "",
          "type": "uint256"
        }
      ],
      "stateMutability": "view",
      "type": "function",
      "constant": true
    },
    {
      "inputs": [
        {
          "internalType": "address",
          "name": "recipient",
          "type": "address"
        },
        {
          "internalType": "uint256",
          "name": "amount",
          "type": "uint256"
        }
      ],
      "name": "transfer",
      "outputs": [
        {
          "internalType": "bool",
          "name": "",
          "type": "bool"
        }
      ],
      "stateMutability": "nonpayable",
      "type": "function"
    },
    {
      "inputs": [
        {
          "internalType": "address",
          "name": "sender",
          "type": "address"
        },
        {
          "internalType": "address",
          "name": "recipient",
          "type": "address"
        },
        {
          "internalType": "uint256",
          "name": "amount",
          "type": "uint256"
        }
      ],
      "name": "transferFrom",
      "outputs": [
        {
          "internalType": "bool",
          "name": "",
          "type": "bool"
        }
      ],
      "stateMutability": "nonpayable",
      "type": "function"
    },
    {
      "inputs": [
        {
          "internalType": "address",
          "name": "newOwner",
          "type": "address"
        }
      ],
      "name": "transferOwnership",
      "outputs": [],
      "stateMutability": "nonpayable",
      "type": "function"
    },
    {
      "inputs": [
        {
          "internalType": "address",
          "name": "_to",
          "type": "address"
        },
        {
          "internalType": "uint256",
          "name": "_amount",
          "type": "uint256"
        }
      ],
      "name": "mint",
      "outputs": [],
      "stateMutability": "nonpayable",
      "type": "function"
    },
    {
      "inputs": [
        {
          "internalType": "address",
          "name": "_from",
          "type": "address"
        },
        {
          "internalType": "uint256",
          "name": "_amount",
          "type": "uint256"
        }
      ],
      "name": "burn",
      "outputs": [],
      "stateMutability": "nonpayable",
      "type": "function"
    },
    {
      "inputs": [
        {
          "internalType": "address",
          "name": "_to",
          "type": "address"
        },
        {
          "internalType": "uint256",
          "name": "_amount",
          "type": "uint256"
        }
      ],
      "name": "safeGlideTransfer",
      "outputs": [],
      "stateMutability": "nonpayable",
      "type": "function"
    }
  ],
  "bytecode": "0x60806040523480156200001157600080fd5b50604051620014d2380380620014d2833981810160405260208110156200003757600080fd5b505160408051808201825260058082527f5375676172000000000000000000000000000000000000000000000000000000602083810191825284518086019095529184527f5355474152000000000000000000000000000000000000000000000000000000918401919091528151919291620000b69160039162000168565b508051620000cc90600490602084019062000168565b50506005805460ff19166012179055506000620000e862000164565b60058054610100600160a81b0319166101006001600160a01b03841690810291909117909155604051919250906000907f8be0079c531659141344cd1fd0a4f28419497f9722a3daafe3b4186f6b6457e0908290a350600680546001600160a01b0319166001600160a01b039290921691909117905562000204565b3390565b828054600181600116156101000203166002900490600052602060002090601f016020900481019282601f10620001ab57805160ff1916838001178555620001db565b82800160010185558215620001db579182015b82811115620001db578251825591602001919060010190620001be565b50620001e9929150620001ed565b5090565b5b80821115620001e95760008155600101620001ee565b6112be80620002146000396000f3fe608060405234801561001057600080fd5b50600436106101165760003560e01c8063715018a6116100a2578063a457c2d711610071578063a457c2d71461032e578063a9059cbb1461035a578063b918be3c14610386578063dd62ed3e146103b2578063f2fde38b146103e057610116565b8063715018a6146102ea5780638da5cb5b146102f257806395d89b41146102fa5780639dc29fac1461030257610116565b806323b872dd116100e957806323b872dd14610216578063313ce5671461024c578063395093511461026a57806340c10f191461029657806370a08231146102c457610116565b806306fdde031461011b578063095ea7b31461019857806314139805146101d857806318160ddd146101fc575b600080fd5b610123610406565b6040805160208082528351818301528351919283929083019185019080838360005b8381101561015d578181015183820152602001610145565b50505050905090810190601f16801561018a5780820380516001836020036101000a031916815260200191505b509250505060405180910390f35b6101c4600480360360408110156101ae57600080fd5b506001600160a01b03813516906020013561049c565b604080519115158252519081900360200190f35b6101e06104b9565b604080516001600160a01b039092168252519081900360200190f35b6102046104c8565b60408051918252519081900360200190f35b6101c46004803603606081101561022c57600080fd5b506001600160a01b038135811691602081013590911690604001356104ce565b610254610555565b6040805160ff9092168252519081900360200190f35b6101c46004803603604081101561028057600080fd5b506001600160a01b03813516906020013561055e565b6102c2600480360360408110156102ac57600080fd5b506001600160a01b0381351690602001356105ac565b005b610204600480360360208110156102da57600080fd5b50356001600160a01b031661061c565b6102c2610637565b6101e06106e9565b6101236106fd565b6102c26004803603604081101561031857600080fd5b506001600160a01b03813516906020013561075e565b6101c46004803603604081101561034457600080fd5b506001600160a01b0381351690602001356107ca565b6101c46004803603604081101561037057600080fd5b506001600160a01b038135169060200135610832565b6102c26004803603604081101561039c57600080fd5b506001600160a01b038135169060200135610846565b610204600480360360408110156103c857600080fd5b506001600160a01b0381358116916020013516610a39565b6102c2600480360360208110156103f657600080fd5b50356001600160a01b0316610a64565b60038054604080516020601f60026000196101006001881615020190951694909404938401819004810282018101909252828152606093909290918301828280156104925780601f1061046757610100808354040283529160200191610492565b820191906000526020600020905b81548152906001019060200180831161047557829003601f168201915b5050505050905090565b60006104b06104a9610b72565b8484610b76565b50600192915050565b6006546001600160a01b031681565b60025490565b60006104db848484610c62565b61054b846104e7610b72565b610546856040518060600160405280602881526020016111b2602891396001600160a01b038a16600090815260016020526040812090610525610b72565b6001600160a01b031681526020810191909152604001600020549190610dbd565b610b76565b5060019392505050565b60055460ff1690565b60006104b061056b610b72565b84610546856001600061057c610b72565b6001600160a01b03908116825260208083019390935260409182016000908120918c168152925290205490610e54565b6105b4610b72565b6001600160a01b03166105c56106e9565b6001600160a01b03161461060e576040805162461bcd60e51b815260206004820181905260248201526000805160206111da833981519152604482015290519081900360640190fd5b6106188282610eb5565b5050565b6001600160a01b031660009081526020819052604090205490565b61063f610b72565b6001600160a01b03166106506106e9565b6001600160a01b031614610699576040805162461bcd60e51b815260206004820181905260248201526000805160206111da833981519152604482015290519081900360640190fd5b60055460405160009161010090046001600160a01b0316907f8be0079c531659141344cd1fd0a4f28419497f9722a3daafe3b4186f6b6457e0908390a360058054610100600160a81b0319169055565b60055461010090046001600160a01b031690565b60048054604080516020601f60026000196101006001881615020190951694909404938401819004810282018101909252828152606093909290918301828280156104925780601f1061046757610100808354040283529160200191610492565b610766610b72565b6001600160a01b03166107776106e9565b6001600160a01b0316146107c0576040805162461bcd60e51b815260206004820181905260248201526000805160206111da833981519152604482015290519081900360640190fd5b6106188282610fa5565b60006104b06107d7610b72565b84610546856040518060600160405280602581526020016112646025913960016000610801610b72565b6001600160a01b03908116825260208083019390935260409182016000908120918d16815292529020549190610dbd565b60006104b061083f610b72565b8484610c62565b61084e610b72565b6001600160a01b031661085f6106e9565b6001600160a01b0316146108a8576040805162461bcd60e51b815260206004820181905260248201526000805160206111da833981519152604482015290519081900360640190fd5b600654604080516370a0823160e01b815230600482015290516000926001600160a01b0316916370a08231916024808301926020929190829003018186803b1580156108f357600080fd5b505afa158015610907573d6000803e3d6000fd5b505050506040513d602081101561091d57600080fd5b50519050808211156109b1576006546040805163a9059cbb60e01b81526001600160a01b038681166004830152602482018590529151919092169163a9059cbb9160448083019260209291908290030181600087803b15801561097f57600080fd5b505af1158015610993573d6000803e3d6000fd5b505050506040513d60208110156109a957600080fd5b50610a349050565b6006546040805163a9059cbb60e01b81526001600160a01b038681166004830152602482018690529151919092169163a9059cbb9160448083019260209291908290030181600087803b158015610a0757600080fd5b505af1158015610a1b573d6000803e3d6000fd5b505050506040513d6020811015610a3157600080fd5b50505b505050565b6001600160a01b03918216600090815260016020908152604080832093909416825291909152205490565b610a6c610b72565b6001600160a01b0316610a7d6106e9565b6001600160a01b031614610ac6576040805162461bcd60e51b815260206004820181905260248201526000805160206111da833981519152604482015290519081900360640190fd5b6001600160a01b038116610b0b5760405162461bcd60e51b81526004018080602001828103825260268152602001806111446026913960400191505060405180910390fd5b6005546040516001600160a01b0380841692610100900416907f8be0079c531659141344cd1fd0a4f28419497f9722a3daafe3b4186f6b6457e090600090a3600580546001600160a01b0390921661010002610100600160a81b0319909216919091179055565b3390565b6001600160a01b038316610bbb5760405162461bcd60e51b81526004018080602001828103825260248152602001806112406024913960400191505060405180910390fd5b6001600160a01b038216610c005760405162461bcd60e51b815260040180806020018281038252602281526020018061116a6022913960400191505060405180910390fd5b6001600160a01b03808416600081815260016020908152604080832094871680845294825291829020859055815185815291517f8c5be1e5ebec7d5bd14f71427d1e84f3dd0314c0f7b2291e5b200ac8c7c3b9259281900390910190a3505050565b6001600160a01b038316610ca75760405162461bcd60e51b815260040180806020018281038252602581526020018061121b6025913960400191505060405180910390fd5b6001600160a01b038216610cec5760405162461bcd60e51b81526004018080602001828103825260238152602001806110ff6023913960400191505060405180910390fd5b610cf7838383610a34565b610d348160405180606001604052806026815260200161118c602691396001600160a01b0386166000908152602081905260409020549190610dbd565b6001600160a01b038085166000908152602081905260408082209390935590841681522054610d639082610e54565b6001600160a01b038084166000818152602081815260409182902094909455805185815290519193928716927fddf252ad1be2c89b69c2b068fc378daa952ba7f163c4a11628f55a4df523b3ef92918290030190a3505050565b60008184841115610e4c5760405162461bcd60e51b81526004018080602001828103825283818151815260200191508051906020019080838360005b83811015610e11578181015183820152602001610df9565b50505050905090810190601f168015610e3e5780820380516001836020036101000a031916815260200191505b509250505060405180910390fd5b505050900390565b600082820183811015610eae576040805162461bcd60e51b815260206004820152601b60248201527f536166654d6174683a206164646974696f6e206f766572666c6f770000000000604482015290519081900360640190fd5b9392505050565b6001600160a01b038216610f10576040805162461bcd60e51b815260206004820152601f60248201527f45524332303a206d696e7420746f20746865207a65726f206164647265737300604482015290519081900360640190fd5b610f1c60008383610a34565b600254610f299082610e54565b6002556001600160a01b038216600090815260208190526040902054610f4f9082610e54565b6001600160a01b0383166000818152602081815260408083209490945583518581529351929391927fddf252ad1be2c89b69c2b068fc378daa952ba7f163c4a11628f55a4df523b3ef9281900390910190a35050565b6001600160a01b038216610fea5760405162461bcd60e51b81526004018080602001828103825260218152602001806111fa6021913960400191505060405180910390fd5b610ff682600083610a34565b61103381604051806060016040528060228152602001611122602291396001600160a01b0385166000908152602081905260409020549190610dbd565b6001600160a01b03831660009081526020819052604090205560025461105990826110a1565b6002556040805182815290516000916001600160a01b038516917fddf252ad1be2c89b69c2b068fc378daa952ba7f163c4a11628f55a4df523b3ef9181900360200190a35050565b6000828211156110f8576040805162461bcd60e51b815260206004820152601e60248201527f536166654d6174683a207375627472616374696f6e206f766572666c6f770000604482015290519081900360640190fd5b5090039056fe45524332303a207472616e7366657220746f20746865207a65726f206164647265737345524332303a206275726e20616d6f756e7420657863656564732062616c616e63654f776e61626c653a206e6577206f776e657220697320746865207a65726f206164647265737345524332303a20617070726f766520746f20746865207a65726f206164647265737345524332303a207472616e7366657220616d6f756e7420657863656564732062616c616e636545524332303a207472616e7366657220616d6f756e74206578636565647320616c6c6f77616e63654f776e61626c653a2063616c6c6572206973206e6f7420746865206f776e657245524332303a206275726e2066726f6d20746865207a65726f206164647265737345524332303a207472616e736665722066726f6d20746865207a65726f206164647265737345524332303a20617070726f76652066726f6d20746865207a65726f206164647265737345524332303a2064656372656173656420616c6c6f77616e63652062656c6f77207a65726fa26469706673582212207dcccf442abce931dd7de2796e86d6dd519eea31d4833280c096e5062cb87f9b64736f6c634300060c0033",
  "immutableReferences": {},
  "source": "// SPDX-License-Identifier: MIT\n\npragma solidity 0.6.12;\n\nimport '@openzeppelin/contracts/token/ERC20/ERC20.sol';\nimport '@openzeppelin/contracts/access/Ownable.sol';\n\nimport \"./GlideToken.sol\";\n\n// Sugar with Governance.\ncontract Sugar is ERC20('Sugar', 'SUGAR'), Ownable {\n    /// @notice Creates `_amount` token to `_to`. Must only be called by the owner (MasterChef).\n    function mint(address _to, uint256 _amount) public onlyOwner {\n        _mint(_to, _amount);\n    }\n\n    function burn(address _from ,uint256 _amount) public onlyOwner {\n        _burn(_from, _amount);\n    }\n\n    // The GLIDE TOKEN!\n    GlideToken public glide;\n\n    constructor(\n        GlideToken _glide\n    ) public {\n        glide = _glide;\n    }\n\n    // Safe glide transfer function, just in case if rounding error causes pool to not have enough GLIDEs.\n    function safeGlideTransfer(address _to, uint256 _amount) public onlyOwner {\n        uint256 glideBal = glide.balanceOf(address(this));\n        if (_amount > glideBal) {\n            glide.transfer(_to, glideBal);\n        } else {\n            glide.transfer(_to, _amount);\n        }\n    }\n}",
  "sourcePath": "/Users/stefan/Work/Blockchain/GlideFinance/glide-contracts/contracts/Farm/Sugar.sol",
  "compiler": {
    "name": "solc",
    "version": "0.6.12+commit.27d51765.Emscripten.clang"
  },
  "schemaVersion": "3.4.4",
  "updatedAt": "2022-02-07T21:46:27.728Z",
  "networkType": "ethereum",
  "devdoc": {
    "kind": "dev",
    "methods": {
      "allowance(address,address)": {
        "details": "See {IERC20-allowance}."
      },
      "approve(address,uint256)": {
        "details": "See {IERC20-approve}. Requirements: - `spender` cannot be the zero address."
      },
      "balanceOf(address)": {
        "details": "See {IERC20-balanceOf}."
      },
      "decimals()": {
        "details": "Returns the number of decimals used to get its user representation. For example, if `decimals` equals `2`, a balance of `505` tokens should be displayed to a user as `5,05` (`505 / 10 ** 2`). Tokens usually opt for a value of 18, imitating the relationship between Ether and Wei. This is the value {ERC20} uses, unless {_setupDecimals} is called. NOTE: This information is only used for _display_ purposes: it in no way affects any of the arithmetic of the contract, including {IERC20-balanceOf} and {IERC20-transfer}."
      },
      "decreaseAllowance(address,uint256)": {
        "details": "Atomically decreases the allowance granted to `spender` by the caller. This is an alternative to {approve} that can be used as a mitigation for problems described in {IERC20-approve}. Emits an {Approval} event indicating the updated allowance. Requirements: - `spender` cannot be the zero address. - `spender` must have allowance for the caller of at least `subtractedValue`."
      },
      "increaseAllowance(address,uint256)": {
        "details": "Atomically increases the allowance granted to `spender` by the caller. This is an alternative to {approve} that can be used as a mitigation for problems described in {IERC20-approve}. Emits an {Approval} event indicating the updated allowance. Requirements: - `spender` cannot be the zero address."
      },
      "name()": {
        "details": "Returns the name of the token."
      },
      "owner()": {
        "details": "Returns the address of the current owner."
      },
      "renounceOwnership()": {
        "details": "Leaves the contract without owner. It will not be possible to call `onlyOwner` functions anymore. Can only be called by the current owner. NOTE: Renouncing ownership will leave the contract without an owner, thereby removing any functionality that is only available to the owner."
      },
      "symbol()": {
        "details": "Returns the symbol of the token, usually a shorter version of the name."
      },
      "totalSupply()": {
        "details": "See {IERC20-totalSupply}."
      },
      "transfer(address,uint256)": {
        "details": "See {IERC20-transfer}. Requirements: - `recipient` cannot be the zero address. - the caller must have a balance of at least `amount`."
      },
      "transferFrom(address,address,uint256)": {
        "details": "See {IERC20-transferFrom}. Emits an {Approval} event indicating the updated allowance. This is not required by the EIP. See the note at the beginning of {ERC20}. Requirements: - `sender` and `recipient` cannot be the zero address. - `sender` must have a balance of at least `amount`. - the caller must have allowance for ``sender``'s tokens of at least `amount`."
      },
      "transferOwnership(address)": {
        "details": "Transfers ownership of the contract to a new account (`newOwner`). Can only be called by the current owner."
      }
    },
    "version": 1
  },
  "userdoc": {
    "kind": "user",
    "methods": {
      "mint(address,uint256)": {
        "notice": "Creates `_amount` token to `_to`. Must only be called by the owner (MasterChef)."
      }
    },
    "version": 1
  }
}