{
  "contractName": "SwapRewardsChef",
  "abi": [
    {
      "inputs": [
        {
          "internalType": "contract IERC20",
          "name": "_stakeToken",
          "type": "address"
        },
        {
          "internalType": "contract IERC20",
          "name": "_rewardToken",
          "type": "address"
        }
      ],
      "stateMutability": "nonpayable",
      "type": "constructor"
    },
    {
      "anonymous": false,
      "inputs": [
        {
          "indexed": true,
          "internalType": "address",
          "name": "user",
          "type": "address"
        },
        {
          "indexed": false,
          "internalType": "uint256",
          "name": "amount",
          "type": "uint256"
        }
      ],
      "name": "Deposit",
      "type": "event"
    },
    {
      "anonymous": false,
      "inputs": [
        {
          "indexed": true,
          "internalType": "address",
          "name": "user",
          "type": "address"
        },
        {
          "indexed": false,
          "internalType": "uint256",
          "name": "amount",
          "type": "uint256"
        }
      ],
      "name": "EmergencyWithdraw",
      "type": "event"
    },
    {
      "anonymous": false,
      "inputs": [
        {
          "indexed": true,
          "internalType": "address",
          "name": "user",
          "type": "address"
        },
        {
          "indexed": false,
          "internalType": "uint256",
          "name": "amount",
          "type": "uint256"
        }
      ],
      "name": "Harvest",
      "type": "event"
    },
    {
      "anonymous": false,
      "inputs": [
        {
          "indexed": true,
          "internalType": "address",
          "name": "previousOwner",
          "type": "address"
        },
        {
          "indexed": true,
          "internalType": "address",
          "name": "newOwner",
          "type": "address"
        }
      ],
      "name": "OwnershipTransferred",
      "type": "event"
    },
    {
      "anonymous": false,
      "inputs": [
        {
          "indexed": true,
          "internalType": "address",
          "name": "user",
          "type": "address"
        },
        {
          "indexed": false,
          "internalType": "uint256",
          "name": "denomination",
          "type": "uint256"
        },
        {
          "indexed": false,
          "internalType": "uint256",
          "name": "minimum",
          "type": "uint256"
        },
        {
          "indexed": false,
          "internalType": "uint256",
          "name": "maximum",
          "type": "uint256"
        },
        {
          "indexed": false,
          "internalType": "uint256",
          "name": "rewardsPerBlock",
          "type": "uint256"
        }
      ],
      "name": "UpdateEmissionSettings",
      "type": "event"
    },
    {
      "anonymous": false,
      "inputs": [
        {
          "indexed": true,
          "internalType": "address",
          "name": "user",
          "type": "address"
        },
        {
          "indexed": false,
          "internalType": "uint256",
          "name": "amount",
          "type": "uint256"
        }
      ],
      "name": "Withdraw",
      "type": "event"
    },
    {
      "inputs": [],
      "name": "denominationEmitAmount",
      "outputs": [
        {
          "internalType": "uint256",
          "name": "",
          "type": "uint256"
        }
      ],
      "stateMutability": "view",
      "type": "function",
      "constant": true
    },
    {
      "inputs": [],
      "name": "maximumEmitAmount",
      "outputs": [
        {
          "internalType": "uint256",
          "name": "",
          "type": "uint256"
        }
      ],
      "stateMutability": "view",
      "type": "function",
      "constant": true
    },
    {
      "inputs": [],
      "name": "minimumEmitAmount",
      "outputs": [
        {
          "internalType": "uint256",
          "name": "",
          "type": "uint256"
        }
      ],
      "stateMutability": "view",
      "type": "function",
      "constant": true
    },
    {
      "inputs": [],
      "name": "owner",
      "outputs": [
        {
          "internalType": "address",
          "name": "",
          "type": "address"
        }
      ],
      "stateMutability": "view",
      "type": "function",
      "constant": true
    },
    {
      "inputs": [
        {
          "internalType": "uint256",
          "name": "",
          "type": "uint256"
        }
      ],
      "name": "poolInfo",
      "outputs": [
        {
          "internalType": "contract IERC20",
          "name": "lpToken",
          "type": "address"
        },
        {
          "internalType": "uint256",
          "name": "allocPoint",
          "type": "uint256"
        },
        {
          "internalType": "uint256",
          "name": "lastRewardBlock",
          "type": "uint256"
        },
        {
          "internalType": "uint256",
          "name": "accRewardPerShare",
          "type": "uint256"
        },
        {
          "internalType": "uint256",
          "name": "currentDepositAmount",
          "type": "uint256"
        }
      ],
      "stateMutability": "view",
      "type": "function",
      "constant": true
    },
    {
      "inputs": [],
      "name": "remainingRewards",
      "outputs": [
        {
          "internalType": "uint256",
          "name": "",
          "type": "uint256"
        }
      ],
      "stateMutability": "view",
      "type": "function",
      "constant": true
    },
    {
      "inputs": [],
      "name": "renounceOwnership",
      "outputs": [],
      "stateMutability": "nonpayable",
      "type": "function"
    },
    {
      "inputs": [],
      "name": "rewardToken",
      "outputs": [
        {
          "internalType": "contract IERC20",
          "name": "",
          "type": "address"
        }
      ],
      "stateMutability": "view",
      "type": "function",
      "constant": true
    },
    {
      "inputs": [],
      "name": "rewardsPerBlock",
      "outputs": [
        {
          "internalType": "uint256",
          "name": "",
          "type": "uint256"
        }
      ],
      "stateMutability": "view",
      "type": "function",
      "constant": true
    },
    {
      "inputs": [],
      "name": "startBlock",
      "outputs": [
        {
          "internalType": "uint256",
          "name": "",
          "type": "uint256"
        }
      ],
      "stateMutability": "view",
      "type": "function",
      "constant": true
    },
    {
      "inputs": [],
      "name": "totalAllocPoint",
      "outputs": [
        {
          "internalType": "uint256",
          "name": "",
          "type": "uint256"
        }
      ],
      "stateMutability": "view",
      "type": "function",
      "constant": true
    },
    {
      "inputs": [
        {
          "internalType": "address",
          "name": "newOwner",
          "type": "address"
        }
      ],
      "name": "transferOwnership",
      "outputs": [],
      "stateMutability": "nonpayable",
      "type": "function"
    },
    {
      "inputs": [
        {
          "internalType": "address",
          "name": "",
          "type": "address"
        }
      ],
      "name": "userInfo",
      "outputs": [
        {
          "internalType": "uint256",
          "name": "amount",
          "type": "uint256"
        },
        {
          "internalType": "uint256",
          "name": "rewardDebt",
          "type": "uint256"
        }
      ],
      "stateMutability": "view",
      "type": "function",
      "constant": true
    },
    {
      "inputs": [],
      "name": "wrappedNativeAddress",
      "outputs": [
        {
          "internalType": "address",
          "name": "",
          "type": "address"
        }
      ],
      "stateMutability": "view",
      "type": "function",
      "constant": true
    },
    {
      "stateMutability": "payable",
      "type": "receive",
      "payable": true
    },
    {
      "inputs": [
        {
          "internalType": "address",
          "name": "_user",
          "type": "address"
        }
      ],
      "name": "pendingRewards",
      "outputs": [
        {
          "internalType": "uint256",
          "name": "",
          "type": "uint256"
        }
      ],
      "stateMutability": "view",
      "type": "function",
      "constant": true
    },
    {
      "inputs": [],
      "name": "updatePool",
      "outputs": [],
      "stateMutability": "nonpayable",
      "type": "function"
    },
    {
      "inputs": [
        {
          "internalType": "uint256",
          "name": "_amount",
          "type": "uint256"
        }
      ],
      "name": "income",
      "outputs": [],
      "stateMutability": "nonpayable",
      "type": "function"
    },
    {
      "inputs": [
        {
          "internalType": "uint256",
          "name": "_amount",
          "type": "uint256"
        }
      ],
      "name": "deposit",
      "outputs": [],
      "stateMutability": "nonpayable",
      "type": "function"
    },
    {
      "inputs": [
        {
          "internalType": "uint256",
          "name": "_amount",
          "type": "uint256"
        }
      ],
      "name": "withdraw",
      "outputs": [],
      "stateMutability": "nonpayable",
      "type": "function"
    },
    {
      "inputs": [],
      "name": "emergencyWithdraw",
      "outputs": [],
      "stateMutability": "nonpayable",
      "type": "function"
    },
    {
      "inputs": [
        {
          "internalType": "uint256",
          "name": "denomination",
          "type": "uint256"
        },
        {
          "internalType": "uint256",
          "name": "minimum",
          "type": "uint256"
        },
        {
          "internalType": "uint256",
          "name": "maximum",
          "type": "uint256"
        }
      ],
      "name": "updateEmissionSettings",
      "outputs": [],
      "stateMutability": "nonpayable",
      "type": "function"
    },
    {
      "inputs": [
        {
          "internalType": "address",
          "name": "_user",
          "type": "address"
        }
      ],
      "name": "harvestFor",
      "outputs": [],
      "stateMutability": "nonpayable",
      "type": "function"
    }
  ],
  "bytecode": "0x6080604052620627006004556000600555670de0b6b3a764000060065560006009556000600b5534801561003257600080fd5b5060405162002c0338038062002c038339818101604052604081101561005757600080fd5b810190808051906020019092919080519060200190929190505050600061008261025560201b60201c565b9050806000806101000a81548173ffffffffffffffffffffffffffffffffffffffff021916908373ffffffffffffffffffffffffffffffffffffffff1602179055508073ffffffffffffffffffffffffffffffffffffffff16600073ffffffffffffffffffffffffffffffffffffffff167f8be0079c531659141344cd1fd0a4f28419497f9722a3daafe3b4186f6b6457e060405160405180910390a3506001808190555080600260006101000a81548173ffffffffffffffffffffffffffffffffffffffff021916908373ffffffffffffffffffffffffffffffffffffffff16021790555060076040518060a001604052808473ffffffffffffffffffffffffffffffffffffffff16815260200160648152602001600a548152602001600081526020016000815250908060018154018082558091505060019003906000526020600020906005020160009091909190915060008201518160000160006101000a81548173ffffffffffffffffffffffffffffffffffffffff021916908373ffffffffffffffffffffffffffffffffffffffff1602179055506020820151816001015560408201518160020155606082015181600301556080820151816004015550506064600981905550505061025d565b600033905090565b612996806200026d6000396000f3fe6080604052600436106101795760003560e01c80638b1c0d1b116100cb578063dd5998441161007f578063f2fde38b11610059578063f2fde38b146105cb578063f7c618c11461061c578063fbe1ebec1461065d57610180565b8063dd5998441461053a578063e3161ddd14610565578063eebf65f31461057c57610180565b8063afb62e56116100b0578063afb62e56146104bd578063b6b55f25146104e8578063db2e21bc1461052357610180565b80638b1c0d1b146104515780638da5cb5b1461047c57610180565b806346f0cfba1161012d578063715018a611610107578063715018a6146103be57806376ab8136146103d557806384ed8c561461041657610180565b806346f0cfba1461033d57806348cd4cb1146103685780635eeb67101461039357610180565b80631959a0021161015e5780631959a002146102315780632e1a7d4d1461029d57806331d7a262146102d857610180565b80631526fe271461018557806317caf6f11461020657610180565b3661018057005b600080fd5b34801561019157600080fd5b506101be600480360360208110156101a857600080fd5b81019080803590602001909291905050506106ae565b604051808673ffffffffffffffffffffffffffffffffffffffff1681526020018581526020018481526020018381526020018281526020019550505050505060405180910390f35b34801561021257600080fd5b5061021b610711565b6040518082815260200191505060405180910390f35b34801561023d57600080fd5b506102806004803603602081101561025457600080fd5b81019080803573ffffffffffffffffffffffffffffffffffffffff169060200190929190505050610717565b604051808381526020018281526020019250505060405180910390f35b3480156102a957600080fd5b506102d6600480360360208110156102c057600080fd5b810190808035906020019092919050505061073b565b005b3480156102e457600080fd5b50610327600480360360208110156102fb57600080fd5b81019080803573ffffffffffffffffffffffffffffffffffffffff169060200190929190505050610a7b565b6040518082815260200191505060405180910390f35b34801561034957600080fd5b50610352610c09565b6040518082815260200191505060405180910390f35b34801561037457600080fd5b5061037d610c0f565b6040518082815260200191505060405180910390f35b34801561039f57600080fd5b506103a8610c15565b6040518082815260200191505060405180910390f35b3480156103ca57600080fd5b506103d3610c1b565b005b3480156103e157600080fd5b506103ea610da1565b604051808273ffffffffffffffffffffffffffffffffffffffff16815260200191505060405180910390f35b34801561042257600080fd5b5061044f6004803603602081101561043957600080fd5b8101908080359060200190929190505050610db9565b005b34801561045d57600080fd5b50610466610ebe565b6040518082815260200191505060405180910390f35b34801561048857600080fd5b50610491610ec4565b604051808273ffffffffffffffffffffffffffffffffffffffff16815260200191505060405180910390f35b3480156104c957600080fd5b506104d2610eed565b6040518082815260200191505060405180910390f35b3480156104f457600080fd5b506105216004803603602081101561050b57600080fd5b8101908080359060200190929190505050610ef3565b005b34801561052f57600080fd5b506105386111c9565b005b34801561054657600080fd5b5061054f611392565b6040518082815260200191505060405180910390f35b34801561057157600080fd5b5061057a611398565b005b34801561058857600080fd5b506105c96004803603606081101561059f57600080fd5b810190808035906020019092919080359060200190929190803590602001909291905050506114eb565b005b3480156105d757600080fd5b5061061a600480360360208110156105ee57600080fd5b81019080803573ffffffffffffffffffffffffffffffffffffffff169060200190929190505050611645565b005b34801561062857600080fd5b50610631611850565b604051808273ffffffffffffffffffffffffffffffffffffffff16815260200191505060405180910390f35b34801561066957600080fd5b506106ac6004803603602081101561068057600080fd5b81019080803573ffffffffffffffffffffffffffffffffffffffff169060200190929190505050611876565b005b600781815481106106bb57fe5b90600052602060002090600502016000915090508060000160009054906101000a900473ffffffffffffffffffffffffffffffffffffffff16908060010154908060020154908060030154908060040154905085565b60095481565b60086020528060005260406000206000915090508060000154908060010154905082565b600260015414156107b4576040517f08c379a000000000000000000000000000000000000000000000000000000000815260040180806020018281038252601f8152602001807f5265656e7472616e637947756172643a207265656e7472616e742063616c6c0081525060200191505060405180910390fd5b6002600181905550600060076000815481106107cc57fe5b906000526020600020906005020190506000600860003373ffffffffffffffffffffffffffffffffffffffff1673ffffffffffffffffffffffffffffffffffffffff16815260200190815260200160002090508281600001541015610899576040517f08c379a00000000000000000000000000000000000000000000000000000000081526004018080602001828103825260128152602001807f77697468647261773a206e6f7420676f6f64000000000000000000000000000081525060200191505060405180910390fd5b6108a1611398565b60006108eb82600101546108dd64e8d4a510006108cf87600301548760000154611b3c90919063ffffffff16565b611bc290919063ffffffff16565b611c0c90919063ffffffff16565b9050600081111561094f576109003382611c56565b3373ffffffffffffffffffffffffffffffffffffffff167fc9695243a805adb74c91f28311176c65b417e842d5699893cef56d18bfa48cba826040518082815260200191505060405180910390a25b60008411156109e65761096f848360000154611c0c90919063ffffffff16565b826000018190555061098e848460040154611c0c90919063ffffffff16565b83600401819055506109e533858560000160009054906101000a900473ffffffffffffffffffffffffffffffffffffffff1673ffffffffffffffffffffffffffffffffffffffff16611f549092919063ffffffff16565b5b610a1864e8d4a51000610a0a85600301548560000154611b3c90919063ffffffff16565b611bc290919063ffffffff16565b82600101819055503373ffffffffffffffffffffffffffffffffffffffff167f884edad9ce6fa2440d8a54cc123490eb96d2768479d49ff9c7366125a9424364856040518082815260200191505060405180910390a25050506001808190555050565b6000806007600081548110610a8c57fe5b906000526020600020906005020190506000600860008573ffffffffffffffffffffffffffffffffffffffff1673ffffffffffffffffffffffffffffffffffffffff1681526020019081526020016000209050600082600301549050600083600401549050836002015443118015610b05575060008114155b15610bba576000600b541115610bb9576000610b25856002015443611ff6565b90506000610b68600954610b5a8860010154610b4c60035487611b3c90919063ffffffff16565b611b3c90919063ffffffff16565b611bc290919063ffffffff16565b9050610b7681600b54612013565b9050610bb4610ba584610b9764e8d4a5100085611b3c90919063ffffffff16565b611bc290919063ffffffff16565b8561202c90919063ffffffff16565b935050505b5b610bfe8360010154610bf064e8d4a51000610be2868860000154611b3c90919063ffffffff16565b611bc290919063ffffffff16565b611c0c90919063ffffffff16565b945050505050919050565b60045481565b600a5481565b60035481565b610c236120b4565b73ffffffffffffffffffffffffffffffffffffffff1660008054906101000a900473ffffffffffffffffffffffffffffffffffffffff1673ffffffffffffffffffffffffffffffffffffffff1614610ce3576040517f08c379a00000000000000000000000000000000000000000000000000000000081526004018080602001828103825260208152602001807f4f776e61626c653a2063616c6c6572206973206e6f7420746865206f776e657281525060200191505060405180910390fd5b600073ffffffffffffffffffffffffffffffffffffffff1660008054906101000a900473ffffffffffffffffffffffffffffffffffffffff1673ffffffffffffffffffffffffffffffffffffffff167f8be0079c531659141344cd1fd0a4f28419497f9722a3daafe3b4186f6b6457e060405160405180910390a360008060006101000a81548173ffffffffffffffffffffffffffffffffffffffff021916908373ffffffffffffffffffffffffffffffffffffffff160217905550565b7321be370d5312f44cb42ce377bc9b8a0cef1a4c8381565b60026001541415610e32576040517f08c379a000000000000000000000000000000000000000000000000000000000815260040180806020018281038252601f8152602001807f5265656e7472616e637947756172643a207265656e7472616e742063616c6c0081525060200191505060405180910390fd5b6002600181905550610e42611398565b610e91333083600260009054906101000a900473ffffffffffffffffffffffffffffffffffffffff1673ffffffffffffffffffffffffffffffffffffffff166120bc909392919063ffffffff16565b610ea681600b5461202c90919063ffffffff16565b600b81905550610eb461217d565b6001808190555050565b60065481565b60008060009054906101000a900473ffffffffffffffffffffffffffffffffffffffff16905090565b600b5481565b60026001541415610f6c576040517f08c379a000000000000000000000000000000000000000000000000000000000815260040180806020018281038252601f8152602001807f5265656e7472616e637947756172643a207265656e7472616e742063616c6c0081525060200191505060405180910390fd5b600260018190555060006007600081548110610f8457fe5b906000526020600020906005020190506000600860003373ffffffffffffffffffffffffffffffffffffffff1673ffffffffffffffffffffffffffffffffffffffff1681526020019081526020016000209050610fdf611398565b60008160000154111561109c576000611036826001015461102864e8d4a5100061101a87600301548760000154611b3c90919063ffffffff16565b611bc290919063ffffffff16565b611c0c90919063ffffffff16565b9050600081111561109a5761104b3382611c56565b3373ffffffffffffffffffffffffffffffffffffffff167fc9695243a805adb74c91f28311176c65b417e842d5699893cef56d18bfa48cba826040518082815260200191505060405180910390a25b505b6000831115611135576110f63330858560000160009054906101000a900473ffffffffffffffffffffffffffffffffffffffff1673ffffffffffffffffffffffffffffffffffffffff166120bc909392919063ffffffff16565b61110d83826000015461202c90919063ffffffff16565b816000018190555061112c83836004015461202c90919063ffffffff16565b82600401819055505b61116764e8d4a5100061115984600301548460000154611b3c90919063ffffffff16565b611bc290919063ffffffff16565b81600101819055503373ffffffffffffffffffffffffffffffffffffffff167fe1fffcc4923d04b559f4d29a8bfc6cda04eb5b0d3c460751c2402c5c5cc9109c846040518082815260200191505060405180910390a250506001808190555050565b60026001541415611242576040517f08c379a000000000000000000000000000000000000000000000000000000000815260040180806020018281038252601f8152602001807f5265656e7472616e637947756172643a207265656e7472616e742063616c6c0081525060200191505060405180910390fd5b60026001819055506000600760008154811061125a57fe5b906000526020600020906005020190506000600860003373ffffffffffffffffffffffffffffffffffffffff1673ffffffffffffffffffffffffffffffffffffffff168152602001908152602001600020905060008160000154905060008260000181905550600082600101819055506112e1818460040154611c0c90919063ffffffff16565b836004018190555061133833828560000160009054906101000a900473ffffffffffffffffffffffffffffffffffffffff1673ffffffffffffffffffffffffffffffffffffffff16611f549092919063ffffffff16565b3373ffffffffffffffffffffffffffffffffffffffff167f5fafa99d0643513820be26656b45130b01e1c03062e1266bf36f88cbd3bd9695826040518082815260200191505060405180910390a250505060018081905550565b60055481565b600060076000815481106113a857fe5b90600052602060002090600502019050806002015443116113c957506114e9565b60008160040154905060008114806113e5575060008260010154145b156113fa5743826002018190555050506114e9565b6000600b5414156114155743826002018190555050506114e9565b6000611425836002015443611ff6565b9050600061146860095461145a866001015461144c60035487611b3c90919063ffffffff16565b611b3c90919063ffffffff16565b611bc290919063ffffffff16565b905061147681600b54612013565b905061148d81600b54611c0c90919063ffffffff16565b600b819055506114d36114c0846114b264e8d4a5100085611b3c90919063ffffffff16565b611bc290919063ffffffff16565b856003015461202c90919063ffffffff16565b8460030181905550438460020181905550505050505b565b6114f36120b4565b73ffffffffffffffffffffffffffffffffffffffff1660008054906101000a900473ffffffffffffffffffffffffffffffffffffffff1673ffffffffffffffffffffffffffffffffffffffff16146115b3576040517f08c379a00000000000000000000000000000000000000000000000000000000081526004018080602001828103825260208152602001807f4f776e61626c653a2063616c6c6572206973206e6f7420746865206f776e657281525060200191505060405180910390fd5b6115bb611398565b8260048190555081600581905550806006819055506115d861217d565b3373ffffffffffffffffffffffffffffffffffffffff167fa2ccc6b6183e466f6e7b59cc83e6a4a0fd8a4adab25b95ac0fcb805b963ea0f38484846003546040518085815260200184815260200183815260200182815260200194505050505060405180910390a2505050565b61164d6120b4565b73ffffffffffffffffffffffffffffffffffffffff1660008054906101000a900473ffffffffffffffffffffffffffffffffffffffff1673ffffffffffffffffffffffffffffffffffffffff161461170d576040517f08c379a00000000000000000000000000000000000000000000000000000000081526004018080602001828103825260208152602001807f4f776e61626c653a2063616c6c6572206973206e6f7420746865206f776e657281525060200191505060405180910390fd5b600073ffffffffffffffffffffffffffffffffffffffff168173ffffffffffffffffffffffffffffffffffffffff161415611793576040517f08c379a00000000000000000000000000000000000000000000000000000000081526004018080602001828103825260268152602001806128a66026913960400191505060405180910390fd5b8073ffffffffffffffffffffffffffffffffffffffff1660008054906101000a900473ffffffffffffffffffffffffffffffffffffffff1673ffffffffffffffffffffffffffffffffffffffff167f8be0079c531659141344cd1fd0a4f28419497f9722a3daafe3b4186f6b6457e060405160405180910390a3806000806101000a81548173ffffffffffffffffffffffffffffffffffffffff021916908373ffffffffffffffffffffffffffffffffffffffff16021790555050565b600260009054906101000a900473ffffffffffffffffffffffffffffffffffffffff1681565b600260015414156118ef576040517f08c379a000000000000000000000000000000000000000000000000000000000815260040180806020018281038252601f8152602001807f5265656e7472616e637947756172643a207265656e7472616e742063616c6c0081525060200191505060405180910390fd5b60026001819055508073ffffffffffffffffffffffffffffffffffffffff163373ffffffffffffffffffffffffffffffffffffffff16148061195c57508073ffffffffffffffffffffffffffffffffffffffff163273ffffffffffffffffffffffffffffffffffffffff16145b6119ce576040517f08c379a00000000000000000000000000000000000000000000000000000000081526004018080602001828103825260158152602001807f68617276657374466f723a20464f5242494444454e000000000000000000000081525060200191505060405180910390fd5b600060076000815481106119de57fe5b906000526020600020906005020190506000600860008473ffffffffffffffffffffffffffffffffffffffff1673ffffffffffffffffffffffffffffffffffffffff1681526020019081526020016000209050611a39611398565b600081600001541115611b30576000611a908260010154611a8264e8d4a51000611a7487600301548760000154611b3c90919063ffffffff16565b611bc290919063ffffffff16565b611c0c90919063ffffffff16565b90506000811115611b2e57611aa58482611c56565b611ad764e8d4a51000611ac985600301548560000154611b3c90919063ffffffff16565b611bc290919063ffffffff16565b82600101819055508373ffffffffffffffffffffffffffffffffffffffff167fc9695243a805adb74c91f28311176c65b417e842d5699893cef56d18bfa48cba826040518082815260200191505060405180910390a25b505b50506001808190555050565b600080831415611b4f5760009050611bbc565b6000828402905082848281611b6057fe5b0414611bb7576040517f08c379a00000000000000000000000000000000000000000000000000000000081526004018080602001828103825260218152602001806129166021913960400191505060405180910390fd5b809150505b92915050565b6000611c0483836040518060400160405280601a81526020017f536166654d6174683a206469766973696f6e206279207a65726f0000000000008152506121dd565b905092915050565b6000611c4e83836040518060400160405280601e81526020017f536166654d6174683a207375627472616374696f6e206f766572666c6f7700008152506122a3565b905092915050565b6000600260009054906101000a900473ffffffffffffffffffffffffffffffffffffffff1673ffffffffffffffffffffffffffffffffffffffff166370a08231306040518263ffffffff1660e01b8152600401808273ffffffffffffffffffffffffffffffffffffffff16815260200191505060206040518083038186803b158015611ce157600080fd5b505afa158015611cf5573d6000803e3d6000fd5b505050506040513d6020811015611d0b57600080fd5b810190808051906020019092919050505090506000611d2a8284612013565b90507321be370d5312f44cb42ce377bc9b8a0cef1a4c8373ffffffffffffffffffffffffffffffffffffffff16600260009054906101000a900473ffffffffffffffffffffffffffffffffffffffff1673ffffffffffffffffffffffffffffffffffffffff161415611e24577321be370d5312f44cb42ce377bc9b8a0cef1a4c8373ffffffffffffffffffffffffffffffffffffffff16632e1a7d4d826040518263ffffffff1660e01b815260040180828152602001915050600060405180830381600087803b158015611dfd57600080fd5b505af1158015611e11573d6000803e3d6000fd5b50505050611e1f8482612363565b611f4e565b6000600260009054906101000a900473ffffffffffffffffffffffffffffffffffffffff1673ffffffffffffffffffffffffffffffffffffffff1663a9059cbb86846040518363ffffffff1660e01b8152600401808373ffffffffffffffffffffffffffffffffffffffff16815260200182815260200192505050602060405180830381600087803b158015611eb957600080fd5b505af1158015611ecd573d6000803e3d6000fd5b505050506040513d6020811015611ee357600080fd5b8101908080519060200190929190505050905080611f4c576040517f08c379a00000000000000000000000000000000000000000000000000000000081526004018080602001828103825260238152602001806128836023913960400191505060405180910390fd5b505b50505050565b611ff18363a9059cbb60e01b8484604051602401808373ffffffffffffffffffffffffffffffffffffffff16815260200182815260200192505050604051602081830303815290604052907bffffffffffffffffffffffffffffffffffffffffffffffffffffffff19166020820180517bffffffffffffffffffffffffffffffffffffffffffffffffffffffff83818316178352505050506124c2565b505050565b600061200b8383611c0c90919063ffffffff16565b905092915050565b60008183106120225781612024565b825b905092915050565b6000808284019050838110156120aa576040517f08c379a000000000000000000000000000000000000000000000000000000000815260040180806020018281038252601b8152602001807f536166654d6174683a206164646974696f6e206f766572666c6f77000000000081525060200191505060405180910390fd5b8091505092915050565b600033905090565b612177846323b872dd60e01b858585604051602401808473ffffffffffffffffffffffffffffffffffffffff1681526020018373ffffffffffffffffffffffffffffffffffffffff1681526020018281526020019350505050604051602081830303815290604052907bffffffffffffffffffffffffffffffffffffffffffffffffffffffff19166020820180517bffffffffffffffffffffffffffffffffffffffffffffffffffffffff83818316178352505050506124c2565b50505050565b6000600b5411156121d25761219f600454600b54611bc290919063ffffffff16565b6003819055506121b3600654600354612013565b6003819055506121c76005546003546125b1565b6003819055506121db565b60006003819055505b565b60008083118290612289576040517f08c379a00000000000000000000000000000000000000000000000000000000081526004018080602001828103825283818151815260200191508051906020019080838360005b8381101561224e578082015181840152602081019050612233565b50505050905090810190601f16801561227b5780820380516001836020036101000a031916815260200191505b509250505060405180910390fd5b50600083858161229557fe5b049050809150509392505050565b6000838311158290612350576040517f08c379a00000000000000000000000000000000000000000000000000000000081526004018080602001828103825283818151815260200191508051906020019080838360005b838110156123155780820151818401526020810190506122fa565b50505050905090810190601f1680156123425780820380516001836020036101000a031916815260200191505b509250505060405180910390fd5b5060008385039050809150509392505050565b60008273ffffffffffffffffffffffffffffffffffffffff1682600067ffffffffffffffff8111801561239557600080fd5b506040519080825280601f01601f1916602001820160405280156123c85781602001600182028036833780820191505090505b506040518082805190602001908083835b602083106123fc57805182526020820191506020810190506020830392506123d9565b6001836020036101000a03801982511681845116808217855250505050505090500191505060006040518083038185875af1925050503d806000811461245e576040519150601f19603f3d011682016040523d82523d6000602084013e612463565b606091505b50509050806124bd576040517f08c379a00000000000000000000000000000000000000000000000000000000081526004018080602001828103825260248152602001806128cc6024913960400191505060405180910390fd5b505050565b6060612524826040518060400160405280602081526020017f5361666545524332303a206c6f772d6c6576656c2063616c6c206661696c65648152508573ffffffffffffffffffffffffffffffffffffffff166125cb9092919063ffffffff16565b90506000815111156125ac5780806020019051602081101561254557600080fd5b81019080805190602001909291905050506125ab576040517f08c379a000000000000000000000000000000000000000000000000000000000815260040180806020018281038252602a815260200180612937602a913960400191505060405180910390fd5b5b505050565b6000818310156125c157816125c3565b825b905092915050565b60606125da84846000856125e3565b90509392505050565b6060823073ffffffffffffffffffffffffffffffffffffffff16311015612655576040517f08c379a00000000000000000000000000000000000000000000000000000000081526004018080602001828103825260268152602001806128f06026913960400191505060405180910390fd5b61265e856127a3565b6126d0576040517f08c379a000000000000000000000000000000000000000000000000000000000815260040180806020018281038252601d8152602001807f416464726573733a2063616c6c20746f206e6f6e2d636f6e747261637400000081525060200191505060405180910390fd5b600060608673ffffffffffffffffffffffffffffffffffffffff1685876040518082805190602001908083835b6020831061272057805182526020820191506020810190506020830392506126fd565b6001836020036101000a03801982511681845116808217855250505050505090500191505060006040518083038185875af1925050503d8060008114612782576040519150601f19603f3d011682016040523d82523d6000602084013e612787565b606091505b50915091506127978282866127b6565b92505050949350505050565b600080823b905060008111915050919050565b606083156127c65782905061287b565b6000835111156127d95782518084602001fd5b816040517f08c379a00000000000000000000000000000000000000000000000000000000081526004018080602001828103825283818151815260200191508051906020019080838360005b83811015612840578082015181840152602081019050612825565b50505050905090810190601f16801561286d5780820380516001836020036101000a031916815260200191505b509250505060405180910390fd5b939250505056fe736166655265776172645472616e736665723a207472616e73666572206661696c65644f776e61626c653a206e6577206f776e657220697320746865207a65726f2061646472657373736166655472616e736665724554483a204554485f5452414e534645525f4641494c4544416464726573733a20696e73756666696369656e742062616c616e636520666f722063616c6c536166654d6174683a206d756c7469706c69636174696f6e206f766572666c6f775361666545524332303a204552433230206f7065726174696f6e20646964206e6f742073756363656564a2646970667358221220c1cb2ba24d67a35ffcd5a2d427d336e881305f66becc98d7f21ab3fa3a411f4e64736f6c634300060c0033",
  "immutableReferences": {},
  "source": "// SPDX-License-Identifier: MIT\r\npragma solidity 0.6.12;\r\n\r\nimport \"@openzeppelin/contracts/math/SafeMath.sol\";\r\nimport \"@openzeppelin/contracts/math/Math.sol\";\r\nimport '@openzeppelin/contracts/token/ERC20/IERC20.sol';\r\nimport '@openzeppelin/contracts/token/ERC20/SafeERC20.sol';\r\nimport \"@openzeppelin/contracts/access/Ownable.sol\";\r\nimport \"@openzeppelin/contracts/utils/ReentrancyGuard.sol\";\r\n\r\nimport \"./interfaces/IWrappedNative.sol\";\r\n\r\ncontract SwapRewardsChef is Ownable, ReentrancyGuard {\r\n    using SafeMath for uint256;\r\n    using SafeERC20 for IERC20;\r\n\r\n    // Info of each user.\r\n    struct UserInfo {\r\n        uint256 amount;\r\n        uint256 rewardDebt;\r\n    }\r\n\r\n    // Info of each pool.\r\n    struct PoolInfo {\r\n        IERC20 lpToken;                 // Address of LP token contract.\r\n        uint256 allocPoint;             // How many allocation points assigned to this pool.\r\n        uint256 lastRewardBlock;        // Last block number that reward distribution occurs.\r\n        uint256 accRewardPerShare;       // Accumulated reward per share, times 1e12. See below.\r\n        uint256 currentDepositAmount;   // Current total deposit amount in this pool\r\n    }\r\n\r\n    address constant public wrappedNativeAddress = address(0x21be370D5312f44cB42ce377BC9b8a0cEF1A4C83);\r\n\r\n    // The reward token\r\n    IERC20 public rewardToken;\r\n    // Reward tokens created per block.\r\n    uint256 public rewardsPerBlock;\r\n\r\n    // Emission Settings\r\n    uint256 public denominationEmitAmount = 403200; //Blocks\r\n    uint256 public minimumEmitAmount = 0; //Min Output Per Block\r\n    uint256 public maximumEmitAmount = 1 ether; //Max Output Per Block\r\n\r\n    // Info of each pool.\r\n    PoolInfo[] public poolInfo;\r\n    // Info of each user that stakes LP tokens.\r\n    mapping(address => UserInfo) public userInfo;\r\n    // Total allocation points. Must be the sum of all allocation points in all pools.\r\n    uint256 public totalAllocPoint = 0;\r\n    // The block number when mining starts.\r\n    uint256 public startBlock;\r\n\r\n    uint256 public remainingRewards = 0;\r\n\r\n    event Harvest(address indexed user, uint256 amount);\r\n    event Deposit(address indexed user, uint256 amount);\r\n    event Withdraw(address indexed user, uint256 amount);\r\n    event EmergencyWithdraw(address indexed user, uint256 amount);\r\n    event UpdateEmissionSettings(address indexed user, uint256 denomination, uint256 minimum, uint256 maximum, uint256 rewardsPerBlock);\r\n\r\n    constructor(IERC20 _stakeToken, IERC20 _rewardToken) public {\r\n        rewardToken = _rewardToken;\r\n\r\n        poolInfo.push(PoolInfo({\r\n        lpToken : _stakeToken,\r\n        allocPoint : 100,\r\n        lastRewardBlock : startBlock,\r\n        accRewardPerShare : 0,\r\n        currentDepositAmount : 0\r\n        }));\r\n\r\n        totalAllocPoint = 100;\r\n    }\r\n\r\n    // Return reward multiplier over the given _from to _to block.\r\n    function getMultiplier(uint256 _from, uint256 _to) private pure returns (uint256) {\r\n        return _to.sub(_from);\r\n    }\r\n\r\n    // View function to see pending rewards on frontend.\r\n    function pendingRewards(address _user) external view returns (uint256) {\r\n        PoolInfo storage pool = poolInfo[0];\r\n        UserInfo storage user = userInfo[_user];\r\n        uint256 accRewardPerShare = pool.accRewardPerShare;\r\n        uint256 lpSupply = pool.currentDepositAmount;\r\n        if (block.number > pool.lastRewardBlock && lpSupply != 0) {\r\n            //calculate total rewards based on remaining funds\r\n            if (remainingRewards > 0) {\r\n                uint256 multiplier = getMultiplier(pool.lastRewardBlock, block.number);\r\n                uint256 totalRewards = multiplier.mul(rewardsPerBlock).mul(pool.allocPoint).div(totalAllocPoint);\r\n                totalRewards = Math.min(totalRewards, remainingRewards);\r\n                accRewardPerShare = accRewardPerShare.add(totalRewards.mul(1e12).div(lpSupply));\r\n            }\r\n        }\r\n        return user.amount.mul(accRewardPerShare).div(1e12).sub(user.rewardDebt);\r\n    }\r\n\r\n    // Update reward variables of the given pool to be up-to-date.\r\n    function updatePool() public {\r\n        PoolInfo storage pool = poolInfo[0];\r\n        if (block.number <= pool.lastRewardBlock) {\r\n            return;\r\n        }\r\n        uint256 lpSupply = pool.currentDepositAmount;\r\n        if (lpSupply == 0 || pool.allocPoint == 0) {\r\n            pool.lastRewardBlock = block.number;\r\n            return;\r\n        }\r\n\r\n        if (remainingRewards == 0) {\r\n            pool.lastRewardBlock = block.number;\r\n            return;\r\n        }\r\n\r\n        //calculate total rewards based on remaining funds\r\n        uint256 multiplier = getMultiplier(pool.lastRewardBlock, block.number);\r\n        uint256 totalRewards = multiplier.mul(rewardsPerBlock).mul(pool.allocPoint).div(totalAllocPoint);\r\n        totalRewards = Math.min(totalRewards, remainingRewards);\r\n        remainingRewards = remainingRewards.sub(totalRewards);\r\n        pool.accRewardPerShare = pool.accRewardPerShare.add(totalRewards.mul(1e12).div(lpSupply));\r\n        pool.lastRewardBlock = block.number;\r\n    }\r\n\r\n    function income(uint256 _amount) external nonReentrant {\r\n        updatePool();\r\n        rewardToken.safeTransferFrom(address(msg.sender), address(this), _amount);\r\n        remainingRewards = remainingRewards.add(_amount);\r\n        updateEmissionRate();\r\n    }\r\n\r\n    function updateEmissionRate() private {\r\n        if (remainingRewards > 0) {\r\n            rewardsPerBlock = remainingRewards.div(denominationEmitAmount);\r\n            rewardsPerBlock = Math.min(maximumEmitAmount, rewardsPerBlock);\r\n            rewardsPerBlock = Math.max(minimumEmitAmount, rewardsPerBlock);\r\n        } else {\r\n            rewardsPerBlock = 0;\r\n        }\r\n    }\r\n\r\n    // Deposit LP tokens to Chef\r\n    function deposit(uint256 _amount) public nonReentrant {\r\n        PoolInfo storage pool = poolInfo[0];\r\n        UserInfo storage user = userInfo[msg.sender];\r\n        updatePool();\r\n        if (user.amount > 0) {\r\n            uint256 pending = user.amount.mul(pool.accRewardPerShare).div(1e12).sub(user.rewardDebt);\r\n            if (pending > 0) {\r\n                safeRewardTransfer(msg.sender, pending);\r\n                emit Harvest(msg.sender, pending);\r\n            }\r\n        }\r\n        if (_amount > 0) {\r\n            pool.lpToken.safeTransferFrom(address(msg.sender), address(this), _amount);\r\n            user.amount = user.amount.add(_amount);\r\n            pool.currentDepositAmount = pool.currentDepositAmount.add(_amount);\r\n        }\r\n        user.rewardDebt = user.amount.mul(pool.accRewardPerShare).div(1e12);\r\n        emit Deposit(msg.sender, _amount);\r\n    }\r\n\r\n    // Withdraw LP tokens from Chef.\r\n    function withdraw(uint256 _amount) public nonReentrant {\r\n        PoolInfo storage pool = poolInfo[0];\r\n        UserInfo storage user = userInfo[msg.sender];\r\n        require(user.amount >= _amount, \"withdraw: not good\");\r\n        updatePool();\r\n        uint256 pending = user.amount.mul(pool.accRewardPerShare).div(1e12).sub(user.rewardDebt);\r\n        if (pending > 0) {\r\n            safeRewardTransfer(msg.sender, pending);\r\n            emit Harvest(msg.sender, pending);\r\n        }\r\n        if (_amount > 0) {\r\n            user.amount = user.amount.sub(_amount);\r\n            pool.currentDepositAmount = pool.currentDepositAmount.sub(_amount);\r\n            pool.lpToken.safeTransfer(address(msg.sender), _amount);\r\n        }\r\n        user.rewardDebt = user.amount.mul(pool.accRewardPerShare).div(1e12);\r\n        emit Withdraw(msg.sender, _amount);\r\n    }\r\n\r\n    // Withdraw without caring about rewards. EMERGENCY ONLY.\r\n    function emergencyWithdraw() public nonReentrant {\r\n        PoolInfo storage pool = poolInfo[0];\r\n        UserInfo storage user = userInfo[msg.sender];\r\n        uint256 amount = user.amount;\r\n        user.amount = 0;\r\n        user.rewardDebt = 0;\r\n        pool.currentDepositAmount = pool.currentDepositAmount.sub(amount);\r\n        pool.lpToken.safeTransfer(address(msg.sender), amount);\r\n        emit EmergencyWithdraw(msg.sender, amount);\r\n    }\r\n\r\n    // Safe rewards transfer function, just in case if rounding error causes pool to not have enough tokens.\r\n    function safeRewardTransfer(address _to, uint256 _amount) internal {\r\n        uint256 balance = rewardToken.balanceOf(address(this));\r\n        uint256 transferAmount = Math.min(balance, _amount);\r\n        if (address(rewardToken) == wrappedNativeAddress) {\r\n            //If the reward token is a wrapped native token, we will unwrap it and send native\r\n            IWrappedNative(wrappedNativeAddress).withdraw(transferAmount);\r\n            safeTransferETH(_to, transferAmount);\r\n        } else {\r\n            bool transferSuccess = rewardToken.transfer(_to, transferAmount);\r\n            require(transferSuccess, \"safeRewardTransfer: transfer failed\");\r\n        }\r\n    }\r\n\r\n    //For unwrapping native tokens\r\n    receive() external payable {\r\n    }\r\n\r\n    function safeTransferETH(address to, uint value) internal {\r\n        (bool success,) = to.call{value : value}(new bytes(0));\r\n        require(success, 'safeTransferETH: ETH_TRANSFER_FAILED');\r\n    }\r\n\r\n    function updateEmissionSettings(uint256 denomination, uint256 minimum, uint256 maximum) external onlyOwner {\r\n        updatePool();\r\n        denominationEmitAmount = denomination;\r\n        minimumEmitAmount = minimum;\r\n        maximumEmitAmount = maximum;\r\n        updateEmissionRate();\r\n\r\n        emit UpdateEmissionSettings(msg.sender, denomination, minimum, maximum, rewardsPerBlock);\r\n    }\r\n\r\n    //New function to trigger harvest for a specific user and pool\r\n    //A specific user address is provided to facilitate aggregating harvests on multiple chefs\r\n    //Also, it is harmless monetary-wise to help someone else harvests\r\n    function harvestFor(address _user) public nonReentrant {\r\n        //Limit to self or delegated harvest to avoid unnecessary confusion\r\n        require(msg.sender == _user || tx.origin == _user, \"harvestFor: FORBIDDEN\");\r\n        PoolInfo storage pool = poolInfo[0];\r\n        UserInfo storage user = userInfo[_user];\r\n        updatePool();\r\n        if (user.amount > 0) {\r\n            uint256 pending = user.amount.mul(pool.accRewardPerShare).div(1e12).sub(user.rewardDebt);\r\n            if (pending > 0) {\r\n                safeRewardTransfer(_user, pending);\r\n                user.rewardDebt = user.amount.mul(pool.accRewardPerShare).div(1e12);\r\n                emit Harvest(_user, pending);\r\n            }\r\n        }\r\n    }\r\n}",
  "sourcePath": "D:/Posao - Stefan/Stefan - razno/Blockchain/ElavateFinance/auto-swap/contracts/SwapRewardsChef.sol",
  "compiler": {
    "name": "solc",
    "version": "0.6.12+commit.27d51765.Emscripten.clang"
  },
  "schemaVersion": "3.4.1",
  "updatedAt": "2021-08-11T08:20:16.615Z",
  "networkType": "ethereum",
  "devdoc": {
    "kind": "dev",
    "methods": {
      "owner()": {
        "details": "Returns the address of the current owner."
      },
      "renounceOwnership()": {
        "details": "Leaves the contract without owner. It will not be possible to call `onlyOwner` functions anymore. Can only be called by the current owner. NOTE: Renouncing ownership will leave the contract without an owner, thereby removing any functionality that is only available to the owner."
      },
      "transferOwnership(address)": {
        "details": "Transfers ownership of the contract to a new account (`newOwner`). Can only be called by the current owner."
      }
    },
    "version": 1
  },
  "userdoc": {
    "kind": "user",
    "methods": {},
    "version": 1
  }
}