{
  "contractName": "SwapRewardsChef",
  "abi": [
    {
      "inputs": [
        {
          "internalType": "contract IERC20",
          "name": "_stakeToken",
          "type": "address"
        },
        {
          "internalType": "contract IERC20",
          "name": "_rewardToken",
          "type": "address"
        },
        {
          "internalType": "address",
          "name": "_wrappedNativeAddress",
          "type": "address"
        }
      ],
      "stateMutability": "nonpayable",
      "type": "constructor"
    },
    {
      "anonymous": false,
      "inputs": [
        {
          "indexed": true,
          "internalType": "address",
          "name": "user",
          "type": "address"
        },
        {
          "indexed": false,
          "internalType": "uint256",
          "name": "amount",
          "type": "uint256"
        }
      ],
      "name": "Deposit",
      "type": "event"
    },
    {
      "anonymous": false,
      "inputs": [
        {
          "indexed": true,
          "internalType": "address",
          "name": "user",
          "type": "address"
        },
        {
          "indexed": false,
          "internalType": "uint256",
          "name": "amount",
          "type": "uint256"
        }
      ],
      "name": "EmergencyWithdraw",
      "type": "event"
    },
    {
      "anonymous": false,
      "inputs": [
        {
          "indexed": true,
          "internalType": "address",
          "name": "user",
          "type": "address"
        },
        {
          "indexed": false,
          "internalType": "uint256",
          "name": "amount",
          "type": "uint256"
        }
      ],
      "name": "Harvest",
      "type": "event"
    },
    {
      "anonymous": false,
      "inputs": [
        {
          "indexed": true,
          "internalType": "address",
          "name": "previousOwner",
          "type": "address"
        },
        {
          "indexed": true,
          "internalType": "address",
          "name": "newOwner",
          "type": "address"
        }
      ],
      "name": "OwnershipTransferred",
      "type": "event"
    },
    {
      "anonymous": false,
      "inputs": [
        {
          "indexed": true,
          "internalType": "address",
          "name": "user",
          "type": "address"
        },
        {
          "indexed": true,
          "internalType": "address",
          "name": "token",
          "type": "address"
        },
        {
          "indexed": false,
          "internalType": "uint256",
          "name": "amount",
          "type": "uint256"
        }
      ],
      "name": "RescueTokens",
      "type": "event"
    },
    {
      "anonymous": false,
      "inputs": [
        {
          "indexed": true,
          "internalType": "address",
          "name": "user",
          "type": "address"
        },
        {
          "indexed": false,
          "internalType": "uint256",
          "name": "denomination",
          "type": "uint256"
        },
        {
          "indexed": false,
          "internalType": "uint256",
          "name": "minimum",
          "type": "uint256"
        },
        {
          "indexed": false,
          "internalType": "uint256",
          "name": "maximum",
          "type": "uint256"
        },
        {
          "indexed": false,
          "internalType": "uint256",
          "name": "rewardsPerBlock",
          "type": "uint256"
        }
      ],
      "name": "UpdateEmissionSettings",
      "type": "event"
    },
    {
      "anonymous": false,
      "inputs": [
        {
          "indexed": true,
          "internalType": "address",
          "name": "user",
          "type": "address"
        },
        {
          "indexed": false,
          "internalType": "uint256",
          "name": "amount",
          "type": "uint256"
        }
      ],
      "name": "Withdraw",
      "type": "event"
    },
    {
      "inputs": [],
      "name": "denominationEmitAmount",
      "outputs": [
        {
          "internalType": "uint256",
          "name": "",
          "type": "uint256"
        }
      ],
      "stateMutability": "view",
      "type": "function"
    },
    {
      "inputs": [],
      "name": "maximumEmitAmount",
      "outputs": [
        {
          "internalType": "uint256",
          "name": "",
          "type": "uint256"
        }
      ],
      "stateMutability": "view",
      "type": "function"
    },
    {
      "inputs": [],
      "name": "minimumEmitAmount",
      "outputs": [
        {
          "internalType": "uint256",
          "name": "",
          "type": "uint256"
        }
      ],
      "stateMutability": "view",
      "type": "function"
    },
    {
      "inputs": [],
      "name": "owner",
      "outputs": [
        {
          "internalType": "address",
          "name": "",
          "type": "address"
        }
      ],
      "stateMutability": "view",
      "type": "function"
    },
    {
      "inputs": [
        {
          "internalType": "uint256",
          "name": "",
          "type": "uint256"
        }
      ],
      "name": "poolInfo",
      "outputs": [
        {
          "internalType": "contract IERC20",
          "name": "lpToken",
          "type": "address"
        },
        {
          "internalType": "uint256",
          "name": "allocPoint",
          "type": "uint256"
        },
        {
          "internalType": "uint256",
          "name": "lastRewardBlock",
          "type": "uint256"
        },
        {
          "internalType": "uint256",
          "name": "accRewardPerShare",
          "type": "uint256"
        },
        {
          "internalType": "uint256",
          "name": "currentDepositAmount",
          "type": "uint256"
        }
      ],
      "stateMutability": "view",
      "type": "function"
    },
    {
      "inputs": [],
      "name": "remainingRewards",
      "outputs": [
        {
          "internalType": "uint256",
          "name": "",
          "type": "uint256"
        }
      ],
      "stateMutability": "view",
      "type": "function"
    },
    {
      "inputs": [],
      "name": "renounceOwnership",
      "outputs": [],
      "stateMutability": "nonpayable",
      "type": "function"
    },
    {
      "inputs": [],
      "name": "rewardToken",
      "outputs": [
        {
          "internalType": "contract IERC20",
          "name": "",
          "type": "address"
        }
      ],
      "stateMutability": "view",
      "type": "function"
    },
    {
      "inputs": [],
      "name": "rewardsPerBlock",
      "outputs": [
        {
          "internalType": "uint256",
          "name": "",
          "type": "uint256"
        }
      ],
      "stateMutability": "view",
      "type": "function"
    },
    {
      "inputs": [],
      "name": "startBlock",
      "outputs": [
        {
          "internalType": "uint256",
          "name": "",
          "type": "uint256"
        }
      ],
      "stateMutability": "view",
      "type": "function"
    },
    {
      "inputs": [],
      "name": "totalAllocPoint",
      "outputs": [
        {
          "internalType": "uint256",
          "name": "",
          "type": "uint256"
        }
      ],
      "stateMutability": "view",
      "type": "function"
    },
    {
      "inputs": [
        {
          "internalType": "address",
          "name": "newOwner",
          "type": "address"
        }
      ],
      "name": "transferOwnership",
      "outputs": [],
      "stateMutability": "nonpayable",
      "type": "function"
    },
    {
      "inputs": [
        {
          "internalType": "address",
          "name": "",
          "type": "address"
        }
      ],
      "name": "userInfo",
      "outputs": [
        {
          "internalType": "uint256",
          "name": "amount",
          "type": "uint256"
        },
        {
          "internalType": "uint256",
          "name": "rewardDebt",
          "type": "uint256"
        }
      ],
      "stateMutability": "view",
      "type": "function"
    },
    {
      "inputs": [],
      "name": "wrappedNativeAddress",
      "outputs": [
        {
          "internalType": "address",
          "name": "",
          "type": "address"
        }
      ],
      "stateMutability": "view",
      "type": "function"
    },
    {
      "stateMutability": "payable",
      "type": "receive"
    },
    {
      "inputs": [
        {
          "internalType": "address",
          "name": "_user",
          "type": "address"
        }
      ],
      "name": "pendingRewards",
      "outputs": [
        {
          "internalType": "uint256",
          "name": "",
          "type": "uint256"
        }
      ],
      "stateMutability": "view",
      "type": "function"
    },
    {
      "inputs": [],
      "name": "updatePool",
      "outputs": [],
      "stateMutability": "nonpayable",
      "type": "function"
    },
    {
      "inputs": [
        {
          "internalType": "uint256",
          "name": "_amount",
          "type": "uint256"
        }
      ],
      "name": "income",
      "outputs": [],
      "stateMutability": "nonpayable",
      "type": "function"
    },
    {
      "inputs": [
        {
          "internalType": "uint256",
          "name": "_amount",
          "type": "uint256"
        }
      ],
      "name": "deposit",
      "outputs": [],
      "stateMutability": "nonpayable",
      "type": "function"
    },
    {
      "inputs": [
        {
          "internalType": "uint256",
          "name": "_amount",
          "type": "uint256"
        }
      ],
      "name": "withdraw",
      "outputs": [],
      "stateMutability": "nonpayable",
      "type": "function"
    },
    {
      "inputs": [],
      "name": "emergencyWithdraw",
      "outputs": [],
      "stateMutability": "nonpayable",
      "type": "function"
    },
    {
      "inputs": [
        {
          "internalType": "uint256",
          "name": "denomination",
          "type": "uint256"
        },
        {
          "internalType": "uint256",
          "name": "minimum",
          "type": "uint256"
        },
        {
          "internalType": "uint256",
          "name": "maximum",
          "type": "uint256"
        }
      ],
      "name": "updateEmissionSettings",
      "outputs": [],
      "stateMutability": "nonpayable",
      "type": "function"
    },
    {
      "inputs": [
        {
          "internalType": "address",
          "name": "_user",
          "type": "address"
        }
      ],
      "name": "harvestFor",
      "outputs": [],
      "stateMutability": "nonpayable",
      "type": "function"
    },
    {
      "inputs": [
        {
          "internalType": "address",
          "name": "token",
          "type": "address"
        },
        {
          "internalType": "address",
          "name": "addressForReceive",
          "type": "address"
        }
      ],
      "name": "rescueToken",
      "outputs": [],
      "stateMutability": "nonpayable",
      "type": "function"
    }
  ],
  "bytecode": "0x6080604052620627006005556000600655670de0b6b3a76400006007556000600a556000600c553480156200003357600080fd5b5060405162002efd38038062002efd833981810160405260608110156200005957600080fd5b81019080805190602001909291908051906020019092919080519060200190929190505050600062000090620002a660201b60201c565b9050806000806101000a81548173ffffffffffffffffffffffffffffffffffffffff021916908373ffffffffffffffffffffffffffffffffffffffff1602179055508073ffffffffffffffffffffffffffffffffffffffff16600073ffffffffffffffffffffffffffffffffffffffff167f8be0079c531659141344cd1fd0a4f28419497f9722a3daafe3b4186f6b6457e060405160405180910390a3506001808190555081600360006101000a81548173ffffffffffffffffffffffffffffffffffffffff021916908373ffffffffffffffffffffffffffffffffffffffff16021790555060086040518060a001604052808573ffffffffffffffffffffffffffffffffffffffff16815260200160648152602001600b548152602001600081526020016000815250908060018154018082558091505060019003906000526020600020906005020160009091909190915060008201518160000160006101000a81548173ffffffffffffffffffffffffffffffffffffffff021916908373ffffffffffffffffffffffffffffffffffffffff16021790555060208201518160010155604082015181600201556060820151816003015560808201518160040155505080600260006101000a81548173ffffffffffffffffffffffffffffffffffffffff021916908373ffffffffffffffffffffffffffffffffffffffff1602179055506064600a81905550505050620002ae565b600033905090565b612c3f80620002be6000396000f3fe6080604052600436106101845760003560e01c806384ed8c56116100d6578063dd5998441161007f578063f2fde38b11610059578063f2fde38b14610647578063f7c618c114610698578063fbe1ebec146106d95761018b565b8063dd599844146105b6578063e3161ddd146105e1578063eebf65f3146105f85761018b565b8063afb62e56116100b0578063afb62e5614610539578063b6b55f2514610564578063db2e21bc1461059f5761018b565b806384ed8c56146104925780638b1c0d1b146104cd5780638da5cb5b146104f85761018b565b806346f0cfba116101385780635eeb6710116101125780635eeb67101461040f578063715018a61461043a57806376ab8136146104515761018b565b806346f0cfba146103485780634707d0001461037357806348cd4cb1146103e45761018b565b80631959a002116101695780631959a0021461023c5780632e1a7d4d146102a857806331d7a262146102e35761018b565b80631526fe271461019057806317caf6f1146102115761018b565b3661018b57005b600080fd5b34801561019c57600080fd5b506101c9600480360360208110156101b357600080fd5b810190808035906020019092919050505061072a565b604051808673ffffffffffffffffffffffffffffffffffffffff1681526020018581526020018481526020018381526020018281526020019550505050505060405180910390f35b34801561021d57600080fd5b5061022661078d565b6040518082815260200191505060405180910390f35b34801561024857600080fd5b5061028b6004803603602081101561025f57600080fd5b81019080803573ffffffffffffffffffffffffffffffffffffffff169060200190929190505050610793565b604051808381526020018281526020019250505060405180910390f35b3480156102b457600080fd5b506102e1600480360360208110156102cb57600080fd5b81019080803590602001909291905050506107b7565b005b3480156102ef57600080fd5b506103326004803603602081101561030657600080fd5b81019080803573ffffffffffffffffffffffffffffffffffffffff169060200190929190505050610af7565b6040518082815260200191505060405180910390f35b34801561035457600080fd5b5061035d610c85565b6040518082815260200191505060405180910390f35b34801561037f57600080fd5b506103e26004803603604081101561039657600080fd5b81019080803573ffffffffffffffffffffffffffffffffffffffff169060200190929190803573ffffffffffffffffffffffffffffffffffffffff169060200190929190505050610c8b565b005b3480156103f057600080fd5b506103f9610e8e565b6040518082815260200191505060405180910390f35b34801561041b57600080fd5b50610424610e94565b6040518082815260200191505060405180910390f35b34801561044657600080fd5b5061044f610e9a565b005b34801561045d57600080fd5b50610466611020565b604051808273ffffffffffffffffffffffffffffffffffffffff16815260200191505060405180910390f35b34801561049e57600080fd5b506104cb600480360360208110156104b557600080fd5b8101908080359060200190929190505050611046565b005b3480156104d957600080fd5b506104e261114b565b6040518082815260200191505060405180910390f35b34801561050457600080fd5b5061050d611151565b604051808273ffffffffffffffffffffffffffffffffffffffff16815260200191505060405180910390f35b34801561054557600080fd5b5061054e61117a565b6040518082815260200191505060405180910390f35b34801561057057600080fd5b5061059d6004803603602081101561058757600080fd5b8101908080359060200190929190505050611180565b005b3480156105ab57600080fd5b506105b4611456565b005b3480156105c257600080fd5b506105cb61161f565b6040518082815260200191505060405180910390f35b3480156105ed57600080fd5b506105f6611625565b005b34801561060457600080fd5b506106456004803603606081101561061b57600080fd5b81019080803590602001909291908035906020019092919080359060200190929190505050611778565b005b34801561065357600080fd5b506106966004803603602081101561066a57600080fd5b81019080803573ffffffffffffffffffffffffffffffffffffffff1690602001909291905050506118d2565b005b3480156106a457600080fd5b506106ad611add565b604051808273ffffffffffffffffffffffffffffffffffffffff16815260200191505060405180910390f35b3480156106e557600080fd5b50610728600480360360208110156106fc57600080fd5b81019080803573ffffffffffffffffffffffffffffffffffffffff169060200190929190505050611b03565b005b6008818154811061073757fe5b90600052602060002090600502016000915090508060000160009054906101000a900473ffffffffffffffffffffffffffffffffffffffff16908060010154908060020154908060030154908060040154905085565b600a5481565b60096020528060005260406000206000915090508060000154908060010154905082565b60026001541415610830576040517f08c379a000000000000000000000000000000000000000000000000000000000815260040180806020018281038252601f8152602001807f5265656e7472616e637947756172643a207265656e7472616e742063616c6c0081525060200191505060405180910390fd5b60026001819055506000600860008154811061084857fe5b906000526020600020906005020190506000600960003373ffffffffffffffffffffffffffffffffffffffff1673ffffffffffffffffffffffffffffffffffffffff16815260200190815260200160002090508281600001541015610915576040517f08c379a00000000000000000000000000000000000000000000000000000000081526004018080602001828103825260128152602001807f77697468647261773a206e6f7420676f6f64000000000000000000000000000081525060200191505060405180910390fd5b61091d611625565b6000610967826001015461095964e8d4a5100061094b87600301548760000154611dc990919063ffffffff16565b611e4f90919063ffffffff16565b611e9990919063ffffffff16565b905060008111156109cb5761097c3382611ee3565b3373ffffffffffffffffffffffffffffffffffffffff167fc9695243a805adb74c91f28311176c65b417e842d5699893cef56d18bfa48cba826040518082815260200191505060405180910390a25b6000841115610a62576109eb848360000154611e9990919063ffffffff16565b8260000181905550610a0a848460040154611e9990919063ffffffff16565b8360040181905550610a6133858560000160009054906101000a900473ffffffffffffffffffffffffffffffffffffffff1673ffffffffffffffffffffffffffffffffffffffff166121fd9092919063ffffffff16565b5b610a9464e8d4a51000610a8685600301548560000154611dc990919063ffffffff16565b611e4f90919063ffffffff16565b82600101819055503373ffffffffffffffffffffffffffffffffffffffff167f884edad9ce6fa2440d8a54cc123490eb96d2768479d49ff9c7366125a9424364856040518082815260200191505060405180910390a25050506001808190555050565b6000806008600081548110610b0857fe5b906000526020600020906005020190506000600960008573ffffffffffffffffffffffffffffffffffffffff1673ffffffffffffffffffffffffffffffffffffffff1681526020019081526020016000209050600082600301549050600083600401549050836002015443118015610b81575060008114155b15610c36576000600c541115610c35576000610ba185600201544361229f565b90506000610be4600a54610bd68860010154610bc860045487611dc990919063ffffffff16565b611dc990919063ffffffff16565b611e4f90919063ffffffff16565b9050610bf281600c546122bc565b9050610c30610c2184610c1364e8d4a5100085611dc990919063ffffffff16565b611e4f90919063ffffffff16565b856122d590919063ffffffff16565b935050505b5b610c7a8360010154610c6c64e8d4a51000610c5e868860000154611dc990919063ffffffff16565b611e4f90919063ffffffff16565b611e9990919063ffffffff16565b945050505050919050565b60055481565b610c9361235d565b73ffffffffffffffffffffffffffffffffffffffff1660008054906101000a900473ffffffffffffffffffffffffffffffffffffffff1673ffffffffffffffffffffffffffffffffffffffff1614610d53576040517f08c379a00000000000000000000000000000000000000000000000000000000081526004018080602001828103825260208152602001807f4f776e61626c653a2063616c6c6572206973206e6f7420746865206f776e657281525060200191505060405180910390fd5b60008273ffffffffffffffffffffffffffffffffffffffff166370a08231306040518263ffffffff1660e01b8152600401808273ffffffffffffffffffffffffffffffffffffffff16815260200191505060206040518083038186803b158015610dbc57600080fd5b505afa158015610dd0573d6000803e3d6000fd5b505050506040513d6020811015610de657600080fd5b81019080805190602001909291905050509050610e2482828573ffffffffffffffffffffffffffffffffffffffff166121fd9092919063ffffffff16565b8273ffffffffffffffffffffffffffffffffffffffff163373ffffffffffffffffffffffffffffffffffffffff167f0de377c3f3362540c047602ad996510f81ec5d84f9ad151c7b6ebecce8ea6b7b836040518082815260200191505060405180910390a3505050565b600b5481565b60045481565b610ea261235d565b73ffffffffffffffffffffffffffffffffffffffff1660008054906101000a900473ffffffffffffffffffffffffffffffffffffffff1673ffffffffffffffffffffffffffffffffffffffff1614610f62576040517f08c379a00000000000000000000000000000000000000000000000000000000081526004018080602001828103825260208152602001807f4f776e61626c653a2063616c6c6572206973206e6f7420746865206f776e657281525060200191505060405180910390fd5b600073ffffffffffffffffffffffffffffffffffffffff1660008054906101000a900473ffffffffffffffffffffffffffffffffffffffff1673ffffffffffffffffffffffffffffffffffffffff167f8be0079c531659141344cd1fd0a4f28419497f9722a3daafe3b4186f6b6457e060405160405180910390a360008060006101000a81548173ffffffffffffffffffffffffffffffffffffffff021916908373ffffffffffffffffffffffffffffffffffffffff160217905550565b600260009054906101000a900473ffffffffffffffffffffffffffffffffffffffff1681565b600260015414156110bf576040517f08c379a000000000000000000000000000000000000000000000000000000000815260040180806020018281038252601f8152602001807f5265656e7472616e637947756172643a207265656e7472616e742063616c6c0081525060200191505060405180910390fd5b60026001819055506110cf611625565b61111e333083600360009054906101000a900473ffffffffffffffffffffffffffffffffffffffff1673ffffffffffffffffffffffffffffffffffffffff16612365909392919063ffffffff16565b61113381600c546122d590919063ffffffff16565b600c81905550611141612426565b6001808190555050565b60075481565b60008060009054906101000a900473ffffffffffffffffffffffffffffffffffffffff16905090565b600c5481565b600260015414156111f9576040517f08c379a000000000000000000000000000000000000000000000000000000000815260040180806020018281038252601f8152602001807f5265656e7472616e637947756172643a207265656e7472616e742063616c6c0081525060200191505060405180910390fd5b60026001819055506000600860008154811061121157fe5b906000526020600020906005020190506000600960003373ffffffffffffffffffffffffffffffffffffffff1673ffffffffffffffffffffffffffffffffffffffff168152602001908152602001600020905061126c611625565b6000816000015411156113295760006112c382600101546112b564e8d4a510006112a787600301548760000154611dc990919063ffffffff16565b611e4f90919063ffffffff16565b611e9990919063ffffffff16565b90506000811115611327576112d83382611ee3565b3373ffffffffffffffffffffffffffffffffffffffff167fc9695243a805adb74c91f28311176c65b417e842d5699893cef56d18bfa48cba826040518082815260200191505060405180910390a25b505b60008311156113c2576113833330858560000160009054906101000a900473ffffffffffffffffffffffffffffffffffffffff1673ffffffffffffffffffffffffffffffffffffffff16612365909392919063ffffffff16565b61139a8382600001546122d590919063ffffffff16565b81600001819055506113b98383600401546122d590919063ffffffff16565b82600401819055505b6113f464e8d4a510006113e684600301548460000154611dc990919063ffffffff16565b611e4f90919063ffffffff16565b81600101819055503373ffffffffffffffffffffffffffffffffffffffff167fe1fffcc4923d04b559f4d29a8bfc6cda04eb5b0d3c460751c2402c5c5cc9109c846040518082815260200191505060405180910390a250506001808190555050565b600260015414156114cf576040517f08c379a000000000000000000000000000000000000000000000000000000000815260040180806020018281038252601f8152602001807f5265656e7472616e637947756172643a207265656e7472616e742063616c6c0081525060200191505060405180910390fd5b6002600181905550600060086000815481106114e757fe5b906000526020600020906005020190506000600960003373ffffffffffffffffffffffffffffffffffffffff1673ffffffffffffffffffffffffffffffffffffffff1681526020019081526020016000209050600081600001549050600082600001819055506000826001018190555061156e818460040154611e9990919063ffffffff16565b83600401819055506115c533828560000160009054906101000a900473ffffffffffffffffffffffffffffffffffffffff1673ffffffffffffffffffffffffffffffffffffffff166121fd9092919063ffffffff16565b3373ffffffffffffffffffffffffffffffffffffffff167f5fafa99d0643513820be26656b45130b01e1c03062e1266bf36f88cbd3bd9695826040518082815260200191505060405180910390a250505060018081905550565b60065481565b6000600860008154811061163557fe5b90600052602060002090600502019050806002015443116116565750611776565b6000816004015490506000811480611672575060008260010154145b15611687574382600201819055505050611776565b6000600c5414156116a2574382600201819055505050611776565b60006116b283600201544361229f565b905060006116f5600a546116e786600101546116d960045487611dc990919063ffffffff16565b611dc990919063ffffffff16565b611e4f90919063ffffffff16565b905061170381600c546122bc565b905061171a81600c54611e9990919063ffffffff16565b600c8190555061176061174d8461173f64e8d4a5100085611dc990919063ffffffff16565b611e4f90919063ffffffff16565b85600301546122d590919063ffffffff16565b8460030181905550438460020181905550505050505b565b61178061235d565b73ffffffffffffffffffffffffffffffffffffffff1660008054906101000a900473ffffffffffffffffffffffffffffffffffffffff1673ffffffffffffffffffffffffffffffffffffffff1614611840576040517f08c379a00000000000000000000000000000000000000000000000000000000081526004018080602001828103825260208152602001807f4f776e61626c653a2063616c6c6572206973206e6f7420746865206f776e657281525060200191505060405180910390fd5b611848611625565b826005819055508160068190555080600781905550611865612426565b3373ffffffffffffffffffffffffffffffffffffffff167fa2ccc6b6183e466f6e7b59cc83e6a4a0fd8a4adab25b95ac0fcb805b963ea0f38484846004546040518085815260200184815260200183815260200182815260200194505050505060405180910390a2505050565b6118da61235d565b73ffffffffffffffffffffffffffffffffffffffff1660008054906101000a900473ffffffffffffffffffffffffffffffffffffffff1673ffffffffffffffffffffffffffffffffffffffff161461199a576040517f08c379a00000000000000000000000000000000000000000000000000000000081526004018080602001828103825260208152602001807f4f776e61626c653a2063616c6c6572206973206e6f7420746865206f776e657281525060200191505060405180910390fd5b600073ffffffffffffffffffffffffffffffffffffffff168173ffffffffffffffffffffffffffffffffffffffff161415611a20576040517f08c379a0000000000000000000000000000000000000000000000000000000008152600401808060200182810382526026815260200180612b4f6026913960400191505060405180910390fd5b8073ffffffffffffffffffffffffffffffffffffffff1660008054906101000a900473ffffffffffffffffffffffffffffffffffffffff1673ffffffffffffffffffffffffffffffffffffffff167f8be0079c531659141344cd1fd0a4f28419497f9722a3daafe3b4186f6b6457e060405160405180910390a3806000806101000a81548173ffffffffffffffffffffffffffffffffffffffff021916908373ffffffffffffffffffffffffffffffffffffffff16021790555050565b600360009054906101000a900473ffffffffffffffffffffffffffffffffffffffff1681565b60026001541415611b7c576040517f08c379a000000000000000000000000000000000000000000000000000000000815260040180806020018281038252601f8152602001807f5265656e7472616e637947756172643a207265656e7472616e742063616c6c0081525060200191505060405180910390fd5b60026001819055508073ffffffffffffffffffffffffffffffffffffffff163373ffffffffffffffffffffffffffffffffffffffff161480611be957508073ffffffffffffffffffffffffffffffffffffffff163273ffffffffffffffffffffffffffffffffffffffff16145b611c5b576040517f08c379a00000000000000000000000000000000000000000000000000000000081526004018080602001828103825260158152602001807f68617276657374466f723a20464f5242494444454e000000000000000000000081525060200191505060405180910390fd5b60006008600081548110611c6b57fe5b906000526020600020906005020190506000600960008473ffffffffffffffffffffffffffffffffffffffff1673ffffffffffffffffffffffffffffffffffffffff1681526020019081526020016000209050611cc6611625565b600081600001541115611dbd576000611d1d8260010154611d0f64e8d4a51000611d0187600301548760000154611dc990919063ffffffff16565b611e4f90919063ffffffff16565b611e9990919063ffffffff16565b90506000811115611dbb57611d328482611ee3565b611d6464e8d4a51000611d5685600301548560000154611dc990919063ffffffff16565b611e4f90919063ffffffff16565b82600101819055508373ffffffffffffffffffffffffffffffffffffffff167fc9695243a805adb74c91f28311176c65b417e842d5699893cef56d18bfa48cba826040518082815260200191505060405180910390a25b505b50506001808190555050565b600080831415611ddc5760009050611e49565b6000828402905082848281611ded57fe5b0414611e44576040517f08c379a0000000000000000000000000000000000000000000000000000000008152600401808060200182810382526021815260200180612bbf6021913960400191505060405180910390fd5b809150505b92915050565b6000611e9183836040518060400160405280601a81526020017f536166654d6174683a206469766973696f6e206279207a65726f000000000000815250612486565b905092915050565b6000611edb83836040518060400160405280601e81526020017f536166654d6174683a207375627472616374696f6e206f766572666c6f77000081525061254c565b905092915050565b6000600360009054906101000a900473ffffffffffffffffffffffffffffffffffffffff1673ffffffffffffffffffffffffffffffffffffffff166370a08231306040518263ffffffff1660e01b8152600401808273ffffffffffffffffffffffffffffffffffffffff16815260200191505060206040518083038186803b158015611f6e57600080fd5b505afa158015611f82573d6000803e3d6000fd5b505050506040513d6020811015611f9857600080fd5b810190808051906020019092919050505090506000611fb782846122bc565b9050600260009054906101000a900473ffffffffffffffffffffffffffffffffffffffff1673ffffffffffffffffffffffffffffffffffffffff16600360009054906101000a900473ffffffffffffffffffffffffffffffffffffffff1673ffffffffffffffffffffffffffffffffffffffff1614156120cd57600260009054906101000a900473ffffffffffffffffffffffffffffffffffffffff1673ffffffffffffffffffffffffffffffffffffffff16632e1a7d4d826040518263ffffffff1660e01b815260040180828152602001915050600060405180830381600087803b1580156120a657600080fd5b505af11580156120ba573d6000803e3d6000fd5b505050506120c8848261260c565b6121f7565b6000600360009054906101000a900473ffffffffffffffffffffffffffffffffffffffff1673ffffffffffffffffffffffffffffffffffffffff1663a9059cbb86846040518363ffffffff1660e01b8152600401808373ffffffffffffffffffffffffffffffffffffffff16815260200182815260200192505050602060405180830381600087803b15801561216257600080fd5b505af1158015612176573d6000803e3d6000fd5b505050506040513d602081101561218c57600080fd5b81019080805190602001909291905050509050806121f5576040517f08c379a0000000000000000000000000000000000000000000000000000000008152600401808060200182810382526023815260200180612b2c6023913960400191505060405180910390fd5b505b50505050565b61229a8363a9059cbb60e01b8484604051602401808373ffffffffffffffffffffffffffffffffffffffff16815260200182815260200192505050604051602081830303815290604052907bffffffffffffffffffffffffffffffffffffffffffffffffffffffff19166020820180517bffffffffffffffffffffffffffffffffffffffffffffffffffffffff838183161783525050505061276b565b505050565b60006122b48383611e9990919063ffffffff16565b905092915050565b60008183106122cb57816122cd565b825b905092915050565b600080828401905083811015612353576040517f08c379a000000000000000000000000000000000000000000000000000000000815260040180806020018281038252601b8152602001807f536166654d6174683a206164646974696f6e206f766572666c6f77000000000081525060200191505060405180910390fd5b8091505092915050565b600033905090565b612420846323b872dd60e01b858585604051602401808473ffffffffffffffffffffffffffffffffffffffff1681526020018373ffffffffffffffffffffffffffffffffffffffff1681526020018281526020019350505050604051602081830303815290604052907bffffffffffffffffffffffffffffffffffffffffffffffffffffffff19166020820180517bffffffffffffffffffffffffffffffffffffffffffffffffffffffff838183161783525050505061276b565b50505050565b6000600c54111561247b57612448600554600c54611e4f90919063ffffffff16565b60048190555061245c6007546004546122bc565b60048190555061247060065460045461285a565b600481905550612484565b60006004819055505b565b60008083118290612532576040517f08c379a00000000000000000000000000000000000000000000000000000000081526004018080602001828103825283818151815260200191508051906020019080838360005b838110156124f75780820151818401526020810190506124dc565b50505050905090810190601f1680156125245780820380516001836020036101000a031916815260200191505b509250505060405180910390fd5b50600083858161253e57fe5b049050809150509392505050565b60008383111582906125f9576040517f08c379a00000000000000000000000000000000000000000000000000000000081526004018080602001828103825283818151815260200191508051906020019080838360005b838110156125be5780820151818401526020810190506125a3565b50505050905090810190601f1680156125eb5780820380516001836020036101000a031916815260200191505b509250505060405180910390fd5b5060008385039050809150509392505050565b60008273ffffffffffffffffffffffffffffffffffffffff1682600067ffffffffffffffff8111801561263e57600080fd5b506040519080825280601f01601f1916602001820160405280156126715781602001600182028036833780820191505090505b506040518082805190602001908083835b602083106126a55780518252602082019150602081019050602083039250612682565b6001836020036101000a03801982511681845116808217855250505050505090500191505060006040518083038185875af1925050503d8060008114612707576040519150601f19603f3d011682016040523d82523d6000602084013e61270c565b606091505b5050905080612766576040517f08c379a0000000000000000000000000000000000000000000000000000000008152600401808060200182810382526024815260200180612b756024913960400191505060405180910390fd5b505050565b60606127cd826040518060400160405280602081526020017f5361666545524332303a206c6f772d6c6576656c2063616c6c206661696c65648152508573ffffffffffffffffffffffffffffffffffffffff166128749092919063ffffffff16565b9050600081511115612855578080602001905160208110156127ee57600080fd5b8101908080519060200190929190505050612854576040517f08c379a000000000000000000000000000000000000000000000000000000000815260040180806020018281038252602a815260200180612be0602a913960400191505060405180910390fd5b5b505050565b60008183101561286a578161286c565b825b905092915050565b6060612883848460008561288c565b90509392505050565b6060823073ffffffffffffffffffffffffffffffffffffffff163110156128fe576040517f08c379a0000000000000000000000000000000000000000000000000000000008152600401808060200182810382526026815260200180612b996026913960400191505060405180910390fd5b61290785612a4c565b612979576040517f08c379a000000000000000000000000000000000000000000000000000000000815260040180806020018281038252601d8152602001807f416464726573733a2063616c6c20746f206e6f6e2d636f6e747261637400000081525060200191505060405180910390fd5b600060608673ffffffffffffffffffffffffffffffffffffffff1685876040518082805190602001908083835b602083106129c957805182526020820191506020810190506020830392506129a6565b6001836020036101000a03801982511681845116808217855250505050505090500191505060006040518083038185875af1925050503d8060008114612a2b576040519150601f19603f3d011682016040523d82523d6000602084013e612a30565b606091505b5091509150612a40828286612a5f565b92505050949350505050565b600080823b905060008111915050919050565b60608315612a6f57829050612b24565b600083511115612a825782518084602001fd5b816040517f08c379a00000000000000000000000000000000000000000000000000000000081526004018080602001828103825283818151815260200191508051906020019080838360005b83811015612ae9578082015181840152602081019050612ace565b50505050905090810190601f168015612b165780820380516001836020036101000a031916815260200191505b509250505060405180910390fd5b939250505056fe736166655265776172645472616e736665723a207472616e73666572206661696c65644f776e61626c653a206e6577206f776e657220697320746865207a65726f2061646472657373736166655472616e736665724554483a204554485f5452414e534645525f4641494c4544416464726573733a20696e73756666696369656e742062616c616e636520666f722063616c6c536166654d6174683a206d756c7469706c69636174696f6e206f766572666c6f775361666545524332303a204552433230206f7065726174696f6e20646964206e6f742073756363656564a26469706673582212207a5e475c0929bc3b0f193e594dac4e09c7a9a35c61a22b19bfc85bd007dcd66364736f6c634300060c0033",
  "immutableReferences": {},
  "source": "// SPDX-License-Identifier: UNLICENSED\r\npragma solidity 0.6.12;\r\n\r\nimport \"@openzeppelin/contracts/math/SafeMath.sol\";\r\nimport \"@openzeppelin/contracts/math/Math.sol\";\r\nimport '@openzeppelin/contracts/token/ERC20/IERC20.sol';\r\nimport '@openzeppelin/contracts/token/ERC20/SafeERC20.sol';\r\nimport \"@openzeppelin/contracts/access/Ownable.sol\";\r\nimport \"@openzeppelin/contracts/utils/ReentrancyGuard.sol\";\r\n\r\nimport \"./interfaces/IWrappedNative.sol\";\r\n\r\ncontract SwapRewardsChef is Ownable, ReentrancyGuard {\r\n    using SafeMath for uint256;\r\n    using SafeERC20 for IERC20;\r\n\r\n    // Info of each user.\r\n    struct UserInfo {\r\n        uint256 amount;\r\n        uint256 rewardDebt;\r\n    }\r\n\r\n    // Info of each pool.\r\n    struct PoolInfo {\r\n        IERC20 lpToken;                 // Address of LP token contract.\r\n        uint256 allocPoint;             // How many allocation points assigned to this pool.\r\n        uint256 lastRewardBlock;        // Last block number that reward distribution occurs.\r\n        uint256 accRewardPerShare;       // Accumulated reward per share, times 1e12. See below.\r\n        uint256 currentDepositAmount;   // Current total deposit amount in this pool\r\n    }\r\n\r\n    address public wrappedNativeAddress;\r\n\r\n    // The reward token\r\n    IERC20 public rewardToken;\r\n    // Reward tokens created per block.\r\n    uint256 public rewardsPerBlock;\r\n\r\n    // Emission Settings\r\n    uint256 public denominationEmitAmount = 403200; //Blocks\r\n    uint256 public minimumEmitAmount = 0; //Min Output Per Block\r\n    uint256 public maximumEmitAmount = 1 ether; //Max Output Per Block\r\n\r\n    // Info of each pool.\r\n    PoolInfo[] public poolInfo;\r\n    // Info of each user that stakes LP tokens.\r\n    mapping(address => UserInfo) public userInfo;\r\n    // Total allocation points. Must be the sum of all allocation points in all pools.\r\n    uint256 public totalAllocPoint = 0;\r\n    // The block number when mining starts.\r\n    uint256 public startBlock;\r\n\r\n    uint256 public remainingRewards = 0;\r\n\r\n    event Harvest(address indexed user, uint256 amount);\r\n    event Deposit(address indexed user, uint256 amount);\r\n    event Withdraw(address indexed user, uint256 amount);\r\n    event EmergencyWithdraw(address indexed user, uint256 amount);\r\n    event UpdateEmissionSettings(address indexed user, uint256 denomination, uint256 minimum, uint256 maximum, uint256 rewardsPerBlock);\r\n    event RescueTokens(address indexed user, address indexed token, uint256 amount);\r\n\r\n    constructor(IERC20 _stakeToken, IERC20 _rewardToken, address _wrappedNativeAddress) public {\r\n        rewardToken = _rewardToken;\r\n\r\n        poolInfo.push(PoolInfo({\r\n        lpToken : _stakeToken,\r\n        allocPoint : 100,\r\n        lastRewardBlock : startBlock,\r\n        accRewardPerShare : 0,\r\n        currentDepositAmount : 0\r\n        }));\r\n\r\n        wrappedNativeAddress = _wrappedNativeAddress;\r\n        \r\n        totalAllocPoint = 100;\r\n    }\r\n\r\n    // Return reward multiplier over the given _from to _to block.\r\n    function getMultiplier(uint256 _from, uint256 _to) private pure returns (uint256) {\r\n        return _to.sub(_from);\r\n    }\r\n\r\n    // View function to see pending rewards on frontend.\r\n    function pendingRewards(address _user) external view returns (uint256) {\r\n        PoolInfo storage pool = poolInfo[0];\r\n        UserInfo storage user = userInfo[_user];\r\n        uint256 accRewardPerShare = pool.accRewardPerShare;\r\n        uint256 lpSupply = pool.currentDepositAmount;\r\n        if (block.number > pool.lastRewardBlock && lpSupply != 0) {\r\n            //calculate total rewards based on remaining funds\r\n            if (remainingRewards > 0) {\r\n                uint256 multiplier = getMultiplier(pool.lastRewardBlock, block.number);\r\n                uint256 totalRewards = multiplier.mul(rewardsPerBlock).mul(pool.allocPoint).div(totalAllocPoint);\r\n                totalRewards = Math.min(totalRewards, remainingRewards);\r\n                accRewardPerShare = accRewardPerShare.add(totalRewards.mul(1e12).div(lpSupply));\r\n            }\r\n        }\r\n        return user.amount.mul(accRewardPerShare).div(1e12).sub(user.rewardDebt);\r\n    }\r\n\r\n    // Update reward variables of the given pool to be up-to-date.\r\n    function updatePool() public {\r\n        PoolInfo storage pool = poolInfo[0];\r\n        if (block.number <= pool.lastRewardBlock) {\r\n            return;\r\n        }\r\n        uint256 lpSupply = pool.currentDepositAmount;\r\n        if (lpSupply == 0 || pool.allocPoint == 0) {\r\n            pool.lastRewardBlock = block.number;\r\n            return;\r\n        }\r\n\r\n        if (remainingRewards == 0) {\r\n            pool.lastRewardBlock = block.number;\r\n            return;\r\n        }\r\n\r\n        //calculate total rewards based on remaining funds\r\n        uint256 multiplier = getMultiplier(pool.lastRewardBlock, block.number);\r\n        uint256 totalRewards = multiplier.mul(rewardsPerBlock).mul(pool.allocPoint).div(totalAllocPoint);\r\n        totalRewards = Math.min(totalRewards, remainingRewards);\r\n        remainingRewards = remainingRewards.sub(totalRewards);\r\n        pool.accRewardPerShare = pool.accRewardPerShare.add(totalRewards.mul(1e12).div(lpSupply));\r\n        pool.lastRewardBlock = block.number;\r\n    }\r\n\r\n    function income(uint256 _amount) external nonReentrant {\r\n        updatePool();\r\n        rewardToken.safeTransferFrom(address(msg.sender), address(this), _amount);\r\n        remainingRewards = remainingRewards.add(_amount);\r\n        updateEmissionRate();\r\n    }\r\n\r\n    function updateEmissionRate() private {\r\n        if (remainingRewards > 0) {\r\n            rewardsPerBlock = remainingRewards.div(denominationEmitAmount);\r\n            rewardsPerBlock = Math.min(maximumEmitAmount, rewardsPerBlock);\r\n            rewardsPerBlock = Math.max(minimumEmitAmount, rewardsPerBlock);\r\n        } else {\r\n            rewardsPerBlock = 0;\r\n        }\r\n    }\r\n\r\n    // Deposit LP tokens to Chef\r\n    function deposit(uint256 _amount) public nonReentrant {\r\n        PoolInfo storage pool = poolInfo[0];\r\n        UserInfo storage user = userInfo[msg.sender];\r\n        updatePool();\r\n        if (user.amount > 0) {\r\n            uint256 pending = user.amount.mul(pool.accRewardPerShare).div(1e12).sub(user.rewardDebt);\r\n            if (pending > 0) {\r\n                safeRewardTransfer(msg.sender, pending);\r\n                emit Harvest(msg.sender, pending);\r\n            }\r\n        }\r\n        if (_amount > 0) {\r\n            pool.lpToken.safeTransferFrom(address(msg.sender), address(this), _amount);\r\n            user.amount = user.amount.add(_amount);\r\n            pool.currentDepositAmount = pool.currentDepositAmount.add(_amount);\r\n        }\r\n        user.rewardDebt = user.amount.mul(pool.accRewardPerShare).div(1e12);\r\n        emit Deposit(msg.sender, _amount);\r\n    }\r\n\r\n    // Withdraw LP tokens from Chef.\r\n    function withdraw(uint256 _amount) public nonReentrant {\r\n        PoolInfo storage pool = poolInfo[0];\r\n        UserInfo storage user = userInfo[msg.sender];\r\n        require(user.amount >= _amount, \"withdraw: not good\");\r\n        updatePool();\r\n        uint256 pending = user.amount.mul(pool.accRewardPerShare).div(1e12).sub(user.rewardDebt);\r\n        if (pending > 0) {\r\n            safeRewardTransfer(msg.sender, pending);\r\n            emit Harvest(msg.sender, pending);\r\n        }\r\n        if (_amount > 0) {\r\n            user.amount = user.amount.sub(_amount);\r\n            pool.currentDepositAmount = pool.currentDepositAmount.sub(_amount);\r\n            pool.lpToken.safeTransfer(address(msg.sender), _amount);\r\n        }\r\n        user.rewardDebt = user.amount.mul(pool.accRewardPerShare).div(1e12);\r\n        emit Withdraw(msg.sender, _amount);\r\n    }\r\n\r\n    // Withdraw without caring about rewards. EMERGENCY ONLY.\r\n    function emergencyWithdraw() public nonReentrant {\r\n        PoolInfo storage pool = poolInfo[0];\r\n        UserInfo storage user = userInfo[msg.sender];\r\n        uint256 amount = user.amount;\r\n        user.amount = 0;\r\n        user.rewardDebt = 0;\r\n        pool.currentDepositAmount = pool.currentDepositAmount.sub(amount);\r\n        pool.lpToken.safeTransfer(address(msg.sender), amount);\r\n        emit EmergencyWithdraw(msg.sender, amount);\r\n    }\r\n\r\n    // Safe rewards transfer function, just in case if rounding error causes pool to not have enough tokens.\r\n    function safeRewardTransfer(address _to, uint256 _amount) internal {\r\n        uint256 balance = rewardToken.balanceOf(address(this));\r\n        uint256 transferAmount = Math.min(balance, _amount);\r\n        if (address(rewardToken) == wrappedNativeAddress) {\r\n            //If the reward token is a wrapped native token, we will unwrap it and send native\r\n            IWrappedNative(wrappedNativeAddress).withdraw(transferAmount);\r\n            safeTransferETH(_to, transferAmount);\r\n        } else {\r\n            bool transferSuccess = rewardToken.transfer(_to, transferAmount);\r\n            require(transferSuccess, \"safeRewardTransfer: transfer failed\");\r\n        }\r\n    }\r\n\r\n    //For unwrapping native tokens\r\n    receive() external payable {\r\n    }\r\n\r\n    function safeTransferETH(address to, uint value) internal {\r\n        (bool success,) = to.call{value : value}(new bytes(0));\r\n        require(success, 'safeTransferETH: ETH_TRANSFER_FAILED');\r\n    }\r\n\r\n    function updateEmissionSettings(uint256 denomination, uint256 minimum, uint256 maximum) external onlyOwner {\r\n        updatePool();\r\n        denominationEmitAmount = denomination;\r\n        minimumEmitAmount = minimum;\r\n        maximumEmitAmount = maximum;\r\n        updateEmissionRate();\r\n\r\n        emit UpdateEmissionSettings(msg.sender, denomination, minimum, maximum, rewardsPerBlock);\r\n    }\r\n\r\n    //New function to trigger harvest for a specific user and pool\r\n    //A specific user address is provided to facilitate aggregating harvests on multiple chefs\r\n    //Also, it is harmless monetary-wise to help someone else harvests\r\n    function harvestFor(address _user) public nonReentrant {\r\n        //Limit to self or delegated harvest to avoid unnecessary confusion\r\n        require(msg.sender == _user || tx.origin == _user, \"harvestFor: FORBIDDEN\");\r\n        PoolInfo storage pool = poolInfo[0];\r\n        UserInfo storage user = userInfo[_user];\r\n        updatePool();\r\n        if (user.amount > 0) {\r\n            uint256 pending = user.amount.mul(pool.accRewardPerShare).div(1e12).sub(user.rewardDebt);\r\n            if (pending > 0) {\r\n                safeRewardTransfer(_user, pending);\r\n                user.rewardDebt = user.amount.mul(pool.accRewardPerShare).div(1e12);\r\n                emit Harvest(_user, pending);\r\n            }\r\n        }\r\n    }\r\n\r\n    function rescueToken(address token, address addressForReceive) external onlyOwner {\r\n        uint256 balance = IERC20(token).balanceOf(address(this));\r\n        IERC20(token).safeTransfer(addressForReceive, balance);\r\n        emit RescueTokens(msg.sender, token, balance);\r\n    }\r\n}",
  "sourcePath": "D:\\Posao - Stefan\\Stefan - razno\\Blockchain\\ElavateFinance\\auto-swap\\contracts\\Dividends\\SwapRewardsChef.sol",
  "compiler": {
    "name": "solc",
    "version": "0.6.12+commit.27d51765.Emscripten.clang"
  },
  "schemaVersion": "3.4.3",
  "updatedAt": "2021-09-01T09:09:00.129Z",
  "devdoc": {
    "kind": "dev",
    "methods": {
      "owner()": {
        "details": "Returns the address of the current owner."
      },
      "renounceOwnership()": {
        "details": "Leaves the contract without owner. It will not be possible to call `onlyOwner` functions anymore. Can only be called by the current owner. NOTE: Renouncing ownership will leave the contract without an owner, thereby removing any functionality that is only available to the owner."
      },
      "transferOwnership(address)": {
        "details": "Transfers ownership of the contract to a new account (`newOwner`). Can only be called by the current owner."
      }
    },
    "version": 1
  },
  "userdoc": {
    "kind": "user",
    "methods": {},
    "version": 1
  }
}