{
  "contractName": "SwapRewardsChef",
  "abi": [
    {
      "inputs": [
        {
          "internalType": "contract IERC20",
          "name": "_stakeToken",
          "type": "address"
        },
        {
          "internalType": "contract IERC20",
          "name": "_rewardToken",
          "type": "address"
        },
        {
          "internalType": "address",
          "name": "_wrappedNativeAddress",
          "type": "address"
        }
      ],
      "stateMutability": "nonpayable",
      "type": "constructor"
    },
    {
      "anonymous": false,
      "inputs": [
        {
          "indexed": true,
          "internalType": "address",
          "name": "user",
          "type": "address"
        },
        {
          "indexed": false,
          "internalType": "uint256",
          "name": "amount",
          "type": "uint256"
        }
      ],
      "name": "Deposit",
      "type": "event"
    },
    {
      "anonymous": false,
      "inputs": [
        {
          "indexed": true,
          "internalType": "address",
          "name": "user",
          "type": "address"
        },
        {
          "indexed": false,
          "internalType": "uint256",
          "name": "amount",
          "type": "uint256"
        }
      ],
      "name": "EmergencyWithdraw",
      "type": "event"
    },
    {
      "anonymous": false,
      "inputs": [
        {
          "indexed": true,
          "internalType": "address",
          "name": "user",
          "type": "address"
        },
        {
          "indexed": false,
          "internalType": "uint256",
          "name": "amount",
          "type": "uint256"
        }
      ],
      "name": "Harvest",
      "type": "event"
    },
    {
      "anonymous": false,
      "inputs": [
        {
          "indexed": true,
          "internalType": "address",
          "name": "previousOwner",
          "type": "address"
        },
        {
          "indexed": true,
          "internalType": "address",
          "name": "newOwner",
          "type": "address"
        }
      ],
      "name": "OwnershipTransferred",
      "type": "event"
    },
    {
      "anonymous": false,
      "inputs": [
        {
          "indexed": true,
          "internalType": "address",
          "name": "user",
          "type": "address"
        },
        {
          "indexed": true,
          "internalType": "address",
          "name": "token",
          "type": "address"
        },
        {
          "indexed": false,
          "internalType": "uint256",
          "name": "amount",
          "type": "uint256"
        }
      ],
      "name": "RescueTokens",
      "type": "event"
    },
    {
      "anonymous": false,
      "inputs": [
        {
          "indexed": true,
          "internalType": "address",
          "name": "user",
          "type": "address"
        },
        {
          "indexed": false,
          "internalType": "uint256",
          "name": "denomination",
          "type": "uint256"
        },
        {
          "indexed": false,
          "internalType": "uint256",
          "name": "minimum",
          "type": "uint256"
        },
        {
          "indexed": false,
          "internalType": "uint256",
          "name": "maximum",
          "type": "uint256"
        },
        {
          "indexed": false,
          "internalType": "uint256",
          "name": "rewardsPerBlock",
          "type": "uint256"
        }
      ],
      "name": "UpdateEmissionSettings",
      "type": "event"
    },
    {
      "anonymous": false,
      "inputs": [
        {
          "indexed": true,
          "internalType": "address",
          "name": "user",
          "type": "address"
        },
        {
          "indexed": false,
          "internalType": "uint256",
          "name": "amount",
          "type": "uint256"
        }
      ],
      "name": "Withdraw",
      "type": "event"
    },
    {
      "inputs": [],
      "name": "denominationEmitAmount",
      "outputs": [
        {
          "internalType": "uint256",
          "name": "",
          "type": "uint256"
        }
      ],
      "stateMutability": "view",
      "type": "function",
      "constant": true
    },
    {
      "inputs": [],
      "name": "maximumEmitAmount",
      "outputs": [
        {
          "internalType": "uint256",
          "name": "",
          "type": "uint256"
        }
      ],
      "stateMutability": "view",
      "type": "function",
      "constant": true
    },
    {
      "inputs": [],
      "name": "minimumEmitAmount",
      "outputs": [
        {
          "internalType": "uint256",
          "name": "",
          "type": "uint256"
        }
      ],
      "stateMutability": "view",
      "type": "function",
      "constant": true
    },
    {
      "inputs": [],
      "name": "owner",
      "outputs": [
        {
          "internalType": "address",
          "name": "",
          "type": "address"
        }
      ],
      "stateMutability": "view",
      "type": "function",
      "constant": true
    },
    {
      "inputs": [
        {
          "internalType": "uint256",
          "name": "",
          "type": "uint256"
        }
      ],
      "name": "poolInfo",
      "outputs": [
        {
          "internalType": "contract IERC20",
          "name": "lpToken",
          "type": "address"
        },
        {
          "internalType": "uint256",
          "name": "allocPoint",
          "type": "uint256"
        },
        {
          "internalType": "uint256",
          "name": "lastRewardBlock",
          "type": "uint256"
        },
        {
          "internalType": "uint256",
          "name": "accRewardPerShare",
          "type": "uint256"
        },
        {
          "internalType": "uint256",
          "name": "currentDepositAmount",
          "type": "uint256"
        }
      ],
      "stateMutability": "view",
      "type": "function",
      "constant": true
    },
    {
      "inputs": [],
      "name": "remainingRewards",
      "outputs": [
        {
          "internalType": "uint256",
          "name": "",
          "type": "uint256"
        }
      ],
      "stateMutability": "view",
      "type": "function",
      "constant": true
    },
    {
      "inputs": [],
      "name": "renounceOwnership",
      "outputs": [],
      "stateMutability": "nonpayable",
      "type": "function"
    },
    {
      "inputs": [],
      "name": "rewardToken",
      "outputs": [
        {
          "internalType": "contract IERC20",
          "name": "",
          "type": "address"
        }
      ],
      "stateMutability": "view",
      "type": "function",
      "constant": true
    },
    {
      "inputs": [],
      "name": "rewardsPerBlock",
      "outputs": [
        {
          "internalType": "uint256",
          "name": "",
          "type": "uint256"
        }
      ],
      "stateMutability": "view",
      "type": "function",
      "constant": true
    },
    {
      "inputs": [],
      "name": "startBlock",
      "outputs": [
        {
          "internalType": "uint256",
          "name": "",
          "type": "uint256"
        }
      ],
      "stateMutability": "view",
      "type": "function",
      "constant": true
    },
    {
      "inputs": [],
      "name": "totalAllocPoint",
      "outputs": [
        {
          "internalType": "uint256",
          "name": "",
          "type": "uint256"
        }
      ],
      "stateMutability": "view",
      "type": "function",
      "constant": true
    },
    {
      "inputs": [
        {
          "internalType": "address",
          "name": "newOwner",
          "type": "address"
        }
      ],
      "name": "transferOwnership",
      "outputs": [],
      "stateMutability": "nonpayable",
      "type": "function"
    },
    {
      "inputs": [
        {
          "internalType": "address",
          "name": "",
          "type": "address"
        }
      ],
      "name": "userInfo",
      "outputs": [
        {
          "internalType": "uint256",
          "name": "amount",
          "type": "uint256"
        },
        {
          "internalType": "uint256",
          "name": "rewardDebt",
          "type": "uint256"
        }
      ],
      "stateMutability": "view",
      "type": "function",
      "constant": true
    },
    {
      "inputs": [],
      "name": "wrappedNativeAddress",
      "outputs": [
        {
          "internalType": "address",
          "name": "",
          "type": "address"
        }
      ],
      "stateMutability": "view",
      "type": "function",
      "constant": true
    },
    {
      "stateMutability": "payable",
      "type": "receive",
      "payable": true
    },
    {
      "inputs": [
        {
          "internalType": "address",
          "name": "_user",
          "type": "address"
        }
      ],
      "name": "pendingRewards",
      "outputs": [
        {
          "internalType": "uint256",
          "name": "",
          "type": "uint256"
        }
      ],
      "stateMutability": "view",
      "type": "function",
      "constant": true
    },
    {
      "inputs": [],
      "name": "updatePool",
      "outputs": [],
      "stateMutability": "nonpayable",
      "type": "function"
    },
    {
      "inputs": [
        {
          "internalType": "uint256",
          "name": "_amount",
          "type": "uint256"
        }
      ],
      "name": "income",
      "outputs": [],
      "stateMutability": "nonpayable",
      "type": "function"
    },
    {
      "inputs": [
        {
          "internalType": "uint256",
          "name": "_amount",
          "type": "uint256"
        }
      ],
      "name": "deposit",
      "outputs": [],
      "stateMutability": "nonpayable",
      "type": "function"
    },
    {
      "inputs": [
        {
          "internalType": "uint256",
          "name": "_amount",
          "type": "uint256"
        }
      ],
      "name": "withdraw",
      "outputs": [],
      "stateMutability": "nonpayable",
      "type": "function"
    },
    {
      "inputs": [],
      "name": "emergencyWithdraw",
      "outputs": [],
      "stateMutability": "nonpayable",
      "type": "function"
    },
    {
      "inputs": [
        {
          "internalType": "uint256",
          "name": "denomination",
          "type": "uint256"
        },
        {
          "internalType": "uint256",
          "name": "minimum",
          "type": "uint256"
        },
        {
          "internalType": "uint256",
          "name": "maximum",
          "type": "uint256"
        }
      ],
      "name": "updateEmissionSettings",
      "outputs": [],
      "stateMutability": "nonpayable",
      "type": "function"
    },
    {
      "inputs": [
        {
          "internalType": "address",
          "name": "_user",
          "type": "address"
        }
      ],
      "name": "harvestFor",
      "outputs": [],
      "stateMutability": "nonpayable",
      "type": "function"
    },
    {
      "inputs": [
        {
          "internalType": "address",
          "name": "token",
          "type": "address"
        },
        {
          "internalType": "address",
          "name": "addressForReceive",
          "type": "address"
        }
      ],
      "name": "rescueToken",
      "outputs": [],
      "stateMutability": "nonpayable",
      "type": "function"
    }
  ],
  "bytecode": "0x6080604052620627006005556000600655670de0b6b3a76400006007556000600a556000600c5534801561003257600080fd5b50604051611e27380380611e278339818101604052606081101561005557600080fd5b50805160208201516040909201519091906000610070610204565b600080546001600160a01b0319166001600160a01b0383169081178255604051929350917f8be0079c531659141344cd1fd0a4f28419497f9722a3daafe3b4186f6b6457e0908290a3506001808055600380546001600160a01b039485166001600160a01b0319918216179091556040805160a0810182529585168652606460208701818152600b5492880192835260006060890181815260808a01828152600880549889018155909252985160059096027ff3f7a9fe364faab93b216da50a3214154f22a0a2b415b23a84c8169e8b636ee381018054978a169787169790971790965590517ff3f7a9fe364faab93b216da50a3214154f22a0a2b415b23a84c8169e8b636ee486015591517ff3f7a9fe364faab93b216da50a3214154f22a0a2b415b23a84c8169e8b636ee585015595517ff3f7a9fe364faab93b216da50a3214154f22a0a2b415b23a84c8169e8b636ee6840155517ff3f7a9fe364faab93b216da50a3214154f22a0a2b415b23a84c8169e8b636ee79092019190915560028054929093169116179055600a55610208565b3390565b611c10806102176000396000f3fe6080604052600436106101445760003560e01c806384ed8c56116100b6578063dd5998441161006f578063dd599844146103e9578063e3161ddd146103fe578063eebf65f314610413578063f2fde38b14610449578063f7c618c11461047c578063fbe1ebec146104915761014b565b806384ed8c56146103415780638b1c0d1b1461036b5780638da5cb5b14610380578063afb62e5614610395578063b6b55f25146103aa578063db2e21bc146103d45761014b565b806346f0cfba1161010857806346f0cfba146102815780634707d0001461029657806348cd4cb1146102d15780635eeb6710146102e6578063715018a6146102fb57806376ab8136146103105761014b565b80631526fe271461015057806317caf6f1146101af5780631959a002146101d65780632e1a7d4d1461022257806331d7a2621461024e5761014b565b3661014b57005b600080fd5b34801561015c57600080fd5b5061017a6004803603602081101561017357600080fd5b50356104c4565b604080516001600160a01b03909616865260208601949094528484019290925260608401526080830152519081900360a00190f35b3480156101bb57600080fd5b506101c461050c565b60408051918252519081900360200190f35b3480156101e257600080fd5b50610209600480360360208110156101f957600080fd5b50356001600160a01b0316610512565b6040805192835260208301919091528051918290030190f35b34801561022e57600080fd5b5061024c6004803603602081101561024557600080fd5b503561052b565b005b34801561025a57600080fd5b506101c46004803603602081101561027157600080fd5b50356001600160a01b0316610724565b34801561028d57600080fd5b506101c4610833565b3480156102a257600080fd5b5061024c600480360360408110156102b957600080fd5b506001600160a01b0381358116916020013516610839565b3480156102dd57600080fd5b506101c4610967565b3480156102f257600080fd5b506101c461096d565b34801561030757600080fd5b5061024c610973565b34801561031c57600080fd5b50610325610a15565b604080516001600160a01b039092168252519081900360200190f35b34801561034d57600080fd5b5061024c6004803603602081101561036457600080fd5b5035610a24565b34801561037757600080fd5b506101c4610aae565b34801561038c57600080fd5b50610325610ab4565b3480156103a157600080fd5b506101c4610ac3565b3480156103b657600080fd5b5061024c600480360360208110156103cd57600080fd5b5035610ac9565b3480156103e057600080fd5b5061024c610c75565b3480156103f557600080fd5b506101c4610d6c565b34801561040a57600080fd5b5061024c610d72565b34801561041f57600080fd5b5061024c6004803603606081101561043657600080fd5b5080359060208101359060400135610e6e565b34801561045557600080fd5b5061024c6004803603602081101561046c57600080fd5b50356001600160a01b0316610f37565b34801561048857600080fd5b5061032561102f565b34801561049d57600080fd5b5061024c600480360360208110156104b457600080fd5b50356001600160a01b031661103e565b600881815481106104d157fe5b6000918252602090912060059091020180546001820154600283015460038401546004909401546001600160a01b0390931694509092909185565b600a5481565b6009602052600090815260409020805460019091015482565b60026001541415610571576040805162461bcd60e51b815260206004820152601f6024820152600080516020611ae0833981519152604482015290519081900360640190fd5b60026001819055506000600860008154811061058957fe5b60009182526020808320338452600990915260409092208054600590920290920192508311156105f5576040805162461bcd60e51b81526020600482015260126024820152711dda5d1a191c985dce881b9bdd0819dbdbd960721b604482015290519081900360640190fd5b6105fd610d72565b600061063a8260010154610634670de0b6b3a764000061062e876003015487600001546111eb90919063ffffffff16565b9061124d565b9061128f565b905080156106835761064c33826112d1565b60408051828152905133917fc9695243a805adb74c91f28311176c65b417e842d5699893cef56d18bfa48cba919081900360200190a25b83156106c1578154610695908561128f565b825560048301546106a6908561128f565b600484015582546106c1906001600160a01b031633866114b1565b600383015482546106df91670de0b6b3a76400009161062e916111eb565b600183015560408051858152905133917f884edad9ce6fa2440d8a54cc123490eb96d2768479d49ff9c7366125a9424364919081900360200190a25050600180555050565b600080600860008154811061073557fe5b600091825260208083206001600160a01b03871684526009909152604090922060036005909202909201908101546004820154600283015492945090914311801561077f57508015155b156107fe57600c54156107fe57600061079c856002015443611508565b905060006107c9600a5461062e88600101546107c3600454876111eb90919063ffffffff16565b906111eb565b90506107d781600c54611514565b90506107f96107f28461062e84670de0b6b3a76400006111eb565b859061152a565b935050505b6108298360010154610634670de0b6b3a764000061062e8688600001546111eb90919063ffffffff16565b9695505050505050565b60055481565b610841611584565b6000546001600160a01b03908116911614610891576040805162461bcd60e51b81526020600482018190526024820152600080516020611b91833981519152604482015290519081900360640190fd5b6000826001600160a01b03166370a08231306040518263ffffffff1660e01b815260040180826001600160a01b0316815260200191505060206040518083038186803b1580156108e057600080fd5b505afa1580156108f4573d6000803e3d6000fd5b505050506040513d602081101561090a57600080fd5b505190506109226001600160a01b03841683836114b1565b6040805182815290516001600160a01b0385169133917f0de377c3f3362540c047602ad996510f81ec5d84f9ad151c7b6ebecce8ea6b7b9181900360200190a3505050565b600b5481565b60045481565b61097b611584565b6000546001600160a01b039081169116146109cb576040805162461bcd60e51b81526020600482018190526024820152600080516020611b91833981519152604482015290519081900360640190fd5b600080546040516001600160a01b03909116907f8be0079c531659141344cd1fd0a4f28419497f9722a3daafe3b4186f6b6457e0908390a3600080546001600160a01b0319169055565b6002546001600160a01b031681565b60026001541415610a6a576040805162461bcd60e51b815260206004820152601f6024820152600080516020611ae0833981519152604482015290519081900360640190fd5b6002600155610a77610d72565b600354610a8f906001600160a01b0316333084611588565b600c54610a9c908261152a565b600c55610aa76115e2565b5060018055565b60075481565b6000546001600160a01b031690565b600c5481565b60026001541415610b0f576040805162461bcd60e51b815260206004820152601f6024820152600080516020611ae0833981519152604482015290519081900360640190fd5b600260018190555060006008600081548110610b2757fe5b600091825260208083203384526009909152604090922060059091029091019150610b50610d72565b805415610bd3576000610b888260010154610634670de0b6b3a764000061062e876003015487600001546111eb90919063ffffffff16565b90508015610bd157610b9a33826112d1565b60408051828152905133917fc9695243a805adb74c91f28311176c65b417e842d5699893cef56d18bfa48cba919081900360200190a25b505b8215610c13578154610bf0906001600160a01b0316333086611588565b8054610bfc908461152a565b81556004820154610c0d908461152a565b60048301555b60038201548154610c3191670de0b6b3a76400009161062e916111eb565b600182015560408051848152905133917fe1fffcc4923d04b559f4d29a8bfc6cda04eb5b0d3c460751c2402c5c5cc9109c919081900360200190a250506001805550565b60026001541415610cbb576040805162461bcd60e51b815260206004820152601f6024820152600080516020611ae0833981519152604482015290519081900360640190fd5b600260018190555060006008600081548110610cd357fe5b6000918252602080832033845260099091526040832080548482556001820194909455600592909202016004810154909350909190610d12908261128f565b60048401558254610d2d906001600160a01b031633836114b1565b60408051828152905133917f5fafa99d0643513820be26656b45130b01e1c03062e1266bf36f88cbd3bd9695919081900360200190a250506001805550565b60065481565b60006008600081548110610d8257fe5b9060005260206000209060050201905080600201544311610da35750610e6c565b6004810154801580610db757506001820154155b15610dc9575043600290910155610e6c565b600c54610ddd575043600290910155610e6c565b6000610ded836002015443611508565b90506000610e14600a5461062e86600101546107c3600454876111eb90919063ffffffff16565b9050610e2281600c54611514565b600c54909150610e32908261128f565b600c55610e59610e4e8461062e84670de0b6b3a76400006111eb565b60038601549061152a565b6003850155505043600290920191909155505b565b610e76611584565b6000546001600160a01b03908116911614610ec6576040805162461bcd60e51b81526020600482018190526024820152600080516020611b91833981519152604482015290519081900360640190fd5b610ece610d72565b600583905560068290556007819055610ee56115e2565b600454604080518581526020810185905280820184905260608101929092525133917fa2ccc6b6183e466f6e7b59cc83e6a4a0fd8a4adab25b95ac0fcb805b963ea0f3919081900360800190a2505050565b610f3f611584565b6000546001600160a01b03908116911614610f8f576040805162461bcd60e51b81526020600482018190526024820152600080516020611b91833981519152604482015290519081900360640190fd5b6001600160a01b038116610fd45760405162461bcd60e51b8152600401808060200182810382526026815260200180611b006026913960400191505060405180910390fd5b600080546040516001600160a01b03808516939216917f8be0079c531659141344cd1fd0a4f28419497f9722a3daafe3b4186f6b6457e091a3600080546001600160a01b0319166001600160a01b0392909216919091179055565b6003546001600160a01b031681565b60026001541415611084576040805162461bcd60e51b815260206004820152601f6024820152600080516020611ae0833981519152604482015290519081900360640190fd5b6002600155336001600160a01b03821614806110a85750326001600160a01b038216145b6110f1576040805162461bcd60e51b81526020600482015260156024820152743430b93b32b9ba2337b91d102327a92124a22222a760591b604482015290519081900360640190fd5b6000600860008154811061110157fe5b600091825260208083206001600160a01b03861684526009909152604090922060059091029091019150611133610d72565b8054156111e257600061116b8260010154610634670de0b6b3a764000061062e876003015487600001546111eb90919063ffffffff16565b905080156111e05761117d84826112d1565b6003830154825461119b91670de0b6b3a76400009161062e916111eb565b60018301556040805182815290516001600160a01b038616917fc9695243a805adb74c91f28311176c65b417e842d5699893cef56d18bfa48cba919081900360200190a25b505b50506001805550565b6000826111fa57506000611247565b8282028284828161120757fe5b04146112445760405162461bcd60e51b8152600401808060200182810382526021815260200180611b706021913960400191505060405180910390fd5b90505b92915050565b600061124483836040518060400160405280601a81526020017f536166654d6174683a206469766973696f6e206279207a65726f00000000000081525061162a565b600061124483836040518060400160405280601e81526020017f536166654d6174683a207375627472616374696f6e206f766572666c6f7700008152506116ce565b600354604080516370a0823160e01b815230600482015290516000926001600160a01b0316916370a08231916024808301926020929190829003018186803b15801561131c57600080fd5b505afa158015611330573d6000803e3d6000fd5b505050506040513d602081101561134657600080fd5b5051905060006113568284611514565b6002546003549192506001600160a01b03918216911614156113e65760025460408051632e1a7d4d60e01b81526004810184905290516001600160a01b0390921691632e1a7d4d9160248082019260009290919082900301818387803b1580156113bf57600080fd5b505af11580156113d3573d6000803e3d6000fd5b505050506113e18482611728565b6114ab565b6003546040805163a9059cbb60e01b81526001600160a01b038781166004830152602482018590529151600093929092169163a9059cbb9160448082019260209290919082900301818787803b15801561143f57600080fd5b505af1158015611453573d6000803e3d6000fd5b505050506040513d602081101561146957600080fd5b50519050806114a95760405162461bcd60e51b8152600401808060200182810382526023815260200180611abd6023913960400191505060405180910390fd5b505b50505050565b604080516001600160a01b038416602482015260448082018490528251808303909101815260649091019091526020810180516001600160e01b031663a9059cbb60e01b17905261150390849061181b565b505050565b6000611244828461128f565b60008183106115235781611244565b5090919050565b600082820183811015611244576040805162461bcd60e51b815260206004820152601b60248201527f536166654d6174683a206164646974696f6e206f766572666c6f770000000000604482015290519081900360640190fd5b3390565b604080516001600160a01b0380861660248301528416604482015260648082018490528251808303909101815260849091019091526020810180516001600160e01b03166323b872dd60e01b1790526114ab90859061181b565b600c541561162357600554600c546115f99161124d565b600481905560075461160a91611514565b600481905560065461161b916118cc565b600455610e6c565b6000600455565b600081836116b65760405162461bcd60e51b81526004018080602001828103825283818151815260200191508051906020019080838360005b8381101561167b578181015183820152602001611663565b50505050905090810190601f1680156116a85780820380516001836020036101000a031916815260200191505b509250505060405180910390fd5b5060008385816116c257fe5b049150505b9392505050565b600081848411156117205760405162461bcd60e51b815260206004820181815283516024840152835190928392604490910191908501908083836000831561167b578181015183820152602001611663565b505050900390565b604080516000808252602082019092526001600160a01b0384169083906040518082805190602001908083835b602083106117745780518252601f199092019160209182019101611755565b6001836020036101000a03801982511681845116808217855250505050505090500191505060006040518083038185875af1925050503d80600081146117d6576040519150601f19603f3d011682016040523d82523d6000602084013e6117db565b606091505b50509050806115035760405162461bcd60e51b8152600401808060200182810382526024815260200180611b266024913960400191505060405180910390fd5b6060611870826040518060400160405280602081526020017f5361666545524332303a206c6f772d6c6576656c2063616c6c206661696c6564815250856001600160a01b03166118dc9092919063ffffffff16565b8051909150156115035780806020019051602081101561188f57600080fd5b50516115035760405162461bcd60e51b815260040180806020018281038252602a815260200180611bb1602a913960400191505060405180910390fd5b6000818310156115235781611244565b60606118eb84846000856118f3565b949350505050565b606030318311156119355760405162461bcd60e51b8152600401808060200182810382526026815260200180611b4a6026913960400191505060405180910390fd5b61193e85611a50565b61198f576040805162461bcd60e51b815260206004820152601d60248201527f416464726573733a2063616c6c20746f206e6f6e2d636f6e7472616374000000604482015290519081900360640190fd5b60006060866001600160a01b031685876040518082805190602001908083835b602083106119ce5780518252601f1990920191602091820191016119af565b6001836020036101000a03801982511681845116808217855250505050505090500191505060006040518083038185875af1925050503d8060008114611a30576040519150601f19603f3d011682016040523d82523d6000602084013e611a35565b606091505b5091509150611a45828286611a56565b979650505050505050565b3b151590565b60608315611a655750816116c7565b825115611a755782518084602001fd5b60405162461bcd60e51b815260206004820181815284516024840152845185939192839260440191908501908083836000831561167b57818101518382015260200161166356fe736166655265776172645472616e736665723a207472616e73666572206661696c65645265656e7472616e637947756172643a207265656e7472616e742063616c6c004f776e61626c653a206e6577206f776e657220697320746865207a65726f2061646472657373736166655472616e736665724554483a204554485f5452414e534645525f4641494c4544416464726573733a20696e73756666696369656e742062616c616e636520666f722063616c6c536166654d6174683a206d756c7469706c69636174696f6e206f766572666c6f774f776e61626c653a2063616c6c6572206973206e6f7420746865206f776e65725361666545524332303a204552433230206f7065726174696f6e20646964206e6f742073756363656564a26469706673582212206cf452b5a1b4461169ca903dba2b2434c7f648efde9c6812c257fbc16ae3601d64736f6c634300060c0033",
  "immutableReferences": {},
  "source": "// SPDX-License-Identifier: UNLICENSED\r\npragma solidity 0.6.12;\r\n\r\nimport \"@openzeppelin/contracts/math/SafeMath.sol\";\r\nimport \"@openzeppelin/contracts/math/Math.sol\";\r\nimport '@openzeppelin/contracts/token/ERC20/IERC20.sol';\r\nimport '@openzeppelin/contracts/token/ERC20/SafeERC20.sol';\r\nimport \"@openzeppelin/contracts/access/Ownable.sol\";\r\nimport \"@openzeppelin/contracts/utils/ReentrancyGuard.sol\";\r\n\r\nimport \"./interfaces/IWrappedNative.sol\";\r\n\r\ncontract SwapRewardsChef is Ownable, ReentrancyGuard {\r\n    using SafeMath for uint256;\r\n    using SafeERC20 for IERC20;\r\n\r\n    // Info of each user.\r\n    struct UserInfo {\r\n        uint256 amount;\r\n        uint256 rewardDebt;\r\n    }\r\n\r\n    // Info of each pool.\r\n    struct PoolInfo {\r\n        IERC20 lpToken;                 // Address of LP token contract.\r\n        uint256 allocPoint;             // How many allocation points assigned to this pool.\r\n        uint256 lastRewardBlock;        // Last block number that reward distribution occurs.\r\n        uint256 accRewardPerShare;       // Accumulated reward per share, times 1e18. See below.\r\n        uint256 currentDepositAmount;   // Current total deposit amount in this pool\r\n    }\r\n\r\n    address public wrappedNativeAddress;\r\n\r\n    // The reward token\r\n    IERC20 public rewardToken;\r\n    // Reward tokens created per block.\r\n    uint256 public rewardsPerBlock;\r\n\r\n    // Emission Settings\r\n    uint256 public denominationEmitAmount = 403200; //Blocks\r\n    uint256 public minimumEmitAmount = 0; //Min Output Per Block\r\n    uint256 public maximumEmitAmount = 1 ether; //Max Output Per Block\r\n\r\n    // Info of each pool.\r\n    PoolInfo[] public poolInfo;\r\n    // Info of each user that stakes LP tokens.\r\n    mapping(address => UserInfo) public userInfo;\r\n    // Total allocation points. Must be the sum of all allocation points in all pools.\r\n    uint256 public totalAllocPoint = 0;\r\n    // The block number when mining starts.\r\n    uint256 public startBlock;\r\n\r\n    uint256 public remainingRewards = 0;\r\n\r\n    event Harvest(address indexed user, uint256 amount);\r\n    event Deposit(address indexed user, uint256 amount);\r\n    event Withdraw(address indexed user, uint256 amount);\r\n    event EmergencyWithdraw(address indexed user, uint256 amount);\r\n    event UpdateEmissionSettings(address indexed user, uint256 denomination, uint256 minimum, uint256 maximum, uint256 rewardsPerBlock);\r\n    event RescueTokens(address indexed user, address indexed token, uint256 amount);\r\n\r\n    constructor(IERC20 _stakeToken, IERC20 _rewardToken, address _wrappedNativeAddress) public {\r\n        rewardToken = _rewardToken;\r\n\r\n        poolInfo.push(PoolInfo({\r\n            lpToken : _stakeToken,\r\n            allocPoint : 100,\r\n            lastRewardBlock : startBlock,\r\n            accRewardPerShare : 0,\r\n            currentDepositAmount : 0\r\n        }));\r\n\r\n        wrappedNativeAddress = _wrappedNativeAddress;\r\n        \r\n        totalAllocPoint = 100;\r\n    }\r\n\r\n    // Return reward multiplier over the given _from to _to block.\r\n    function getMultiplier(uint256 _from, uint256 _to) private pure returns (uint256) {\r\n        return _to.sub(_from);\r\n    }\r\n\r\n    // View function to see pending rewards on frontend.\r\n    function pendingRewards(address _user) external view returns (uint256) {\r\n        PoolInfo storage pool = poolInfo[0];\r\n        UserInfo storage user = userInfo[_user];\r\n        uint256 accRewardPerShare = pool.accRewardPerShare;\r\n        uint256 lpSupply = pool.currentDepositAmount;\r\n        if (block.number > pool.lastRewardBlock && lpSupply != 0) {\r\n            //calculate total rewards based on remaining funds\r\n            if (remainingRewards > 0) {\r\n                uint256 multiplier = getMultiplier(pool.lastRewardBlock, block.number);\r\n                uint256 totalRewards = multiplier.mul(rewardsPerBlock).mul(pool.allocPoint).div(totalAllocPoint);\r\n                totalRewards = Math.min(totalRewards, remainingRewards);\r\n                accRewardPerShare = accRewardPerShare.add(totalRewards.mul(1e18).div(lpSupply));\r\n            }\r\n        }\r\n        return user.amount.mul(accRewardPerShare).div(1e18).sub(user.rewardDebt);\r\n    }\r\n\r\n    // Update reward variables of the given pool to be up-to-date.\r\n    function updatePool() public {\r\n        PoolInfo storage pool = poolInfo[0];\r\n        if (block.number <= pool.lastRewardBlock) {\r\n            return;\r\n        }\r\n        uint256 lpSupply = pool.currentDepositAmount;\r\n        if (lpSupply == 0 || pool.allocPoint == 0) {\r\n            pool.lastRewardBlock = block.number;\r\n            return;\r\n        }\r\n\r\n        if (remainingRewards == 0) {\r\n            pool.lastRewardBlock = block.number;\r\n            return;\r\n        }\r\n\r\n        //calculate total rewards based on remaining funds\r\n        uint256 multiplier = getMultiplier(pool.lastRewardBlock, block.number);\r\n        uint256 totalRewards = multiplier.mul(rewardsPerBlock).mul(pool.allocPoint).div(totalAllocPoint);\r\n        totalRewards = Math.min(totalRewards, remainingRewards);\r\n        remainingRewards = remainingRewards.sub(totalRewards);\r\n        pool.accRewardPerShare = pool.accRewardPerShare.add(totalRewards.mul(1e18).div(lpSupply));\r\n        pool.lastRewardBlock = block.number;\r\n    }\r\n\r\n    function income(uint256 _amount) external nonReentrant {\r\n        updatePool();\r\n        rewardToken.safeTransferFrom(msg.sender, address(this), _amount);\r\n        remainingRewards = remainingRewards.add(_amount);\r\n        updateEmissionRate();\r\n    }\r\n\r\n    function updateEmissionRate() private {\r\n        if (remainingRewards > 0) {\r\n            rewardsPerBlock = remainingRewards.div(denominationEmitAmount);\r\n            rewardsPerBlock = Math.min(maximumEmitAmount, rewardsPerBlock);\r\n            rewardsPerBlock = Math.max(minimumEmitAmount, rewardsPerBlock);\r\n        } else {\r\n            rewardsPerBlock = 0;\r\n        }\r\n    }\r\n\r\n    // Deposit LP tokens to Chef\r\n    function deposit(uint256 _amount) public nonReentrant {\r\n        PoolInfo storage pool = poolInfo[0];\r\n        UserInfo storage user = userInfo[msg.sender];\r\n        updatePool();\r\n        if (user.amount > 0) {\r\n            uint256 pending = user.amount.mul(pool.accRewardPerShare).div(1e18).sub(user.rewardDebt);\r\n            if (pending > 0) {\r\n                safeRewardTransfer(msg.sender, pending);\r\n                emit Harvest(msg.sender, pending);\r\n            }\r\n        }\r\n        if (_amount > 0) {\r\n            pool.lpToken.safeTransferFrom(msg.sender, address(this), _amount);\r\n            user.amount = user.amount.add(_amount);\r\n            pool.currentDepositAmount = pool.currentDepositAmount.add(_amount);\r\n        }\r\n        user.rewardDebt = user.amount.mul(pool.accRewardPerShare).div(1e18);\r\n        emit Deposit(msg.sender, _amount);\r\n    }\r\n\r\n    // Withdraw LP tokens from Chef.\r\n    function withdraw(uint256 _amount) public nonReentrant {\r\n        PoolInfo storage pool = poolInfo[0];\r\n        UserInfo storage user = userInfo[msg.sender];\r\n        require(user.amount >= _amount, \"withdraw: not good\");\r\n        updatePool();\r\n        uint256 pending = user.amount.mul(pool.accRewardPerShare).div(1e18).sub(user.rewardDebt);\r\n        if (pending > 0) {\r\n            safeRewardTransfer(msg.sender, pending);\r\n            emit Harvest(msg.sender, pending);\r\n        }\r\n        if (_amount > 0) {\r\n            user.amount = user.amount.sub(_amount);\r\n            pool.currentDepositAmount = pool.currentDepositAmount.sub(_amount);\r\n            pool.lpToken.safeTransfer(msg.sender, _amount);\r\n        }\r\n        user.rewardDebt = user.amount.mul(pool.accRewardPerShare).div(1e18);\r\n        emit Withdraw(msg.sender, _amount);\r\n    }\r\n\r\n    // Withdraw without caring about rewards. EMERGENCY ONLY.\r\n    function emergencyWithdraw() public nonReentrant {\r\n        PoolInfo storage pool = poolInfo[0];\r\n        UserInfo storage user = userInfo[msg.sender];\r\n        uint256 amount = user.amount;\r\n        user.amount = 0;\r\n        user.rewardDebt = 0;\r\n        pool.currentDepositAmount = pool.currentDepositAmount.sub(amount);\r\n        pool.lpToken.safeTransfer(msg.sender, amount);\r\n        emit EmergencyWithdraw(msg.sender, amount);\r\n    }\r\n\r\n    // Safe rewards transfer function, just in case if rounding error causes pool to not have enough tokens.\r\n    function safeRewardTransfer(address _to, uint256 _amount) internal {\r\n        uint256 balance = rewardToken.balanceOf(address(this));\r\n        uint256 transferAmount = Math.min(balance, _amount);\r\n        if (address(rewardToken) == wrappedNativeAddress) {\r\n            //If the reward token is a wrapped native token, we will unwrap it and send native\r\n            IWrappedNative(wrappedNativeAddress).withdraw(transferAmount);\r\n            safeTransferETH(_to, transferAmount);\r\n        } else {\r\n            bool transferSuccess = rewardToken.transfer(_to, transferAmount);\r\n            require(transferSuccess, \"safeRewardTransfer: transfer failed\");\r\n        }\r\n    }\r\n\r\n    //For unwrapping native tokens\r\n    receive() external payable {\r\n    }\r\n\r\n    function safeTransferETH(address to, uint value) internal {\r\n        (bool success,) = to.call{value : value}(new bytes(0));\r\n        require(success, 'safeTransferETH: ETH_TRANSFER_FAILED');\r\n    }\r\n\r\n    function updateEmissionSettings(uint256 denomination, uint256 minimum, uint256 maximum) external onlyOwner {\r\n        updatePool();\r\n        denominationEmitAmount = denomination;\r\n        minimumEmitAmount = minimum;\r\n        maximumEmitAmount = maximum;\r\n        updateEmissionRate();\r\n\r\n        emit UpdateEmissionSettings(msg.sender, denomination, minimum, maximum, rewardsPerBlock);\r\n    }\r\n\r\n    //New function to trigger harvest for a specific user and pool\r\n    //A specific user address is provided to facilitate aggregating harvests on multiple chefs\r\n    //Also, it is harmless monetary-wise to help someone else harvests\r\n    function harvestFor(address _user) public nonReentrant {\r\n        //Limit to self or delegated harvest to avoid unnecessary confusion\r\n        require(msg.sender == _user || tx.origin == _user, \"harvestFor: FORBIDDEN\");\r\n        PoolInfo storage pool = poolInfo[0];\r\n        UserInfo storage user = userInfo[_user];\r\n        updatePool();\r\n        if (user.amount > 0) {\r\n            uint256 pending = user.amount.mul(pool.accRewardPerShare).div(1e18).sub(user.rewardDebt);\r\n            if (pending > 0) {\r\n                safeRewardTransfer(_user, pending);\r\n                user.rewardDebt = user.amount.mul(pool.accRewardPerShare).div(1e18);\r\n                emit Harvest(_user, pending);\r\n            }\r\n        }\r\n    }\r\n\r\n    function rescueToken(address token, address addressForReceive) external onlyOwner {\r\n        uint256 balance = IERC20(token).balanceOf(address(this));\r\n        IERC20(token).safeTransfer(addressForReceive, balance);\r\n        emit RescueTokens(msg.sender, token, balance);\r\n    }\r\n}",
  "sourcePath": "D:\\Posao-Stefan\\Stefan-razno\\Blockchain\\GlideFinance\\glide-contracts\\contracts\\Dividends\\SwapRewardsChef.sol",
  "compiler": {
    "name": "solc",
    "version": "0.6.12+commit.27d51765.Emscripten.clang"
  },
  "schemaVersion": "3.4.3",
  "updatedAt": "2021-10-10T19:26:05.033Z",
  "networkType": "ethereum",
  "devdoc": {
    "kind": "dev",
    "methods": {
      "owner()": {
        "details": "Returns the address of the current owner."
      },
      "renounceOwnership()": {
        "details": "Leaves the contract without owner. It will not be possible to call `onlyOwner` functions anymore. Can only be called by the current owner. NOTE: Renouncing ownership will leave the contract without an owner, thereby removing any functionality that is only available to the owner."
      },
      "transferOwnership(address)": {
        "details": "Transfers ownership of the contract to a new account (`newOwner`). Can only be called by the current owner."
      }
    },
    "version": 1
  },
  "userdoc": {
    "kind": "user",
    "methods": {},
    "version": 1
  }
}