{
  "contractName": "Timelock",
  "abi": [
    {
      "inputs": [
        {
          "internalType": "address",
          "name": "admin_",
          "type": "address"
        },
        {
          "internalType": "uint256",
          "name": "delay_",
          "type": "uint256"
        }
      ],
      "stateMutability": "nonpayable",
      "type": "constructor"
    },
    {
      "anonymous": false,
      "inputs": [
        {
          "indexed": true,
          "internalType": "bytes32",
          "name": "txHash",
          "type": "bytes32"
        },
        {
          "indexed": true,
          "internalType": "address",
          "name": "target",
          "type": "address"
        },
        {
          "indexed": false,
          "internalType": "uint256",
          "name": "value",
          "type": "uint256"
        },
        {
          "indexed": false,
          "internalType": "string",
          "name": "signature",
          "type": "string"
        },
        {
          "indexed": false,
          "internalType": "bytes",
          "name": "data",
          "type": "bytes"
        },
        {
          "indexed": false,
          "internalType": "uint256",
          "name": "eta",
          "type": "uint256"
        }
      ],
      "name": "CancelTransaction",
      "type": "event"
    },
    {
      "anonymous": false,
      "inputs": [
        {
          "indexed": true,
          "internalType": "bytes32",
          "name": "txHash",
          "type": "bytes32"
        },
        {
          "indexed": true,
          "internalType": "address",
          "name": "target",
          "type": "address"
        },
        {
          "indexed": false,
          "internalType": "uint256",
          "name": "value",
          "type": "uint256"
        },
        {
          "indexed": false,
          "internalType": "string",
          "name": "signature",
          "type": "string"
        },
        {
          "indexed": false,
          "internalType": "bytes",
          "name": "data",
          "type": "bytes"
        },
        {
          "indexed": false,
          "internalType": "uint256",
          "name": "eta",
          "type": "uint256"
        }
      ],
      "name": "ExecuteTransaction",
      "type": "event"
    },
    {
      "anonymous": false,
      "inputs": [
        {
          "indexed": true,
          "internalType": "address",
          "name": "newAdmin",
          "type": "address"
        }
      ],
      "name": "NewAdmin",
      "type": "event"
    },
    {
      "anonymous": false,
      "inputs": [
        {
          "indexed": true,
          "internalType": "uint256",
          "name": "newDelay",
          "type": "uint256"
        }
      ],
      "name": "NewDelay",
      "type": "event"
    },
    {
      "anonymous": false,
      "inputs": [
        {
          "indexed": true,
          "internalType": "address",
          "name": "newPendingAdmin",
          "type": "address"
        }
      ],
      "name": "NewPendingAdmin",
      "type": "event"
    },
    {
      "anonymous": false,
      "inputs": [
        {
          "indexed": true,
          "internalType": "bytes32",
          "name": "txHash",
          "type": "bytes32"
        },
        {
          "indexed": true,
          "internalType": "address",
          "name": "target",
          "type": "address"
        },
        {
          "indexed": false,
          "internalType": "uint256",
          "name": "value",
          "type": "uint256"
        },
        {
          "indexed": false,
          "internalType": "string",
          "name": "signature",
          "type": "string"
        },
        {
          "indexed": false,
          "internalType": "bytes",
          "name": "data",
          "type": "bytes"
        },
        {
          "indexed": false,
          "internalType": "uint256",
          "name": "eta",
          "type": "uint256"
        }
      ],
      "name": "QueueTransaction",
      "type": "event"
    },
    {
      "inputs": [],
      "name": "GRACE_PERIOD",
      "outputs": [
        {
          "internalType": "uint256",
          "name": "",
          "type": "uint256"
        }
      ],
      "stateMutability": "view",
      "type": "function",
      "constant": true
    },
    {
      "inputs": [],
      "name": "MAXIMUM_DELAY",
      "outputs": [
        {
          "internalType": "uint256",
          "name": "",
          "type": "uint256"
        }
      ],
      "stateMutability": "view",
      "type": "function",
      "constant": true
    },
    {
      "inputs": [],
      "name": "MINIMUM_DELAY",
      "outputs": [
        {
          "internalType": "uint256",
          "name": "",
          "type": "uint256"
        }
      ],
      "stateMutability": "view",
      "type": "function",
      "constant": true
    },
    {
      "inputs": [],
      "name": "admin",
      "outputs": [
        {
          "internalType": "address",
          "name": "",
          "type": "address"
        }
      ],
      "stateMutability": "view",
      "type": "function",
      "constant": true
    },
    {
      "inputs": [],
      "name": "admin_initialized",
      "outputs": [
        {
          "internalType": "bool",
          "name": "",
          "type": "bool"
        }
      ],
      "stateMutability": "view",
      "type": "function",
      "constant": true
    },
    {
      "inputs": [],
      "name": "delay",
      "outputs": [
        {
          "internalType": "uint256",
          "name": "",
          "type": "uint256"
        }
      ],
      "stateMutability": "view",
      "type": "function",
      "constant": true
    },
    {
      "inputs": [],
      "name": "pendingAdmin",
      "outputs": [
        {
          "internalType": "address",
          "name": "",
          "type": "address"
        }
      ],
      "stateMutability": "view",
      "type": "function",
      "constant": true
    },
    {
      "inputs": [
        {
          "internalType": "bytes32",
          "name": "",
          "type": "bytes32"
        }
      ],
      "name": "queuedTransactions",
      "outputs": [
        {
          "internalType": "bool",
          "name": "",
          "type": "bool"
        }
      ],
      "stateMutability": "view",
      "type": "function",
      "constant": true
    },
    {
      "stateMutability": "payable",
      "type": "receive",
      "payable": true
    },
    {
      "inputs": [
        {
          "internalType": "uint256",
          "name": "delay_",
          "type": "uint256"
        }
      ],
      "name": "setDelay",
      "outputs": [],
      "stateMutability": "nonpayable",
      "type": "function"
    },
    {
      "inputs": [],
      "name": "acceptAdmin",
      "outputs": [],
      "stateMutability": "nonpayable",
      "type": "function"
    },
    {
      "inputs": [
        {
          "internalType": "address",
          "name": "pendingAdmin_",
          "type": "address"
        }
      ],
      "name": "setPendingAdmin",
      "outputs": [],
      "stateMutability": "nonpayable",
      "type": "function"
    },
    {
      "inputs": [
        {
          "internalType": "address",
          "name": "target",
          "type": "address"
        },
        {
          "internalType": "uint256",
          "name": "value",
          "type": "uint256"
        },
        {
          "internalType": "string",
          "name": "signature",
          "type": "string"
        },
        {
          "internalType": "bytes",
          "name": "data",
          "type": "bytes"
        },
        {
          "internalType": "uint256",
          "name": "eta",
          "type": "uint256"
        }
      ],
      "name": "queueTransaction",
      "outputs": [
        {
          "internalType": "bytes32",
          "name": "",
          "type": "bytes32"
        }
      ],
      "stateMutability": "nonpayable",
      "type": "function"
    },
    {
      "inputs": [
        {
          "internalType": "address",
          "name": "target",
          "type": "address"
        },
        {
          "internalType": "uint256",
          "name": "value",
          "type": "uint256"
        },
        {
          "internalType": "string",
          "name": "signature",
          "type": "string"
        },
        {
          "internalType": "bytes",
          "name": "data",
          "type": "bytes"
        },
        {
          "internalType": "uint256",
          "name": "eta",
          "type": "uint256"
        }
      ],
      "name": "cancelTransaction",
      "outputs": [],
      "stateMutability": "nonpayable",
      "type": "function"
    },
    {
      "inputs": [
        {
          "internalType": "address",
          "name": "target",
          "type": "address"
        },
        {
          "internalType": "uint256",
          "name": "value",
          "type": "uint256"
        },
        {
          "internalType": "string",
          "name": "signature",
          "type": "string"
        },
        {
          "internalType": "bytes",
          "name": "data",
          "type": "bytes"
        },
        {
          "internalType": "uint256",
          "name": "eta",
          "type": "uint256"
        }
      ],
      "name": "executeTransaction",
      "outputs": [
        {
          "internalType": "bytes",
          "name": "",
          "type": "bytes"
        }
      ],
      "stateMutability": "payable",
      "type": "function",
      "payable": true
    },
    {
      "inputs": [],
      "name": "getBlockTimestamp",
      "outputs": [
        {
          "internalType": "uint256",
          "name": "",
          "type": "uint256"
        }
      ],
      "stateMutability": "view",
      "type": "function",
      "constant": true
    }
  ],
  "bytecode": "0x608060405234801561001057600080fd5b50604051611a1f380380611a1f8339818101604052604081101561003357600080fd5b5080516020909101516001600055612a3081101561009c576040517f08c379a00000000000000000000000000000000000000000000000000000000081526004018080602001828103825260378152602001806119e86037913960400191505060405180910390fd5b62278d008111156100f8576040517f08c379a000000000000000000000000000000000000000000000000000000000815260040180806020018281038252603b8152602001806119ad603b913960400191505060405180910390fd5b600180546001600160a01b0319166001600160a01b0393909316929092179091556003556004805460ff19169055611878806101356000396000f3fe6080604052600436106100ec5760003560e01c80636fc1f57e1161008a578063c1a287e211610059578063c1a287e214610651578063e177246e14610666578063f2b0653714610690578063f851a440146106ba576100f3565b80636fc1f57e146105e9578063796b89b9146106125780637d645fab14610627578063b1b43ae51461063c576100f3565b80633a66f901116100c65780633a66f901146102f55780634dd18bf514610454578063591fcdfe146104875780636a42b8f8146105d4576100f3565b80630825f38f146100f85780630e18b681146102ad57806326782247146102c4576100f3565b366100f357005b600080fd5b610238600480360360a081101561010e57600080fd5b6001600160a01b0382351691602081013591810190606081016040820135600160201b81111561013d57600080fd5b82018360208201111561014f57600080fd5b803590602001918460018302840111600160201b8311171561017057600080fd5b91908080601f0160208091040260200160405190810160405280939291908181526020018383808284376000920191909152509295949360208101935035915050600160201b8111156101c257600080fd5b8201836020820111156101d457600080fd5b803590602001918460018302840111600160201b831117156101f557600080fd5b91908080601f01602080910402602001604051908101604052809392919081815260200183838082843760009201919091525092955050913592506106cf915050565b6040805160208082528351818301528351919283929083019185019080838360005b8381101561027257818101518382015260200161025a565b50505050905090810190601f16801561029f5780820380516001836020036101000a031916815260200191505b509250505060405180910390f35b3480156102b957600080fd5b506102c2610c30565b005b3480156102d057600080fd5b506102d9610ccf565b604080516001600160a01b039092168252519081900360200190f35b34801561030157600080fd5b50610442600480360360a081101561031857600080fd5b6001600160a01b0382351691602081013591810190606081016040820135600160201b81111561034757600080fd5b82018360208201111561035957600080fd5b803590602001918460018302840111600160201b8311171561037a57600080fd5b91908080601f0160208091040260200160405190810160405280939291908181526020018383808284376000920191909152509295949360208101935035915050600160201b8111156103cc57600080fd5b8201836020820111156103de57600080fd5b803590602001918460018302840111600160201b831117156103ff57600080fd5b91908080601f0160208091040260200160405190810160405280939291908181526020018383808284376000920191909152509295505091359250610cde915050565b60408051918252519081900360200190f35b34801561046057600080fd5b506102c26004803603602081101561047757600080fd5b50356001600160a01b0316610fe2565b34801561049357600080fd5b506102c2600480360360a08110156104aa57600080fd5b6001600160a01b0382351691602081013591810190606081016040820135600160201b8111156104d957600080fd5b8201836020820111156104eb57600080fd5b803590602001918460018302840111600160201b8311171561050c57600080fd5b91908080601f0160208091040260200160405190810160405280939291908181526020018383808284376000920191909152509295949360208101935035915050600160201b81111561055e57600080fd5b82018360208201111561057057600080fd5b803590602001918460018302840111600160201b8311171561059157600080fd5b91908080601f01602080910402602001604051908101604052809392919081815260200183838082843760009201919091525092955050913592506110d7915050565b3480156105e057600080fd5b50610442611384565b3480156105f557600080fd5b506105fe61138a565b604080519115158252519081900360200190f35b34801561061e57600080fd5b50610442611393565b34801561063357600080fd5b50610442611397565b34801561064857600080fd5b5061044261139e565b34801561065d57600080fd5b506104426113a4565b34801561067257600080fd5b506102c26004803603602081101561068957600080fd5b50356113ab565b34801561069c57600080fd5b506105fe600480360360208110156106b357600080fd5b503561149f565b3480156106c657600080fd5b506102d96114b4565b606060026000541415610729576040805162461bcd60e51b815260206004820152601f60248201527f5265656e7472616e637947756172643a207265656e7472616e742063616c6c00604482015290519081900360640190fd5b60026000556001546001600160a01b031633146107775760405162461bcd60e51b81526004018080602001828103825260388152602001806115196038913960400191505060405180910390fd5b6000868686868660405160200180866001600160a01b031681526020018581526020018060200180602001848152602001838103835286818151815260200191508051906020019080838360005b838110156107dd5781810151838201526020016107c5565b50505050905090810190601f16801561080a5780820380516001836020036101000a031916815260200191505b50838103825285518152855160209182019187019080838360005b8381101561083d578181015183820152602001610825565b50505050905090810190601f16801561086a5780820380516001836020036101000a031916815260200191505b5060408051601f1981840301815291815281516020928301206000818152600590935291205490995060ff1697506108db96505050505050505760405162461bcd60e51b815260040180806020018281038252603e815260200180611662603e913960400191505060405180910390fd5b826108e4611393565b10156109215760405162461bcd60e51b81526004018080602001828103825260468152602001806116d86046913960600191505060405180910390fd5b61092e83621275006114c3565b610936611393565b11156109735760405162461bcd60e51b81526004018080602001828103825260338152602001806115886033913960400191505060405180910390fd5b6000818152600560205260409020805460ff191690558451606090610999575083610a1c565b85805190602001208560405160200180836001600160e01b031916815260040182805190602001908083835b602083106109e45780518252601f1990920191602091820191016109c5565b6001836020036101000a0380198251168184511680821785525050505050509050019250505060405160208183030381529060405290505b60006060896001600160a01b031689846040518082805190602001908083835b60208310610a5b5780518252601f199092019160209182019101610a3c565b6001836020036101000a03801982511681845116808217855250505050505090500191505060006040518083038185875af1925050503d8060008114610abd576040519150601f19603f3d011682016040523d82523d6000602084013e610ac2565b606091505b509150915081610b035760405162461bcd60e51b815260040180806020018281038252603d81526020018061178c603d913960400191505060405180910390fd5b896001600160a01b0316847fa560e3198060a2f10670c1ec5b403077ea6ae93ca8de1c32b451dc1a943cd6e78b8b8b8b604051808581526020018060200180602001848152602001838103835286818151815260200191508051906020019080838360005b83811015610b80578181015183820152602001610b68565b50505050905090810190601f168015610bad5780820380516001836020036101000a031916815260200191505b50838103825285518152855160209182019187019080838360005b83811015610be0578181015183820152602001610bc8565b50505050905090810190601f168015610c0d5780820380516001836020036101000a031916815260200191505b50965050505050505060405180910390a360016000559998505050505050505050565b6002546001600160a01b03163314610c795760405162461bcd60e51b81526004018080602001828103825260388152602001806116a06038913960400191505060405180910390fd5b60018054336001600160a01b031991821617918290556002805490911690556040516001600160a01b03909116907f71614071b88dee5e0b2ae578a9dd7b2ebbe9ae832ba419dc0242cd065a290b6c90600090a2565b6002546001600160a01b031681565b6001546000906001600160a01b03163314610d2a5760405162461bcd60e51b81526004018080602001828103825260368152602001806117566036913960400191505060405180910390fd5b610d3e600354610d38611393565b906114c3565b821015610d7c5760405162461bcd60e51b81526004018080602001828103825260498152602001806117c96049913960600191505060405180910390fd5b6000868686868660405160200180866001600160a01b031681526020018581526020018060200180602001848152602001838103835286818151815260200191508051906020019080838360005b83811015610de2578181015183820152602001610dca565b50505050905090810190601f168015610e0f5780820380516001836020036101000a031916815260200191505b50838103825285518152855160209182019187019080838360005b83811015610e42578181015183820152602001610e2a565b50505050905090810190601f168015610e6f5780820380516001836020036101000a031916815260200191505b5097505050505050505060405160208183030381529060405280519060200120905060016005600083815260200190815260200160002060006101000a81548160ff021916908315150217905550866001600160a01b0316817f76e2796dc3a81d57b0e8504b647febcbeeb5f4af818e164f11eef8131a6a763f88888888604051808581526020018060200180602001848152602001838103835286818151815260200191508051906020019080838360005b83811015610f3a578181015183820152602001610f22565b50505050905090810190601f168015610f675780820380516001836020036101000a031916815260200191505b50838103825285518152855160209182019187019080838360005b83811015610f9a578181015183820152602001610f82565b50505050905090810190601f168015610fc75780820380516001836020036101000a031916815260200191505b50965050505050505060405180910390a39695505050505050565b60045460ff16156110305733301461102b5760405162461bcd60e51b815260040180806020018281038252603881526020018061171e6038913960400191505060405180910390fd5b611087565b6001546001600160a01b031633146110795760405162461bcd60e51b815260040180806020018281038252603b8152602001806115ef603b913960400191505060405180910390fd5b6004805460ff191660011790555b600280546001600160a01b0319166001600160a01b0383811691909117918290556040519116907f69d78e38a01985fbb1462961809b4b2d65531bc93b2b94037f3334b82ca4a75690600090a250565b6001546001600160a01b031633146111205760405162461bcd60e51b81526004018080602001828103825260378152602001806115516037913960400191505060405180910390fd5b6000858585858560405160200180866001600160a01b031681526020018581526020018060200180602001848152602001838103835286818151815260200191508051906020019080838360005b8381101561118657818101518382015260200161116e565b50505050905090810190601f1680156111b35780820380516001836020036101000a031916815260200191505b50838103825285518152855160209182019187019080838360005b838110156111e65781810151838201526020016111ce565b50505050905090810190601f1680156112135780820380516001836020036101000a031916815260200191505b5097505050505050505060405160208183030381529060405280519060200120905060006005600083815260200190815260200160002060006101000a81548160ff021916908315150217905550856001600160a01b0316817f2fffc091a501fd91bfbff27141450d3acb40fb8e6d8382b243ec7a812a3aaf8787878787604051808581526020018060200180602001848152602001838103835286818151815260200191508051906020019080838360005b838110156112de5781810151838201526020016112c6565b50505050905090810190601f16801561130b5780820380516001836020036101000a031916815260200191505b50838103825285518152855160209182019187019080838360005b8381101561133e578181015183820152602001611326565b50505050905090810190601f16801561136b5780820380516001836020036101000a031916815260200191505b50965050505050505060405180910390a3505050505050565b60035481565b60045460ff1681565b4290565b62278d0081565b612a3081565b6212750081565b3330146113e95760405162461bcd60e51b81526004018080602001828103825260318152602001806118126031913960400191505060405180910390fd5b612a3081101561142a5760405162461bcd60e51b81526004018080602001828103825260348152602001806115bb6034913960400191505060405180910390fd5b62278d0081111561146c5760405162461bcd60e51b815260040180806020018281038252603881526020018061162a6038913960400191505060405180910390fd5b600381905560405181907f948b1f6a42ee138b7e34058ba85a37f716d55ff25ff05a763f15bed6a04c8d2c90600090a250565b60056020526000908152604090205460ff1681565b6001546001600160a01b031681565b80820182811015611512576040805162461bcd60e51b815260206004820152601460248201527364732d6d6174682d6164642d6f766572666c6f7760601b604482015290519081900360640190fd5b9291505056fe54696d656c6f636b3a3a657865637574655472616e73616374696f6e3a2043616c6c206d75737420636f6d652066726f6d2061646d696e2e54696d656c6f636b3a3a63616e63656c5472616e73616374696f6e3a2043616c6c206d75737420636f6d652066726f6d2061646d696e2e54696d656c6f636b3a3a657865637574655472616e73616374696f6e3a205472616e73616374696f6e206973207374616c652e54696d656c6f636b3a3a73657444656c61793a2044656c6179206d75737420657863656564206d696e696d756d2064656c61792e54696d656c6f636b3a3a73657450656e64696e6741646d696e3a2046697273742063616c6c206d75737420636f6d652066726f6d2061646d696e2e54696d656c6f636b3a3a73657444656c61793a2044656c6179206d757374206e6f7420657863656564206d6178696d756d2064656c61792e54696d656c6f636b3a3a657865637574655472616e73616374696f6e3a205472616e73616374696f6e20686173206e6f74206265656e207175657565642e54696d656c6f636b3a3a61636365707441646d696e3a2043616c6c206d75737420636f6d652066726f6d2070656e64696e6741646d696e2e54696d656c6f636b3a3a657865637574655472616e73616374696f6e3a205472616e73616374696f6e20686173206e6f74207375727061737365642074696d65206c6f636b2e54696d656c6f636b3a3a73657450656e64696e6741646d696e3a2043616c6c206d75737420636f6d652066726f6d2054696d656c6f636b2e54696d656c6f636b3a3a71756575655472616e73616374696f6e3a2043616c6c206d75737420636f6d652066726f6d2061646d696e2e54696d656c6f636b3a3a657865637574655472616e73616374696f6e3a205472616e73616374696f6e20657865637574696f6e2072657665727465642e54696d656c6f636b3a3a71756575655472616e73616374696f6e3a20457374696d6174656420657865637574696f6e20626c6f636b206d75737420736174697366792064656c61792e54696d656c6f636b3a3a73657444656c61793a2043616c6c206d75737420636f6d652066726f6d2054696d656c6f636b2ea2646970667358221220eadb3f043a20c7438e9d28554ecdd6fe1c0a2252a2e876abd21de0045a51996b64736f6c634300060c003354696d656c6f636b3a3a636f6e7374727563746f723a2044656c6179206d757374206e6f7420657863656564206d6178696d756d2064656c61792e54696d656c6f636b3a3a636f6e7374727563746f723a2044656c6179206d75737420657863656564206d696e696d756d2064656c61792e",
  "immutableReferences": {},
  "source": "// SPDX-License-Identifier: MIT\n\npragma solidity 0.6.12;\n\nimport \"@openzeppelin/contracts/utils/ReentrancyGuard.sol\";\n\nimport \"../Swap/libraries/SafeMath.sol\";\n\ncontract Timelock is ReentrancyGuard {\n    using SafeMath for uint;\n\n    event NewAdmin(address indexed newAdmin);\n    event NewPendingAdmin(address indexed newPendingAdmin);\n    event NewDelay(uint indexed newDelay);\n    event CancelTransaction(bytes32 indexed txHash, address indexed target, uint value, string signature,  bytes data, uint eta);\n    event ExecuteTransaction(bytes32 indexed txHash, address indexed target, uint value, string signature,  bytes data, uint eta);\n    event QueueTransaction(bytes32 indexed txHash, address indexed target, uint value, string signature, bytes data, uint eta);\n\n    uint public constant GRACE_PERIOD = 14 days;\n    uint public constant MINIMUM_DELAY = 3 hours;\n    uint public constant MAXIMUM_DELAY = 30 days;\n\n    address public admin;\n    address public pendingAdmin;\n    uint public delay;\n    bool public admin_initialized;\n\n    mapping (bytes32 => bool) public queuedTransactions;\n\n\n    constructor(address admin_, uint delay_) public {\n        require(delay_ >= MINIMUM_DELAY, \"Timelock::constructor: Delay must exceed minimum delay.\");\n        require(delay_ <= MAXIMUM_DELAY, \"Timelock::constructor: Delay must not exceed maximum delay.\");\n\n        admin = admin_;\n        delay = delay_;\n        admin_initialized = false;\n    }\n\n    // XXX: function() external payable { }\n    receive() external payable { }\n\n    function setDelay(uint256 delay_) external {\n        require(msg.sender == address(this), \"Timelock::setDelay: Call must come from Timelock.\");\n        require(delay_ >= MINIMUM_DELAY, \"Timelock::setDelay: Delay must exceed minimum delay.\");\n        require(delay_ <= MAXIMUM_DELAY, \"Timelock::setDelay: Delay must not exceed maximum delay.\");\n        delay = delay_;\n\n        emit NewDelay(delay);\n    }\n\n    function acceptAdmin() external {\n        require(msg.sender == pendingAdmin, \"Timelock::acceptAdmin: Call must come from pendingAdmin.\");\n        admin = msg.sender;\n        pendingAdmin = address(0);\n\n        emit NewAdmin(admin);\n    }\n\n    function setPendingAdmin(address pendingAdmin_) external {\n        // allows one time setting of admin for deployment purposes\n        if (admin_initialized) {\n            require(msg.sender == address(this), \"Timelock::setPendingAdmin: Call must come from Timelock.\");\n        } else {\n            require(msg.sender == admin, \"Timelock::setPendingAdmin: First call must come from admin.\");\n            admin_initialized = true;\n        }\n        pendingAdmin = pendingAdmin_;\n\n        emit NewPendingAdmin(pendingAdmin);\n    }\n\n    function queueTransaction(address target, uint value, string memory signature, bytes memory data, uint eta) external returns (bytes32) {\n        require(msg.sender == admin, \"Timelock::queueTransaction: Call must come from admin.\");\n        require(eta >= getBlockTimestamp().add(delay), \"Timelock::queueTransaction: Estimated execution block must satisfy delay.\");\n\n        bytes32 txHash = keccak256(abi.encode(target, value, signature, data, eta));\n        queuedTransactions[txHash] = true;\n\n        emit QueueTransaction(txHash, target, value, signature, data, eta);\n        return txHash;\n    }\n\n    function cancelTransaction(address target, uint value, string memory signature, bytes memory data, uint eta) external {\n        require(msg.sender == admin, \"Timelock::cancelTransaction: Call must come from admin.\");\n\n        bytes32 txHash = keccak256(abi.encode(target, value, signature, data, eta));\n        queuedTransactions[txHash] = false;\n\n        emit CancelTransaction(txHash, target, value, signature, data, eta);\n    }\n\n    function executeTransaction(address target, uint value, string memory signature, bytes memory data, uint eta) external payable nonReentrant returns (bytes memory) {\n        require(msg.sender == admin, \"Timelock::executeTransaction: Call must come from admin.\");\n\n        bytes32 txHash = keccak256(abi.encode(target, value, signature, data, eta));\n        require(queuedTransactions[txHash], \"Timelock::executeTransaction: Transaction has not been queued.\");\n        require(getBlockTimestamp() >= eta, \"Timelock::executeTransaction: Transaction has not surpassed time lock.\");\n        require(getBlockTimestamp() <= eta.add(GRACE_PERIOD), \"Timelock::executeTransaction: Transaction is stale.\");\n\n        queuedTransactions[txHash] = false;\n\n        bytes memory callData;\n\n        if (bytes(signature).length == 0) {\n            callData = data;\n        } else {\n            callData = abi.encodePacked(bytes4(keccak256(bytes(signature))), data);\n        }\n\n        // solium-disable-next-line security/no-call-value\n        (bool success, bytes memory returnData) = target.call{value: value}(callData);\n        require(success, \"Timelock::executeTransaction: Transaction execution reverted.\");\n\n        emit ExecuteTransaction(txHash, target, value, signature, data, eta);\n\n        return returnData;\n    }\n\n    function getBlockTimestamp() public view returns (uint) {\n        // solium-disable-next-line security/no-block-members\n        return block.timestamp;\n    }\n}",
  "sourcePath": "/Users/stefan/Work/Blockchain/GlideFinance/glide-contracts/contracts/Farm/Timelock.sol",
  "compiler": {
    "name": "solc",
    "version": "0.6.12+commit.27d51765.Emscripten.clang"
  },
  "schemaVersion": "3.4.4",
  "updatedAt": "2022-02-07T21:46:27.759Z",
  "networkType": "ethereum",
  "devdoc": {
    "kind": "dev",
    "methods": {},
    "version": 1
  },
  "userdoc": {
    "kind": "user",
    "methods": {},
    "version": 1
  }
}